S00F00006E6F6465746573742E7333377F
S3150800400058710020A9260108092601080D2601086D
S31508004010A70A0A0100410008041303AC002554004E
S315080040200000000000000000000000000000000082
S315080040300000000000000000000000000000000072
S315080040400000000000000000FFFFFFFFFFFFFFFF6A
S31508004050FFFFFFFF00E0030800000000000000006B
S31508004060FFFFFFFFFFFFFFFFFF000000000000004B
S315080040700000000000000000000000000000000032
S31508004080F07F002000000000EE7F0020EE7F002079
S3150800409058710020AC4D010860290108F867002016
S311080040A0701700200000040800800020B3
S3150800410058710020A9260108092601080D2601086C
S315080041101526010811260108192601089026010806
S315080041209026010890260108902601089026010885
S315080041301D26010890260108902601085B930008B1
S315080041404F0E0108902601088F9D00089026010849
S31508004150D9960008419C0008902601089026010877
S31508004160C9F50008F1B00008F5CD0008DDD3000850
S315080041709026010823D700086BD700089026010867
S31508004180B3560008739C000890260108902601087B
S3150800419070472DE9F047DFF8EC570FF29C010FF254
S315080041A03C5A0FF22858DFF8E0970446287800F0C2
S315080041B0B1FD0027CEA603E000F03AFC7F1CBFB293
S315080041C0206800EB07114A68287813001AD04A4578
S315080041D009D14A69130018BF4A45EFD00A68414613
S315080041E000F098FDEAE78B680A68514600F092FDF0
S315080041F0206800EB0710C2682878002ADCD00FF286
S31508004200E441EDE70FF2AC0100F084FD28780FF2E7
S31508004210CC0100F07FFD28780FF2F00100F07AFD5E
S3150800422028780FF2141100F075FD28783146BDE89C
S31508004230F04700F06FBD0000434F4D4D414E4420FE
S315080042405B504152414D45544552535D205B2D20EC
S315080042504445534352495054494F4E5D0D0A202058
S3150800426077686572653A20623D6275666665722C86
S315080042702073313D696E74385F742C2073323D6942
S315080042806E7431365F742C2075313D75696E7438DD
S315080042905F742C2075323D75696E7431365F742CE7
S315080042A02075343D75696E7433325F740D0A0D0AD4
S315080042B00000000020202120202D20526563616C1B
S315080042C06C73207468652070726576696F757320E3
S315080042D0636F6D6D616E640D0A00000020205B74CB
S315080042E061625D202D20417474656D70747320744D
S315080042F06F2074616220636F6D706C6574652063EE
S315080043006F6D6D616E640D0A00000000202020208C
S315080043102A2A204E4F54453A20616C6C20696E70EB
S3150800432075742076616C7565732061726520696E97
S3150800433020686578210D0A00202020202A2A20439B
S315080043406F6D6D616E647320617265204E4F5420E7
S31508004350636173652073656E7369746976650D0AA2
S3150800436000000000A0F141011A293CBF2030C0B26C
S3150800437070472DE9F84F05460024A8680668F6B286
S31508004380304600F031FD5FFA80F8304600F014FD43
S31508004390A1468246002606E01AF80600FFF7E2FF65
S315080043A00AF80600761C4645F6DB42460FF2A801D7
S315080043B0504600F09BFD40B94FF0010905E03878FA
S315080043C00FF29C015A4600F0A5FC296820010A183C
S315080043D0526813003DD0DFF8B065641CB242A4B23F
S315080043E0F3D151F800B0DFF89C75B9F1000FE6D1AA
S315080043F0584600F08FFD4045E7D14246514658469B
S3150800440000F068FD0028E0D10FF2B4280FF2D42995
S315080044100FF2540A04E0414600F07CFC641CA4B286
S31508004420286800EB041041680A0018BFB14210D092
S31508004430836802683878514600F06CFC286800EBFF
S315080044400410C2683878002AE5D0494600F062FCB4
S31508004450E4E7BDE8F18F00006D6F64756C65730065
S3150800446025700D0A00000000257020257000000048
S3150800447070B5044688B0A068016801B10121DFF86B
S315080044800C552970406800B10120DFF804653070CA
S315080044900FF2600000F059FFA068C16801B1012160
S315080044A0DFF8F0241170006900B10120DFF8E81484
S315080044B0087008782B78079004F111010FF25C0058
S315080044C0069010780FF25C0205900FF260000490D7
S315080044D0012003907BA00290307801900FF25400DF
S315080044E000900FF2580000F030FF08B070BD0000D1
S315080044F00D0A00005475726E696E67206F66662035
S3150800450074616773206E6F74207965742073757093
S31508004510706F727465640D0A000000007465787423
S3150800452000000000686561646572000064656C6976
S315080045306D000000636F6D6D616E64007B264E2012
S31508004540566572626F73697479206F7074696F6EDD
S31508004550732073657420746F3A0D0A2674750D0AF4
S315080045602674750D0A2674750D0A2674750D0A26A5
S3150800457074757D0D0A000000DFF82014007C51F8E0
S315080045802020DFF800040FF20801007800F0C2BB13
S315080045904349204572726F723A2025700D0A000051
S315080045A038B5DFF8E043207845A500F03DFA2078D5
S315080045B00FF2340100F0AEFB00F035FA20780FF266
S315080045C04C0100F0A7FB20783FA100F0A3FB207860
S315080045D00FF2440100F09EFB20780FF24801BDE877
S315080045E0344000F097BB0000456D626572204E6F3F
S315080045F064652054657374204170706C69636174D6
S31508004600696F6E2076312E30000000004465632005
S31508004610323020323031370031323A33363A313996
S31508004620000000000D0A0D0A000000002DE9F24FF7
S31508004630044682B0256BDFF84CB39046002705E0A8
S315080046401FA100F067FB7F1CBFB210356868A8B3CE
S31508004650D5F80090DDF808A000260DE01AF8010B41
S31508004660FFF780FE009019F8010BFFF77BFE009913
S31508004670C9B28142E7D1761CB0B24045EED3206874
S31508004680C14E00EB07114B680A689BF80000B3425D
S3150800469004D10FF2380100F03DFBD4E78B680FF226
S315080046A03C0100F037FB206800EB0710C2689BF856
S315080046B00000002AC4D00FF22C01ECE7BDE8F78F02
S315080046C00D0A0000746167002C2000002D2D2D2D89
S315080046D0202570202D2D2D2D0D0A00002020257057
S315080046E020257000202D2025700D0A002DE9F043A5
S315080046F09BB00EA80FF2A821342200F057FE4FF007
S3150800470000098DF80190A52000F08BFE00F0D4FE7C
S31508004710012300220F21002001F038F8050006D0F9
S31508004720012300220A21002001F030F80546012362
S3150800473000220F21012001F029F8060006D00123E6
S3150800474000220A21012001F021F806460123002251
S315080047500F21022001F01AF85FEA000806D00123AB
S3150800476000220A21022001F011F8804601F020FA01
S31508004770844C5DB1002E68D0B8F1000F6BD04FF4B1
S31508004780FD710FF2502001F019FA04E0002E18BF4F
S31508004790B8F1000F62D084F80090201D01F010FBDC
S315080047A0201DFFF7FDFE0FF23C2520780FF23C286E
S315080047B000F03AF920780FF28C2100F0ABFA6EA6D9
S315080047C000F035F9201D01F027FD00F02CF92078BE
S315080047D00FF27C2100F09EFA00F029F9201D01F065
S315080047E038FD00F020F920780FF2702100F092FAD7
S315080047F000F01DF9201D01F0A8FD00F014F920783D
S315080048000FF2642100F086FA00F011F9201D02F07B
S31508004810E9FF00F008F920780FF2582100F07AFA3B
S3150800482000F005F9201D02F0F8FF00F0FCF82078EA
S315080048300FF2C01100F06EFA00F0F9F8201D03F02F
S315080048404BFE4EA54EA601AF3FE0B8F1000F05D0CE
S3150800485001202070A1E70220FBE725702078FF28B9
S315080048609BD100256946284600F0D0FF38B99DF847
S3150800487000000D2818BF0A2818BF2A28EDD06D1C7D
S31508004880EDB2032DEEDBE9E78DF800009DF8001088
S315080048907A5C481C0A2A18BF0D2A18BF002AF3D1C9
S315080048A00D227A548DF8000001A99DF80020201DDC
S315080048B001F092FA9DF8002001A90EA800F0C0FAAE
S315080048C09DF8009000208DF8010000F0A8F82078E7
S315080048D00DF10103322201A900F0E9FF0028D3D027
S315080048E000F09BFD00F050FF04F0BEF803F05AFA02
S315080048F09DF8010020B39DF8011001A8084410F89E
S31508004900010C09281CD100F092F89DF80100401E00
S315080049108DF8010001A99DF80120201DFFF786FEEC
S315080049209DF801100020785400F079F8002004E082
S3150800493000F070F89DF80000401C00F063F8F7D30B
S315080049409DF804002128C2D100F071F84A460EA944
S3150800495001A800F075FAA9F101008DF8010000F030
S315080049605EF8002000F04EF8B1D200F053F89DF83A
S315080049700000401CF6E700005D0D0A0025630000F4
S315080049800D0A00009871002091410008BE720020AF
S31508004990BF720020C0720020C17200206872002019
S315080049A00D000000000000000000000000000000EC
S315080049B000000000000000000000000000000000E9
S315080049C000000000000000000000000000000000D9
S315080049D000000000706C6174666F726D74657374A4
S315080049E02E6300005B494E49542000000D0A3E2004
S315080049F000000000736574506572546573745478CA
S31508004A00000000008DF800009DF801109DF80000D8
S31508004A10884270473A5C2078294600F07BB94146BF
S31508004A20207800F077B92078294600F073B9207805
S31508004A30314600F06FB980B504F0BCF8BDE8024015
S31508004A40002053E66372617368696E666F00000042
S31508004A507265736574737472696E6700696E6974DA
S31508004A60546F6B656E730000696E69745261646990
S31508004A706F00000073656564506E72670000000081
S31508004A8070B51346104402E0A4192C705B1EDCB204
S31508004A904CB101F00F060909451E0A2E2846B4BF77
S31508004AA030243724F0E7104470BDF0B5002341B137
S31508004AB0002806D501232D21B0F1004F117018BF2B
S31508004AC04042002100240FF2882555F8247000265C
S31508004AD001E0C01B761CB842FBD2F7B20FB90F0033
S31508004AE005D0DBB206F13001D1545B1C0121641CF0
S31508004AF0092CEADBDBB23030D054581CC0B2F0BD0A
S31508004B002DE9F24F80468AB007A80190154603A8FA
S31508004B109B4603AE002700248DF800000BE0012415
S31508004B2005460198864205D300F0DCF800284FD1E7
S31508004B3000F0CEF86D1C9DF800002978301A0A009E
S31508004B400BD0252903D014B906F8011BE9E7002C78
S31508004B5014BF00246D1C29780A0000F0AF80B1F15B
S31508004B60250216D00B3A092A40F28980283A7DD0C8
S31508004B700A3A12D0521E41D0521E5FD0083A5DD072
S31508004B80121F3ED0D21E3CD0921E57D0D21E6DD0D8
S31508004B90C7E7252006F8010BC3E7DBF800000290FB
S31508004BA04FF0000A0BF1040000F1040BD0F8009056
S31508004BB0CA45B6D2029810F80A1002223046FFF704
S31508004BC05FFF06460198864205D300F08BF8002859
S31508004BD07AD100F07DF8A9F1010082453CBF20207A
S31508004BE006F8010B0198864205D300F07BF80028E9
S31508004BF06AD100F06DF80AF1010AD9E75BF8040BEF
S31508004C00C8E75BF8049B00F067F800285CD100F061
S31508004C105FF84FF0000A01E00AF1010A5FFA8AFA22
S31508004C2019F80A000028F7D19DF828005246494687
S31508004C30C047002848D15744FFB272E76C290AD109
S31508004C406A785BF8040B752A0EBF00210121642AD5
S31508004C5007D16D1C05E075295BF8040B0CBF002114
S31508004C6001213246FFF721FF36185AE75BF8041B85
S31508004C700222C9B23046FFF703FF064651E76A78B3
S31508004C800124782A18BF582AF8D16D1C0024681EFA
S31508004C90322904D15BF8040B042281B2EAE73429ED
S31508004CA07FF43DAF5BF8049B04224FEA1941304676
S31508004CB0FFF7E6FE04221FFA89F1DCE700F00CF89C
S31508004CC010B9F019C0B200E000200BB0BDE8F08FB3
S31508004CD0F719FFB203AE704706469DF82800F2B2F0
S31508004CE003A940479DF80000361A9DF82800F2B23D
S31508004CF003A9404713A10DE00CB438B5044604AA2D
S31508004D0000F010F805462046FFF7F4FF284632BCA7
S31508004D105DF80CFB0CB480B502AA00F003F802BCDF
S31508004D205DF80CFB10B5084B1B5C0024012B07D162
S31508004D3013460A4601460548FFF7E2FE00B9012474
S31508004D40204610BD0D0A0000985B00086F5A00083F
S31508004D5000CA9A3B00E1F5058096980040420F008C
S31508004D60A086010010270000E80300006400000088
S31508004D700A000000DFF8B0104A69904203D3C969F7
S31508004D80884200F04EB800207047002818BFFFF789
S31508004D90F1BF01207047010001D100207047DFF8FC
S31508004DA08810496901EB4000801E704780B5FFF7FF
S31508004DB0F2FFBDE80240E8E710B5040012D0FFF79D
S31508004DC0F5FF18B940F2394100F027F82046FFF7F9
S31508004DD0E2FF38B10188090402D5D0F80A0010BDEF
S31508004DE0083010BD002010BD10B5010013D0FFF724
S31508004DF0D2FF0446FFF7C9FF18B940F2534100F045
S31508004E000CF844B12088000401D5208910BD6088BB
S31508004E10C0F30C0010BD002010BD0FF2100000F00A
S31508004E20CDBE8041C00F7047507900206275666616
S31508004E3065722D6D616E6167656D656E742E6300B2
S31508004E40814233D210441144401E491E10E011F825
S31508004E50013900F80139121F11F8013900F8013932
S31508004E6011F8013900F8013911F8013900F801394A
S31508004E7092B2042AEBDA93B2002B1EBF11F801395D
S31508004E8000F80139521EF6D1704711F8013B00F8B7
S31508004E90013B121F11F8013B00F8013B11F8013BD9
S31508004EA000F8013B11F8013B00F8013B92B2042AD5
S31508004EB0EBDA93B2002B1EBF11F8013B00F8013B59
S31508004EC0521EF6D17047130003D00A46194604F05D
S31508004ED03BB8704710B500E0521E93B223B100F0FC
S31508004EE012F8F9D0181B10BD002010BD10B500E04F
S31508004EF0521E93B22BB100F006F8F9D0181B40B237
S31508004F0010BD002010BD10F8013B11F8014BA3425B
S31508004F107047000000F10103810704D010F8011B57
S31508004F2089B18107FAD10268B2F10131914311F0D2
S31508004F30803F04BF50F8042FF6E710F8011B11B1A3
S31508004F4010F8011BFBE7C01A7047000038B5044685
S31508004F50611D206A2368451A2079EAB2984708B184
S31508004F60002032BD00F018F8601D2062012032BD15
S31508004F7038B50446002500E06D1CEDB2485D0028F2
S31508004F80FAD1207923682A46984718B900F004F818
S31508004F90012032BD002032BD94F82900281884F873
S31508004FA0290070472DE9F04F804608F1200785B0A3
S31508004FB008F1050038600E4608F11500786091463C
S31508004FC000207872DFF8B44313E018B108F1050041
S31508004FD03860164625B17D2000F0A0F901F8010DCC
S31508004FE038687968884203D300F096F9002862D0B9
S31508004FF0761C3078010000F075812528617818BF85
S31508005000262809D07B281CBF7D28232802D1002901
S31508005010E6D0E1E7A178FAE716F8012F252A18BFA6
S31508005020262A04D100F07AF901F8012DD8E72628B6
S315080050300BD151B101256E2A18BF4E2A06D000F0B1
S315080050406DF97B2001F8010D00E00025317800207C
S315080050504E2906D0542923D06E2902D074291FD090
S3150800506032E0207859F804BB0028B9D035B1386841
S315080050707B210170811C39602821417000F04CF9B0
S31508005080002818D000F03BF9002814D0002DA7D02E
S31508005090386829210170811C39607D2141709FE79C
S315080050A000F038F9002806D000F029F9002802D0C7
S315080050B000F032F9002800F07C8000F02FF93A2041
S315080050C001F8010D761C0120317896F801E0A1F16E
S315080050D03002D2B2911E05293CD2BEF1640F18BF28
S315080050E0BEF1750F36D159F804CB002301211FFAFA
S315080050F08CFCBEF1640FE24609D15FEA0C4E06D578
S315080051006FEA0C0C0CF1010C01231FFA8CFCBCF1A4
S31508005110000F0AD04FF00A0E9CFBFEFC5B1C1FFA20
S315080051208CFCBCF1000FF5D10BE05B1C09E0D7F84D
S3150800513000E00EF1010EC7F800E04FF0200C0EF863
S3150800514001CD9C460CF101035FFA8CFC9445EEDB1D
S31508005150761C00E000213378721E002B00F0BE801A
S31508005160322B18BF342B00F09580482B06D0582BCD
S315080051700FD0632B0FD0642B1FD0682B00F07F80D5
S315080051806C2B52D0702B18BF732B0BD0752B14D0E9
S31508005190782B76D019E73868411C396059F8041B12
S315080051A0017017E700F0B6F818B100F0A8F8002863
S315080051B0F7D1002005B0BDE8F08F002919BF1FFA06
S315080051C08AFA514659F8041B89B229B900F0A6F89B
S315080051D0302001F8010DFDE60020642B0DD10A04EC
S315080051E00BD53B685B1C3B602D22B1F5004F03F8DD
S315080051F0012D02D0494289B259B10A2291FBF2F235
S315080052000A23C0B203FB12110DF80010401C91B21C
S31508005210F2E70146481EC9B20029DCD0C0B23A6896
S315080052201DF8001000F065F8F3E759F8041B00298B
S31508005230CCD0002000290AD53B685B1C3B602D2298
S31508005240B1F1004F03F8012D01D0494259B10A22A4
S31508005250B1FBF2F20A2303FB121102ABC0B21954D6
S31508005260401C1146F2E70146481EC9B2002910D073
S3150800527002A9C0B23A68095C00F03BF8F3E700F00F
S3150800528041F8022259F8041B3868C9B2FFF7F8FB3F
S3150800529038609FE616F8010F682818BF48280BD112
S315080052A000F030F816F8011C386832290AD159F886
S315080052B0041B042289B2E9E7782818BF5828F1D0D8
S315080052C0761E87E659F804BB04224FEA1B41FFF70E
S315080052D0D7FB386004221FFA8BF1D7E701007FF469
S315080052E074AE76E600F018F800283FF462AF787AD4
S315080052F060E7521C3A60303102F8011D7047594682
S31508005300404635E6386830210170811C39607821BD
S315080053104170704759F804BB404617E63968491C7E
S31508005320396070470EB410B5154909788BB000245A
S3150800533009B9002008E000F019F801466846FFF7A9
S3150800534031FE00B9012420460CE00EB410B58BB02E
S3150800535000F00CF8002401466846FFF723FE00B962
S31508005360012420460BB010BC5DF810FB05490091DE
S315080053700DAA054909788DF804107047BF720020F8
S31508005380BE7200206F5A00089871002062B38B071E
S3150800539008D0521E11F8013B00F8013B00F02480AA
S315080053A08B07F6D1830740F0208000BF103A07D359
S315080053B030B4B1E83810103AA0E83810F9D230BC49
S315080053C0530724BFB1E80810A0E8081044BF51F8F5
S315080053D0043B40F8043BD20724BF31F8022B20F8DF
S315080053E0022B44BF0B7803707047083A07D3B1E81D
S315080053F00810083A40F8043B40F804CBF7D25307A4
S31508005400E4E7000003F08DBE2248012181604EF6D4
S31508005410BE2141600121016070471F4901200860D3
S315080054207047A52805D11B484DF6AD61416002219C
S31508005430016070471748006810F0010018BF012086
S31508005440704780B51549164A102008601549164850
S31508005450007803000BD003280CBF00200120106041
S3150800546040F651000860002004F0D4F806E0022057
S3150800547010604FF40060086003F017FE0B48072120
S31508005480016000210164102009490860002002BD5E
S3150800549000000000006000400860004080E100E075
S315080054A0080000400C600040CD7F002014A000409A
S315080054B000E100E07047704780B504F0F3F8A049B2
S315080054C00A7842B99F4A0023536053709370A52304
S315080054D0137001220A7004F0EBF800F02CF8002093
S315080054E002BD38B504F0DEF8954C2178002502296E
S315080054F012BF01250321217004F0DAF8D5B99248C4
S315080055000168C90714D591490A6822F440620A60FD
S31508005510016849084900016001680902FCD48C4801
S31508005520006810B1642004F066F88A490020086013
S315080055300120207031BD38B504F0B4F8804D04461A
S315080055402878012823D18448016841F080710160D8
S315080055500120824908600020814904F069F88149E0
S31508005560814A0220086000208049086080488149F5
S31508005570016001211160744A7F49116040F20141BE
S3150800558001654FF480307D49086002202870204666
S31508005590BDE8324004F08CB869480078022808D182
S315080055A06B48006828B16C480068000E00F00100DE
S315080055B0704700207047D12202704170090A817035
S315080055C06F490A78C270501C0870042070472DE98C
S315080055D0F14F82B0884604F06FF808F10505EDB280
S315080055E0002600904FF6FF7A17E0029908445146C4
S315080055F010F8027C384604F081F882465E46FFB20F
S315080056004FEAC90007FA00F0044309F10109B9F1A4
S31508005610040F17DB4FF060400460FFF7BDFFF6B2DA
S3150800562080B3AE422EDA04F047F80099401A80B2E9
S31508005630B0F5FA7F26D84FF0604000680128ECD113
S315080056400024A146F0B210B95B270126D7E706F178
S31508005650010B0128F6B208BF4746CFD0E91E88429B
S3150800566008BF5746CAD0A91E884208BF4FEA1A275C
S31508005670C4D0691E884208BF5D27BFD0A842B4D1EE
S315080056800027BCE74FF4C87003F0B5FFAE420CBF65
S3150800569000200120BDE8FE8F10B50C460246217891
S315080056A00020052924BF1046FFF791FF0421217029
S315080056B010BD2DE9F843234C6578002D3ED003F044
S315080056C0FBFF2F46202FDFF8BC80C4F804808146F4
S315080056D0B4BF3E462026A6706078C0B103F0ECFF42
S315080056E0A0EB090080B2B0F5FA7F10D8A0780028A0
S315080056F0F2D1BF1BF8B200286770EDD06068FFB220
S315080057003018202F6060B4BF3E462026E3E7FFB27C
S31508005710002F04BF607800280DD1A07858B908EB8F
S315080057200500801E03F0FEFF4146AA1EBDE8F843A9
S31508005730D2B204F0ABB800206070A070BDE8F18367
S31508005740D07F0020F07F0020800E00E0001000E0EF
S3150800575034000040100004E0FCED00E0040004E022
S3150800576020A10700F00004E0000E00E0040304E0B6
S31508005770B00F00E055CEACC50D00010000E100E019
S31508005780D17F0020E8770020704700002DE9F04718
S315080057900446884691469A4600F0EEF9002801BF6D
S315080057A025460FF2F430405D012821D1DFF8BC63AD
S315080057B056F8257003F076FF0021B9803980798084
S315080057C003F076FF06EB8500066903F06BFF002100
S315080057D0B18031807180DFF89823515503F068FF56
S315080057E053464A4641462046BDE8F04704F0E5B828
S315080057F02120BDE8F08710B5044604F0D1F9DFF89A
S315080058006C0300EB84000069808810BD2DE9F8431D
S3150800581081464C46DFF8540300EB84008846056948
S31508005820484600F0A9F908B101203EE0DFF84063D8
S31508005830305D06EB440760B1B8886988884208D1AC
S3150800584003F030FF355D0021315503F031FF28465E
S315080058502BE0484604F0A4F9A88800281EBF0FF2DA
S31508005860443030F81490B9F1000F1DD003F01AFF38
S3150800587069882944897988F800104FF6FF7869887D
S31508005880491C91FBF9F209FB12116980A988414468
S31508005890A98003F00DFF305D20B1B888404504BFEC
S315080058A02888B880002000E02620BDE8F283F8B5F5
S315080058B01F46044638780D460100164601D0B04208
S315080058C008D30020287005E03878411C39709DF807
S315080058D00010295469462046FFF798FF010056D163
S315080058E09DF800008028F5DA39780A0003D10A28DD
S315080058F018BF0028EED0B14207D3002038709DF8B3
S3150800590000000D2818BF0028E4D09DF800000828DC
S3150800591018BF7F280CD138780100DBD0401E3870BC
S315080059200021C0B2295490A1204600F057F8D1E7CB
S315080059303878801C8642BCBF0D208DF800009DF883
S315080059400010204600F038F89DF8000061381A2843
S3150800595004D29DF8000020388DF800009DF800005C
S315080059600D2818BF0A28AFD13978002068549DF849
S3150800597000000D2805D10A21204600F01DF8002652
S3150800598003E00D21204600F017F83E700020F2BD16
S3150800599070B582B0044600200D4616468DF8000004
S315080059A001E0FFF73AFD6B46324629462046FFF7E7
S315080059B07EFF0028F5D176BD02B50122694600F0C2
S315080059C056F802BD80880FF2C81333F81110891AE9
S315080059D0884201DA01207047002070472DE9F04718
S315080059E0824656460FF2B010805D01280D463BD11F
S315080059F05E480FF2B81850F826700FF2A019002466
S31508005A0019E003F04FFEB98801B9012439F81610D8
S31508005A100A000DD03B882A783B449A713A88521C72
S31508005A2092FBF1F301FB13213980B988491CB9802F
S31508005A3003F03EFE6D1C287888B100225146384690
S31508005A40FFF7C0FF0028DCD11CB1504603F0C5FFA4
S31508005A50002418F806000028EFD1222005E0504659
S31508005A6003F0BBFF002000E00120BDE8F0872DE928
S31508005A70F84F8046C1460FF2201010F80900012899
S31508005A800D4616463ED139480FF2201B50F82940DC
S31508005A900FF2081030F819A0002718E003F002FEEC
S31508005AA0A18801B90127BAF1000F0DD022882978FB
S31508005AB0A21891712188491C91FBFAF20AFB12116E
S31508005AC02180A188491CA18003F0F2FD6D1C304697
S31508005AD0461EC0B288B1002241462046FFF772FF33
S31508005AE00028DBD11FB1404603F077FF00271BF8DB
S31508005AF009000028EFD1222005E0404603F06DFF9B
S31508005B00002000E00120BDE8F28F80B501460FF2C3
S31508005B108802525C012A05D1144A52F821108A8853
S31508005B20002AFCD103F0C4FF002002BD0CB438B52E
S31508005B3004460D4603F087FF04AB2A4621460D4866
S31508005B40FEF7DEFF20460FF25001095C012907D156
S31508005B50064951F82000808810B1204603F03DFF21
S31508005B6032BC00205DF80CFB0820080048720020B3
S31508005B70047D0020639A0008042806DA0FF218014B
S31508005B80095C481E8041C00F70470120704700001D
S31508005B9080008000800080000101010180008000F3
S31508005BA080008000400040004000800001010101A3
S31508005BB0002181F31188704742DE704738B50446E4
S31508005BC00D46FFF72AFC03F06DFD2946204603F033
S31508005BD0BFFD2B4622460FF2D4110120FFF7A6FF80
S31508005BE029462046BDE83440E6E767482DE9F047F0
S31508005BF0664D01682E1D4FF420687165016AB1650E
S31508005C0063490968F165416A3166816A7166C16AE4
S31508005C10B166016BF166806B306796F83400400711
S31508005C204CBFF46BB46B04F024F90022F26484428E
S31508005C30584A014624BFA2F1200AA24527463165E3
S31508005C4005F18C03DFF850C1DFF850E118D3A069DD
S31508005C503064E4697464746DC4F30804062C13D1C3
S31508005C60704511D360450FD200884DF64264A042B4
S31508005C700AD13068586040F201787068986003E08D
S31508005C8000273764776407464548814202D20146B1
S31508005C9000E0091D0846904203D20C68B4F1CD3FD6
S31508005CA0F7D04049081AB0640021002005EB8004AB
S31508005CB0401C0628A167F9D3002003E0C0B205EB13
S31508005CC08004A167974222D252F8041D7145F9D380
S31508005CD06145F7D2CC07F5D5002405EB8409D9F838
S31508005CE07890894502D0641C062CF6D3062CE9D197
S31508005CF0002814BF401E0520E0E7716F002405EB5D
S31508005D008402641CD76F9767052CF8D3196001467F
S31508005D10481EC9B20029F0D1706DC0F308000228E8
S31508005D200AD0032815D0042816D0052817D0062827
S31508005D3018D00C281CD01EE01B480168890748BFEC
S31508005D4040F602181CD40068C00719D540F202585C
S31508005D5016E040F6012813E040F6022810E040F667
S31508005D6003280DE0B8F5206F0AD140F6042807E0AD
S31508005D7040F6052804E018B1242838BF40F607285D
S31508005D804046BDE8F087000004ED00E00000002072
S31508005D9000E300E0587100206029010890410008DE
S31508005DA098000020587100201CA000400D0A5B4195
S31508005DB053534552543A25703A25645D0D0A00003E
S31508005DC00021C173C183002200F124010A70827385
S31508005DD00068C860704700002DE9F74F82B00020C0
S31508005DE08DF801000298041D2430019051E0102E10
S31508005DF03ED100F02FF90120E07202999DF80000CB
S31508005E0000F03AF945E09DF8100020B99DF8010028
S31508005E1005B0BDE8F08F0398401C0390401E00783B
S31508005E208DF800009DF81000401E8DF81000A84659
S31508005E309DF80000672810D29DF800100FF2703008
S31508005E40405C00F0300600F00F08400608D50198BF
S31508005E50407A804504DA012502E07B2838BF1026FF
S31508005E609DF800000A2818BF0D2829D1012028E02E
S31508005E709DF80000232802D10620E07209E0202EB2
S31508005E8007D003208DF800009DF80010029800F056
S31508005E90E5F80398002600250028B4D19DF81000DF
S31508005EA06946FFF7B3FC0028C1D02628AED0029871
S31508005EB0012100F0D3F878208DF80000A8461026B6
S31508005EC000208DF80100E07A0628E2D8DFE800F025
S31508005ED00515599B9B6B0600DBE788E79DF80100D3
S31508005EE00028D6D0207B20B1029821688847002058
S31508005EF020730298FFF764FFCBE7102E1CBF9DF8AE
S31508005F0000005F2800D025B1019800780C28B8DA7F
S31508005F1073E7202E18BF302E40D1019A02991278C5
S31508005F201144002048744FF000090198C7680AE038
S31508005F301AF8010B00F099F81BF8011B814209D0E9
S31508005F4009F101091037786840B30298D7F800A01C
S31508005F5000F1110B9BF800000028E9D19AF800001F
S31508005F600028EDD1A4F81A900198618BC06800EB5F
S31508005F7001108068E0610020A07201990870022073
S31508005F80E07200F067F80DB301992B2008720198AA
S31508005F90C0F8048000F05EF804206EE7029803213A
S31508005FA000F05CF89AE79DF8010018B1029800F035
S31508005FB06FF89EE79DF80000232803D1029800F0A9
S31508005FC067F859E7202E18D004205BE79DF80000F3
S31508005FD02D2818BF2B2808D101990872002001998D
S31508005FE0486000F037F8032047E7222806D140F238
S31508005FF02F110FF2A410FFF7E1FD4AE77B28D2D153
S315080060004FF49E71F5E755B1019801994068497AB0
S3150800601001FB00800421E1720199486039E79DF887
S315080060200010782918BF582906D10199496819B965
S315080060300199102048722CE7032803D0202E18BF98
S31508006040302E01D007201DE7029800F040F80028FE
S31508006050A8D094E70199607A48727047027C1AB909
S315080060600622C273017475E07047A0F141011A292E
S315080060703CBF2030C0B2704738B50C4694F824505F
S31508006080FFF7F3FF61194874681C84F8240031BDD2
S3150800609010B50446206A017831B162290CBF012186
S315080060A00221405C2A2807D1216BE28B01EB021101
S315080060B020464968884706E004202074204661681F
S315080060C08847002020742046BDE8104042E070B59D
S315080060D000F108018A6990F82C600D6A13785478E3
S315080060E02D2E08BF6D42752B07D1342C10D18B7914
S315080060F00E79B3421ED1052118E0732B0FD1312C2E
S3150800610007BF6FF07F037F24114B47F6FF7408E043
S315080061100023312C14BF4FF6FF74FF2401E004213D
S3150800612004E09D42A8BFAC42E1DA0621FFF796FFDC
S31508006130002070BD086840F823508879401C887193
S3150800614090782A281CBF901C8861012070BD000029
S315080061500080FFFFF8B50446206BE18B0FF2380587
S3150800616000EB01100027866805E00220315C2A2929
S3150800617018BF36187F1CA17BF8B2884209D230783E
S315080061806228F2D14FF40F712846FFF717FD012058
S31508006190ECE70020A073F1BD636F6D6D616E642D31
S315080061A0696E7465727072657465722E630000009C
S315080061B00000000000000000002020202020000031
S315080061C000000000000000000000000000000000C1
S315080061D020003030000000000000003000300000D1
S315080061E040414243444546474849000000000000F4
S315080061F0005A5B5C5D5E5F101010101010101010D6
S3150800620010101010101010101010103000000000A0
S31508006210005A5B5C5D5E5F0010B503F093FE40F2CA
S31508006220A174C440E0070BD5064C207803F0A2FE03
S31508006230207803F029FF2078BDE8104004F025B83F
S3150800624010BD00BF987100201F210FF22C00FFF728
S31508006250B5BC10B502F02DFE044602F01FFE02463C
S31508006260234604480FF220010078BDE81040FEF7E7
S3150800627051BD00009871002072657365742D7465B0
S3150800628073742E630000000052455345543A257036
S315080062902D25700D0A00000010B5DFF834440FF202
S315080062A018012078FEF736FD20780FF21C01BDE8AC
S315080062B01040FEF72FBD0000286C6974746C6520C9
S315080062C0656E6469616E00002C20616C6C206461E7
S315080062D0746120726570726573656E746564206199
S315080062E0732062797465206172726179290D0A00DA
S315080062F00178A1F130030A2B0AD3A1F14103062B39
S3150800630038BF373904D3A1F16102062A03D25739B7
S315080063100907090E00E000214078A0F130030A2B96
S3150800632002D2401830380CE0A0F14103062B02D205
S315080063304018373805E0A0F16102062A03D2401852
S315080063405738C0B270470809704710B504F0A8FA64
S3150800635002001AD0DE4C2078042A08BF0FF22C015E
S3150800636008D0062A08BF0FF2700103D0072A04D105
S315080063700FF2A801FEF7CEFC03E00FF2E801FEF7E4
S31508006380C9FC20780FF2101191E710BD68616C53B3
S315080063907461636B496E6974546F6B656E732046DE
S315080063A041494C4544207769746820454D42455219
S315080063B05F454550524F4D5F4D46475F53544143E5
S315080063C04B5F56455253494F4E5F4D49534D4154C5
S315080063D043480D0A0000000068616C537461636BE2
S315080063E0496E6974546F6B656E73204641494C4516
S315080063F044207769746820454D4245525F454550AB
S31508006400524F4D5F4D46475F56455253494F4E5F73
S315080064104D49534D415443480D0A000068616C5379
S315080064207461636B496E6974546F6B656E7320464D
S3150800643041494C4544207769746820454D42455288
S315080064405F454550524F4D5F535441434B5F564548
S315080064505253494F4E5F4D49534D415443480D0AD7
S315080064600000000068616C537461636B496E69745F
S31508006470546F6B656E73204641494C4544207769D5
S31508006480746820456D6265725374617475733A2039
S3150800649025580D0A00000000546F6B656E73206165
S315080064A07265207374696C6C206163746976652003
S315080064B07768656E207573696E67207468697320DE
S315080064C06170706C69636174696F6E2E0D0A0000E5
S315080064D02DE9F04FC1B080687D4F0568FFF7DCFEF7
S315080064E0A8B204F0C3FB0446A8B204F051FA8046E9
S315080064F0A8B204F06CFC8346002C38781ABF4FF615
S31508006500FF7188450FF27C212CD02346AAB20FF2E0
S315080065100C11FEF7FFFB00250FF2AC190FF2AC1AAF
S315080065200AE01DF8062038784946FEF7F3FB761C84
S31508006530F6B2A642F5DB6D1CEDB25D4510DABBF18D
S31508006540010F234603D17F2200F06EF806E02A46A3
S3150800655000F06AF838785146FEF7DCFB0026E7E7D4
S3150800656038785146FEF7D6FB41B0BDE8F08F2DE9E5
S31508006570F047C0B0806804684768554EFFF78CFE40
S31508006580A0B204F073FB8146A0B204F001FA80467B
S31508006590A0B204F01CFC0546B9F1000F30781ABF0A
S315080065A04FF6FF7188450FF2DC1131D0A5F1010ACB
S315080065B015B1FFB2BA450BDA0FF2D411FEF7AAFBF2
S315080065C030780FF2042153460022FEF7A3FB21E0A0
S315080065D04B46A2B20FF24401FEF79CFB012D08BF01
S315080065E07F274B463A4600F01FF838A430782146F4
S315080065F0FEF790FB00270FF2D00804E01DF80720ED
S3150800660000F07FFE7F1CFFB230784F45F6DB21464F
S31508006610FEF780FB40B0BDE8F08700005B253278C6
S315080066205D28256429203D004146684604F07CB96A
S315080066302DE9F047C2B08068DFF8347C0668FFF7BA
S315080066402BFEB0B204F012FB8146B0B204F0A0F9FA
S315080066508246B0B204F0BBFB0646B9F1000F1CBF78
S315080066604FF6FF70824505D138780FF21811FEF7FC
S3150800667051FB28E000240FF2741803E0504604F09A
S3150800668063F9641CB4421EDA002513E006FB09F020
S31508006690431E387809FB04524146FEF73BFB38781F
S315080066A003226946FFF774F96846FFF721FE01A938
S315080066B048556D1C4D45E9DB012E4B4601AA0CBF1A
S315080066C07F21E1B2DAE759E0202558000D0A0000DB
S315080066D0987100202DE9F047C2B0806807684468C1
S315080066E0DFF88C5BFFF7D8FDB8B204F0BFFA804636
S315080066F0B8B204F04DF98146B8B204F068FB074613
S31508006700B8F1000F28781CBF4FF6FF71894504D1F0
S315080067100FF27001FEF7FEFA30E07E1E17B1E4B202
S31508006720A6420BDA0FF26801FEF7F4FA28780FF2A0
S31508006730980133460022FEF7EDFA1FE000260FF215
S31508006740AC0A10E02878A8F10103324600F0D6FD1D
S31508006750287803226946FFF71BF96846FFF7C8FD44
S3150800676001A98855761C4645ECDB012F08BF7F2416
S31508006770434601AA2146484604F0E6F842B0BDE879
S31508006780F08700006E6F7420666F756E640D0A00E0
S315080067904552524F523A20446573697265642069BE
S315080067A06E646578206973206F7574206F66207231
S315080067B0616E676520666F72207468697320746FEE
S315080067C06B656E0D0A000000202020202020205630
S315080067D0616C69642072616E67652069732025584B
S315080067E020746872752025580D0A0000646174616A
S315080067F020627974655B2564206F662025645D3A9E
S31508006800000000002DE9F043ADF54B7DDFF8604A46
S315080068100FF66028FFF740FD20784CF2443200F06E
S3150800682070FD20780FF65421FFF7D8F8DFF8C80A6C
S31508006830018818237F2210A804F076F800270FF2A3
S31508006840903910A84946C25D00F0AEFD7F1C182F8E
S31508006850F7D3E0A700F04BFD20784FF2640200F072
S3150800686050FD20780FF62421FFF7B8F8DFF8980ACC
S315080068700188062300F02BFD002500F092FD6D1C13
S31508006880062DFAD300F033FD20784FF2644200F06B
S3150800689038FD20780FF60421FFF7A0F8DFF86C0A18
S315080068A00188062300F013FD002500F07AFD6D1C13
S315080068B0062DFAD300F01BFD20784EF2455200F063
S315080068C020FD20780FF6E821FFF788F8DFF8400A60
S315080068D000F0FBFC002500F064FD6D1C082DFAD3C2
S315080068E000F005FD20784FF26E4200F00AFD207890
S315080068F00FF6D021FFF772F8DFF8180A00F0D9FC76
S31508006900002508A800F04EFD6D1C142DF9D300F0E3
S31508006910EEFC20784FF2424200F0F3FC20780FF6A6
S31508006920BC21FFF75BF8DFF8F00900F0C2FC002590
S3150800693008A800F037FD6D1C142DF9D300F0D7FC1C
S3150800694020784FF2624200F0DCFC20780FF6A42192
S31508006950FFF744F8DFF8C40901880A237F220DA847
S3150800696003F0E2FF00250DA800F01CFD6D1C0A2DA2
S31508006970F9D300F0BCFC20784FF2742200F0C1FC79
S3150800698020780FF68821FFF729F80125DFF8900906
S3150800699000F0A1FC00F0A5FC9DF8012000F0A3FC86
S315080069A06D1EF3D100F0A3FC20784FF2762200F09A
S315080069B0A8FC20780FF66421FFF710F80125DFF808
S315080069C0640900F088FC00F08CFC9DF8012000F0BA
S315080069D08AFC6D1EF3D100F08AFC20784FF27662AD
S315080069E000F08FFC20780FF64821FEF7F7FF012507
S315080069F0DFF8340900F06FFC00F073FC9DF8012005
S31508006A0000F071FC6D1EF3D100F071FC20784FF296
S31508006A10634200F076FC20780FF62821FEF7DEFFA9
S31508006A200125DFF8080900F056FC00F05AFC9DF82D
S31508006A30012000F058FC6D1EF3D100F058FC2078B8
S31508006A404FF2744200F05DFC20780FF60821FEF73D
S31508006A50C5FF0125DFF8D80800F03DFC00F041FC31
S31508006A609DF8012000F03FFC6D1EF3D100F03FFCBD
S31508006A7020784FF6097200F044FC20780FF6E411EE
S31508006A80FEF7ACFF0125DFF8AC0800F024FC00F0A7
S31508006A9028FC9DF8012000F026FC6D1EF3D100F0BD
S31508006AA026FC20784EF2636200F02BFC20780FF665
S31508006AB0C411FEF793FF0125DFF87C0800F00BFCF4
S31508006AC000F00FFC9DF8012000F00DFC6D1EF3D1BF
S31508006AD000F00DFC20784EF26F6200F012FC207870
S31508006AE00FF6A411FEF77AFFDFF8500800F0EDFB69
S31508006AF000F057FC6D1C082DFAD300F0F8FB20783F
S31508006B004EF26F3200F0FDFB20780FF68811FEF783
S31508006B1065FFDFF82C0800F0D2FB002504A800F07A
S31508006B2041FC6D1C102DF9D300F0E1FB20784CF2E6
S31508006B30563200F0E6FB20780FF66411FEF74EFF9A
S31508006B400125DFF8000800F0C6FB00F0CAFB9DF837
S31508006B50012000F0C8FB6D1EF3D100F0C8FB2078B9
S31508006B604EF2453200F0CDFB20780FF64811FEF7BD
S31508006B7035FFDFF8D40700F0A8FB00F012FC6D1C07
S31508006B80082DFAD300F0B3FB20784EF6735200F0C6
S31508006B90B8FB20780FF63011FEF720FFDFF8AC07B8
S31508006BA000F08DFB002504A800F0FCFB6D1C102DE1
S31508006BB0F9D300F09CFB20784CF24E2200F0A1FBA2
S31508006BC020780FF61011FEF709FFDFF8840703E0B7
S31508006BD0202558000D0A000000F071FB002504A8C6
S31508006BE000F0E0FB6D1C102DF9D300F080FB207837
S31508006BF04CF6441200F085FB20780FF6E801FEF704
S31508006C00EDFE0125DFF84C0700F065FB00F069FB97
S31508006C109DF8012000F067FB6D1EF3D100F067FBBD
S31508006C2020784DF2430200F06CFB20780FF6C40181
S31508006C30FEF7D4FE0125DFF8200700F04CFB00F034
S31508006C4050FB9DF8012000F04EFB6D1EF3D100F0BD
S31508006C504EFB20784CF24B2200F053FB20780FF6BF
S31508006C60A401FEF7BBFEDFF8F40600F028FB04A833
S31508006C7000F098FB6D1C102DF9D300F038FB207836
S31508006C804CF6535200F03DFB20780FF69001FEF7C4
S31508006C90A5FEDFF8CC0600F018FB002500F081FB06
S31508006CA06D1C082DFAD300F022FB20784CF2431213
S31508006CB000F027FB20780FF67801FEF78FFE0025F7
S31508006CC0DFF8A00601880223EAB2684603F02CFE24
S31508006CD000F007FB9DF8012000F005FB6D1C142D44
S31508006CE0EEDB00F004FB20784CF2423200F009FBA0
S31508006CF020780FF64C01FEF771FEDFF86C06018866
S31508006D005C237F22B3A803F00FFE0025B3A800F08A
S31508006D1049FB6D1C5C2DF9D300F0E9FA20784CF696
S31508006D20431200F0EEFA20780FF62401FEF756FE1D
S31508006D30DFF8380600F0BDFA002508A800F032FB97
S31508006D406D1C142DF9D300F0D2FA20784BF2542298
S31508006D5000F0D7FA20780FF61001FEF73FFE01255E
S31508006D60DFF80C0600F0B7FA00F0BBFA9DF8012030
S31508006D7000F0B9FA6D1EF3D100F0B9FA20784DF299
S31508006D80463200F0BEFA20780FF2F471FEF726FEBE
S31508006D900125DFF8E00500F09EFA00F0A2FA9DF85A
S31508006DA0012000F0A0FA6D1EF3D100F0A0FA2078B9
S31508006DB04BF2532200F0A5FA20780FF2DC71FEF7A9
S31508006DC00DFE0125DFF8B00500F085FA00F089FA16
S31508006DD09DF8012000F087FA6D1EF3D100F087FABE
S31508006DE020784DF2433200F08CFA20780FF2C07109
S31508006DF0FEF7F4FD0125DFF8840500F06CFA00F0D3
S31508006E0070FA9DF8012000F06EFA6D1EF3D100F0BD
S31508006E106EFA20784CF2433200F073FA20780FF2BB
S31508006E20A471FEF7DBFD0125DFF8540500F053FADF
S31508006E3000F057FA9DF8012000F055FA6D1EF3D1BF
S31508006E4000F055FA20784DF2423200F05AFA2078CE
S31508006E500FF28471FEF7C2FDDFF8280500F02FFA5D
S31508006E6004A800F09FFA6D1C102DF9D300F03FFA24
S31508006E7020784CF2545200F044FA20780FF27471DC
S31508006E80FEF7ACFDDFF800050188062300F01FFABF
S31508006E90002500F086FA6D1C062DFAD300F027FAB5
S31508006EA020784CF2453200F02CFA20780FF25C710B
S31508006EB0FEF794FDDFF8D404018894237F228EA878
S31508006EC003F032FD00258EA800F06CFA6D1C942D97
S31508006ED0F9D300F00CFA20784DF6540200F011FAB6
S31508006EE020780FF23C71FEF779FD0125DFF8A00442
S31508006EF000F0F1F900F0F5F99DF8012000F0F3F93A
S31508006F006D1EF3D100F0F3F920784CF64B2200F011
S31508006F10F8F920780FF21471FEF760FDDFF87404B3
S31508006F20018822237F2285A803F0FEFC85A800F0AD
S31508006F3039FA6D1C222DF9D300F0D9F920784BF2D5
S31508006F40346200F0DEF920780FF2F461FEF746FDB0
S31508006F50DFF8440400F0B9F9002500F022FA6D1CA8
S31508006F60082DFAD300F0C3F920784FF6017200F025
S31508006F70C8F920780FF2D461FEF730FD0125022307
S31508006F807F220021684603F0CFFC00F0AAF99DF89D
S31508006F90012000F0A8F96D1EF1D100F0A8F92078BB
S31508006FA04EF2632200F0ADF920780FF2B861FEF7D1
S31508006FB015FD04237F22012100F078F901A800F0CD
S31508006FC0F1F96D1C042DF9D300F091F920784EF2F1
S31508006FD0635200F096F920780FF29C61FEF7FEFCEA
S31508006FE004237F22022100F061F9002501A800F0A0
S31508006FF0D9F96D1C042DF9D300F079F920784DF2F2
S31508007000030200F07EF920780FF28061FEF7E6FCB5
S3150800701004237F22032100F049F9002501A800F086
S31508007020C1F96D1C042DF9D300F061F920784DF2F1
S31508007030050200F066F920780FF26C61FEF7CEFCC7
S3150800704004237F22042100F031F9002501A800F06D
S31508007050A9F96D1C042DF9D300F049F920784DF2F1
S31508007060060200F04EF920780FF25861FEF7B6FCDA
S3150800707008237F22052100F091F9002500F091F9F7
S315080070806D1C082DFAD300F032F920784DF207026C
S3150800709000F037F920780FF25061FEF79FFC0823BD
S315080070A07F22062100F07AF9002500F07AF96D1C96
S315080070B0082DFAD300F01BF920784DF2080200F0EB
S315080070C020F920780FF23C61FEF788FC08237F221E
S315080070D0072100F063F9002500F063F96D1C082DFF
S315080070E0FAD300F004F920784DF20A0200F009F903
S315080070F020780FF22861FEF771FCBC237F22082155
S3150800710056A803F011FC002556A800F04BF96D1C93
S31508007110BC2DF9D300F0EBF820784DF20D0200F003
S31508007120F0F820780FF21C61FEF758FCFE237F2248
S31508007130092116A803F0F8FB002516A800F032F975
S315080071406D1CFE2DF9D300F0D2F820784DF20E0210
S3150800715000F0D7F820780FF21061FEF73FFCFE2307
S315080071607F220A2116A803F0DFFB002516A800F0E7
S3150800717019F96D1CFE2DF9D300F0B9F820784DF2F7
S315080071800F0200F0BEF820780FF20461FEF726FC25
S3150800719000250523EAB20B2100F000F9002602A813
S315080071A04946825D00F000F9761C052EF7D36D1C62
S315080071B0032DEEDB00F09BF820784DF2090200F073
S315080071C0A0F820780FF2EC51FEF708FC04237F2282
S315080071D00C2100F06BF8002501A800F0E3F86D1CFF
S315080071E0042DF9D300F083F820784DF2452200F0FB
S315080071F088F820780FF2D051FEF7F0FB002504231B
S31508007200EAB20D2100F052F8002601A84946825D2F
S3150800721000F0CAF8761C042EF7D36D1C102DEEDB91
S3150800722000F065F820784DF2100200F06AF8207830
S315080072300FF2A451FEF7D2FB4FF000080E235FFAB7
S3150800724088F20E2104A803F06FFB002504A800F0BD
S31508007250A9F86D1C0E2DF9D308F10108B8F1100F25
S31508007260ECDB00F044F80DF54B7DBDE8F08300003B
S31508007270987100205B2532585D2000004D46475F17
S31508007280434849505F444154410000004D46475F1A
S31508007290504152545F444154410000004D46475FF7
S315080072A05445535445525F444154410001A803F0E4
S315080072B03BBB018814237F2208A803F035BB01884D
S315080072C010237F2204A803F02FBB018808237F22FE
S315080072D002A803F029BB018802237F22684603F02F
S315080072E023BB9DF8002020784946FDF713BD20787A
S315080072F03946FDF70FBD0000EC4B01085146FDF776
S3150800730009BD4146FDF706BDEE4B0108F04B0108E5
S31508007310F24B0108F44B0108F64B0108F84B01083B
S31508007320FA4B0108FC4B0108FE4B0108004C01080A
S31508007330024C0108044C0108064C0108084C0108D7
S315080073400A4C01080C4C01080E4C0108104C0108A7
S31508007350124C0108144C0108164C0108184C010877
S315080073601A4C01081C4C01081E4C0108204C010847
S31508007370224C0108244C0108264C0108284C010817
S315080073802A4C01082C4C01082E4C0108304C0108E7
S31508007390324C0108344C0108364C010802A803F0A7
S315080073A0C3BA02A84946425D2078FDF7B3BC00007F
S315080073B04D46475F454D4245525F4555495F363410
S315080073C0000000004D46475F414E414C4F475F5411
S315080073D052494D5F4E4F524D414C00004D46475F56
S315080073E0414E414C4F475F5452494D5F424F4F53B0
S315080073F0540000004D46475F414E414C4F475F548D
S3150800740052494D5F424F5448000000004D46475FC1
S315080074105245475F5452494D000000004D46475FAC
S315080074203156385F5245475F564F4C5441474500E1
S315080074304D46475F565245465F564F4C5441474561
S31508007440000000004D46475F54454D505F43414C90
S31508007450000000004D46475F544553545F54454D60
S31508007460500000004D46475F4649425F5645525315
S31508007470494F4E004D46475F4649425F434845439C
S315080074804B53554D000000004D46475F4649425F45
S315080074904F4253004D46475F4349425F4F425300B0
S315080074A04D46475F435553544F4D5F5645525349D2
S315080074B04F4E00004D46475F435553544F4D5F4569
S315080074C055495F36340000004D46475F53545249CC
S315080074D04E4700004D46475F424F4152445F4E417A
S315080074E04D4500004D46475F4D414E55465F494460
S315080074F0000000004D46475F5048595F434F4E46CF
S31508007500494700004D46475F424F4F544C4F414450
S315080075105F4145535F4B4559000000004D46475FA4
S31508007520455A53505F53544F524147450000000097
S315080075304D46475F4153485F434F4E464947000013
S315080075404D46475F43424B455F4441544100000066
S315080075504D46475F494E5354414C4C4154494F4E52
S315080075605F434F44450000004D46475F4F53433243
S31508007570344D5F424941535F5452494D0000000063
S315080075804D46475F53594E54485F465245515F4FE3
S3150800759046465345540000004D46475F4F53433215
S315080075A0344D5F534554544C455F44454C4159004E
S315080075B04D46475F53454355524954595F434F4ECD
S315080075C0464947004D46475F4343415F5448524545
S315080075D053484F4C440000004D46475F53454355BA
S315080075E052455F424F4F544C4F414445525F4B45BD
S315080075F0590000004D46475F45544845524E45548C
S315080076005F41444452455353000000004D46475FCE
S3150800761043424B455F3238334B315F444154410056
S315080076204D46475F584F5F54554E45004D46475F98
S315080076305448524541445F4A4F494E5F4B455900AD
S315080076404D46475F4555495F36340000535441431C
S315080076504B5F4E56444154415F56455253494F4E2F
S3150800766000000000535441434B5F424F4F545F4361
S315080076704F554E5445520000535441434B5F4E4FAD
S315080076804E43455F434F554E5445520049505F534C
S315080076905441434B5F4D554C5449434153545F53F2
S315080076A0455155454E43450049505F535441434B58
S315080076B05F53454355524954595F53455155454EB5
S315080076C04345000049505F535441434B5F4D455372
S315080076D0485F4C4F43414C5F494E544552464143DF
S315080076E0455F49440000000049505F535441434BED
S315080076F05F4D41435F455854454E4445445F4944B0
S315080077000000000049505F535441434B5F504152BB
S31508007710454E545F4C4F4E475F49440049505F53AE
S315080077205441434B5F4F4C445F4143544956455F70
S315080077304F5045524154494F4E414C5F4441544184
S315080077405345540049505F535441434B5F4143549A
S315080077504956455F4F5045524154494F4E414C5F3B
S31508007760444154415345540049505F535441434B97
S315080077705F50454E44494E475F4F50455241544924
S315080077804F4E414C5F44415441534554000000005C
S3150800779049505F535441434B5F4F504552415449FA
S315080077A04F4E414C5F444154415345545F544149FF
S315080077B04C00000049505F535441434B5F4E4F44C1
S315080077C0455F444154410000535441434B5F434194
S315080077D04C5F4441544100004348494C445F54417E
S315080077E0424C450010B50446002003F0B4FE0020C4
S315080077F003F0C5FE012003F088FD03F077FD10F0C5
S31508007800060018BF012004F034F8204604F073FC83
S315080078102046BDE8104000F069BE80B5022100F0A0
S31508007820D8F8009804F0B8FD01BD8068DFF8401369
S315080078300068087008780228A8BF0FF26C3305DACA
S31508007840002814BF0FF26C330FF27033DFF82403ED
S315080078500FF24432D0F87013FFE70FF23030FDF71D
S3150800786074BD80B503F045FEDFF80C130FF29432B1
S3150800787051F82030DFF8FC02D0F8B0130FF2683068
S31508007880FDF763FDBDE8024072E038B50446A0681E
S315080078900568DFF8E002D0F8C0130FF27430FDF780
S315080078A054FDEDB215B1012D07D00CE00FF268308A
S315080078B0FDF74BFD03F0BDFD05E00FF27030FDF757
S315080078C044FD03F0E3FD0FF27430FDF73EFD20465C
S315080078D0BDE83240C5E770B504460D46284604F0B3
S315080078E068FF06462B460FF2D0320FF2B43004F189
S315080078F01101FDF72AFDAE420FF2743405D0324667
S315080079000FF2BC312046FDF720FD284604F057FF4C
S31508007910034613F1010F0FF22C300FF2303108BF76
S315080079200FF230320DD013B90FF2303209E0DFF81A
S315080079304C02B3FBF0F200FB123028B90FF23831D3
S315080079402046FDF702FD11E04FF47A71DFF83002A8
S315080079500078B3FBF1F201FB123100290EBF0FF2DA
S3150800796020311A460FF22831FDF7D4F9BDE87040E8
S315080079706BA0FDF7EABC10B5044604F062FF0146A9
S315080079802046BDE81040A6E738B5044603F0B1FD29
S315080079900500DFF8E001D0F890130FF22C3018BF7D
S315080079A00125FDF7D2FC03F071FDA0680068C0B29E
S315080079B004F03FFF02460FF228210FF24030FDF790
S315080079C0C4FC0DB103F035FD2046BDE83240D2E7D0
S315080079D00121684605F0D5BA38B5044603F089FD95
S315080079E0050018BF012503F051FD502001F003FEE4
S315080079F003F060FE03465CA204F111010FF20430A5
S31508007A00FDF7A3FC1DB1BDE8314003F012BD31BD41
S31508007A102DE9F84F06468946154603F06AFD040027
S31508007A2018BF012403F06FFD002E4FF07F0A6FF098
S31508007A307F0B4FF000088DF8000008D101260020C2
S31508007A4003F064FD642001F0D6FD374611E0F6D553
S31508007A507642F4E7802001F0CEFD03F06FFD834502
S31508007A605246B8BF834682469245C8BF924680446E
S31508007A707F1E012FEEDA9DF8000003F047FD0CB1DA
S31508007A8003F0D7FCB9F1000F18BF89F800A015B1AB
S31508007A9098FBF6F028705846BDE8F28F10B500F04E
S31508007AA01AF804F11101BDE8104003460FF27422DA
S31508007AB00FF25C20FDF749BC10B500F00CF803F096
S31508007AC039FA04F11101BDE81040034627A20FF266
S31508007AD05C20FDF73ABC044600220021012097E706
S31508007AE010B5044686B0A068006804AA0DF1110115
S31508007AF0FFF78EFF039004F111010FF278209DF92C
S31508007B0011300FF2602202909DF9100001900FF2D9
S31508007B105C2000900FF23020FDF717FC06B010BD70
S31508007B207D0D0A0080B503F016FE034611480FF2D4
S31508007B305C22D0F810140FF24420BDE80050FDF77F
S31508007B4004BC10B504460B48D0F820140FF24C209C
S31508007B50FDF7FBFBA068006840B203F0D4FD2046A1
S31508007B60BDE81040DEE700004343410045440000FD
S31508007B70C3720020143B0108D071002040420F0058
S31508007B809871002081680968C9B2A4E67B264E2050
S31508007B902674737D0D0A000050455220546573748F
S31508007BA0204D6F6465000000656E61626C65642D2A
S31508007BB06E657700656E61626C6564006469736101
S31508007BC0626C65640000000061736C656570000096
S31508007BD06177616B65000000656E65726779000004
S31508007BE073746174757300007B264E205261646954
S31508007BF06F20706F776572207374617465202674C0
S31508007C0073000000706F7765722073746174650085
S31508007C107B264E2000000000536C656570696E6710
S31508007C2020726164696F2E2E2E00000057616B6901
S31508007C306E6720726164696F2E2E2E00646F6E6502
S31508007C407D0D0A00202674700000000066726571BA
S31508007C5000000000696C6C6567616C0050657252C3
S31508007C60616D526164696F436F6E666967000000F3
S31508007C702026747500000000667265714D487A000A
S31508007C80207B667265714B487A3A256C7D00000048
S31508007C90207B66726571487A3A256C7D0000000083
S31508007CA07B264E20526164696F206368616E6E653B
S31508007CB06C202674680000006368616E6E656C004F
S31508007CC05074694368616E007B264E205365747450
S31508007CD0696E67206368616E6E656C20616E6420EC
S31508007CE063616C6962726174696E672028617320CA
S31508007CF06E6565646564292E2E2E00002674687DDF
S31508007D000D0A00007B264E202674647D0D0A0000AD
S31508007D107B264E20267464205B64426D5D7D0D0AC9
S31508007D200000000052535349000000007B264E20F5
S31508007D30267464205B3830322E31352E3420756E29
S31508007D406974735D7D0D0A007B264E2026746420B7
S31508007D5026746420267464205B64426D5D7D0D0A7A
S31508007D60000000006D696E525353490061766752F0
S31508007D70535349006D617852535349007B264E2070
S31508007D802674642064426D7D0D0A00004343412039
S31508007D905468726573686F6C640000007B264E7DBC
S31508007DA00D0A000080B5002003F038FDBDE801404B
S31508007DB004F016BA38B5DFF83841DFF83811607DB7
S31508007DC0C870607B18B105F0ADF9002808D505F034
S31508007DD0A9F940054CBF03200120002105F0D0F980
S31508007DE0E06901224FF4806105F029FA050003D005
S31508007DF000F05FF901202075284632BDDFF8F01043
S31508007E00C861887DDFF8EC100871D3E770B58EB0CD
S31508007E100C460CA805F00AFA054605F031FA06469E
S31508007E2005F002FABDF83610DFF8CC200B910346B0
S31508007E300FF244010FF248000A9103950196BDF826
S31508007E40341009910FF280010891BDF8321007919C
S31508007E500FF27C010691BDF8301005910FF27801FA
S31508007E6004910FF27C0102910FF27C0100912146E8
S31508007E70FDF76BFA0EB070BD7375737000000000E5
S31508007E807B264E2026747520267432682026746454
S31508007E902F31303025250D0A20202674642F3130E5
S31508007EA0302525202674642F313030252520267468
S31508007EB0642F3130302525202674642F3130302543
S31508007EC0257D0D0A00000000637269740000000039
S31508007ED06C696D690000000074616C6B000000003D
S31508007EE07573656400000000616363656C000000DB
S31508007EF0E0710020F0740020FC7E00086D6F646558
S31508007F00000000002DE9F04B06468946904605F02C
S31508007F10ADF9DFF8C045070918BF7F1EA070667067
S31508007F208C2E18BF03F0E8FA3000DFF8E4550FF29C
S31508007F302C1B0AD0402E1AD0892E2BD08C2E21D05D
S31508007F408D2E1DD08F2E09D027E02069401C206178
S31508007F5000F0AAF860B34FF4A46126E0A069401CBB
S31508007F60A06100F0A1F818B340F225511DE0E069C0
S31508007F70401CE06100F098F8D0B140F2315114E0AD
S31508007F8005F073F96069401C6061287D80B14FF483
S31508007F90A7610AE040F23C5107E032460FF2D401ED
S31508007FA00120FDF7C3FD40F249515846FDF706FE8C
S31508007FB0402E84F80080C4F8289025D1E07802285D
S31508007FC022DB401EE0702089401C208105F0AAF8BB
S31508007FD000F08020B0F1004F01D000F06AF805F0FB
S31508007FE0A1F8000408D505F09DF840054CBF03200C
S31508007FF00120002105F0C4F8E86900224FF48061E9
S3150800800005F01DF9060026D000F053F8300018BF19
S315080080108F2E1ED0207902281BDB401E2071608916
S31508008020401C6081DFF80805007802280ADBE96948
S31508008030DFF80005814205D10178092902DBC178FC
S31508008040491CC170688B01F0D6FABDE8F04BFFF702
S31508008050B1BE01202875BDE8F08B00007068792D47
S31508008060636F6D6D6F6E2D74782D746573742E63E2
S3150800807000000000656D626572526164696F547232
S31508008080616E736D6974436F6D706C657465497361
S315080080907243616C6C6261636B207374617475738F
S315080080A03A20307825780000206A38182062287D22
S315080080B070470021002005F063B880B504F0C4FBC2
S315080080C00346DFF878040FF2BC42D0F8B0140FF27A
S315080080D0A840BDE80050FDF738B930B5044683B06E
S315080080E0A068056868B204F0B3FB01906BB20FF2A2
S315080080F080400FF2AC420090DFF84004D0F8C0147C
S315080081000FF28C40FDF721F99AA0FDF71EF92046DB
S31508008110BDE83E40D1E700B5DFF824140FF2A442CB
S315080081200B8B0FF2B84183B00091019300F1110156
S315080081300FF27C4031E18168DFF804240968118375
S31508008140E9E72DE9F14F84B08068008801900124A1
S31508008150401E8041C00F029003F0CBF900B1012008
S315080081608DF801004FF0000BDFF86853DFF8A083A5
S3150800817068697C4FADF80200D9460198012813D0EA
S3150800818000F006F93878029921B10FF27041FCF730
S31508008190C1FD03E0019A78A1FCF7BCFDB8F81820E8
S315080081A000F0F1F800F0EAF8DFF88863DFF894A346
S315080081B0802251463046FDF7E9F8DFF87403007867
S315080081C00228A4BF3078092819DB9AF8011001F0B3
S315080081D0200141F0C1017170A1461821B170301813
S315080081E0029919B100F805BC002004E0019900F8CD
S315080081F0051C019800123178711801F8040CDA464A
S3150800820011E001F059FA834698F8140048B9FFF7C7
S31508008210C9FD01F051FAA0EB0B0080B2B0F5FA6F78
S31508008220F2D995F801B0029810B9019882454FDA4B
S3150800823000208DF8000069463878FDF7E7FA9DF8C2
S315080082400010652944D03878642906D100F08CF8E6
S31508008250049800F11101002007E0442907D100F035
S3150800826083F8049800F111010120FFF7CFFD0AF108
S3150800827001001FFA80FADFF8D002007820B104F076
S31508008280E8FE08B104F0FEFFB8F8180001F0B3F9EB
S31508008290DFF89C02007880B1B9F1000F18BFF470BE
S315080082A03078042809DB301800F8034C201231789E
S315080082B07118641C01F8020CA4B2002088F8140096
S315080082C0012068703046FFF799FD0028834698D04C
S315080082D038780FF24C315246FCF71CFD98F80D0021
S315080082E040B1A88ABDF80210421A38780FF24C310C
S315080082F0FCF710FD38780FF268315A46FCF70AFD8C
S31508008300DFF848020FF2743102883878FCF702FD6C
S3150800831038780FF28831FCF7FDFC2978387800297F
S3150800832014BF0FF294310FF29831FCF7F3FC03F007
S31508008330DBF928B16A6A38780FF28C31FCF7EAFC67
S31508008340AA6A38780FF2AC31FCF7E4FC642001F035
S3150800835052F99DF8010008B103F06BF805B0BDE8C5
S31508008360F08F00009871002052460FF2B421FCF7F6
S31508008370D1BC00000D0A00002575000038780FF200
S31508008380E411FCF7C7BC38780FF27C21FCF7C2BCB5
S3150800839038780FF26021FCF7BDBCFCF7D6FF07BDA5
S315080083A038B500F03DF800F034F818BF0124FCF7A2
S315080083B0B1FC03F06BF803F034F902E0287800F01A
S315080083C00BF800F004F8F9D103F033F91DE09DF835
S315080083D000006528704720786946FDF717BA38B552
S315080083E000F01EF800F015F818BF0124FCF792FCFF
S315080083F003F04CF803F027F902E02878FFF7ECFFC2
S31508008400FFF7E5FFF9D103F03FF90CB103F011F8D6
S3150800841031BDDFF83C510FF24C1104002878704743
S3150800842000208DF8000003F064B82DE9F041DFF86C
S3150800843020410FF2F02120780FF2F8260FF2EC28EF
S31508008440DFF80071FCF766FC002515E07A5D2078F8
S315080084504146FCF75FFC681005EB90708010B5EBA1
S31508008460800007D13878854204DA20782A463146D2
S31508008470FCF750FC6D1CEDB23878401C8542E5DBF4
S31508008480BDE8F0818068DFF8BC10006808707047A6
S315080084902DE9F84304460025A068DFF8B4600768AC
S315080084A00FF29C29DFF89C807F1CFFB2802F06DA2A
S315080084B0A06800EB8500406808F8070005E03078FA
S315080084C06B1C7A1E4946FCF725FC6D1C042DEBDB5C
S315080084D0BDE8F183F07400201A48142101700121C7
S315080084E04A1E4254491C8029FAD370471248194A31
S315080084F00021016141618161C16101621160164A11
S31508008500116001814181002014490860704700000C
S31508008510E071002080680A4A0078010018BF01212E
S31508008520517302280E490CBF0120002008707047BD
S31508008530C3720020287E0020F0740020143B010836
S31508008540E0710020A87D0020C47200203C7D002038
S3150800855098710020407D0020487D00208C7D0020F9
S31508008560377D00202765276E642E2E2E000000001A
S3150800857073746174757300007B264E2026746464D8
S31508008580426D7D0061637475616C506F776572002A
S315080085907B264E2026746464426D202674647D0012
S315080085A0726571756573746564506F7765720000DE
S315080085B07B264E202674647573202674327875736C
S315080085C07D0000007472616E736D69742064656C59
S315080085D06179202864656329000000007472616E61
S315080085E0736D69742064656C6179202868657829DB
S315080085F0000000005478696E67200000696E66699D
S315080086006E69746500000000207061636B657473A1
S315080086102025752075732061706172742E20000004
S315080086200D0A2575207061636B6574732074726119
S315080086306E736D69747465642E0D0A00257520665F
S3150800864061696C65642064756520746F2063686170
S315080086506E6E656C20627573792E0D0A0000000037
S315080086604C617374207061636B65742073746174F4
S3150800867075733A2030782532780D0A004C61737488
S31508008680207061636B6574206261636B6F66663A1E
S315080086902030782532780D0A000000004672616D98
S315080086A0652070656E64696E6720696E206C6173FB
S315080086B0742041434B3A20005965732E0D0A000079
S315080086C04E6F2E0D0A0000005346442074696D65EE
S315080086D02028766961205346442073656E742063AA
S315080086E0616C6C6261636B293A2030782532780DAB
S315080086F00A0000005346442074696D65202876698F
S315080087006120545820636F6D706C657465206361D1
S315080087106C6C6261636B293A2030782532780D0AD1
S3150800872000000000206C656E3A200000307825783D
S31508008730200000000D0A307825783A200000000055
S315080087407061796C6F6164206279746520696E6402
S3150800875065783A202564206973206F7574206F66E2
S315080087602072616E67652E20617267756D656E741D
S315080087702025642069676E6F7265642E0D0A0000F5
S31508008780130018BF01231A46FFF7BCBBDFF8E00247
S315080087900078042801D0162801DB062070470B282C
S315080087A002D01038062801D20520704703207047EA
S315080087B02DE9F04286B0FFF7E9FF044600F072FFA4
S315080087C00021DFF8B85205E005EB412292684DF822
S315080087D02120491CA142F7DB00F06AFF0026DFF8DA
S315080087E098720FF29C2902E000F048F8761CA6421F
S315080087F0FADB00F057FF002105E005EB4122D268BD
S315080088004DF82120491CA142F7DB00F051FF002654
S315080088100FF2842902E000F031F8761CA642FADB52
S3150800882000F040FF002108E04A02AB185B68AA582E
S3150800883042EA03424DF82120491CA142F4DB00F02C
S3150800884037FF00250FF2682607E05DF8253005F1A9
S3150800885041023146FCF75EFA6D1C3878A542F4DB16
S31508008860DFF81012096889064CBF0FF260210FF273
S315080088706C21FCF74FFA06B0BDE8F0825DF82630A9
S31508008880387806F141024946FCF744BA38B500F093
S3150800889025F8A4BF0A3CE4B2FFF778FF844208DA59
S315080088A0DFF8D8010FF2442100EB4420EDB2056150
S315080088B021E02BE038B500F011F8A4BF0A3CE4B279
S315080088C0FFF764FF844208DADFF8B0010FF254219B
S315080088D000EB4420EDB245610DE017E080680478AE
S315080088E04568A02C05DB04F007000121240901FADC
S315080088F000F50A2C70472B4604F1410201B0DFF857
S3150800890078010078BDE83040FCF704BAFFF73EFF6F
S3150800891000F14002BDE83840DFF85C010FF2E411CF
S315080089200078FCF7F7B9F8B5806804780779012567
S31508008930A02C4FF0FF3606DB04F00706240917B112
S3150800894005FA06F7FFB20A2CA4BF0A3CE4B2FFF701
S315080089501DFF84421ADADFF82401310000EB4420B7
S3150800896006D4C16805FA06F2D24311400F43FFB296
S315080089703B4604F14102C76001B0BDE8F040DFF8AC
S31508008980F8000FF2B8110078FCF7C4B9FFF7FEFE3D
S31508008990BDE8F84000F14002BEE7F8B58068057802
S315080089A0476835480478A02D4FF0FF360DDB05F0F3
S315080089B007062D09102F06D32046BDE8F4400FF20E
S315080089C09411FCF7A7B9B00087400A2DA4BF0A3D49
S315080089D0EDB2FFF7DBFE85421FDA680227490A185F
S315080089E033000BD40B58D2F804C043EA0C434FF0BB
S315080089F00F0CB6000CFA06F6B3431F43BBB20B5076
S31508008A00380C50603B4605F14102204601B0BDE8EE
S31508008A10F0400FF29C01FCF77DB9FFF7B7FE00F1B5
S31508008A2040022046BDE8F8400FF2D801FCF772B9BB
S31508008A300146114889680F4A09680078C9B20029B1
S31508008A4011680AD041F0200111601168890654BFE7
S31508008A500FF228110FF2141104E021F02001116021
S31508008A600FF23011FCF756B90FF2381004F07FBC3C
S31508008A709907080800BC00409871002000B0004023
S31508008A804750494F5F502563494E20202020203DFE
S31508008A9020307825580D0A004750494F5F50256306
S31508008AA04F5554202020203D20307825580D0A00A7
S31508008AB04750494F5F502563434647482F4C203D52
S31508008AC02030782534580D0A0000000053574A20F4
S31508008AD044697361626C65640D0A000053574A2045
S31508008AE0456E61626C65640D0A0000004750494F87
S31508008AF05F502563534554203D20307825580D0A8C
S31508008B0000000000546865206F6E6C79206C6567FC
S31508008B10616C20706F7274732061726520412D2517
S31508008B20630D0A004750494F5F502563434C522056
S31508008B303D20307825580D0A000000004750494F5F
S31508008B405F5025634F5554203D20307825580D0A2F
S31508008B5000000000436F6E6669672073686F756C66
S31508008B606420626520302D440D0A00004469736153
S31508008B70626C696E672053574A0D0A0043616E6E30
S31508008B806F742064697361626C652053574A0D0AD5
S31508008B9000000000456E61626C696E672053574A93
S31508008BA00D0A0000E0770020912601080000000069
S31508008BB000000000F8B5012000F005FB002000F0D9
S31508008BC0B1FCA84CA84E206840F008002060FCF7CD
S31508008BD01BFC00F097FCA5480178F1604278A4498F
S31508008BE0CA60A44A8378D360C578A34BDD60A34DD9
S31508008BF00779EF60078A3760478A7760868A0E604A
S31508008C00C68A4E60018B1160418B5160818B196059
S31508008C10C18B5960008C286000F0B9F8206820F0F4
S31508008C201000206004F03EFC04F036FD00F062FB04
S31508008C30FCF7E8FBBDE8F140FCF703BC70B5FCF7B0
S31508008C4050FC00F0D2FF8948874C017A884DE160D4
S31508008C50417AE960827A00F04FF8C37AD360067BDE
S31508008C60864BDE60868C2660C68C6660048D2C601A
S31508008C70448D6C60848D0C60C48D4C60018E1160CF
S31508008C80418E5160808E186070BD70B500F07DFA17
S31508008C9000F038FC7548744C0178754DE1604178F0
S31508008CA0E960827800F028F8C378D3600679734BB8
S31508008CB0DE60068A2660468A6660848A2C60C48AD4
S31508008CC06C60048B0C60448B4C60818B1160C18B8B
S31508008CD05160008C186000F05AF86248016821F06B
S31508008CE01001016004F0DEFB00F03FFB00F08DFF91
S31508008CF0BDE87040FCF71FBC5E49CA605E4A704713
S31508008D002DE9F041044688461F460F2000211646E5
S31508008D10BA0004F05DFD3568044210D0002000EB6F
S31508008D20870124FA01F2D10706D50F218200914066
S31508008D3038F8173000F025F8401C0428EFD31DE05A
S31508008D402DE9F041044688461F46FF2000211646B5
S31508008D50FA0004F03DFD356804420FD0002000EB10
S31508008D60C70124FA01F2D10705D50121814018F877
S31508008D70073000F006F8401C0828F0D33560BDE837
S31508008D80F08125EA0102194041EA020570472DE9FA
S31508008D90F0410021002004F013FA04F039FA00F03B
S31508008DA05BF808BF904223D00025DFF8BC8000F0AE
S31508008DB067F804F10801FFF7C3FF6D1C032DF6D30E
S31508008DC000260027D4E90E0108EB472504F1240CF8
S31508008DD000F03EF8D4E90E012A1D761C04F124059C
S31508008DE0F3B22946FFF78CFF761C7F1C032FE9D3C5
S31508008DF0BDE8F0812DE9F04104F00BFA00F02CF8FB
S31508008E0008BF904222D00025DFF85C8000F038F8D1
S31508008E102146FFF795FF6D1C032DF7D30026002783
S31508008E20D4E90E0108EB472504F1100C00F010F800
S31508008E30D4E90E012A1D761C04F11005F3B2294661
S31508008E40FFF75EFF761C7F1C032FE9D3BDE8F08190
S31508008E50F3B22A46614653E7044C0022D4E90E01D0
S31508008E609142704700BC004000B000405871002095
S31508008E7000B2004000B4004000B6004000B8004010
S31508008E8008EB452000F10C02D4E90E072B46704783
S31508008E90002818BF04F03CBA04F03BBA80B501F0CC
S31508008EA051F801460FF238000B2938BF00EB810054
S31508008EB002BD80B501F04AF80104090E0B29C0B2BB
S31508008EC00BD20FF27802525C904206DA0FF2400299
S31508008ED052F8211001EB800002BD0FF2300002BDEE
S31508008EE0554E4B004649420042544C0045585400E2
S31508008EF050575200574447002053570043525300D7
S31508008F004653480042414400464C5400554E4B00D7
S31508008F100C8F0008F0490108484A0108684A010808
S31508008F20704A01087C4A0108884A0108944A0108DF
S31508008F309C4A0108A84A0108B84A0108011608020D
S31508008F40030303020304080062F30F2262F31F42BD
S31508008F50401810F0030308D0C91A1FD3DB0748BF0F
S31508008F6000F8012D28BF20F8022D130030B414464E
S31508008F701546103928BF20E93C00FAD8490728BF0A
S31508008F8020E90C0048BF40F8042D890028BF20F8C6
S31508008F90022D48BF00F8012D30BC7047C91818BF0C
S31508008FA000F8012DCB0728BF00F8012D70470000F7
S31508008FB0DFF8E0145120086070472DE9F041DFF82A
S31508008FC0D8640546F0780428B4BF302760274FF4E4
S31508008FD0F070B0FBF7F41E2D24B201DB281B04D574
S31508008FE0A8B2BDE8F04100F006BB00F05BFB00F05C
S31508008FF028F870700721DFF8A404DFF8A42400F02D
S3150800900047F8291B09B27943C91C8908491EDFF8A4
S315080090109454DFF8807441602E6800F0B0F83C681C
S31508009020386820F04000386004F0E4FB3C602E60AD
S3150800903004F0E4FB00F0F6F94046BDE8F04100F024
S3150800904037BB8046012080F31088704738B5DFF8B3
S315080090504814C9780429B4BF302460244FF4F07149
S31508009060B1FBF4F1451A1E2D04DAA1210FF288404E
S31508009070FCF7A4FDDFF82404DFF82424072100F018
S3150800908007F805FB04F1C91C8908491E416031BD72
S3150800909001600021416081604FF0007111607047E6
S315080090A0DFF8F42301215170D0E72DE9F041DFF80C
S315080090B0F863DFF8F8430025356025604FF4A040D3
S315080090C0606041F29A084046FFF777FF706844F6F9
S315080090D09041081A00B24FF4487190FBF1F000B2C3
S315080090E00828A8BF072004DA10F1080FB8BF6FF0E8
S315080090F00700206008274046FFF75FFF4046FFF756
S315080091005CFF706845197F1EF8D1281DC00808BF86
S315080091100120DFF89C13B1FBF0F080B26060BDE877
S31508009120F08138B5DFF88C5301206FF00F04A86082
S315080091302C608020FFF741FFE868FF2802D8641CEE
S31508009140102CF5DB31BD70B5DFF86C03DFF854532E
S31508009150016841F0010101600121416000F0A2FAB5
S315080091602E68044600F00BF8CA49512008602E60A4
S3150800917004F044FB2046BDE8704000F099BA286820
S3150800918040084000286004F039BB10B5C24C0120E5
S31508009190207000202071C948816901F00301032964
S315080091A007D10020A070042000F060F8012020718B
S315080091B010BD0F210160022181610120E070642049
S315080091C0BDE810406CE72DE9F041BD4CBB4EA088C8
S315080091D0B14F4FF6FF78404540F2DC551CD1B948EF
S315080091E0018802237F22201D04F01EFBA08840452B
S315080091F004BF0220A080B069800703D4B06940F09C
S315080092000200B0610120B870A08830602846FFF7D8
S3150800921047FF2846BDE8F081B2699207EED5BA78CD
S31508009220002AF6D1B268B36812F0010203D10F28FA
S3150800923009D2401C06E09B0705D523781BB10328F5
S3150800924001DB4044A080A08822700228BCBF02200F
S31508009250A0803068A1888842D4D1B06900F00300A4
S31508009260032818BFFFF76FFF0020D3E72DE9F04763
S31508009270804695480178002569B9C078072818BF3F
S3150800928009280DD0032818BF112809D013281CBF98
S3150800929015280B2804D08D48016841F480710160B7
S315080092A000F000FA8146FFF7CDFE4046FFF78BFF38
S315080092B008B9012515E07B4F764E3C6838684008AA
S315080092C04000386004F09AFAD6F800A0306820F01A
S315080092D04000306004F08EFAC6F800A03C6004F046
S315080092E08DFA00F09FF8484600F0E2F92800D7D03A
S315080092F0BDE8F0870220B9E76848694A002141605D
S315080093008160016821F00201016000216248417014
S315080093104FF000711160817809B100218170C17820
S31508009320012914D16A4901220A606A4A1268D207D9
S3150800933048BF03210FD40222C270086C40F0010016
S315080093400864042064490860644908607047C17865
S31508009350042901D10521C17070474F48407800287B
S3150800936018BFFFF7C9BF01F09BBE2DE9F8434A4C69
S31508009370207908B354E000F095F90546FFF762FE38
S31508009380E078032813D0474EDFF8088100F0ACF8E0
S31508009390D8F80090D8F8000020F04000C8F800007F
S315080093A004F028FAC8F80090376004F027FA00F0AD
S315080093B039F8284600F07CF9E0780328DBD1404EDE
S315080093C03E4DB08828604FF6FF777088B8420CD1BA
S315080093D04348018802237F22B01C04F025FA7088CE
S315080093E0B84202D16420708001E0708878B1708834
S315080093F03C494A6D42F001024A650A68AB68DB07D8
S31508009400FBD50B689B1AC3F313038342F6D3FFF706
S315080094109AFE0420E0704FF4C870BDE8F2433FE6B8
S31508009420BDE8F183002080F3108870472DE9F843E2
S31508009430194C2179207881F0010108421DD124E0D8
S3150800944000F030F9FFF7FDFDE078052810D0154E3D
S31508009450104D00F049F8D5F80090286820F0400033
S31508009460286004F0C7F9C5F80090376004F0C6F91B
S31508009470FFF7D8FF404600F01BF9E0780528DFD152
S315080094800020A0700520FFF7F1FE00202070BDE83F
S31508009490F183000000800040E57F002010E000E036
S315080094A004ED00E094ED00E0104000400C000040A0
S315080094B00060E316084000401C400040044000409D
S315080094C0B8720020224C0108960708083840004068
S315080094D018A000400C40004080E200E000E100E0F7
S315080094E0264C01083820004037683068400840009C
S315080094F0306004F083B90000636C6F636B732E638E
S315080095000000000010B5002004F015FA5C4C40F687
S315080095108C2188422068B4BF40F0080020F008007B
S31508009520206010BD10B504465648018882B000F088
S315080095305DF89DF800109DF80100FF2902BFFF287D
S31508009540042000212200504A136818BF801C23F407
S315080095506073C0B20828A8BF072043EAC01010608D
