S00F00006E6F6465746573742E7333377F
S3150000400020660020759D0100C9920000599D01009F
S31500004010A70A0A010042000004180FAC002554004C
S31500004020000000000000000000000000000000008A
S315000040300000000078C80100000000000000000039
S315000040400000000000000000FFFFFFFFFFFFFFFF72
S31500004050FFFFFFFF00D0030000000000000000008B
S31500004060FFFFFFFFFFFFFFFF100000000000000042
S31500004070000000000000000000000000000000003A
S315000040800000000000000000B97F0020B97F00207A
S315000040902066002000DD0100EA9F0100485700204D
S311000040A07017002000F003000000000074
S3150000420020660020759D0100C9920000599D01009D
S31500004210619D01005D9D0100659D0100719D01008C
S31500004220719D0100719D0100719D0100719D01004C
S31500004230699D0100719D0100719D0100E59F0000CF
S31500004240EDD40000ED3A01002357000001370100CC
S31500004250313B0100F33A0100F53A0100EF3A010063
S31500004260E1270100AB20010027F600000B8B0000C0
S31500004270719D0100719D0100579B0100719D010018
S31500004280719D0100C9200100719D0100719D010011
S31500004290719D0100719D0100719D0100719D0100DC
S315000042A0719D0100719D0100719D0100333B01006C
S315000042B0F13A010003D30000673B0100719D010044
S315000042C0A99F0100719D0100719D0100719D010072
S315000042D0719D0100719D0100719D0100719D01009C
S315000042E07149724A01E021B1491E1369DB07FAD40C
S315000042F001B9BAE0506001201060106910F0060F95
S3150000430005D0410700D5B3E0800700D5B3E0002013
S315000043107047F0B513460022002936D0624C634D33
S315000043208BB98B4231D250F8046BEE605B1C0826C9
S315000043302E60264601E036B3761E2F69FF07FAD4B3
S31500004340002EEED11FE0EFF3108672B600230EE0CA
S315000043502F6907F01907102F08BF2F602F693F0735
S31500004360F6D550F8047BEF605B1C10272F608B425C
S31500004370F4D306B962B6264601E026B1761E286950
S31500004380C007FAD40EB96FF002021046F0BD2DE94F
S31500004390F84F474F0D4639680446002041F00101A9
S315000043A09B4639604FEA92088146AA4602E0B1442C
S315000043B00AEB860AC14517D204EB89063046FFF799
S315000043C08FFF010022D1C6F30A00C0F500608608FF
S315000043D0A8EB0900B04238BF06465A463146504659
S315000043E0FFF797FF0100E2D021682A68914209D0C1
S315000043F02046FFF775FF010004D15A4601212846E1
S31500004400FFF787FF3968490849003960BDE8F28F30
S315000044102749254A0B6843F001030B608860012099
S3150000442048604869400704D50868400840000860AD
S315000044301EE04869800704D5086840084000086007
S3150000444019E00220486001E022B1521E4869C00707
S31500004450FAD422B9086840084000086005E00868F8
S31500004460400840000860002070476FF00200704767
S315000044704FF0FF3070476FF001007047002386E76A
S315000044800B48016841F00101016046F21A31C1642E
S315000044904FF4807141604169C907FCD40021C164B1
S315000044A00020704700000000809698000C000E4027
S315000044B008000E4070472DE9F047DFF8DC570FF291
S315000044C09C010FF23C5A0FF22858DFF8D0970446A9
S315000044D0287800F0B7FD0027CEA603E000F03CFCEC
S315000044E07F1CBFB2206800EB07114A6828781300CA
S315000044F01AD04A4509D14A69130018BF4A45EFD078
S315000045000A68414600F09EFDEAE78B680A68514654
S3150000451000F098FD206800EB0710C2682878002A92
S31500004520DCD00FF2E441EDE70FF2AC0100F08AFDBA
S3150000453028780FF2CC0100F085FD28780FF2F00103
S3150000454000F080FD28780FF2141100F07BFD28782A
S315000045503146BDE8F04700F075BD0000434F4D4DB4
S31500004560414E44205B504152414D45544552535DA6
S31500004570205B2D204445534352495054494F4E5DCC
S315000045800D0A202077686572653A20623D6275667D
S315000045906665722C2073313D696E74385F742C2009
S315000045A073323D696E7431365F742C2075313D75FA
S315000045B0696E74385F742C2075323D75696E74317E
S315000045C0365F742C2075343D75696E7433325F74B2
S315000045D00D0A0D0A0000000020202120202D205267
S315000045E06563616C6C7320746865207072657669AA
S315000045F06F757320636F6D6D616E640D0A00000048
S3150000460020205B7461625D202D20417474656D709D
S31500004610747320746F2074616220636F6D706C65B3
S31500004620746520636F6D6D616E640D0A0000000095
S31500004630202020202A2A204E4F54453A20616C6CB7
S3150000464020696E7075742076616C75657320617271
S315000046506520696E20686578210D0A0020202020DB
S315000046602A2A20436F6D6D616E6473206172652026
S315000046704E4F5420636173652073656E7369746968
S3150000468076650D0A00000000A0F141011A293CBF21
S315000046902030C0B270472DE9F84F05460024A868BF
S315000046A00668F6B2304600F027FD5FFA80F830461D
S315000046B000F00AFDA1468246002606E01AF806002A
S315000046C0FFF7E2FF0AF80600761C4645F6DB42468F
S315000046D00FF2A801504600F091FD40B94FF00109D4
S315000046E005E038780FF29C015A4600F0ABFC2968C9
S315000046F020010A18526813003DD0DFF8A065641C3B
S31500004700B242A4B2F3D151F800B0DFF88C75B9F11A
S31500004710000FE6D1584600F085FD4045E7D14246F8
S315000047205146584600F05EFD0028E0D10FF2B4284D
S315000047300FF2D4290FF2540A04E0414600F082FC3D
S31500004740641CA4B2286800EB041041680A0018BF74
S31500004750B14210D0836802683878514600F072FC86
S31500004760286800EB0410C2683878002AE5D049466C
S3150000477000F068FCE4E7BDE8F18F00006D6F64753A
S315000047806C65730025700D0A000000002570202559
S315000047907000000070B5044688B0A068016801B1D9
S315000047A00121DFF8FC542970406800B10120DFF8D0
S315000047B0F46430700FF2600000F04FFFA068C1682B
S315000047C001B10121DFF8E0241170006900B1012078
S315000047D0DFF8D814087008782B78079004F11101D7
S315000047E00FF25C00069010780FF25C0205900FF253
S315000047F060000490012003907BA002903078019025
S315000048000FF2540000900FF2580000F026FF08B097
S3150000481070BD00000D0A00005475726E696E672047
S315000048206F66662074616773206E6F742079657495
S3150000483020737570706F727465640D0A0000000055
S315000048407465787400000000686561646572000034
S3150000485064656C696D000000636F6D6D616E640068
S315000048607B264E20566572626F73697479206F706D
S3150000487074696F6E732073657420746F3A0D0A261F
S3150000488074750D0A2674750D0A2674750D0A26743C
S31500004890750D0A2674757D0D0A000000DFF81014E8
S315000048A0007C51F82020DFF8F0030FF208010078B1
S315000048B000F0C8BB4349204572726F723A202570DA
S315000048C00D0A000038B5DFF8D043207845A500F082
S315000048D03FFA20780FF2340100F0B4FB00F037FA0B
S315000048E020780FF24C0100F0ADFB20783FA100F0DC
S315000048F0A9FB20780FF2440100F0A4FB20780FF208
S315000049004801BDE8344000F09DBB0000456D62657E
S3150000491072204E6F64652054657374204170706C0C
S3150000492069636174696F6E2076312E300000000075
S3150000493044656320323020323031370031323A3428
S31500004940353A3139000000000D0A0D0A000000005A
S315000049502DE9F24F044682B0256BDFF83CB3904652
S31500004960002705E01FA100F06DFB7F1CBFB21035CC
S315000049706868A8B3D5F80090DDF808A000260DE019
S315000049801AF8010BFFF780FE009019F8010BFFF7EC
S315000049907BFE0099C9B28142E7D1761CB0B2404590
S315000049A0EED32068BD4E00EB07114B680A689BF8F2
S315000049B00000B34204D10FF2380100F043FBD4E704
S315000049C08B680FF23C0100F03DFB206800EB0710FE
S315000049D0C2689BF80000002AC4D00FF22C01ECE755
S315000049E0BDE8F78F0D0A0000746167002C200000F7
S315000049F02D2D2D2D202570202D2D2D2D0D0A00005D
S31500004A002020257020257000202D2025700D0A00FD
S31500004A102DE9F0439BB00EA80FF29821342200F046
S31500004A204DFE4FF000098DF80190A52000F097FE8D
S31500004A3000F0DAFE00F07DF9002001F005F805002F
S31500004A4005D000F071F9002000F0FEFF054600F0E9
S31500004A5070F9012000F0F8FF060005D000F064F9B7
S31500004A60012000F0F1FF064600F063F9022000F095
S31500004A70EBFF5FEA000805D000F056F9022000F0CF
S31500004A80E3FF804601F078F8834C5DB1002E68D0D4
S31500004A90B8F1000F6BD04FF4FD710FF24C2001F00E
S31500004AA071F804E0002E18BFB8F1000F62D084F848
S31500004AB00090201D01F066F9201DFFF703FF0FF29D
S31500004AC0382520780FF2382800F042F920780FF2C6
S31500004AD09C2100F0B7FA6DA600F03DF9201D01F00B
S31500004AE07DFB00F034F920780FF28C2100F0AAFA51
S31500004AF000F031F9201D01F08EFB00F028F9207836
S31500004B000FF2802100F09EFA00F025F9201D01F039
S31500004B10E1FB00F01CF920780FF2742100F092FA04
S31500004B2000F019F9201D02F07BFC00F010F9207846
S31500004B300FF2682100F086FA00F00DF9201D02F050
S31500004B4082FC00F004F920780FF2BC1100F07AFA2A
S31500004B5000F001F9201D03F08DFB4DA54DA601AF18
S31500004B603FE0B8F1000F05D001202070A1E7022038
S31500004B70FBE725702078FF289BD10025694628464B
S31500004B8000F0B0FF38B99DF800000D2818BF0A28BC
S31500004B9018BF2A28EDD06D1CEDB2032DEEDBE9E738
S31500004BA08DF800009DF800107A5C481C0A2A18BF90
S31500004BB00D2A18BF002AF3D10D227A548DF8000071
S31500004BC001A99DF80020201D01F0E8F89DF80020BD
S31500004BD001A90EA800F0BCFA9DF8009000208DF8FF
S31500004BE0010000F0B0F820780DF10103322201A98E
S31500004BF000F07DFF0028D3D000F0AEFD00F0EAFE05
S31500004C0002F078FF9DF8010020B39DF8011001A87D
S31500004C10084410F8010C09281CD100F09CF89DF8F6
S31500004C200100401E8DF8010001A99DF80120201DFC
S31500004C30FFF78EFE9DF801100020785400F083F8EF
S31500004C40002004E000F07AF89DF80000401C00F017
S31500004C5063F8F7D39DF804002128C4D100F07BF84F
S31500004C604A460EA901A800F073FAA9F101008DF8D1
S31500004C70010000F068F8002000F04EF8B3D200F012
S31500004C805DF89DF80000401CF6E700005D0D0A0087
S31500004C90256300000D0A0000F4670020B5440000FB
S31500004CA0F46B0020F56B0020F66B0020F76B0020FC
S31500004CB0F86900200D000000000000000000000060
S31500004CC000000000000000000000000000000000DE
S31500004CD000000000000000000000000000000000CE
S31500004CE00000000000000000706C6174666F726D59
S31500004CF0746573742E6300005B494E4954200000AE
S31500004D000D0A3E20000000007365745065725465FC
S31500004D1073745478000000008DF800009DF80110AF
S31500004D209DF8000088427047012300224FF4164187
S31500004D307047012300224FF4E13170473A5C207836
S31500004D40294600F07FB94146207800F07BB92078EB
S31500004D50294600F077B92078314600F073B980B55E
S31500004D6003F0E9FBBDE80240002051E6637261737F
S31500004D7068696E666F00000072657365747374729D
S31500004D80696E6700696E6974546F6B656E730000B7
S31500004D90696E6974526164696F00000073656564C9
S31500004DA0506E72670000000070B51346104402E0B2
S31500004DB0A4192C705B1EDCB24CB101F00F06090978
S31500004DC0451E0A2E2846B4BF30243724F0E7104487
S31500004DD070BDF0B5002341B1002806D501232D2171
S31500004DE0B0F1004F117018BF4042002100240FF2AD
S31500004DF0702555F82470002601E0C01B761CB842C9
S31500004E00FBD2F7B20FB90F0005D0DBB206F13001C5
S31500004E10D1545B1C0121641C092CEADBDBB2303067
S31500004E20D054581CC0B2F0BD2DE9F24F804696B062
S31500004E3013A80190154603A89B4603AE002700243D
S31500004E408DF800000BE0012405460198864205D343
S31500004E5000F0DCF800284FD100F0CEF86D1C9DF86C
S31500004E6000002978301A0A000BD0252903D014B97E
S31500004E7006F8011BE9E7002C14BF00246D1C2978F5
S31500004E800A0000F0AF80B1F1250216D00B3A092ACC
S31500004E9040F28980283A7DD00A3A12D0521E41D07B
S31500004EA0521E5FD0083A5DD0121F3ED0D21E3CD0B3
S31500004EB0921E57D0D21E6DD0C7E7252006F8010BEB
S31500004EC0C3E7DBF8000002904FF0000A0BF1040084
S31500004ED000F1040BD0F80090CA45B6D2029810F83B
S31500004EE00A1002223046FFF75FFF06460198864207
S31500004EF005D300F08BF800287AD100F07DF8A9F1EF
S31500004F00010082453CBF202006F8010B019886422D
S31500004F1005D300F07BF800286AD100F06DF80AF19D
S31500004F20010AD9E75BF8040BC8E75BF8049B00F0BD
S31500004F3067F800285CD100F05FF84FF0000A01E046
S31500004F400AF1010A5FFA8AFA19F80A000028F7D16D
S31500004F509DF8580052464946C047002848D1574454
S31500004F60FFB272E76C290AD16A785BF8040B752ADE
S31500004F700EBF00210121642A07D16D1C05E07529A9
S31500004F805BF8040B0CBF002101213246FFF721FF1D
S31500004F9036185AE75BF8041B0222C9B23046FFF7FF
S31500004FA003FF064651E76A780124782A18BF582A73
S31500004FB0F8D16D1C0024681E322904D15BF8040B5D
S31500004FC0042281B2EAE734297FF43DAF5BF8049B03
S31500004FD004224FEA19413046FFF7E6FE04221FFA83
S31500004FE089F1DCE700F00CF810B9F019C0B200E066
S31500004FF0002017B0BDE8F08FF719FFB203AE704777
S3150000500006469DF85800F2B203A940479DF80000F5
S31500005010361A9DF85800F2B203A9404701A111E0E3
S31500005020000000000D0A00000CB438B5044604AABE
S3150000503000F010F805462046FFF7F0FF284632BC80
S315000050405DF80CFB0CB480B502AA00F003F802BCB4
S315000050505DF80CFB80B503F0D3FFC0B202BD0000C3
S3150000506000CA9A3B00E1F5058096980040420F0081
S31500005070A086010010270000E8030000640000007D
S315000050800A000000DFF8B0104A69904203D3C969EC
S31500005090884200F04EB800207047002818BFFFF77E
S315000050A0F1BF01207047010001D100207047DFF8F1
S315000050B08810496901EB4000801E704780B5FFF7F4
S315000050C0F2FFBDE80240E8E710B5040012D0FFF792
S315000050D0F5FF18B940F2394100F027F82046FFF7EE
S315000050E0E2FF38B10188090402D5D0F80A0010BDE4
S315000050F0083010BD002010BD10B5010013D0FFF719
S31500005100D2FF0446FFF7C9FF18B940F2534100F039
S315000051100CF844B12088000401D5208910BD6088B0
S31500005120C0F30C0010BD002010BD0FF2100000F0FF
S3150000513029BD8041C00F70474878002062756666B9
S3150000514065722D6D616E6167656D656E742E6300A7
S31500005150814233D210441144401E491E10E011F81A
S31500005160013900F80139121F11F8013900F8013927
S3150000517011F8013900F8013911F8013900F801393F
S3150000518092B2042AEBDA93B2002B1EBF11F8013952
S3150000519000F80139521EF6D1704711F8013B00F8AC
S315000051A0013B121F11F8013B00F8013B11F8013BCE
S315000051B000F8013B11F8013B00F8013B92B2042ACA
S315000051C0EBDA93B2002B1EBF11F8013B00F8013B4E
S315000051D0521EF6D17047130003D00A46194604F052
S315000051E03FB8704710B500E0521E93B223B100F0ED
S315000051F012F8F9D0181B10BD002010BD10B500E044
S31500005200521E93B22BB100F006F8F9D0181B40B22B
S3150000521010BD002010BD10F8013B11F8014BA34250
S315000052207047000000F10103810704D010F8011B4C
S3150000523089B18107FAD10268B2F10131914311F0C7
S31500005240803F04BF50F8042FF6E710F8011B11B198
S3150000525010F8011BFBE7C01A7047000038B504467A
S31500005260611D206A2368451A2079EAB2984708B179
S31500005270002032BD00F018F8601D2062012032BD0A
S3150000528038B50446002500E06D1CEDB2485D0028E7
S31500005290FAD1207923682A46984718B900F004F80D
S315000052A0012032BD002032BD94F82900281884F868
S315000052B0290070472DE9F04F804608F1200785B098
S315000052C008F1050038600E4608F115007860914631
S315000052D000207872DFF8B44313E018B108F1050036
S315000052E03860164625B17D2000F0A0F901F8010DC1
S315000052F038687968884203D300F096F9002862D0AE
S31500005300761C3078010000F075812528617818BF79
S31500005310262809D07B281CBF7D28232802D10029F6
S31500005320E6D0E1E7A178FAE716F8012F252A18BF9B
S31500005330262A04D100F07AF901F8012DD8E72628AB
S315000053400BD151B101256E2A18BF4E2A06D000F0A6
S315000053506DF97B2001F8010D00E000253178002071
S315000053604E2906D0542923D06E2902D074291FD085
S3150000537032E0207859F804BB0028B9D035B1386836
S315000053807B210170811C39602821417000F04CF9A5
S31500005390002818D000F03BF9002814D0002DA7D023
S315000053A0386829210170811C39607D2141709FE791
S315000053B000F038F9002806D000F029F9002802D0BC
S315000053C000F032F9002800F07C8000F02FF93A2036
S315000053D001F8010D761C0120317896F801E0A1F163
S315000053E03002D2B2911E05293CD2BEF1640F18BF1D
S315000053F0BEF1750F36D159F804CB002301211FFAEF
S315000054008CFCBEF1640FE24609D15FEA0C4E06D56C
S315000054106FEA0C0C0CF1010C01231FFA8CFCBCF199
S31500005420000F0AD04FF00A0E9CFBFEFC5B1C1FFA15
S315000054308CFCBCF1000FF5D10BE05B1C09E0D7F842
S3150000544000E00EF1010EC7F800E04FF0200C0EF858
S3150000545001CD9C460CF101035FFA8CFC9445EEDB12
S31500005460761C00E000213378721E002B00F0BE800F
S31500005470322B18BF342B00F09580482B06D0582BC2
S315000054800FD0632B0FD0642B1FD0682B00F07F80CA
S315000054906C2B52D0702B18BF732B0BD0752B14D0DE
S315000054A0782B76D019E73868411C396059F8041B07
S315000054B0017017E700F0B6F818B100F0A8F8002858
S315000054C0F7D1002005B0BDE8F08F002919BF1FFAFB
S315000054D08AFA514659F8041B89B229B900F0A6F890
S315000054E0302001F8010DFDE60020642B0DD10A04E1
S315000054F00BD53B685B1C3B602D22B1F5004F03F8D2
S31500005500012D02D0494289B259B10A2291FBF2F229
S315000055100A23C0B203FB12110DF80010401C91B211
S31500005520F2E70146481EC9B20029DCD0C0B23A688B
S315000055301DF8001000F065F8F3E759F8041B002980
S31500005540CCD0002000290AD53B685B1C3B602D228D
S31500005550B1F1004F03F8012D01D0494259B10A2299
S31500005560B1FBF2F20A2303FB121102ABC0B21954CB
S31500005570401C1146F2E70146481EC9B2002910D068
S3150000558002A9C0B23A68095C00F03BF8F3E700F004
S3150000559041F8022259F8041B3868C9B2FFF704FC27
S315000055A038609FE616F8010F682818BF48280BD107
S315000055B000F030F816F8011C386832290AD159F87B
S315000055C0041B042289B2E9E7782818BF5828F1D0CD
S315000055D0761E87E659F804BB04224FEA1B41FFF703
S315000055E0E3FB386004221FFA8BF1D7E701007FF452
S315000055F074AE76E600F018F800283FF462AF787AC9
S3150000560060E7521C3A60303102F8011D7047594676
S31500005610404635E6386830210170811C39607821B2
S315000056204170704759F804BB404617E63968491C73
S31500005630396070470EB410B5154909788BB000244F
S3150000564009B9002008E000F019F801466846FFF79E
S3150000565031FE00B9012420460CE00EB410B58BB023
S3150000566000F00CF8002401466846FFF723FE00B957
S31500005670012420460BB010BC5DF810FB05490091D3
S315000056800DAA054909788DF804107047F56B0020BE
S31500005690F46B00202D900000F467002062B38B07A6
S315000056A008D0521E11F8013B00F8013B00F024809F
S315000056B08B07F6D1830740F0208000BF103A07D34E
S315000056C030B4B1E83810103AA0E83810F9D230BC3E
S315000056D0530724BFB1E80810A0E8081044BF51F8EA
S315000056E0043B40F8043BD20724BF31F8022B20F8D4
S315000056F0022B44BF0B7803707047083A07D3B1E812
S315000057000810083A40F8043B40F804CBF7D2530798
S31500005710E4E70000890001EB401000F184400068D6
S31500005720704703F0D1BD80B50121284803F072FE11
S315000057300421072004F0E2F925482649264A01609B
S3150000574004211160022141620421244A1160816A08
S3150000575041F00201816201BD1D4804F041BAA5284D
S3150000576000D0704780B500F005F810B11C49002044
S31500005770086001BD1648006810F0010018BF01203E
S31500005780704738B504460D4600F015F82A4604F071
S315000057900F0101B003462005BDE83040000E04F0BD
S315000057A08FBA00F00F010005000E30230D4A584352
S315000057B010441C30AEE700F00F010005000E302348
S315000057C0084A584310440C30A4E7000000050800BE
S315000057D0002005400108030080E200E000E100E04F
S315000057E00000A44200A0004010B501218148824C6F
S315000057F003F010FE814901200860002004F01EFA23
S31500005800012304220221052004F05AFA00F00FF8C1
S315000058100120207004F048FB01234022211D0FF2D5
S31500005820182004F00FFB76490860C00F10BD10B5B4
S3150000583001220121042004F015F87248724C016817
S3150000584041F0010101600022C16841F08071C16030
S3150000585000236E496E4808606E4802606E4A136007
S315000058600223236015236D4C2360002303646C4BD5
S315000058700B656C4911604FF480716B4A11600168C9
S3150000588041F48071016010BD38B504F01DFB5A4C1F
S3150000589021780025022912BF01250321217004F079
S315000058A019FB05BB5C480168C9070ED55F490A6844
S315000058B022F440620A6001684908490001600168F3
S315000058C00902FCD4642004F016FB00220021042007
S315000058D003F0C8FF4C490020086053490860494955
S315000058E008600120207031BD4648006800B10120E3
S315000058F0C0B27047D12202704170090A81704C49CA
S315000059000A78C270501C0870042070472DE9F84FC1
S3150000591080464D1D04F044FB002782464FF6FF7B70
S31500005920444C15E008EB0700594610F8026C304667
S3150000593004F064FB83464F4637480068C00707D526
S3150000594034480068C00503D520680028FCD02670BE
S31500005950FFF7CAFF40B3F8B2E9B2884224D204F096
S315000059601FFBA0EB0A0080B2B0F5FA7F22DCF8B28A
S3150000597010B95B260127DFE707F10109FFB2012F06
S3150000598008BF6E1FD7D0EDB2E81E874208BF5E463D
S31500005990D1D0A81E874208BF4FEA1B26CBD0681E6F
S315000059A08742BFD15D26C6E7FFB2EDB2AF4208BF60
S315000059B0002000D00120BDE8F28F10B50C4602464B
S315000059C0217800200529A4BF1046FFF79FFF042178
S315000059D0217010BD00B50A48006891B040226946A2
S315000059E004F01BFA20B1C2B26946122004F0B8FBDB
S315000059F011B000BD00250800187700201088144259
S31500005A00E8680020F0ED00E0F00004E0B00F00E0F0
S31500005A1055CEACC5000E00E0800E00E0100004E09C
S31500005A20FF0300400D000100040304E0001000E045
S31500005A30B37F0020200000E073696C6162737675A5
S31500005A40617274646F776E002DE9F041044601259A
S31500005A50200094B00F4690461E4606D001281DD061
S31500005A60102802D0202819D029E0002103F0C2F81E
S31500005A700546012C18BF202C08D0022C18BF212C5B
S31500005A8004D0032C1CBF222C232C25D1012E0197D8
S31500005A90ADF80C8015D14FF4805016E00AA80FF22D
S31500005AA0B4012422FFF70AFE68460AA92422FFF75A
S31500005AB005FE1020ADF82400ADF82600D9E7012038
S31500005AC00BE0022E03D14FF44050ADF80A006946B0
S31500005AD0204603F08FF80546E8B214B0BDE8F08121
S31500005AE003F049B980B503F051F9C0B202BD80B5E3
S31500005AF003F09EF9C0B202BD70B582B00446002024
S31500005B000D4616468DF8000001E0FFF725FE6B46B0
S31500005B10324629462046FFF7EAFF0028F5D176BD32
S31500005B2080B503F010FAC0B202BD80B503F01EFBCB
S31500005B30C0B202BD0CB480B50A46014602AB0448A9
S31500005B40FFF772F902BC00205DF80CFB00000000B4
S31500005B50F19000000000014000C2010000000010AA
S31500005B600000000003010B030D0000000000000010
S31500005B700000000002100000002080F3118870472A
S31500005B8042DE704738B504460D4604F04FFEFFF777
S31500005B90E3FD05F032FD2946204604F043FA2B4684
S31500005BA022460FF2CC110120FFF7C4FF29462046FA
S31500005BB0BDE83440E4E765482DE9F047644D0168E7
S31500005BC02E1D4FF420687165016AB16561490A6846
S31500005BD0F26549683166416A7166816AB166C16A71
S31500005BE0F166016B3167806B706796F83400400789
S31500005BF04CBFF46BB46B05F0A4FD0022F264844242
S31500005C00554A014624BFA2F1200AA245274631651E
S31500005C1005F19003DFF844C1DFF844E118D3A06929
S31500005C203064E4697464746DC4F30804062C13D1FB
S31500005C30704511D360450FD200884DF64264A042EC
S31500005C400AD13068586040F201787068986003E0C5
S31500005C5000273764776407464248814202D20146EC
S31500005C6000E0091D0846904203D20C68B4F1CD3F0E
S31500005C70F7D03D49081AB0640021002005EB8004E6
S31500005C80401C0628E167F9D3002003E0C0B205EB0B
S31500005C908004E167974223D252F8041D7145F9D377
S31500005CA06145F7D2CC07F5D5002405EB8409D9F870
S31500005CB07C90894502D0641C062CF6D3062CE9D1CB
S31500005CC0002814BF401E0520E0E7B16F002405EB55
S31500005CD08402641CD2F88070D767052CF7D319604C
S31500005CE00146481EC9B20029EFD1706DC0F3080005
S31500005CF0032810D0042811D0052812D0062813D066
S31500005D000C2817D0122818D118480068800719D512
S31500005D1040F2025816E040F6012813E040F6022849
S31500005D2010E040F603280DE0B8F5206F0AD140F6E2
S31500005D30042807E040F6052804E018B1322838BFE9
S31500005D4040F607284046BDE8F087000004ED00E075
S31500005D500000002000E300E020660020EA9F01002A
S31500005D60B44400009C000020206600201C20054052
S31500005D700D0A5B4153534552543A25703A25645DEA
S31500005D800D0A00000021C173C183002200F1240125
S31500005D900A7082730068C860704700002DE9F74FEB
S31500005DA082B000208DF801000298041D2430019075
S31500005DB051E0102E3ED100F02FF90120E072029939
S31500005DC09DF8000000F03AF945E09DF8100020B972
S31500005DD09DF8010005B0BDE8F08F0398401C0390C4
S31500005DE0401E00788DF800009DF81000401E8DF8CA
S31500005DF01000A8469DF80000672810D29DF80010F4
S31500005E000FF27030405C00F0300600F00F084006DC
S31500005E1008D50198407A804504DA012502E07B28FE
S31500005E2038BF10269DF800000A2818BF0D2829D172
S31500005E30012028E09DF80000232802D10620E07208
S31500005E4009E0202E07D003208DF800009DF80010F1
S31500005E50029800F0E5F80398002600250028B4D142
S31500005E609DF810006946FFF73DFE0028C1D02628A0
S31500005E70AED00298012100F0D3F878208DF800000A
S31500005E80A846102600208DF80100E07A0628E2D800
S31500005E90DFE800F00515599B9B6B0600DBE788E7FA
S31500005EA09DF801000028D6D0207B20B102982168F9
S31500005EB08847002020730298FFF764FFCBE7102E77
S31500005EC01CBF9DF800005F2800D025B1019800781E
S31500005ED00C28B8DA73E7202E18BF302E40D1019A6D
S31500005EE0029912781144002048744FF00009019875
S31500005EF0C7680AE01AF8010B00F099F81BF8011BB5
S31500005F00814209D009F101091037786840B3029837
S31500005F10D7F800A000F1110B9BF800000028E9D18A
S31500005F209AF800000028EDD1A4F81A900198618B28
S31500005F30C06800EB01108068E0610020A072019942
S31500005F4008700220E07200F067F80DB301992B206B
S31500005F5008720198C0F8048000F05EF804206EE72D
S31500005F600298032100F05CF89AE79DF8010018B149
S31500005F70029800F06FF89EE79DF80000232803D1F1
S31500005F80029800F067F859E7202E18D004205BE746
S31500005F909DF800002D2818BF2B2808D101990872FA
S31500005FA000200199486000F037F8032047E72228CF
S31500005FB006D140F22F110FF2A410FFF7E3FD4AE7D6
S31500005FC07B28D2D14FF49E71F5E755B1019801991E
S31500005FD04068497A01FB00800421E172019948601A
S31500005FE039E79DF80010782918BF582906D101997C
S31500005FF0496819B90199102048722CE7032803D083
S31500006000202E18BF302E01D007201DE7029800F081
S3150000601040F80028A8D094E70199607A4872704742
S31500006020027C1AB90622C273017475E07047A0F1AA
S3150000603041011A293CBF2030C0B2704738B50C4622
S3150000604094F82450FFF7F3FF61194874681C84F82C
S31500006050240031BD10B50446206A017831B16229A9
S315000060600CBF01210221405C2A2807D1216BE28B5B
S3150000607001EB021120464968884706E00420207497
S31500006080204661688847002020742046BDE81040FD
S3150000609042E070B500F108018A6990F82C600D6A3B
S315000060A0137854782D2E08BF6D42752B07D1342CEA
S315000060B010D18B790E79B3421ED1052118E0732BCE
S315000060C00FD1312C07BF6FF07F037F24114B47F6AA
S315000060D0FF7408E00023312C14BF4FF6FF74FF2431
S315000060E001E0042104E09D42A8BFAC42E1DA0621AA
S315000060F0FFF796FF002070BD086840F823508879A6
S31500006100401C887190782A281CBF901C8861012049
S3150000611070BD00000080FFFFF8B50446206BE18BE0
S315000061200FF2380500EB01100027866805E0022013
S31500006130315C2A2918BF36187F1CA17BF8B2884229
S3150000614009D230786228F2D14FF40F712846FFF752
S3150000615019FD0120ECE70020A073F1BD636F6D6DA2
S31500006160616E642D696E7465727072657465722EE7
S315000061706300000000000000000000000020202056
S3150000618020200000000000000000000000000000C9
S315000061900000000020003030000000000000003049
S315000061A0003000004041424344454647484900000C
S315000061B000000000005A5B5C5D5E5F10101010105E
S315000061C010101010101010101010101010101030A9
S315000061D000000000005A5B5C5D5E5F0010B505F0D4
S315000061E014FB40F2A174C440E0070BD5064C20789E
S315000061F005F02AFB207805F0C6FB2078BDE81040A4
S3150000620005F08EBC10BD00BFF46700201F210FF201
S315000062102C00FFF7B7BC10B502F006FA044602F0F0
S31500006220F8F90246234604480FF220010078BDE83B
S315000062301040FEF707BF0000F46700207265736523
S31500006240742D746573742E63000000005245534527
S31500006250543A25702D25700D0A00000010B5DFF8A0
S31500006260004CDFF8001C2078FEF7ECFE2078DFF803
S31500006270481CBDE81040FEF7E5BE0178A1F13003E9
S315000062800A2B0AD3A1F14103062B38BF373904D3B1
S31500006290A1F16102062A03D257390907090E00E067
S315000062A000214078A0F130030A2B02D24018303882
S315000062B00CE0A0F14103062B02D24018373805E066
S315000062C0A0F16102062A03D240185738C0B27047BF
S315000062D00809704710B505F01BFF02001BD0DFF858
S315000062E0804B2078042A08BF0FF6684108D0062A9A
S315000062F008BF0FF6AC4103D0072A04D1DFF8BC1B58
S31500006300FEF7A0FE03E00FF21001FEF79BFE2078D9
S315000063100FF23801ADE710BD68616C537461636BB1
S31500006320496E6974546F6B656E73204641494C45DE
S3150000633044207769746820456D6265725374617490
S3150000634075733A2025580D0A00000000546F6B65DE
S315000063506E7320617265207374696C6C206163745E
S31500006360697665207768656E207573696E67207437
S31500006370686973206170706C69636174696F6E2EF1
S315000063800D0A00002DE9F04FC1B08068DFF8D07A21
S315000063900568FFF763FFA8B206F024F80446A8B222
S315000063A005F00DFF8046A8B206F0A6F88346002C3D
S315000063B038781ABF4FF6FF7188450FF628412CD062
S315000063C02346AAB20FF62841FEF73CFE00250FF23F
S315000063D0A4190FF2A41A0AE01DF8062038784946D7
S315000063E0FEF730FE761CF6B2A642F5DB6D1CEDB26A
S315000063F05D4510DABBF1010F234603D17F2200F081
S3150000640069F806E02A4600F065F838785146FEF746
S3150000641019FE0026E7E738785146FEF713FE41B02D
S31500006420BDE8F08F2DE9F047C0B080680468476882
S31500006430DFF82C6AFFF712FFA0B205F0D3FF814602
S31500006440A0B205F0BCFE8046A0B206F055F805469F
S31500006450B9F1000F30781ABF4FF6FF7188450FF675
S31500006460843132D0A5F1010A15B1FFB2BA450BDA73
S315000064700FF68831FEF7E6FD30780FF6B831534651
S315000064800022FEF7DFFD22E04B46A2B20FF6603196
S31500006490FEF7D8FD012D08BF7F274B463A4600F090
S315000064A019F835A430782146FEF7CCFD00270FF207
S315000064B0C40805E01DF807204146FEF7C3FD7F1C12
S315000064C0FFB230784F45F5DB2146FEF7BBFD40B005
S315000064D0BDE8F0874146684605F03CBE2DE9F04729
S315000064E0C2B08068DFF8D8790668FFF7B7FEB0B2A9
S315000064F005F078FF8146B0B205F061FE8246B0B283
S3150000650005F0FAFF0646B9F1000F1CBF4FF6FF7003
S31500006510824505D138780FF6CC21FEF793FD28E0A9
S3150000652000240FF6343803E0504605F023FE641CC1
S31500006530B4421EDA002513E016FB09F0431E387834
S3150000654009FB04524146FEF77DFD38780322694671
S31500006550FFF7D2FA6846FFF790FE01A948556D1C71
S315000065604D45E9DB012E4B4601AA0CBF7F21E1B266
S31500006570DAE758E0202558000D0A00002DE9F0471B
S31500006580C2B0806807684468DFF8D458FFF766FE33
S31500006590B8B205F027FF8046B8B205F010FE814676
S315000065A0B8B205F0A9FF0746B8F1000F28781CBF5E
S315000065B04FF6FF71894504D10FF62821FEF742FDFB
S315000065C031E07E1E17B1E4B2A6420BDA0FF62C219B
S315000065D0FEF738FD28780FF65C2133460022FEF7D9
S315000065E031FD20E000260FF6702A11E02878A8F188
S315000065F0010332465146FEF725FD287803226946F7
S31500006600FFF77AFA6846FFF738FE01A98855761C27
S315000066104645EBDB012F08BF7F24434601AA2146EE
S31500006620484605F0A7FD42B0BDE8F0872DE9F043E6
S31500006630ADF5497DDFF828480FF63425FFF70EFE45
S3150000664020784EF2455200F030FC20780FF62821D3
S31500006650FFF766FADFF86C0800F015FC00270FF26A
S31500006660883802A84146C25D00F06AFC7F1C082FEC
S31500006670F7D3DEA700F01CFC20784CF2563200F06F
S3150000668014FC20780FF60421FFF74AFA0126DFF8FA
S31500006690380800F004FC00F056FC9DF8012000F0DC
S315000066A054FC761EF3D100F003FC20784EF24532FE
S315000066B000F0FBFB20780FF6E811FFF731FADFF860
S315000066C00C0800F0E0FB02A800F038FC761C082E4F
S315000066D0F9D300F0EDFB20784EF6735200F0E5FB9F
S315000066E020780FF6D011FFF71BFADFF8E40700F069
S315000066F0D0FB002604A800F021FC761C102EF9D34E
S3150000670000F0D6FB20784CF24E2200F0CEFB20782B
S315000067100FF6AC11FFF704FADFF8B80700F0B9FB83
S31500006720002604A800F00AFC761C102EF9D300F00F
S31500006730BFFB20784CF6441200F0B7FB20780FF62A
S315000067409011FFF7EDF90126DFF88C0700F0A7FBA3
S3150000675000F0F9FB9DF8012000F0F7FB761EF3D15F
S3150000676000F0A6FB20784DF2430200F09EFB207855
S315000067700FF66C11FFF7D4F90126DFF8600700F079
S315000067808EFB00F0E0FB9DF8012000F0DEFB761E9C
S31500006790F3D100F08DFB20784CF2431200F085FB1C
S315000067A020780FF64C11FFF7BBF9DFF834070188A4
S315000067B00223F2B2684605F0CDFC00F0C4FB9DF85A
S315000067C0012000F0C2FB761C142EEEDB00F070FBFD
S315000067D020784DF2463200F068FB20780FF6201143
S315000067E0FFF79EF90126DFF8FC0600F058FB00F0E3
S315000067F0AAFB9DF8012000F0A8FB761EF3D100F05D
S3150000680057FB20784CF2433200F04FFB20780FF60E
S315000068100811FFF785F90126DFF8CC0600F03FFBEB
S3150000682000F091FB9DF8012000F08FFB761EF3D15E
S3150000683000F03EFB20784CF6535200F036FB2078F1
S315000068400FF6E801FFF76CF9DFF8A00600F01BFB76
S3150000685002A800F073FB761C082EF9D300F028FB83
S3150000686020784CF2543200F020FB20780FF6D0014D
S31500006870FFF756F90126DFF8780600F010FB00F066
S3150000688062FB9DF8012000F060FB761EF3D100F05C
S315000068900FFB20784DF6540200F007FB20780FF628
S315000068A0AC01FFF73DF90126DFF8480600F0F7FADC
S315000068B000F049FB9DF8012000F047FB761EF3D15E
S315000068C000F0F6FA20784DF2570200F0EEFA207842
S315000068D00FF68401FFF724F9DFF81C0600F0D9FA59
S315000068E004A800F02BFB761C102EF9D300F0E0FA7A
S315000068F020784CF2573200F0D8FA20780FF66C0167
S31500006900FFF70EF9DFF8F40500F0B7FA002600F0FD
S3150000691014FB761C042EFAD300F0CAFA20784CF643
S31500006920575200F0C2FA20780FF65401FFF7F8F834
S31500006930DFF8CC0500F0A1FA002600F0FEFA761C7E
S31500006940042EFAD300F0B4FA20784DF2575200F034
S31500006950ACFA20780FF63C01FFF7E2F8DFF8A40561
S3150000696000F08BFA002600F0E8FA761C042EFAD323
S3150000697000F09EFA20784CF2574200F096FA207802
S315000069800FF62401FFF7CCF8DFF87C0500F075FA66
S31500006990002600F0D2FA761C042EFAD300F088FA0C
S315000069A020784CF24B2200F080FA20780FF60C018A
S315000069B0FFF7B6F8DFF8540500F06BFA002604A8D6
S315000069C000F0BCFA761C102EF9D300F071FA20788C
S315000069D04CF2423200F069FA20780FF2F871FFF7B4
S315000069E09FF8DFF82C0503E0202558000D0A00006B
S315000069F001885C237F22B2A805F0ACFB0026B2A872
S31500006A0000F09CFA761C5C2EF9D300F051FA20783F
S31500006A104CF6431200F049FA20780FF2C871FFF7DE
S31500006A207FF8DFF8F004018814237F2210A805F010
S31500006A3091FB002610A800F081FA761C142EF9D3DB
S31500006A4000F036FA20784DF2433200F02EFA207824
S31500006A500FF2A871FFF764F80126DFF8BC0400F016
S31500006A601EFA00F070FA9DF8012000F06EFA761E0C
S31500006A70F3D100F01DFA20784DF2423200F015FAFB
S31500006A8020780FF28C71FFF74BF8DFF8900400F0D6
S31500006A9000FA04A800F052FA761C102EF9D300F082
S31500006AA007FA20784CF2453200F0FFF920780FF211
S31500006AB07C71FFF735F8DFF86804018894237F229C
S31500006AC08DA805F047FB00268DA800F037FA761C46
S31500006AD0942EF9D300F0ECF920784DF2583200F0FC
S31500006AE0E4F920780FF25871FFF71AF8DFF834044A
S31500006AF000F0BDF9002608A800F020FA761C202E2A
S31500006B00F9D300F0D5F920784DF2593200F0CDF9DD
S31500006B1020780FF24871FFF703F8DFF80C0400F055
S31500006B20A6F9002608A800F009FA761C202EF9D34B
S31500006B3000F0BEF920784CF64B2200F0B6F920782A
S31500006B400FF23471FEF7ECFFDFF8E0030188222331
S31500006B507F2284A805F0FEFA002684A800F0EEF94C
S31500006B60761C222EF9D300F0A3F920784BF234627A
S31500006B7000F09BF920780FF21471FEF7D1FFDFF8D1
S31500006B80B00300F080F9002602A800F0D7F9761CC1
S31500006B90082EF9D300F08CF920784FF6017200F038
S31500006BA084F920780FF2F061FEF7BAFF012602237E
S31500006BB07F220021684605F0CDFA00F0C4F99DF861
S31500006BC0012000F0C2F9761EF1D100F071F92078AB
S31500006BD04EF2632200F069F920780FF2D461FEF7D5
S31500006BE09FFF04237F22012100F03EF900F0A5F962
S31500006BF0761C042EFAD300F05BF920784EF263522D
S31500006C0000F053F920780FF2BC61FEF789FF0423E8
S31500006C107F22022100F028F9002600F08EF9761C6A
S31500006C20042EFAD300F044F920784DF2030200F066
S31500006C303CF920780FF2A061FEF772FF04237F2251
S31500006C40032100F011F9002600F077F9761C042ED6
S31500006C50FAD300F02DF920784DF2050200F025F95F
S31500006C6020780FF29061FEF75BFF04237F22042158
S31500006C7000F0FAF8002600F060F9761C042EFAD32C
S31500006C8000F016F920784DF2060200F00EF9207891
S31500006C900FF27C61FEF744FF08237F22052100F0F6
S31500006CA049F9002602A800F049F9761C082EF9D306
S31500006CB000F0FEF820784DF2070200F0F6F8207892
S31500006CC00FF27061FEF72CFF08237F22062100F0E9
S31500006CD031F9002602A800F031F9761C082EF9D306
S31500006CE000F0E6F820784DF2080200F0DEF8207891
S31500006CF00FF25C61FEF714FF08237F22072100F0E4
S31500006D0019F9002602A800F019F9761C082EF9D305
S31500006D1000F0CEF820784DF20A0200F0C6F820788E
S31500006D200FF24461FEF7FCFEBC237F22082155A822
S31500006D3005F010FA002655A800F000F9761CBC2EC6
S31500006D40F9D300F0B5F820784DF20D0200F0ADF859
S31500006D5020780FF23C61FEF7E3FEFE237F22092135
S31500006D6015A805F0F7F9002615A800F0E7F8761C37
S31500006D70FE2EF9D300F09CF820784DF20E0200F0BA
S31500006D8094F820780FF22C61FEF7CAFEFE237F22CC
S31500006D900A2115A805F0DEF9002615A800F0CEF8A0
S31500006DA0761CFE2EF9D300F083F820784DF20F0200
S31500006DB000F07BF820780FF22461FEF7B1FE002682
S31500006DC00523F2B20B2100F0B5F84FF0000902A836
S31500006DD0414610F8092000F0B3F809F10109B9F1AC
S31500006DE0050FF4D3761C032EEADB00F061F8207859
S31500006DF04DF2090200F059F820780FF20461FEF70F
S31500006E008FFE04237F220C2100F02EF8002600F0CE
S31500006E1094F8761C042EFAD300F04AF820784DF246
S31500006E20100200F042F820780FF2E851FEF778FEE3
S31500006E3000250E23EAB20D2104A805F08BF90026E1
S31500006E4004A800F07BF8761C0E2EF9D36D1C102DCD
S31500006E50EFDB00F02DF80DF5497DBDE8F08300006D
S31500006E60F4670020C0C7010001A805F073B90188C6
S31500006E7020237F2208A805F06DB9018804237F220C
S31500006E8001A805F067B9018808237F2202A805F04A
S31500006E9061B9018810237F2204A805F05BB9018837
S31500006EA002237F22684605F055B92946FEF7CAB87F
S31500006EB020783946FEF7C6B8D0C70100F8C70100EA
S31500006EC0F4670020BCD80100BED80100C0D801007C
S31500006ED0C2D80100C4D80100C6D80100C8D8010034
S31500006EE0CAD80100CCD80100CED80100D0D8010004
S31500006EF0D2D80100D4D80100D6D80100D8D80100D4
S31500006F00DAD80100DCD80100DED80100E0D80100A3
S31500006F10E2D80100E4D80100E6D80100E8D8010073
S31500006F20EAD80100ECD80100EED80100F0D8010043
S31500006F30F2D8010002A805F00DB901A84146825D0C
S31500006F402078FEF77FB89DF8002020784146FEF7AE
S31500006F5079B8000068616C537461636B496E69743B
S31500006F60546F6B656E73204641494C4544207769E2
S31500006F70746820454D4245525F454550524F4D5F1E
S31500006F804D46475F535441434B5F56455253494F15
S31500006F904E5F4D49534D415443480D0A00000000D1
S31500006FA068616C537461636B496E6974546F6B6589
S31500006FB06E73204641494C454420776974682045E4
S31500006FC04D4245525F454550524F4D5F4D46475FD6
S31500006FD056455253494F4E5F4D49534D41544348D0
S31500006FE00D0A00006E6F7420666F756E640D0A00E0
S31500006FF05B2532785D28256429203D004552524F95
S31500007000523A204465736972656420696E646578D6
S31500007010206973206F7574206F662072616E6765D4
S3150000702020666F72207468697320746F6B656E0DCD
S315000070300A0000002020202020202056616C696470
S315000070402072616E67652069732025582074687206
S31500007050752025580D0A00006461746120627974F8
S31500007060655B2564206F662025645D3A000000009C
S315000070705B2532585D2000004D46475F454D424531
S31500007080525F4555495F3634000000004D46475F64
S31500007090435553544F4D5F56455253494F4E00008A
S315000070A04D46475F435553544F4D5F4555495F36EF
S315000070B0340000004D46475F535452494E47000086
S315000070C04D46475F424F4152445F4E414D45000099
S315000070D04D46475F4D414E55465F4944000000000E
S315000070E04D46475F5048595F434F4E46494700005B
S315000070F04D46475F4153485F434F4E464947000060
S315000071004D46475F53594E54485F465245515F4F6F
S3150000711046465345540000004D46475F4343415F92
S315000071205448524553484F4C440000004D46475F73
S31500007130455A53505F53544F524147450000000093
S315000071404D46475F4354554E450000004D46475F48
S31500007150584F5F54554E45004D46475F4C4F434B85
S31500007160424954535F504C57000000004D46475F5C
S315000071704C4F434B424954535F434C573000000039
S315000071804D46475F4C4F434B424954535F4D4C5716
S31500007190000000004D46475F4C4F434B4249545355
S315000071A05F554C57000000004D46475F4C4F434B20
S315000071B0424954535F444C57000000004D46475F18
S315000071C0424F4F544C4F41445F4145535F4B4559E5
S315000071D0000000004D46475F43424B455F44415423
S315000071E0410000004D46475F494E5354414C4C41C7
S315000071F054494F4E5F434F44450000004D46475F9C
S3150000720053454355524954595F434F4E46494700EB
S315000072104D46475F5345435552455F424F4F544C89
S315000072204F414445525F4B45590000004D46475F6C
S3150000723043424B455F3238334B315F444154410042
S315000072404D46475F5349474E45445F424F4F544C66
S315000072504F414445525F4B45595F58004D46475F85
S315000072605349474E45445F424F4F544C4F41444566
S31500007270525F4B45595F59004D46475F544852454A
S3150000728041445F4A4F494E5F4B4559004D46475F63
S315000072904555495F36340000535441434B5F4E56C3
S315000072A0444154415F56455253494F4E0000000039
S315000072B0535441434B5F424F4F545F434F554E54D7
S315000072C045520000535441434B5F4E4F4E43455F7A
S315000072D0434F554E5445520049505F535441434B1A
S315000072E05F4D554C5449434153545F5345515545A1
S315000072F04E43450049505F535441434B5F5345430A
S3150000730055524954595F53455155454E4345000022
S3150000731049505F535441434B5F4D4553485F4C4F73
S3150000732043414C5F494E544552464143455F4944AB
S315000073300000000049505F535441434B5F4D4143A9
S315000073405F455854454E4445445F4944000000009B
S3150000735049505F535441434B5F504152454E545F31
S315000073604C4F4E475F49440049505F535441434B8D
S315000073705F4F4C445F4143544956455F4F50455219
S315000073804154494F4E414C5F44415441534554008A
S3150000739049505F535441434B5F4143544956455FFF
S315000073A04F5045524154494F4E414C5F4441544120
S315000073B05345540049505F535441434B5F50454E2B
S315000073C044494E475F4F5045524154494F4E414CF8
S315000073D05F444154415345540000000049505F53F7
S315000073E05441434B5F4F5045524154494F4E414CD7
S315000073F05F444154415345545F5441494C00000099
S3150000740049505F535441434B5F4E4F44455F44419F
S31500007410544100004348494C445F5441424C4500A6
S3150000742010B50446002003F039FC002003F050FCA0
S31500007430012003F06EFB204605F0FDFA2046BDE86C
S31500007440104000F021BF80B5022100F02DF9009810
S3150000745005F042FC01BD8068DFF8DC1300680870A7
S3150000746008780228A8BF0FF2104305DA002814BFD7
S315000074700FF210430FF21443DFF8C0030FF2E832A5
S31500007480D0F8F012FFE70FF2D430FEF7E6B80000AE
S31500007490F8B503F0A8FADFF8A8430FF2844204EB2C
S315000074A08000C368DFF89403D0F830130FF254401D
S315000074B0FEF7D3F8DFF88C03006805F045FC0528D5
S315000074C0054614D8DFE800F003100E090C060FF28B
S315000074D008420EE00FF2F4320BE00FF2E43208E05D
S315000074E073A206E073A204E00FF2CC3201E00FF2C1
S315000074F0F4320FF208410FF2FC300FF2F037FEF7CC
S31500007500ACF80026F6B254F8261005F0010238460B
S31500007510FEF7A3F8761C6D08F0B20328F2D3BDE897
S31500007520F24090E038B50446A0680568DFF80C0321
S31500007530D0F840130FF2F430FEF78FF8EDB215B124
S31500007540012D07D00CE00FF2EC30FEF786F803F0C1
S315000075506DF905E00FF2F030FEF77FF803F041FA1F
S315000075600FF2F430FEF779F82046BDE832408FE797
S31500007570F0B506460C4685B0204602F0EBFE0746FF
S31500007580204602F0DDFF05460FF248423FB923468A
S3150000759006F111010FF22440FEF75FF810E00397A1
S315000075A023460FF26440029006F1110104F01F0019
S315000075B001900FF24C4000900FF22040FEF74DF87C
S315000075C0A5420FF2C83605D02A460FF2444130468E
S315000075D0FEF743F8204602F09BFF024612F1010F28
S315000075E00FF27C300FF2803108BF0FF2843210D0D8
S315000075F012B90FF284320CE0DFF84C02DFF84812C1
S31500007600B2FBF0F001FB102131B902460FF28431D2
S315000076103046FEF722F813E04FF47A71DFF82C02B9
S31500007620B2FBF1F14FF47A7303FB11230078002BC0
S3150000763006BF0A460FF264310FF27031FDF702FD04
S3150000764005B0BDE8F04068A0FEF707B810B50446DF
S3150000765002F020FF01462046BDE8104088E738B515
S31500007660044603F0C0F90500DFF8D001D0F8101386
S315000076700FF2A43018BF0125FDF7EFFF03F0B1F9B3
S31500007680A0680068C0B202F0B4FE02460FF22021E4
S315000076900FF2B830FDF7E1FF0DB103F0C7F8204651
S315000076A0BDE83240D2E70121684602F089BD0000FC
S315000076B0547800005278000010B5044603F0CBFB66
S315000076C004F11101BDE81040034659A20FF28430BF
S315000076D0FDF7C3BF2DE9F84F06468946154603F068
S315000076E082F9040018BF012403F0B1F9002E4FF00F
S315000076F07F0A6FF07F0B4FF000088DF8000008D16D
S315000077000126022003F0A7F9642002F0F4FB3746B5
S3150000771012E0F6D576420020F4E7802002F0EBFB7B
S3150000772003F0A9FA83455246B8BF8346824692457E
S31500007730C8BF924680447F1E012FEEDA9DF80000F6
S3150000774003F089F90CB103F071F8B9F1000F18BF15
S3150000775089F800A015B198FBF6F028705846BDE8E8
S31500007760F28F10B500F01AF804F11101BDE81040CF
S3150000777003460FF200320FF2E820FDF76EBF10B598
S3150000778000F00CF802F0F9FE04F11101BDE810401A
S31500007790034628A20FF2E420FDF75FBF044600224D
S315000077A00021012096E710B5044686B0A06800685F
S315000077B004AA0DF11101FFF78DFF039004F11101E9
S315000077C00FF200309DF911300FF2E82202909DF978
S315000077D0100001900FF2E42000900FF2BC20FDF79C
S315000077E03CFF06B010BD00007D0D0A0080B503F019
S315000077F0ABFB034611480FF2E422D0F890130FF2C8
S31500007800CC20BDE80050FDF728BF10B504460B4854
S31500007810D0F8A0130FF2D420FDF71FFFA068006870
S3150000782040B203F05EFB2046BDE81040DEE70000F4
S315000078304343410045440000F86B0020A0C101000D
S315000078402C680020706D002040420F00F467002075
S3150000785081680968C9B28BE6000000007B264E20CD
S315000078602674737D0D0A00005045522054657374CA
S31500007870204D6F6465000000656E61626C65642D65
S315000078806E657700656E61626C656400646973613C
S31500007890626C65640000000061736C6565700000D1
S315000078A06177616B65000000656E6572677900003F
S315000078B0737461747573000049646C6500000000A0
S315000078C0527841637469766500000000547841631C
S315000078D07469766500000000496E616374697665B7
S315000078E000000000556E6B6E6F776E002026746880
S315000078F000000000202674730000000052665374D6
S31500007900617465007B264E20526164696F20706F3A
S3150000791077657220737461746520267473000000A5
S31500007920706F776572207374617465007B264E20D4
S3150000793000000000536C656570696E6720726164B3
S31500007940696F2E2E2E00000057616B696E672072DC
S315000079506164696F2E2E2E00646F6E657D0D0A00C0
S315000079602026747000000000667265710000000039
S31500007970696C6C6567616C0050657252616D52612D
S3150000798064696F436F6E6669670000002026747530
S3150000799000000000667265714D487A00207B6672B1
S315000079A065714B487A3A256C7D000000207B667233
S315000079B06571487A3A256C7D000000007B264E20D2
S315000079C0526164696F206368616E6E656C2026740F
S315000079D0680000006368616E6E656C007B264E2051
S315000079E0526164696F206368616E6E656C202674EF
S315000079F068202826746420696E2026746429000095
S31500007A006368616E00000000706167650000000039
S31500007A105074694368616E007B264E20536574740A
S31500007A20696E67206368616E6E656C20616E6420A6
S31500007A3063616C6962726174696E67202861732084
S31500007A406E6565646564292E2E2E00002674687D99
S31500007A500D0A00007B264E202674647D0D0A000068
S31500007A607B264E20267464205B64426D5D7D0D0A84
S31500007A700000000052535349000000007B264E20B0
S31500007A80267464205B3830322E31352E3420756EE4
S31500007A906974735D7D0D0A007B264E202674642072
S31500007AA026746420267464205B64426D5D7D0D0A35
S31500007AB0000000006D696E525353490061766752AB
S31500007AC0535349006D617852535349007B264E202B
S31500007AD02674642064426D7D0D0A000043434120F4
S31500007AE05468726573686F6C640000007B264E7D77
S31500007AF00D0A000080B5002003F006FCBDE8014039
S31500007B0005F00EB838B5DFF83841DFF83811607D7A
S31500007B10C870607B18B105F043F9002808D505F058
S31500007B203FF940054CBF03200120002105F08CF9E8
S31500007B30E06901224FF47A7105F031FA050003D0AD
S31500007B4000F05DF901202075284632BDDFF8F010FF
S31500007B50C861887DDFF8EC100871D3E770B58EB088
S31500007B600C460CA805F012FA054605F03FFA064643
S31500007B7005F008FABDF83610DFF8CC200B91034665
S31500007B800FF244010FF248000A9103950196BDF8E1
S31500007B90341009910FF280010891BDF83210079157
S31500007BA00FF27C010691BDF8301005910FF27801B5
S31500007BB004910FF27C0102910FF27C0100912146A3
S31500007BC0FDF74BFD0EB070BD7375737000000000BD
S31500007BD07B264E202674752026743268202674640F
S31500007BE02F31303025250D0A20202674642F3130A0
S31500007BF0302525202674642F313030252520267423
S31500007C00642F3130302525202674642F31303025FD
S31500007C10257D0D0A000000006372697400000000F3
S31500007C206C696D690000000074616C6B00000000F7
S31500007C307573656400000000616363656C00000095
S31500007C4048680020547000204C7C00006D6F64650D
S31500007C50000000002DE9F04B06468946904605F0E7
S31500007C60B7F9DFF8C845070918BF7F1EA070667010
S31500007C708C2E18BF02F0D4FE30000FF22C1BDFF85A
S31500007C802C560CD0402E1CD0882E18BF892E36D0EC
S31500007C908C2E21D08D2E1DD08F2E09D024E0206968
S31500007CA0401C206100F0A6F848B34FF4A46123E01D
S31500007CB0A069401CA06100F09DF800B340F2255178
S31500007CC01AE0E069401CE06100F094F8B8B140F2B7
S31500007CD0315111E005F079F96069401C6061287D39
S31500007CE068B14FF4A76107E032460FF2D4010120D4
S31500007CF0FDF720FF40F249515846FDF743FF402E5D
S31500007D0084F80080C4F8289025D1E078022822DB88
S31500007D10401EE0702089401C208105F041F800F0EB
S31500007D208020B0F1004F01D000F069F805F038F876
S31500007D30000408D505F034F840054CBF03200120A7
S31500007D40002105F081F8E86900224FF47A7105F008
S31500007D5026F9060026D000F052F8300018BF8F2E04
S31500007D601ED0207902281BDB401E20716089401C32
S31500007D706081DFF85805007802280ADBE969DFF838
S31500007D805005814205D10178092902DBC178491CD9
S31500007D90C170688B02F0AFF8BDE8F04BFFF7B2BEDA
S31500007DA001202875BDE8F08B7068792D636F6D6DC5
S31500007DB06F6E2D74782D746573742E630000000049
S31500007DC0656D626572526164696F5472616E736D3E
S31500007DD06974436F6D706C65746549737243616C49
S31500007DE06C6261636B207374617475733A203078CA
S31500007DF025780000206A38182062287D7047002107
S31500007E00002005F021B880B502F048FB00F010F81C
S31500007E10D0F8801406E080B502F053FB00F008F8B5
S31500007E20D0F8A0140FF2EC40BDE80050FDF715BCE9
S31500007E300346DFF8A4040FF2E842704730B5044663
S31500007E4083B0A068056868B202F037FB01906BB298
S31500007E5000F026F8D0F890140FF2D040FDF7FDFBA5
S31500007E60A8A0FDF7FAFB2046BDE83E40CBE730B5BB
S31500007E70044683B0A068056828B202F027FB01908B
S31500007E802BB200F00DF8D0F8B0140FF2A040FDF7B9
S31500007E90E4FB9CA0FDF7E1FB2046BDE83E40BAE7C7
S31500007EA00FF268400FF294420090DFF82C047047FE
S31500007EB0000000B5DFF824140FF2A4420B8B0FF27A
S31500007EC0B84183B00091019300F111010FF27C409B
S31500007ED031E18168DFF8042409681183E9E72DE9B7
S31500007EE0F14F84B08068008801900124401E8041D3
S31500007EF0C00F029002F077FD00B101208DF801005D
S31500007F004FF0000BDFF82453DFF8A08368697C4F3D
S31500007F10ADF80200D9460198012813D000F006F901
S31500007F203878029921B10FF27041FDF78BF803E022
S31500007F30019A78A1FDF786F8B8F8182000F0F1F854
S31500007F4000F0EAF8DFF88863DFF894A38022514650
S31500007F503046FDF7A3FBDFF8740300780228A4BFC0
S31500007F603078092819DB9AF8011001F0200141F058
S31500007F70C1017170A1461821B1703018029919B16A
S31500007F8000F805BC002004E0019900F8051C0198E2
S31500007F9000123178711801F8040CDA4611E001F08C
S31500007FA0FFFF834698F8140048B9FFF7A3FD01F0D8
S31500007FB0F7FFA0EB0B0080B2B0F5FA6FF2D995F897
S31500007FC001B0029810B9019882454FDA00208DF869
S31500007FD0000069463878FDF785FD9DF80010652993
S31500007FE044D03878642906D100F08EF8049800F160
S31500007FF01101002007E0442907D100F085F8049814
S3150000800000F111010120FFF7A9FD0AF101001FFA95
S3150000801080FADFF8D002007820B102F0DFF808B16C
S3150000802004F0E6FFB8F8180001F065FFDFF89C02DF
S31500008030007880B1B9F1000F18BFF47030780428C9
S3150000804009DB301800F8034C201231787118641CD3
S3150000805001F8020CA4B2002088F814000120687010
S315000080603046FFF773FD0028834698D038780FF224
S315000080704C315246FCF7E6FF98F80D0040B1A88A4D
S31500008080BDF80210421A38780FF24C31FCF7DAFFCD
S3150000809038780FF268315A46FCF7D4FFDFF8480209
S315000080A00FF2743102883878FCF7CCFF38780FF27B
S315000080B08831FCF7C7FF29783878002914BF0FF2FA
S315000080C094310FF29831FCF7BDFF02F0FBFE28B1A8
S315000080D06A6A38780FF28C31FCF7B4FFAA6A3878EE
S315000080E00FF2AC31FCF7AEFF642001F004FF9DF8FF
S315000080F0010008B102F09AFB05B0BDE8F08F000060
S31500008100F46700200D0A000052460FF2B021FCF77A
S3150000811099BF00002575000038780FF2E411FCF7CE
S3150000812091BF38780FF27C21FCF78CBF38780FF2BC
S315000081306021FCF787BFFDF790FA07BD38B500F060
S315000081403DF800F034F818BF0124FCF77BFF02F07D
S3150000815048FC02F043FE02E0287800F00BF800F03D
S3150000816004F8F9D102F04BFE1DE09DF800006528E9
S31500008170704720786946FDF7B5BC38B500F01EF8A3
S3150000818000F015F818BF0124FCF75CFF02F029FC8B
S3150000819002F043FE02E02878FFF7ECFFFFF7E5FF69
S315000081A0F9D102F057FE0CB102F040FB31BDDFF809
S315000081B03C510FF24C1104002878704700208DF8CE
S315000081C0000002F010BC2DE9F041DFF820410FF26B
S315000081D0F02120780FF2F8260FF2EC28DFF8007174
S315000081E0FCF730FF002515E07A5D20784146FCF764
S315000081F029FF681005EB90708010B5EB800007D161
S315000082003878854204DA20782A463146FCF71AFF88
S315000082106D1CEDB23878401C8542E5DBBDE8F08187
S315000082208068DFF8BC100068087070475470002042
S315000082302DE9F84304460025A068DFF8B06007681A
S315000082400FF29829DFF898807F1CFFB2802F06DA9C
S31500008250A06800EB8500406808F8070005E0307864
S315000082606B1C7A1E4946FCF7EDFE6D1C042DEBDBFC
S31500008270BDE8F1831A481421017001214A1E4254B7
S31500008280491C8029FAD370471248194A0021016116
S3150000829041618161C16101621160164A116001810B
S315000082A0418100201449086070470000486800209A
S315000082B080680A4A0078010018BF0121517302281C
S315000082C00E490CBF0120002008707047F86B002093
S315000082D0247F002054700020A0C1010048680020BF
S315000082E0A47E0020F96B00204E7E0020F46700205B
S315000082F02C7B0020287B0020D07B00205B6D00209B
S315000083002765276E642E2E2E00000000737461749C
S31500008310757300007B264E2026746464426D7D00D2
S3150000832061637475616C506F776572007B264E20B1
S3150000833026746464426D202674647D0072657175CE
S315000083406573746564506F77657200007B264E20F6
S315000083502674647573202674327875737D00000068
S315000083607472616E736D69742064656C617920281E
S3150000837064656329000000007472616E736D697430
S315000083802064656C61792028686578290000000002
S315000083905478696E67200000696E66696E69746557
S315000083A000000000207061636B65747320257520E2
S315000083B075732061706172742E2000000D0A257598
S315000083C0207061636B657473207472616E736D697E
S315000083D0747465642E0D0A002575206661696C65E6
S315000083E0642064756520746F206368616E6E656CC9
S315000083F020627573792E0D0A000000004C617374BB
S31500008400207061636B6574207374617475733A20B0
S3150000841030782532780D0A004C61737420706163E0
S315000084206B6574206261636B6F66663A20307825EF
S3150000843032780D0A000000004672616D6520706595
S315000084406E64696E6720696E206C617374204143A7
S315000084504B3A20005965732E0D0A00004E6F2E0D03
S315000084600A0000005346442074696D652028766929
S3150000847061205346442073656E742063616C6C62A0
S3150000848061636B293A2030782532780D0A000000A6
S315000084905346442074696D652028766961205458D6
S315000084A020636F6D706C6574652063616C6C6261CE
S315000084B0636B293A2030782532780D0A00000000D7
S315000084C0206C656E3A200000307825782000000088
S315000084D00D0A307825783A20000000007061796C2A
S315000084E06F6164206279746520696E6465783A20EC
S315000084F02564206973206F7574206F662072616E23
S3150000850067652E20617267756D656E74202564201F
S3150000851069676E6F7265642E0D0A0000130018BF3E
S3150000852001231A46FFF796BB890001EB401000F1C4
S3150000853084400260704730B5434887B00068040E37
S31500008540684604F0ADFD8F2C10DA4048404C0168B7
S3150000855041F0040202604FF05013002230255543CB
S31500008560521C6351062AF9D3016001E0902C06DA09
S3150000857038480168C909C90141F0200101609DF828
S315000085800100012804D13448016841F0040101606A
S3150000859000220D213148FFF7C7FF3149012008604D
S315000085A003AC04F097FD04F046FE05F05CF80FF20C
S315000085B0B400D0E90023CDE9012301208DF807009E
S315000085C001A805F0B1F905F029FC01F0F7FC0FF25E
S315000085D09C000FC884E80F0008208DF8180003A837
S315000085E005F0B6FC07B030BD05F0C0BC05F0BFBC59
S315000085F080B50021002004F047FCBDE8014004F0EE
S31500008600AFBC04F0AEBC002818BF04F037BD04F0C0
S3150000861036BD80B503F0F9F801460FF260000C296B
S3150000862038BF00EB810002BD80B503F0F2F80FF20F
S315000086307C010204120E51F8221000F0FF0001EB3B
S31500008640800002BD00000000FC81E00FB0400E403B
S3150000865000A000402C400E4064310E4054300E40C5
S3150000866010300E40000000000000000054D201004F
S315000086704CD201005CD2010000000000554E4B00B8
S315000086804649420042544C00455854005057520047
S31500008690574447002053570043525300465348005F
S315000086A042414400464C540042524F007CD20100E5
S315000086B080D20100D8D20100F8D2010004D3010013
S315000086C00CD3010018D3010028D3010030D30100D8
S315000086D03CD301004CD301006CD30100012100F012
S315000086E01F029140DFF84C2A05E0012100F01F022D
S315000086F09140DFF8442A400942F8201070470121D2
S3150000870000F01F029140DFF8342AF4E710B5DFF8D5
S31500008710304A30B1012807D0102802D0202803D0D3
S3150000872004E00020204410BD1C20FBE74FF4BD717F
S315000087300FF62430FDF726FA204610BD42689288CF
S315000087404089401A824201DA0120704700207047B2
S3150000875070B5012884B0044604D9B0F1100101D0E7
S3150000876010393BD1012818BF202832D1FFF7CEFFA0
S31500008770054601F0A9FB0646A86901AB6A4602A9AF
S3150000878006F077FB00992A89286889B200F030F84C
S31500008790304601F09FFBA86906F0E3FB012818D1DB
S315000087A0296828898988401A298A884211DBA8699C
S315000087B090F83110022903D106F059FB022804DA99
S315000087C0A86990F83100012803D1A869002106F0B4
S315000087D0A0FB200014BF102CFDF7FCF87FBDDFF8CE
S315000087E06409416821F0020141600221016070477D
S315000087F070B500F095FB01F067FBE188A9420CD249
S315000088002288521A521992FBF6F306FB1322228093
S31500008810A288AA18511AA180E58000F0F5BCF8B527
S31500008820012818BF20280C46154616D1FFF76EFF03
S315000088300646307B10B101207073F1BD707B18B114
S315000088403046BDE8F240B9E00FF2D91700F006F85D
S3150000885018B100F003F80028FBD1F1BDB0693B4622
S315000088602A46214606F061BC70B505460E46FFF75E
S315000088704DFF012D18BF202D044640D1A069016887
S3150000888090F83200E8B90420886400F06BF9A0691A
S315000088900068C16C002E07D041F00401C1640B20B2
S315000088A0FFF71CFF052106E021F00401C1640B203F
S315000088B0FFF71BFF0021A0690068BDE8704006F0C5
S315000088C0C3BC0420486300F04DF9A0690068816BC1
S315000088D0002E07D041F0040181630B20FFF7FEFE56
S315000088E0052106E021F0040181630B20FFF7FDFE60
S315000088F00021A0690068BDE8704006F02ABD70BD81
S31500008900F8B50446DFF8400881421D4634D00026FB
S3150000891000F0ABF82DD13A893868A9B2FFF768FFA5
S3150000892039680020C88002E0384600F026F8204664
S3150000893006F09DFA03281CDA788AF98948433968D3
S315000089408A88002A80B2EFD00B88B7F80EC0498813
S3150000895084446145B8BF984207DB8B42E4D2FA896A
S3150000896082189142A8BF9842DEDA0121204606F01D
S31500008970D0FA761C022ECBDBF1BD38B50446DFF803
S31500008980CC37E089658A216802466843084400F1CD
S315000089900801A06906F081FBA06906F068FA0228C2
S315000089A003DBA069002106F0B4FA608AA18A401CA4
S315000089B090FBF1F201FB1200608231BDFEB5044668
S315000089C0207B68BB60680FF25D074188084400F1B0
S315000089D00805A0696B4601AA02A906F06AFA606852
S315000089E08188009A891A019A8E1A418800888842DD
S315000089F00ED26089421AA0693B46294606F095FBCD
S31500008A0070B9606861894288711A561800F10805C4
S31500008A10A0693B46F2B2294606F087FB00B96073AF
S31500008A20F7BD00002DE9F04104469846002600F007
S31500008A301CF815D178688188414534BF858845463C
S31500008A4001F042FA79687A894988ADB2691800F06E
S31500008A5057F87A68518079688A88521B00F0C7F8FF
S31500008A60761C022EE3DBBDE8F0811C21DFF8D00680
S31500008A7011FB06F14718B869A042704738B50D4694
S31500008A80FFF744FE112D044609D1A069002106F026
S31500008A9051FA002020732046BDE832408EE7132DA0
S31500008AA006D1A069012106F045FA0120207331BDE7
S31500008AB0206801880844057220680188228900F030
S31500008AC01EF801808188491C8180A06906F049FA58
S31500008AD0226821899288891A89B220B9E2898A4254
S31500008AE0A8BF012105DA012808D1208A814205DBC9
S31500008AF00021A069BDE8344006F00BBA31BD491C1F
S31500008B0091FBF2F302FB1311704780B5DFF84006C4
S31500008B100169090606D506F009FCBDE804400146D0
S31500008B200120ABE701BD80B5DFF82806016829B151
S31500008B300168DFF8242611600021016000F012F8B8
S31500008B400B20FFF7CBFDDFF81406016841F00401A6
S31500008B5001600221DFF8EC050160416841F0020185
S31500008B60416001BD0B20CAE580B5DFF8F40504219C
S31500008B700160416821F004014160FFF7F3FF0B201B
S31500008B80FFF7B3FDDFF8D005006810B1DFF8C415B4
S31500008B900860BDE8014022E6F8B50C461546FFF729
S31500008BA0B5FD0646EAB2306880883189891A88425E
S31500008BB001DB0120F2BD00270DE001F085F93168E7
S31500008BC00B8814F8012B19447F1C0A7231680A8835
S31500008BD0338900F004F8AF42EFD30020F2BD521CF7
S31500008BE092FBF3FC03FB1C220A808A88521C8A80B3
S31500008BF001F070B9F8B5012804460D4603D91038BE
S31500008C0001D010384DD1204600F005FB10B92046A2
S31500008C1000F081F800F0ADF8064600F0AAF8220050
S31500008C20DFF840150CD0012C03D0102C08D0202CD6
S31500008C3037D101F1D00202604FF48C720A4402E08F
S31500008C40016001F148024260402202818022428195
S31500008C50200018BF102C03D1BDE8F140FCF7C4BDBD
S31500008C60012C18BF202C52D1012C13BF202C4FF4FD
S31500008C70D07008180020012C18BF202CB06110D12C
S31500008C80DFF8E404A98CA8618030E861F181EA8C00
S31500008C9032828A4207D21C21304606F097FB022018
S31500008CA0F2BD0120F2BDB06990F83130012B0CD035
S31500008CB0338993FBF1F701FB1733002B02BF92FBBD
S31500008CC0F1F301FB13210029E5D1294605F00AFF3E
S31500008CD000BBB069017F007E0123022200F0F0FF95
S31500008CE0287C012808D101212046FFF7BDFDB06987
S31500008CF0002106F00EF90AE000207082F189308921
S31500008D0090FBF1F0B08200F083FA00F081FA00F0F7
S31500008D1095FA0020F2BD58B50128044603D910384B
S31500008D2001D0103812D1204600F075FAF8B9204665
S31500008D3000F04BFA00F01DF8012C18BF202C064657
S31500008D4011D1B06905F095FF10B152BD012052BD99
S31500008D50B06990F83100012803D100212046FFF7C1
S31500008D6083FDFFF73CFD1C21304606F02FFB00205B
S31500008D7052BD2046CAE438B50446FFF7C7FC05468F
S31500008D802046FFF7E5FC2868808832BDF8B5064620
S31500008D9001280F46344603D9103801D010380BD1BC
S31500008DA03046FFF7B3FC05463046FFF7D1FC28688E
S31500008DB0808818B92620F2BD0120F2BD01F084F8A2
S31500008DC00646286841880844007A38702868418831
S31500008DD02A89FFF794FE41808188491E012C18BF1D
S31500008DE0202C81801FD1A86990F83100012803D179
S31500008DF019E02846FFF7C1FDA86906F038F80228F1
S31500008E0011DA2A68E889698A53881288414389B247
S31500008E1040188342B8BF914205DB9A42E9D28342A9
S31500008E20A8BF9142E5DA304601F054F80020F2BDC1
S31500008E30F8B500F074F81F4603D9103801D0103881
S31500008E4007D13878010001D0B0420AD3002028703B
S31500008E5007E00120F2BD3878411C39709DF80010FA
S31500008E60295469462046FFF791FF002856D19DF800
S31500008E7000008028F5DA39780A0003D10A2818BFDD
S31500008E800028EED0B14207D3002038709DF80000CC
S31500008E900D2818BF0028E4D09DF80000082818BF48
S31500008EA07F280CD138780100DBD0401E38700021B5
S31500008EB0C0B2295451A1204600F045F8D1E73878D0
S31500008EC0801C8642BCBF0D208DF800009DF8001066
S31500008ED0204600F029F89DF8000061381A2804D2CF
S31500008EE09DF8000020388DF800009DF800000D2840
S31500008EF018BF0A28AFD13978002068549DF80000C1
S31500008F000D2805D10A21204600F00EF8002603E0C0
S31500008F100D21204600F008F83E700020F2BD012821
S31500008F2004460D461646704702B5012804D9B0F12D
S31500008F30100101D0103904D10122694600F076F8FB
S31500008F4002BD012002BD2DE9F04701288146884671
S31500008F5004D9B0F1100101D010390ED1002818BF84
S31500008F6010280CD0FFF7D2FB064600247068018853
S31500008F70084400F1080A002524E0012038E04046B4
S31500008F80FCF750F9C1B2404601F059F82FE000F065
S31500008F909BFF71680B8818F8012B1944641C0A7230
S31500008FA071680A887389FFF71AFE7068008848B9E5
S31500008FB0671BFFB23A4600F01DF870687D19EDB2E6
S31500008FC000F1080A98F8000050B100213046FFF77A
S31500008FD0B5FB0028DBD1307B0028F6D0222007E045
S31500008FE0E4B2A54203DA621B92B200F003F8002055
S31500008FF0BDE8F08751464846FFF711BC0820080037
S3150000900010B5012804D9B0F1100301D0103B0BD1E3
S3150000901013460A4601460FF21500FBF705FF00242A
S3150000902000B90124204610BD012010BD2DE9F84FDE
S31500009030012881468A46934604D9B0F1100101D031
S3150000904010390ED1002818BF10280CD0FFF75EFB90
S315000090500746002478680188084400F108080026BD
S315000090602DE0012042E05946504600F0E8FF3CE082
S3150000907000F02AFF79680B881AF8012B19440A7246
S3150000908079680A887B89521C92FBF3FC03FB1C223D
S315000090900A808A88521C8A8009884D1EAD4100F0DC
S315000090A019FFED0F761C55B1351BEDB22A46414628
S315000090B0FFF7A1FF78682C19E4B200F10808F0B2B6
S315000090C058450AD200213846FFF738FB0028CFD191
S315000090D0387B0028F6D0222008E05C4505DAABEBA9
S315000090E0040292B24146FFF786FF0020BDE8F28FE8
S315000090F0F8B50127FFF713FF03D9103801D0103850
S3150000910016D1002C18BF102C04D13146284600F089
S3150000911096FF0027FFF72DFE012C18BF202C05D146
S3150000912080693246294605F01EFF07463846F2BDDD
S315000091300120F2BD00E100E080E100E080E200E015
S31500009140507A002024A40040097000F00189000034
S31500009150000001406C200E40887A00204C0001403F
S31500009160480001407C780020F868002038B50546A4
S31500009170012D04D9B5F1100101D0103923D1FFF723
S31500009180C5FA0446280018BF102D03D160688088F0
S315000091900028FBD1012D18BF202D12D160688088D0
S315000091A00028FBD1A06905F080FE0028F6D1A06951
S315000091B005F034FE8006F1D5A06905F02FFE800487
S315000091C0ECD5002032BD012032BD70B50546FFF753
S315000091D09DFA0646012D346818BF202D0DD1B069C1
S315000091E090F83110012908D0022105F087FD0020F2
S315000091F0708200F00DF800F00BF800F065FE00211B
S31500009200A18021806180E180BDE8704000F062BEEF
S315000092103046FFF7B2BB80B5012804D9B0F1100182
S3150000922001D0103906D1FFF771FA00281CBF00687B
S31500009230002801D1012002BD002002BD00B583B087
S31500009240002001900023012000900122012100202E
S3150000925000F0FBFC07BD0000636F6D2E630000008D
S3150000926062F30F2262F31F42401810F0030308D086
S31500009270C91A1FD3DB0748BF00F8012D28BF20F805
S31500009280022D130030B414461546103928BF20E9C4
S315000092903C00FAD8490728BF20E90C0048BF40F82F
S315000092A0042D890028BF20F8022D48BF00F8012DA3
S315000092B030BC7047C91818BF00F8012DCB0728BF6E
S315000092C000F8012D7047000006F084B8890001EB14
S315000092D0401000F1844002607047890001EB4010A5
S315000092E000F18440006870470122DFF8A81610B527
S315000092F0884232BF0022DFF8A016884201D2144607
S3150000930000E002241021DFF89406FFF7DFFFDFF804
S315000093109C07016821F0807141EA0461016010BD7B
S3150000932010B5DFF87C16CA6B02B1012241F6713323
S31500009330CB63DFF870460B6803F04073A04238BF7A
S31500009340002304D3DFF86847A04238BF012308682A
S3150000935020F0407040EA03600860D2B20AB10020F3
S31500009360C86310BD80B506F07AF8BDE80440002158
S31500009370D6E7D5E7C01C0F2801D2000770474FF08B
S31500009380704070470000000038B50446002500F024
S3150000939037F9DFF80C27DFF8A016944208D0DFF87B
S315000093A00427944206D0DFF80027944204D006E052
S315000093B0086802E0486800E0886800F00700401E80
S315000093C003281BD8DFE800F002050C0806F089F830
S315000093D004E006F08CF801E006F086F805460DE09C
S315000093E006F030F8DFF8C4160968090E01F001012D
S315000093F00122491C02FA01F1B0FBF1F5284632BD03
S31500009400DFF8B0164A68D20702D40A680242FCD1D5
S3150000941070470000F8B50446200A00F00F00002649
S31500009420401E09280D46DFF8987614D8DFE800F0CC
S31500009430051C1413071E21132428DFF86075C4F3D6
S31500009440043416B13046FFF7DBFF2A46214638467C
S31500009450BDE8F8403AE7F1BDDFF8680600F013F81A
S31500009460FFF742FF0837EAE71037E8E7303701260B
S31500009470E5E738371026E2E740374FF48036DEE777
S31500009480DFF84476DBE770B5DFF82C16DFF8102638
S315000094900E68DFF81016DFF81446012510F4781070
S315000094A05DD0B0F5003F2AD0B0F5802F21D0B0F5C1
S315000094B0002F54D0B0F5202F27D0B0F5402F46D03E
S315000094C0B0F5602F66D0B0F5901F3BD0B0F5A01F69
S315000094D024D0B0F5B01F2AD0B0F5D01F1CD0B0F5FF
S315000094E0E01F22D0B0F5001F2CD0B0F5381F39D0C0
S315000094F04FE005F0B6FFE168C1F308210AE005F088
S31500009500B0FFA168C1F3082104E005F0AAFF616974
S31500009510C1F30421491C12E0104615E01046FFF77E
S3150000952033FF216A01F00F0107E008460CE0084608
S31500009530FFF72AFFA16A01F0030105FA01F1B0FB6A
S31500009540F1F627E0DFF86005FFF71EFF1FE0DFF802
S315000095507C0500F055F807281CD0092819D105F01C
S3150000956080FF14E0DFF8680500F04AF804280CD004
S3150000957007280FD008280CD105F073FF2168C1F326
S315000095800421491C01FB00F604E005F085FF0646B0
S3150000959000E00026304670BD030903F00F030122E8
S315000095A05B1E072BDFF8041528D8DFE803F0040656
S315000095B00A0E10141C27086800E04869C0F304204E
S315000095C070470868C0F300607047C86800E08868A4
S315000095D0C0F308207047DFF8FC3498420ED1086AC1
S315000095E000F00F0006E0DFF8F034984206D1886AF2
S315000095F000F0030002FA00F0401E7047002070479A
S31500009600014601F00F010120491E0729DFF8CC248D
S3150000961049D8DFE801F0040F1348202E4836506A77
S3150000962000F0070002283AD002D3042804D01CD345
S315000096300520704711690FE002207047516901F05B
S315000096400701491E03292FD8DFE801F00F02031195
S31500009650F2E706207047916901F00701012904D05D
