S01600007468726561642D746573742D6170702E7333370B
S3150000000030D80320856C0300ED3500002D69030010
S31500000010A70B0000000000000000FFFF54000000D6
S3150000002004180F000000000000000000000000009F
S3150000003000000000000000000000000000000000BA
S315000000400000000000000000000000005400000056
S315000000500000000030D80320856C0300ED35000059
S315000000602D690300A70A02020002000004180FAC63
S315000000700025540000000000000000000000000001
S31500000080000000000000000000000000000000006A
S31500000090000000000000000000000000FFFFFFFF5E
S315000000A0FFFFFFFFFFFFFFFFFFFFFFFFFFFFFFFF5A
S315000000B0FFFFFFFF00E00F0000000000000000004F
S315000000C0FFFFFFFFFFFFFFFF1C0000000000000016
S315000000D00000000000000000000000009FFD03205B
S315000000E09FFD032030D8032048C50300AC740300ED
S315000000F058C90320401F0020000010000000000027
S3150000020030D80320856C0300ED3500002D6903000E
S315000002103569030031690300396903004569030044
S315000002204569030045690300456903004569030004
S315000002303D6903004569030045690300452B00003D
S31500000240677F0000D10A01004D1C000045690300CC
S31500000250F9060100110B0100D70A0100D90A0100B5
S31500000260D30A0100FD9802001373000077740000A2
S315000002701355000045690300456903004305000066
S3150000028045690300456903003173000045690300B1
S315000002904569030045690300456903004569030094
S315000002A04569030045690300456903004569030084
S315000002B0130B0100D50A0100E3760000470B01008D
S315000002C045690300DD7003004569030045690300C5
S315000002D04569030045690300456903004569030054
S315000002E04569030045690300456903004569030044
S315000002F04569030045690300456903004569030034
S315000003004569030045690300456903006F49704A62
S3150000031001E021B1491E1369DB07FAD401B9B0E047
S31500000320506001201060106910F0060F05D04107DB
S3150000033000D5A9E0800700D5A9E000207047F0B5F8
S3150000034013460022002936D0604C614D8BB98B4292
S3150000035031D250F8046BEE605B1C08262E602646F0
S3150000036001E036B3761E2F69FF07FAD4002EEED1D0
S315000003701FE0EFF3108672B600230EE02F6907F038
S315000003801907102F08BF2F602F693F07F6D550F8C1
S31500000390047BEF605B1C10272F608B42F4D306B9F9
S315000003A062B6264601E026B1761E2869C007FAD451
S315000003B00EB96FF002021046F0BD2DE9F0479A46DD
S315000003C0444B454F1C681B683B688046002043F041
S315000003D001033B60950881460C4602E0B14404EBFC
S315000003E08604A94517D208EB89063046FFF78EFF2B
S315000003F0010014D1C6F30A00C0F500608608A5EB1B
S315000004000900B04238BF0646524631462046FFF73D
S3150000041096FF0100E2D03968490849003960BDE815
S31500000420F0872C49294A0B6809682B490B6843F069
S3150000043001030B608860012048604869400704D5C5
S3150000044008684008400008601EE04869800704D537
S31500000450086840084000086019E00220486001E092
S3150000046022B1521E4869C007FAD422B9086840086A
S315000004704000086005E00868400840000860002069
S3150000048070476FF0020070474FF0FF3070476FF013
S3150000049001007047002390E70F48016841F0010111
S315000004A0016046F21A31C1644FF4807141604169BE
S315000004B0C907FCD44FF4007141604169C907FCD4F7
S315000004C00021C1640020704700000000809698005B
S315000004D00C000E4004300E4008000E40072803D2E0
S315000004E00FF2EC01085C7047FF207047072803D223
S315000004F00FF2E401085C7047FF20704738B50446E8
S315000005002D4800EB8105A8780009FFF7E7FF207169
S31500000510A87800F00F00FFF7E9FF6071FF2814BF0D
S3150000052001200020E8702146E878A07128786070E4
S315000005306878224DA070284600F0A1F80120A86036
S3150000054031BD10B50FF27C0184B01CC968461CC0D1
S3150000055019481B4A817BD36814682340DB072AD5D8
S31500000560032928D2126900EB810400EB4103E478E9
S315000005701CB114B2002C48BF00229A820122C37B10
S3150000058002FA01F11943C173417B91B10021437B0A
S31500000590CB40DB0708D581738A40437B5A404273C0
S315000005A06846FFF7ABFF1FBD491CC9B20329EED34E
S315000005B01FBD032181731FBDA4E10320002000405D
S315000005C0382000400000000000FF0000000000008E
S315000005D0E07B7C65466C6D00FF7B7C65466C6D0040
S315000005E0890001EB401000F184400260704730B58D
S315000005F0002A446BDFF834511ABF1022DFF830317D
S31500000600DFF8303123400024A84237D1DFF8280133
S3150000061051B101290CD002291ED003290CD006297C
S3150000062015D0812918D023E001680468006816E017
S3150000063001680468006802E0416844684068090C83
S3150000064001F4FE41C4F303442143000C0CE081682D
S31500000650806801F00F0107E041684468406801F4D2
S31500000660FE4104F00F04214300F0F00040EA0104CB
S3150000067004FA02F0DFF8C4101843086030BD38B53C
S3150000068004460D460220A0600022A9782046FFF706
S31500000690AEFF287969786B79020242EA016242EA82
S315000006A00342EB7842EAC302EB790BB142F0005207
S315000006B02B7A0BB142F00402AB790BB142F0020285
S315000006C06B7A0BB142F00102AB78F32806D1180021
S315000006D004D10429BCBF042060F31B6218064CBF7A
S315000006E042F0E00042EA4310206115496069084083
S315000006F0A9780A0644BF21F080010843297840EA18
S315000007004140E97A09B140F4804060610221AA7A49
S315000007102046FFF765FF2879F32804F13000BDE88D
S3150000072038400CBF01220022102159E7002000406A
S31500000730FFFF00800080FFFF1082E00F34200040A2
S31500000740F8BFE1FF42DE704738B504460D4600F0BB
S315000007502DFC01F096FA01F0A1FA2946204601F097
S31500000760A3FA2B4622460FF2CC11012001F015FC0C
S3150000077029462046BDE83440E4E765482DE9F047C0
S31500000780644D01682E1D4FF420687165016AB165DC
S3150000079061490A68F26549683166416A7166816A2B
S315000007A0B166C16AF166016B3167806B706796F856
S315000007B0340040074CBFF46BB46B01F088FC002298
S315000007C0F2648442554A014624BFA2F1200AA2459A
S315000007D02746316505F19003DFF844C1DFF844E1AF
S315000007E018D3A0693064E4697464746DC4F30804B2
S315000007F0062C13D1704511D360450FD200884DF6F3
S315000008004264A0420AD13068586040F201787068AC
S31500000810986003E0002737647764074642488142C0
S3150000082002D2014600E0091D0846904203D20C6838
S31500000830B4F1CD3FF7D03D49081AB064002100203D
S3150000084005EB8004401C0628E167F9D3002003E08D
S31500000850C0B205EB8004E167974223D252F8041D2B
S315000008607145F9D36145F7D2CC07F5D5002405EBE0
S315000008708409D9F87C90894502D0641C062CF6D3ED
S31500000880062CE9D1002814BF401E0520E0E7B16F11
S31500000890002405EB8402641CD2F88070D767052C0F
S315000008A0F7D319600146481EC9B20029EFD1706D11
S315000008B0C0F30800032810D0042811D0052812D050
S315000008C0062813D00C2817D0122818D1184800680B
S315000008D0800719D540F2025816E040F6012813E0C9
S315000008E040F6022810E040F603280DE0B8F5206F28
S315000008F00AD140F6042807E040F6052804E018B1BE
S31500000900432838BF40F607284046BDE8F087000078
S3150000091004ED00E00000002000E300E030D80320F2
S31500000920AC740300DC0400009C00002030D80320D7
S315000009301C2005400D0A5B4153534552543A25701D
S315000009403A25645D0D0A000010B54C00014600F022
S3150000095059FD224601F0F9FBA04201D0002010BD4E
S31500000960012010BD80B500F04DFD01F040FC00B146
S315000009700120C0B202BDDFF8940A407D00B101201B
S315000009807047DFF8882A117B01B9704780B50146A8
S31500000990106A01F082FC20B1BDE8044040F24F111C
S315000009A0FAE201BD10B5DFF8644A627D010018BFA6
S315000009B0012102B101229142607519D068B16FF030
S315000009C07F00FFF7DEFF01F0C3FCC00510D5206AEB
S315000009D0BDE81040012101F0F1BDDFF8644A94F949
S315000009E00C0000F0CFFD207ABDE8104000F02ABDD3
S315000009F010BDDFF8181A497D01F0FE010843D1E762
S31500000A0080B500F0FFFC01F099FB00F0030003281D
S31500000A1001D1012002BD002002BD80B5B0F5004F16
S31500000A2007D100F0DAFDDFF8840A00F0D4FCBDF847
S31500000A300000DFF80C1AC883002002BD2DE9F04F34
S31500000A40440900F01F050027DFF8888A00E07F1CB4
S31500000A5098F80660F8B2B04245D2D8F80800FFB25E
S31500000A6050F827004FF0000C01E00CF1010CC67E97
S31500000A705FFA8CFEB645EAD2D0F81CE05FFA8CFC31
S31500000A80182616FB0CF6B6449EF8086006F0070614
S31500000A90A642EAD19EF80960B542E6DB9EF801B0AF
S31500000AA09EF8009006EB0B0AAAEB090AAA45DCDBC6
S31500000AB0DFF85C4A247854B1DFF85049A47B34B996
S31500000AC0DEF80C401CB12468EC40E4070BD511B1EC
S31500000AD0AC1B4C440C7012B19EF8081011701BB17F
S31500000AE0C3F800E000E00020BDE8F08F400918BF21
S31500000AF040F01800704710B5DFF81049206A01F081
S31500000B0076FB0246206ABDE81040002101F08BBB4F
S31500000B100B38102834BFDFF8480ADFF8640A00688B
S31500000B2070473EB568460021002200230EC0DFF85C
S31500000B30100901788DF80010817A0A0018BF022981
S31500000B4014D10079DFF8C45800F0BBF8044600F071
S31500000B500EF858B1286A0122002101F0F1FA00F0DE
S31500000B6006F818B140F2792100F063FB37BD286A18
S31500000B706A46214601F004BB2DE9F041044604F023
S31500000B801F001B2886B034D2002000906B4600223E
S31500000B9000212046FFF752FF07002AD02046FFF724
S31500000BA0B7FF5FEA000824D0DFF86068DFF8B459C1
S31500000BB0F06B804515D001A84146062201F004FDE0
S31500000BC0306AC6F83C8001A901F0AEFB88B9306AEC
S31500000BD003A901F0B7FBB5F91C10306A01F07FFBE1
S31500000BE038B90098B06277620098002818BF00698B
S31500000BF001E08A200EE0F06229798C421CBF2C713C
S31500000C00FFF78FFF96F90D00C101306A09B201F0B6
S31500000C10CBFE002006B0BDE8F081DFF84809007978
S31500000C207047DFF84009B0F91C00002854BF0521C1
S31500000C306FF0040108180A2190FBF1F040B27047EA
S31500000C400A2110FB01F0FFE7F8B500F5D77240F274
S31500000C5077239A4201D38B20F2BDDFF8B047DFF845
S31500000C600459A26A0A23002A1EBFAE7F06F0C006F8
S31500000C70802E12D0A67B86B992F9026016FB03F786
S31500000C80B842B8BF16FB03F007DB92F9032012FB4C
S31500000C9003F68642B8BF12FB03F0217B61B1014621
S31500000CA0206A01F01CFB18B14FF4367100F0C1FA4E
S31500000CB0206A01F027FB01E010FB03F0A883002067
S31500000CC0F2BD38B50446FFF723FF90B1002300229A
S31500000CD000212046FFF7B2FE58B104F01F051B2D78
S31500000CE007D22046FFF702FF18B90B2D01DB284675
S31500000CF032BDFF2032BD7047C0B2704710F1590FA8
S31500000D0001DA0020704710F1240F01DBFF20704745
S31500000D105A300002362190FBF1F0C0B2704770B530
S31500000D20DFF8E846DFF8245A00202064687828B106
S31500000D3001F03EFE012818BF032801D1002070BD36
S31500000D40E16ADFF80C3ADFF81C2800291FBFA66A03
S31500000D507669002E022817D12364906900F5FA708F
S31500000D609061E07C18B100200021642203E0E8785D
S31500000D7029794FF4A0722070A2806170A878A070C3
S31500000D808020E080002030E0DFF8C8599069AE424C
S31500000D9013D1DFF8C439236400F57A709061E07CE2
S31500000DA088B90879207001228B7808799A40101842
S31500000DB091F903201018401E0CE0236400F5FA7028
S31500000DC09061E07C18B100202080642005E048781E
S31500000DD020708878607008780001A0804879A0703B
S31500000DE008890001E080C8880001A06000F0FBFBD4
S31500000DF0E07094F90200010048BF4042C0B270BDE5
S31500000E0070B50446DFF80466257896F9140008B133
S31500000E108C2070BDFFF783FFB075DFF83029DFF84F
S31500000E20440741780174690101F580718161937904
S31500000E30716C002BB37B1DBFAD1EEDB221F002011C
S31500000E4041F0020173B9127862B16278920609D54F
S31500000E506FF00102327541F00101826902F50872F4
S31500000E60826104E049084FF0FF3049003075716433
S31500000E70032000F001F96A1C306A4FF4807392B2C5
S31500000E80214601F0BDFD691C884203DA40F2294182
S31500000E9000F0CFF9002070BD00000000F8B5DFF8C3
S31500000EA06C5595F914100024091D04290FD8DFE8A4
S31500000EB001F0080E10100300FFF7A2FF040008D08F
S31500000EC0F2BD2C75286A01F03FF98D20F2BD8C2009
S31500000ED0F2BD01F015FBE8B1286CDFF87418884202
S31500000EE018D1A87DB0B1DFF8140A0068002811D522
S31500000EF0DFF80C0AC168C1600122006800F00F002B
S31500000F0002FA00F0401E014204D100F0A4FB642066
S31500000F1001F092FD01F0E4FD064695F9140010F18A
S31500000F20010F1CBF95F9140010F1020F29D195F994
S31500000F301400DFF830764042287501F0D7FD78625C
S31500000F40296C387949B9FFF7BCFE01466A6C286AF4
S31500000F5007F1100301F00BF90BE0FFF7B2FE07F102
S31500000F601001009101466A6C286AD5F840C02B46EC
S31500000F70E04760B1002028758C244FF0FF3078627E
S31500000F8002E0002028758D24286A01F0DDF830463D
S31500000F9001F0E3FD2046F2BDDFF81C0AFFF7D4BBE3
S31500000FA02046BDE8104001F0D8BD0000F8B501F0BC
S31500000FB097FDDFF88C540446A87A012803D1204611
S31500000FC001F0CBFDF1BDDFF8F419DFF84064DFF87E
S31500000FD0E879402008600122306A012101F0B0F86A
S31500000FE0DFF8DC194FF40010086069460FF2840040
S31500000FF000680090306A01F0CBFC18B140F2D7418E
S3150000100000F006FE02208DF800006946306A01F005
S315000010109CFC18B140F2D94100F0FAFD306A01F0AB
S31500001020A4F80021002001F0E7F900F004FB0120FC
S31500001030A87296F91400001D072810D8DFE800F002
S31500001040130F0707040B0B0B01F01BFE0BE06FF0F1
S315000010500300307507E0892000F032FB03E040F220
S31500001060FB4100F0D5FD204601F077FD01F0A8FE1A
S31500001070F1BD0000040100002DE9F04DDFF8C0537A
S315000010800446A87AA04282B063D00FF2CC01DFF802
S3150000109034690968DFF82089DFF87073DFF820A962
S315000010A0009103284FF4001B4FD8DFE800F04702F9
S315000010B03E2B01F08EFE386A694601F069FC18B1D4
S315000010C04FF4A36100F04AF802208DF8000069464B
S315000010D0386A01F03AFC18B140F21A5100F03EF8B5
S315000010E06879002814BF00220222386A022101F022
S315000010F0D3FE18B140F21F5100F030F80320032C44
S31500001100A87218D0CAF800B00220A8722879FFF792
S31500001110D8FD0146386A002201F032F818B140F2D3
S315000011202F5100F01BF8022C13D0002C18BF032CF3
S315000011300FD10020A872C6F800B00AE0022C08D130
S31500001140CAF800B00220A87203E040F2455100F050
S3150000115005F8BDE8F38D0000040200004046FFF7E5
S31500001160F3BA000010B5032804460ED8DFE800F0F5
S3150000117009020909FFF71AFFBDE81040002000F038
S31500001180AEBB012000F0ABFBE6E1BDE8104040F24B
S31500001190635101E780B500F00EF804D50021017512
S315000011A0006A00F0D1FFA648407A012802D1BDE8C6
S315000011B00140FBE601BDDFF8300A90F91410002962
S315000011C07047DFF8200A407A704780B5032801DBB4
S315000011D0012002BD9A494872897A884218BFFFF7F2
S315000011E0C1FF002002BD2DE97C4FDFF8FC6903EA50
S315000011F0010BD6E9068929EA010528EA000402EA74
S31500001200000A45EA0B0544EA0A044D4508BF444571
S315000012100DD0CDE900230246306A0B4601F0BAFB39
S3150000122018B140F28B5100F004F8C6E90645BDE856
S31500001230738F0FF6E410FFF787BA38B5734D04467F
S31500001240287BE8B1200018BFDFF8A02904D1A87CCC
S3150000125008B1402200E000220023DFF890090021B7
S31500001260FFF7C1FF002C14BF08220022286A0821BC
S3150000127001F012FE20B1BDE8344040F2C7518BE6C2
S3150000128031BDF8B50446022C0FF68C1503DB4FF47E
S31500001290BE6100F0A5F85D4E307B002840F09780D7
S315000012A0674FB87A012803D040F2F65100F098F85B
S315000012B0002107F1300000F02FFF306218B940F22C
S315000012C0F95100F08DF8306A052101F0FAF918B1EC
S315000012D040F2FB5100F084F8306A0FF6501101F02D
S315000012E0EDFD18B140F2FC5100F07AF8306A01F0D9
S315000012F019FE18B140F2FD5100F072F84FF0FF30C0
S31500001300DFF8EC2806230146FFF76DFF306A4FF041
S31500001310011100F09AFF18B140F2126100F060F876
S31500001320306A4FF48032002100F07DFF306A0922D6
S315000013304FF0FF3101F0B0FD18B140F2196100F035
S315000013404FF8012030730223DFF8A80800F043F8B5
S31500001350BDF80000C0054CBF0020BDF8000070734A
S3150000136001F0CEF8FFF769FFF88BFFF756FB01F0A7
S3150000137059FE00F087F83879FFF7FEFB18B140F206
S315000013802C6100F02DF8F87900F042F8387A00F078
S3150000139059F8307C00F08CF8787900F0CFF800F03E
S315000013A022F900F0EFF8B07C00F0F2FAB7F91C0071
S315000013B0FFF74AFC388C00F08FF8788C00F0AAF81A
S315000013C0B87900F0D1F8601E8041C00FB87220468F
S315000013D0FFF7C8FEF1BD01887F22684601F096BE80
S315000013E02846FFF7B1B980B500F00CF8012100F0EE
S315000013F0CAFE10F5007F02D16FF07F0002BD8005A6
S31500001400001602BDDFF8E007006A704748E10320D6
S3150000141010B50446DFF8D007017B51B1611E894142
S31500001420006AC90F01F0D0FD18B140F26761FFF7FD
S3150000143000FF2000DFF8AC1718BF0120C87110BDEF
S31500001440F4DB0320F8B5044601F04AFB054645489F
S31500001450DFF894670472377BFFF78DFA00F001001E
S3150000146080F00100074204D0306A84F0010101F0E7
S31500001470A5F82846BDE8F24001F06FBBDFF8640727
S31500001480007A7047DFF86007017B01B9704780B5C5
S31500001490006ADFF86417002201F083FD20B1BDE881
S315000014A0044040F2926177E501BD000036BF0300BB
S315000014B0DFF83427117B107401B9704780B50146F7
S315000014C0106A01F075FD20B1BDE8044040F29D614F
S315000014D062E501BD64BB03002249DFF80C370884CE
S315000014E0197B01B9704780B50146186A002201F0E0
S315000014F051FD20B1BDE8044040F2AE614CE501BDAE
S31500001500DFF8E006008C7047DFF8D806408C70479D
S31500001510F3DF03201349DFF8D0364884197B01B97D
S31500001520704780B50146186A002201F02CFD20B1F3
S31500001530BDE8044040F2C4612EE501BD09494A797F
S31500001540824200D1704710B58C7A4871012C02D0C6
S31500001550FFF72CFD00E010BD2046BDE810408BE5EE
S315000015607CDA0320F4DB032010B50446FFF74AFFBC
S31500001570214601F051FEDFF86C06847110BD0000B3
S3150000158080DA032038B504467F2C0CD100F025F80C
S31500001590DFF86806FFF71FFFBDF800007E24C005D0
S315000015A058BFBDF8004001F09BFA0546FFF7E3F986
S315000015B060B960B27E2805D1DFF82C16896A09B1B8
S315000015C091F904007E28B8BFFFF7DBF9DFF81406AF
S315000015D00473284601F0C1FA31BD4FF6FF70ADF82D
S315000015E0000002237047DFF8FC0590F90C007E2806
S315000015F007D1DFF8F405806A08B97F20704790F9B3
S315000016000400704710B500F0A3FE800411D5DFF882
S31500001610D4454FF0FF30A06200F09AFEC0044CBFE4
S3150000162003200120002100F007FF01F05FFAE062CD
S3150000163010BDBDE8104080B5DFF8A8054FF0FF31BA
S315000016408162C162FFF7DCF920B9BDE804400021E0
S3150000165000F0F2BE01BD80B500F07AFE4005BDE89F
S3150000166004404CBF03200120002100F0C5BE10B588
S31500001670DFF8744594F9140003280DD100F026F91B
S31500001680DFF860154FF0FF3048620022216BBDE89D
S315000016901040402001F099BA10BD38B50446FFF756
S315000016A0CAFFDFF8445501F032FA686314B101F05D
S315000016B098F901E000206874BDE8314001F0E1BA14
S315000016C038B50446DFF81C15DFF81C554FF0FF301F
S315000016D0486201F01CFA686395F91400012802DAE1
S315000016E0BDE83140A7E7A87D08B1686BA863002074
S315000016F02875286A00F028FDA87B10B10120E87340
S3150000170031BD2046BDE838400022002101F05DBA17
S3150000171010B500F0F5FE78B1FFF772F960B1DFF8A9
S31500001720C4444FF0FF30E06201F0E0F9A06200F03F
S31500001730A8FE002100F080FEDFF8AC04807C18B122
S31500001740BDE8104000F081BA10BD0000B8DE0320ED
S3150000175075210000481C00007B2100002DE9F043A4
S31500001760DFF884440FF2B049206A89B005AA022145
S3150000177001F049F9050003D140F6F40100F0A3F8A1
S315000017809DF81400DFF85C64BDF8168007281CBFBE
S315000017907079002819D1B8F1060F16DB08F1080098
S315000017A08B2812D2002000904346DFF85474206A3A
S315000017B03A46294601F02FF9404503D040F60D116F
S315000017C000F081F83878000602D5FFF71BFF77E0B6
S315000017D001208DF80800CDF804806A46206A294663
S315000017E001F015F918B140F6241100F06CF878787C
S315000017F000F0070002281ED1FFF71DFF94F9140020
S31500001800032808BFB8F1060F11D19DF80D0070B17D
S315000018107878000900F0010500F058F84FF0FF3025
S3150000182070622A4600218F2001F0CFF948E0F07956
S31500001830002845D105E09DF80D0010B10020FFF706
S3150000184016FFF0799DF80D10084203D040F64C11B2
S3150000185000F039F8F07930B17878800603D5206A3F
S3150000186000F0AFFE18B1FFF7E6FE0020607438788E
S31500001870401C404503D040F6661100F024F807EB03
S31500001880080530792870002068709DF80E00A87051
S3150000189095F90200FFF732FAE87008F10801FF2017
S315000018A02871C9B20098000C68710098000AA871E6
S315000018B00098E8713846627C01F0B2FC0020607442
S315000018C009B0BDE8F0834846FEF73EBF002020750C
S315000018D0206A00F039BC0FF24830FEF735BFDFF85A
S315000018E00413897A012907D1DFF818130B78984277
S315000018F01CBF087001F06FBA704700000440084032
S315000019004C50084038B50446002C0D4607D401F06B
S31500001910EDF8011B89B28D428041C00F32BD002017
S3150000192032BD10B5DFF8BC42606A4FF47A71FFF73A
S31500001930E9FF60B1DFF8B00290F91400032803D183
S315000019400020FFF794FE02E08920FFF7B9FEA06AA7
S315000019500A21FFF7D7FF08B1FFF76DFE00F0F8FC8C
S3150000196000F0FF01E06AFFF7CDFF10B1BDE81040BF
S3150000197061E610BD10B540B901F034F801F0B0F8D9
S315000019800446FFF7CEFFFFF70BBBBDE81040C8E7E4
S3150000199038B5954D0446287B60B1200002D100F091
S315000019A0AFFD08B1402200E00022002340200021C4
S315000019B0FFF719FCAC7431BD181C00000840084044
S315000019C018600846186008442DE9F047804614461A
S315000019D0600688B01D4648BF002002D4200602D506
S315000019E00120FFF795FEA0037F4E2DD500207074D1
S315000019F06946404601F0FDFA30BB9DF80800824F6B
S31500001A0002280DD1BDF8000001F042FDFF2815D0D7
S31500001A10396831F810004FF4567108420ED113E0C0
S31500001A20032811D1684601F052FDFF2806D0396817
S31500001A3031F810004FF45671084205D0306A01F0B3
S31500001A40D5FA08B901207074600410D500F058FD6D
S31500001A5068B1FEF7D5FF50B100F01FFD074600F054
S31500001A6010FD874203D00021384600F0E5FC200730
S31500001A7044BF4046FFF772FEE00548BFFFF7C2FDD0
S31500001A804FF41850044218BFFFF7D5FDE00244BFDB
S31500001A900120FFF702FE600244BF0120FFF7FDFDB3
S31500001AA0E00144BF0020FFF7F8FD96F914000FF29D
S31500001AB06817012869DB306ADFF8289121034FF0A7
S31500001AC0FF3A33D596F9141001295EDB96F9141006
S31500001AD003295ADA00218DF8181001218DF8141007
S31500001AE003A900F032FC0398306301F010F870632C
S31500001AF0B07D08B1706BB06396F91400012804D06C
S31500001B0002280ED1032030753FE000203075306A80
S31500001B1000F01AFBC9F824A0B07BA8B9316B0022EB
S31500001B2018E040F61D0100F073F82EE014F0845F13
S31500001B3013D00021317500F007FB042000F053FF9D
S31500001B40C9F824A0B07B10B10120F0731DE000227B
S31500001B5000218D2001F039F817E0A00248BF892046
S31500001B6002D4A00103D58820FFF7AAFD0DE060008E
S31500001B7048BFFFF770FDA00007D524480068400461
S31500001B8003D40021002000F037FCA00744BF4046E4
S31500001B90FFF76DFD002C04D5FFF74DFD4046FFF71E
S31500001BA066FD05F002010023994211D0404600F07F
S31500001BB0C1FA022802D0032802D005E0892000E0FD
S31500001BC08D20FFF77DFD03E040F6880100F020F848
S31500001BD005F004010023994218BF01F0AFFC08B0DC
S31500001BE0BDE8F087F4DB032048E10320406700608E
S31500001BF00A00FA9338BF030050F903203ABF0300E6
S31500001C000CF403207DFD0320B8DA032004400840CD
S31500001C103846FEF799BD00007068792E6300000013
S31500001C206C69627261696C2E610000000000000040
S31500001C3001006003010101016400B6006400C000F8
S31500001C40000000000B0000000000704701F0CEBC51
S31500001C5080B501210C4801F099FD0421072002F00E
S31500001C6063F90A480A490B4A0160042111600221FE
S31500001C7041620421084A1160816A41F002018162D1
S31500001C8001BD024802F0B4B9002508000020054055
S31500001C900108030080E200E000E100E0602080F33C
S31500001CA01188704702F076BA03460A4687A10420D7
S31500001CB0FFE70CB480B502AA00F031F801BC5DF86C
S31500001CC00CFB00B589B001F097F800210791069149
S31500001CD00591049103910291019102467C4900917C
S31500001CE000230FF200210120FFF7E3FF7948C178B6
S31500001CF04378027803918168029181880191817805
S31500001D00009143200FF2E811FFF7D3FF09B000BDA1
S31500001D10724931F81020521C21F8102070472DE925
S31500001D20F04107466C480078A2B00C469046002663
S31500001D3090B9380018BF012F0ED0042F18BF052FF9
S31500001D400AD0312F18BF332F06D0372F1EBF3B2F97
S31500001D504FF6FF718F4275D102F0A6F9002871D0B7
S31500001D60802202A9384600F076F8002C68D007E0F9
S31500001D708DF80400012201A9002000F077F8641C08
S31500001D80207801005CD0A0F130020A2A05D20A218F
S31500001D9001FB0600A0F13006F1E7422818BF4428EF
S31500001DA00CD0462827D0572808D0622836D0662877
S31500001DB021D06C281CD070281DD0D9E7422807D125
S31500001DC058F8042B6946012002F02DFA01220DE095
S31500001DD0572858F8042B694604D1012002F023FA4B
S31500001DE0022203E0012002F01EFA04226946C3E73C
S31500001DF058F8046BC3E758F8041B462807D1002699
S31500001E00885D00281EBF761CF6B2FF2EF8D1F2B20E
S31500001E10002000F02BF898B90026B0E758F8047BAC
S31500001E20B8B20028ABD002F07CFE0546B8B202F08C
S31500001E3060FE0146EAB2002000F018F800289ED0A5
S31500001E4000F038F822B0BDE8F081122804BF002067
S31500001E5003F06FBB704710B5214C616001462270DC
S31500001E60606802F027F9607010BD0000F8B5150033
S31500001E700C461B4E1CD07078317873680F1AFFB26F
S31500001E80EDB2BD42B8BF2F463A462146184403F08C
S31500001E90B3FD707838187070ED1B3C44E8B238B169
S31500001EA07068711C02F069F90028E4D00120F2BDC7
S31500001EB00020F2BD10B50A4C6068611C02F05DF9A5
S31500001EC008B1012010BD607010BD0000574600002B
S31500001ED050F90320B8B103007EFD032098F40320D7
S31500001EE0A4F4032042423870424242425742420022
S31500001EF042424257444200002DE9F04101250128A3
S31500001F0018BF202894B004460F4690461E4624D19A
S31500001F100AA80FF2A401242200F066FB68460AA96B
S31500001F20242200F061FB1020012C18BF202CADF8F4
S31500001F302400ADF8260008D0022C18BF212C04D0AE
S31500001F40032C1CBF222C232C14D1012E0197ADF893
S31500001F500C8004D14FF4805005E001200BE0022EE6
S31500001F6003D14FF44050ADF80A006946204603F00D
S31500001F7003FB0546E8B214B0BDE8F08180B503F076
S31500001F809EFBC0B202BD80B503F0EEFBC0B202BD3F
S31500001F9080B503F0D5FCC0B202BD0CB480B50A46CC
S31500001FA0014602AB034803F0E3FD02BC00205DF8E6
S31500001FB00CFB0000EB5800000000014000C20100CD
S31500001FC000000010000000000000000000000000FB
S31500001FD000000000000000000000000010B50446EC
S31500001FE0FFF75CFE200A00283E4808BF24024FF295
S31500001FF00F0104804180BFF35F8FBFF34F8F3A48D4
S315000020003A4A016801F4E06111430160BFF34F8F62
S3150000201000BFFDE780B5002000F009F830B9BDE843
S315000020200440E3210FF2DC00FEF78EBB01BD2DE973
S31500002030F0422F4C216842428D1815F01F0108D03E
S31500002040002802D44842054403E04842284400F1EF
S3150000205020052848A5F12006A84224BF2648864226
S3150000206003D3EFF30880854201D300202DE000F072
S3150000207037FD81462148006810F0010718BF03F0BC
S31500002080FAFE206801468D4206D2A84224BFCD2121
S3150000209000F80119F9D206E02038002201E000F824
S315000020A0012B8842FBD32560304603F0EBFEE2208D
S315000020B001E006F8010BAE42FBD30FB103F0B8FE08
S315000020C0484600F04AFD20682038BDE8F0820848FE
S315000020D0006870470648006820387047084870470F
S315000020E000000000000000200CED00E00400FA05EE
S315000020F048DD032058C90320401F002094ED00E06E
S31500002100000000206D6963726F2D696E7465726ED2
S31500002110616C2E630000000038B504460648046072
S315000021200D46204600F0C2FA29462046BDE8344056
S3150000213000F088BA01207047E0F9032000F0DFBA0A
S315000021400846114600F0D1BA70470846114603F01A
S31500002150ADBE10B50C4611461A4603462046BDE8EC
S31500002160104004F0F2BA04F024BB04F027BB0C3094
S3150000217000F084B80C3000F093B80C3000F0A2B830
S315000021800C3000F08CBE0C3003F08DBE0120704781
S3150000219038B500F01BF800212561E160BDE832404A
S315000021A004F096BF38B500F011F82169E2682940BD
S315000021B00D0018BF01251143E16004F089FF15B138
S315000021C00020042134BD0020002134BD04460D4604
S315000021D004F081BF38B5FFF7F9FF2269E1682A40AC
S315000021E021EA0205E56004F073FF284632BD8069E6
S315000021F0704770B582B005460C0006BF0FF25C0052
S31500002200006820681646009006B9EE6831462846F2
S31500002210FFF7E0FF32466946284604F0E3FA0CB1C0
S315000022200098206073BDF8B500F10C070C46154602
S315000022303846FFF7ABFF022628B12A462146384624
S31500002240FFF7D7FF00263046F2BD80B50C3001F00F
S315000022500111FFF79DFF002002BD0000FFFFFFFFF9
S3150000226038B504460D4604F0A7F808B9022032BD79
S31500002270A9B22046BDE8344000F05FBA38B504463E
S31500002280154689B2FFF7ECFF010005D12946204625
S31500002290BDE8344004F0B3B832BD0C3004F09CB94C
S315000022A070B500F00AF8010006D1324629462046EC
S315000022B0BDE8704004F0EBB870BD044615461E46F6
S315000022C089B2CDE770B5FFF7F8FF010006D13246B7
S315000022D029462046BDE8704004F09AB870BD7CB52A
S315000022E00D466946044600F02DF89DF800102A4672
S315000022F0204604F0F5FE04F10C060146304604F0D3
S31500002300CFFA76BD30B583B06946044600F01AF8B8
S3150000231004F10C05284604F0F9FA02469DF800106F
S31500002320204604F045FF3EBD38B50C4600F10C05CD
S315000023300021284604F0B4FA21462846BDE8344078
S3150000234004F0A1BA0C3004F0DBBA0C3003F098BEEE
S31500002350734840687047F8B50446714F71487E6807
S315000023600025044201D00220F2BD24EA0600C00383
S315000023707C6007D50021002000F03EF800210020F7
S3150000238000F05AF8786800F4804006F480418842EC
S3150000239005D0A00B00F0010000F0B5F80546284670
S315000023A0F2BD38B55E4CA578E0786168C9031CD4E7
S315000023B005F0010100F00102114316D0E16841B1B8
S315000023C0000706D5E16808208847E07800F0F700A6
S315000023D0E070A06868B128070BD5A1680820884777
S315000023E0A07800F0F700A07003E0607808B1002044
S315000023F06070BDE831408BE02DE9F04104460D46A2
S3150000240000F06EFB464F80463878012698B1BE78BC
S31500002410200009D1002E1CBFB868002804D0700621
S3150000242002D5B96840208847BD60A6421CBFBC7073
S31500002430FFF7B7FF00261EE02DE9F04104460D46E2
S3150000244000F04EFB364F80463878012698B1FE786C
S31500002450200009D1002E1CBFF868002804D07006A1
S3150000246002D5F96840208847FD60A6421CBFFC7073
S31500002470FFF797FF0026404600F06FFB3046BDE8A9
S31500002480F08127494A680978002029B1510303D40D
S315000024900120110548BF0320704721490A78002012
S315000024A0002A1FBF012049681F4A114218BF032096
S315000024B0704738B51A4D2978884204461ED0200048
S315000024C00ED00121194801F061F9122004F0D1FE65
S315000024D018B90A2004F0CDFE50B104F0ECFE07E076
S315000024E000210020FFF7A8FF00210020FFF784FF4E
S315000024F02C702046FEF7A1FE00F00AF8002032BD3F
S3150000250007480078704700B102207047704700BF47
S3150000251003480178002141700020FEF76ABA0000E6
S31500002520D8E10320FFFC0FF800080800003508007A
S3150000253070B50D4682B00446287858B90021204669
S3150000254004F032FA0021204604F08EFA00212046DB
S3150000255004F092FA2878002814BF0420287900F0A5
S3150000256027F814BF287968798DF80100204600F015
S31500002570EEF906001AD12878002814BF0220A8799F
S3150000258000F016F814BFA879E8798DF80100204606
S3150000259000F0BBF9060009D1287838B169882046D1
S315000025A004F012FA0121204604F0FEF9304676BD09
S315000025B08DF8000069462878002870470C3004F032
S315000025C053BA0C3004F062BA62B38B0708D0521EBD
S315000025D011F8013B00F8013B00F024808B07F6D18F
S315000025E0830740F0208000BF103A07D330B4B1E82B
S315000025F03810103AA0E83810F9D230BC530724BF7F
S31500002600B1E80810A0E8081044BF51F8043B40F8B0
S31500002610043BD20724BF31F8022B20F8022B44BF1B
S315000026200B7803707047083A07D3B1E80810083AE8
S3150000263040F8043B40F804CBF7D25307E4E7000028
S315000026400120704710B5044603F04EFD08B1002086
S3150000265010BD204610BD70B50D00044614BF0126FE
S3150000266000261F21304604F06FFE002060622562BE
S315000026701F21304604F068FE4FF6FF76002001E089
S31500002680401CC0B2E968884209D2A968182212FB28
S3150000269000F21144C989B142F2DA0E00F0D1314696
S315000026A0204600F04AF8304670BD704710B5044623
S315000026B003F0D1FDA06A01008C4908BF8C488860F0
S315000026C010BD38B500F10C050C462846FFF7B8FFDB
S315000026D028B103F03CFE012801D0022032BD21467C
S315000026E02846BDE8344003F008BE10B50C4603F09A
S315000026F019FE1CB103F02BFE0128FBD110BD03F01F
S3150000270026BEF0B504467B48066883B00D4669468A
S31500002710204604F0F5F8B5F91220012747F6FF70B8
S315000027202479824207D09DF80010304604F0D8FC88
S31500002730A04238BF00273846FEBD2DE9F04F85B0D0
S315000027404FF000098DF801900446684F8DF800900F
S315000027500D463868D7F804A00290CDF804A02046AC
S3150000276000F0C1F88046266AD4F824B000F0EBF8F1
S31500002770002818BFD34505D1BBF1000F02D0A8B27F
S3150000278040454BD0002E1CBFB068002801D0F06831
S3150000279008B903209CE0CA4601E00AF1010AF06884
S315000027A0824518D2B068182101FB0AF10144A8B28B
S315000027B0CA89904222BF088AAAB29042EDD301206C
S315000027C08DF800008B462046FFF79BFF0028E4D0DB
S315000027D001208DF8010003A9204604F091F8204657
S315000027E004F094F882469DF80100C0B1217900F00A
S315000027F073F8386860B3B04223D17A680AB35A4591
S315000028001FD1A9B2884506D00023204604F080F8DF
S315000028105FEA000912D1C4F824B0658057E09DF83C
S31500002820000048B1BBF912209DF80C10A4F10C0071
S3150000283004F056FC0146DAE7012049E000F04BF8C7
S315000028403FE0016821B13268914208BF416800D07B
S31500002850316800F045F881465FEA090004D1DBF8EB
S31500002860001000F03DF881465FEA09000FD100F044
S315000028706AF810B13E60C7F804B0C4F824B06580A9
S3150000288001235A46A9B2204604F042F881465FEA7F
S31500002890090005D1BA685946A4F10C00904716E024
S315000028A000F051F898B1029838600198786038685D
S315000028B008B100F014F800F00EF8786838B100F0AE
S315000028C00EF87A6800234146204604F021F848466F
S315000028D005B0BDE8F08F5146204604F001B8016806
S315000028E0204604F0E3BA40887047000040DF03202A
S315000028F0AB260000E0F9032001281CBF04280228AB
S3150000290001D1012070470020704738B500F03CF82F
S3150000291040B16878FFF7F0FF20B12878697808435E
S31500002920400701D5012032BD00F00DF828B103F0B3
S315000029300EFD400701D5022032BD29462046BDE8DE
S31500002940344003F06EBF20467AE60C30DDE738B53A
S3150000295000F01AF838B16878FFF7CEFF00281CBFE0
S315000029606878042801D1012032BDFFF7ECFF28B1B9
S3150000297003F0EDFC800701D5022032BD2946204632
S31500002980BDE8344003F06EBF0D4604462878B3E731
S315000029900C30DCE730B583B00C30DDE90645CDE917
S315000029A0004503F026FC3EBD0C3004F061BA000081
S315000029B00020704738B51446FEF770FA05466CB12C
S315000029C028000BD00A48007818B10A49012008707F
S315000029D004E000220021284600F0F7F8284632BD20
S315000029E07047704770470449087070470000000040
S315000029F056E1032057E103209CFD03200120704788
S31500002A000C3004F07EB90846114604F0EBB80846CF
S31500002A10114604F007B970B50C4615461E460C3033
S31500002A20FFF7ECFF38B1049B324629462046BDE845
S31500002A30704003F019BC70BD04F0F3BC10B5044639
S31500002A400521112001F010F800220021022001F0DA
S31500002A502BF91E491E480A6802400A600B681D4A87
S31500002A6002EAC42213430B604B681840486048686A
S31500002A701043486001220121022001F015F9BDE84A
S31500002A8010400421112000F0EFBF13480068000336
S31500002A90C00D704770B5054610480C4682B00188D7
S31500002AA04FF6FF76ADF8006002237F22684604F0F9
S31500002AB043FDBDF80000B04205D02880BDF80000F7
S31500002AC02080012076BD002076BD00002C400E40FF
S31500002AD0FF07F0FF00F80F0030400E403EBF030036
S31500002AE0EFF31180602181F31188704780B504F0FF
S31500002AF0D9FD04F0E4FD80B202BD80B504F0D2FD3C
S31500002B0004F0DDFDFA21B0FBF1F080B202BD80B524
S31500002B1004F0C8FDBDE8044004F0D1BD80B504F062
S31500002B2028FC074800214160001D04F051FD20B13A
S31500002B3039210FF21400FDF707FE002002BD000048
S31500002B40D8F4032000F008B873797374656D2D749A
S31500002B50696D65722E630000704780F311887047B7
S31500002B6038B504466048614D002912BF002101783E
S31500002B70491C01700120012104F09EFE2878411CA9
S31500002B8089B2032004F098FE200003D0FFF7E0FB93
S31500002B90002808D5FFF7DCFB40054CBF03200120C9
S31500002BA00021FFF729FC524844702846BDE838400A
S31500002BB001224FF47A71FFF7FDBE80B5FEF7EAFAFF
S31500002BC0BDE80240312004F0C9BF38B50446402CA8
S31500002BD0154606D1FFF7BCFB00F08020B0F1004F90
S31500002BE003D000210020FFF707FC002C3AD0402C30
S31500002BF024D0882C18BF892C38D08C2C38D08D2C1A
S31500002C002DD08F2C39D13B48007804280FD155B1EF
S31500002C103949022008704CF25032BDE83840374935
S31500002C20002005F06BB8FEF7B5FA312021E0FEF77B
S31500002C30B1FA002D0CBF312000201AE0FEF7AAFAE7
S31500002C4005F0E1F828482E4900780978884204D230
S31500002C50BDE834400021012082E7402009E0FFF76B
S31500002C60BFFE03E0FEF796FA002002E0FEF792FAB6
S31500002C708D20BDE8324004F071BFBDE83440B42178
S31500002C8045E01D480078022800D0704780B51D48F1
S31500002C900078012807D0032810D11B4800780228A5
S31500002CA018BF7C280AD11549002005F066F8FEF702
S31500002CB071FABDE80240002004F050BF01BD38B5EE
S31500002CC0FFF70EFF05460C480078002410B9FDF703
S31500002CD049FE04462846FFF740FF1CB1BDE83140D7
S31500002CE000F02CBC31BD000096FD0320C8FC03207B
S31500002CF0B8DE0320F2DF03208AFD0320BB2B000091
S31500002D00F7DF032097FD032098FD0320E9210FF24A
S31500002D100800FDF719BD00006D61632D7068792EFE
S31500002D206300000010B54548454986B00068000EAE
S31500002D3009D14AF6E850C862486B40F0040048637F
S31500002D400020C86201E0022803D2086840F400505F
S31500002D50086002AC3B48016821F4401141F4881137
S31500002D6001603948016841F48071016001203749EA
S31500002D70086005F04BF804F04EFC05F072F90FF20E
S31500002D80D000D0E90023CDE9002301208DF803000F
S31500002D90684605F017FA05F095FCFFF7BFFE0FF23F
S31500002DA0B8000FC884E80F0008208DF8140002A8A8
S31500002DB005F094FC06B010BD40F20160FFF70EB9B5
S31500002DC080B500210020FFF737FBBDE80140FFF783
S31500002DD09DBBFFF79CBB002818BF00F0F5BB00F0B9
S31500002DE0F4BB80B505F0C9FC01460FF27C000C2946
S31500002DF038BF00EB810002BD10B505F0BEFC0446ED
S31500002E0005F0BFFCC0B208B9012C07D1072C11D8B8
S31500002E10DFE804F004100608080A0C0E002010BDB6
S31500002E20092010BD022010BD032010BD0B2010BDCF
S31500002E30062010BD44F0800010BD0000FC81E00FAC
S31500002E4064310E4020400E4000000E4010300E400F
S31500002E500000000000000000249103001C91030004
S31500002E602C91030000000000554E4B0046494200DD
S31500002E7042544C004558540050575200574447009E
S31500002E8020535700435253004653480042414400E2
S31500002E90464C540042524F000C3003F000BC38B58B
S31500002EA00D46044689B2FFF748FC010005D1A9B2D8
S31500002EB02046BDE8344003F09FBB32BD70B50C46DA
S31500002EC084B000F10C05237E627EA17E284605F0C3
S31500002ED0D4FC684604F10C010C22FFF775FB694629
S31500002EE0284604F095F8211D2846FFF721FB060029
S31500002EF003D1284605F0F8FC0646300005D10FF24E
S31500002F001C11284604F077F80646300003D12846FF
S31500002F1005F05FFC06462168284600F006F83046B4
S31500002F2004B070BD0C3005F04DBC70B58AB00446D7
S31500002F300D4668460FF2C0012422FFF755FB05B97E
S31500002F406D46002601E0010005D135F81610F2B2F3
S31500002F50204605F05EFC010006D105EB4600F2B204
S31500002F60C188204605F05BFC010007D105EBC600D1
S31500002F7000F10C01F2B2204605F062FC761C032E2D
S31500002F80E1DB0AB070BD032ABCBF0C3005F041BCC2
S31500002F9001207047032ABCBF0C3005F040BC01205D
S31500002FA07047032ABCBF0C3005F04ABC01207047AD
S31500002FB038B500F015F828B121462846BDE834405A
S31500002FC005F04EBC022032BD38B500F009F828B134
S31500002FD021462846BDE8344005F038BC022032BD03
S31500002FE000F10C050C46284605F0EABB0C3005F04E
S31500002FF053BC084603F00FB8FFFFFFFFFFFFFFFFBC
S31500003000FFFFFFFF000000000000000000000000BE
S3150000301000000000000000000000000000000208A0
S315000030200000000010B5144C207858B913480188E8
S3150000303008237F22201D00F069F8201D00F011F8FA
S315000030400120207010BD10B50B4C01460822201D32
S3150000305002F0D2FC201D00F004F80120207010BD03
S31500003060074880B501460822064802F0C5FCBDE8BF
S315000030700140FEF707BA000044F9032040BF0300F1
S3150000308048F9032050F9032038B50C4611461A4674
S315000030907F2908BF002141F2F0139C4218D15549FF
S315000030A00B6849680024D5B27DB30355641C1B0A1E
S315000030B0521EE4B2042CF6D3E4B2082C25D2D3B2C5
S315000030C0002B1FBF0155090A521E641CF4D131BDE5
S315000030D004F47045C4F30B03B5F5805F11FB02F1F0
S315000030E008BF43F07E630BD0B5F5005F1CBF04F448
S315000030F07044B4F5405F08D143F07C6343F4011398
S31500003100C918BDE8384002F077BC31BD70B51E0065
S31500003110044615461CD04BF23460814212D1092E6A
S3150000312028BF082633467F2241F202012046FFF7D8
S31500003130ABFF32460FF2D801204602F0C6FC38B982
S3150000314041F2F01133462A462046BDE870409BE71F
S3150000315070BD2DE9F84307460024F8078846154652
S315000031606FF00F060FF29C0902D5652100F046F8B4
S31500003170E80702D5662100F041F807F47041B1F581
S31500003180805FC7F30B000CD140F07E64B4F17E6F14
S31500003190264604D32819401E1749884210D36B21AE
S315000031A00CE0B1F5005F18BFB1F5405F05D140F006
S315000031B07C6444F40114264602E0722100F01EF8F5
S315000031C0002706E0F05DFF2802D07C2100F016F80B
S315000031D07F1CAF42F6D36A084146204605F0E4FB61
S315000031E028B14846BDE8F4438521FDF7ADBABDE8F0
S315000031F0F1830000F081E00F0008E00F4846FDF77C
S31500003200A3BA00006D66672D746F6B656E2E630042
S31500003210FFFFFFFFFFFFFFFF084603F029BF000087
S3150000322070B5044693480D460178164619B1418893
S31500003230491C418070BD204605F0E3FB80B1FEF7D6
S315000032401DF938B1A078002E14BF40F0010000F03F
S31500003250FE00A07029462046BDE870402E2200E000
S3150000326070BD70B504460D461646601C00F0CAFFD8
S3150000327010F0070F1ABF41F64901884200260121C6
S31500003280002004F019FB2078411C89B2022004F0CA
S3150000329013FB32462946204601F0DEFD18B1BDE893
S315000032A0704005F0A1BE73488188491C818070BDBD
S315000032B02DE9F047A4B001F01AFE6E4D82466888EB
S315000032C0002600B16E80A988080003D00D2004F006
S315000032D0F3FAAE805FEA0A0040D001F00AFC07006C
S315000032E018BF3E78781C00F08DFF10F0070F1BBF4B
S315000032F041F6490188424FF000084FF02E0850462B
S3150000330001F00FFC3844C8F100010844A0F108019F
S31500003310082201A802F070FB01ACE078FDF7EBFC97
S315000033203146FDF7E9FC8046534894F9029000784F
S31500003330A8B1A868002811D003A8802106F024FBB4
S3150000334000200090731CDBB20022514603A801F056
S31500003350EDFDAB684A46414603A8984786E05046CD
S3150000336006F020FC0028F9D00521504601F026FE83
S3150000337006460320FEF7CCFC404C414906F0070008
S315000033802070FF20087087F8018087F802909DF86A
S315000033900400F870504606F0D8FF0328504602D1C4
S315000033A008F01AF962E006F0C0FF00F005000428F4
S315000033B007D02078032804D1504604F00FFC0028DB
S315000033C054D105F056FE18B105F053FE012802D17E
S315000033D0207800284AD1EA68100004D0002150461F
S315000033E09047002842D1274D2878032818BF042883
S315000033F005D0022821D124480078C0071DD405F045
S3150000340038FE032819D1504607F057F8B0F5004F9B
S3150000341013D1504607F074F81C49098881420CD034
S31500003420504606F082FF000707D4504606F07DFF9F
S3150000343040061BD52078012818D12878042803D106
S31500003440F00648BF04F0ACFA207820B101280AD073
S31500003450032804D00AE0504607F068FC06E0504610
S3150000346008F0CAFD02E0504608F014FE24B0BDE89C
S31500003470F087000088F9032056E1032097FD03201A
S3150000348098FD03206AF903206EF90320B6DD0320B8
S31500003490F8B5274D2E68040001D1FF20F2BDFFF7D5
S315000034A01FFB244F29683A7821F8124036F8021B90
S315000034B0A142FBD1FFF751FB29683A78B01E401AAA
S315000034C04010C1B2914208BFFF20C0B2F2BD2DE943
S315000034D0F843194C174D26688146287806EBC00735
S315000034E0FFF7FEFA804608224946384602F084FA7B
S315000034F0F88800E00836F188814202BF31883A88B0
S315000035009142F7D171887A88914202BFB188BA8810
S315000035109142EFD14046FFF720FB20682A78301A07
S31500003520C010C1B2914208BFFF20C0B2BDE8F2830D
S31500003530BCDA0320EADF0320C0DA0320FDF7DBBA9A
S3150000354070B5044643380FF2880508D0401E01289E
S3150000355009D9801E01280ED9C01F31D02AE0BDE846
S3150000356070400AF002BB0AF0D8FA20B10AF0FDFA60
S315000035700028FBD170BD134E307808BB0120307097
S3150000358000200AF06BFB442C11D00CD3462C05D03E
S315000035900DD3472C07D140F6010001E040F60200AA
S315000035A0FEF71CFD03E074212846FDF7CDF8002048
S315000035B0307070BD2846BDE870408621FDF7C4B85E
S315000035C070BD00007AFD03207047704700000000C0
S315000035D0656D6265722D626173652D636F6E6669D6
S315000035E06775726174696F6E2E6300000AF07EBBA8
S315000035F0890001EB401000F18440026070478900A9
S3150000360001EB401000F184400068704710B5DFF808
S31500003610804612212046FFF7F2FF0028F9D12068E4
S31500003620000C00F0030010BD0122DFF8C81510B52C
S31500003630884232BF0022DFF8C015884201D2144604
S3150000364000E002241021DFF8B405FFF7D1FFDFF810
S315000036504406016821F0807141EA0461016010BDF1
S31500003660F0B5DFF83426D36B03B1012341F671348C
S31500003670D4630FF244051468002405EBC406CFB2E8
S315000036803679BE4203D155F83460864202D2641CB4
S31500003690052CF2D3052C0EBF032005EBC4004079A0
S315000036A0116821F0407141EA00601060DBB20BB195
S315000036B00020D063F0BD000040787D0100000000CE
S315000036C0005A620200010000C0CF6A00020000003A
S315000036D0809FD50002010000406F400102020000F9
S315000036E080B50AF048FBBDE804400021B8E7B7E71B
S315000036F0C01C0F2801D2000770474FF0704070477A
S3150000370038B50446002500F059F9DFF87425DFF8CE
S31500003710F814944208D0DFF86C25944206D0DFF8FE
S315000037207C25944204D006E0086802E0486800E080
S31500003730886800F00700401E03281BD8DFE800F069
S3150000374002050C080AF048FB04E00AF04BFB01E016
S315000037500AF045FB05460DE00AF000FBDFF83415DC
S315000037600968090E01F001010122491C02FA01F162
S31500003770B0FBF1F5284632BDDFF824154A68D207BA
S3150000378002D40A680242FCD17047000070B5020AF2
S315000037900C4602F00F020021521E092ADFF8CC5611
S315000037A014D8DFE802F005141313071619131C20AA
S315000037B0DFF84854C0F3043611B10846FFF7DCFFC2
S315000037C0224631462846BDE8704011E770BD1035E7
S315000037D0F0E730350121EDE738351021EAE74035CD
S315000037E04FF48031E6E7DFF8F056E3E770B5DFF82F
S315000037F0B414DFF88C240E68DFF88814DFF89444DC
S31500003800012510F4781075D0B0F5003F30D0B0F532
S31500003810802F27D0B0F5002F6CD0B0F5202F2DD0FB
S31500003820B0F5402F5ED0B0F5602F3FD0B0F5901FB9
S3150000383053D0B0F5A01F2AD0B0F5B01F39D0B0F5DF
S31500003840D01F22D0B0F5E01F31D0B0F5001F44D014
S31500003850B0F5281F22D0B0F5301F31D0B0F5381F93
S315000038604BD061E00AF089FAE168C1F308210AE069
S315000038700AF083FAA168C1F3082104E00AF07DFA90
S315000038806169C1F30421491C24E0104627E0104673
S31500003890FFF736FF216A01F00F0119E01046FFF726
S315000038A02FFF0646206AC0F30110C6403DE00846D9
S315000038B015E00846FFF724FFA16AC1F3011107E0EE
S315000038C00846FFF71DFFA16A090A01F00301091D59
S315000038D005FA01F1B0FBF1F627E0DFF8C003FFF7C8
S315000038E00FFF1FE0DFF8F40500F068F807281CD08A
S315000038F0092819D10AF041FA14E0DFF8E40500F0CE
S315000039005DF804280CD007280FD008280CD10AF03F
S3150000391034FA2168C1F30421491C01FB00F604E0D6
S315000039200AF046FA064600E00026304670BD000062
S31500003930030903F00F0301215B1E072BDFF8542355
S315000039403AD8DFE803F004060A0E1014233910688B
S3150000395000E05069C0F3042070471068C0F30060AF
S315000039607047D06800E09068C0F308207047DFF821
S315000039707435984204D0DFF87035984204D01BE0C5
S31500003980106A00F00F0013E0106A09E0DFF85C35FA
S31500003990984204D0DFF85835984204D00CE0906A7B
S315000039A0C0F3011004E0906A000A00F00300001D55
S315000039B001FA00F0401E704700207047014601F0F2
S315000039C00F010120491E0729DFF82C2549D8DFE819
S315000039D001F0040F1348202E4836506A00F0070005
S315000039E002283AD002D3042804D01CD305207047FD
S315000039F011690FE002207047516901F00701491E65
S31500003A0003292FD8DFE801F00F020311F2E70620A1
S31500003A107047916901F00701012904D00229E9D014
S31500003A20042902D07047032070470A2070471168A6
S31500003A3011F001010FD0012914D109207047DFF8D8
S31500003A40BC14096801F03001102904D0202904D0E3
S31500003A50302904D07047072070470420704708209B
S31500003A6070470020704700002DE9F8438046002685
S31500003A700324B8F1110F0F46A14612D1042F02D12B
S31500003A800AF096F908E0052F0BD1DFF87404DFF889
S31500003A9074140068884204D306001CBF002104F099
S31500003AA048FB08F00F00401E0728DFF84C540ED8DC
S31500003AB0DFE800F0043D438B406F8B79022F4D48C1
S31500003AC006D0032F29D0042F2AD0052F2DD07CE035
S31500003AD004244FF0000901220121484600F0E4F8D1
S31500003AE0FFF7FEFD36B11221DFF8A401FFF787FDCF
S31500003AF00028F8D16C6000F07AF8FFF795FD0AF01F
S31500003B002DF90446FFF782FD01462046FFF7EFFD3B
S31500003B10002E5AD1BDE8F44372E04FF00109DAE70E
S31500003B200224A146FFF780FDD5E70124FAE705F157
S31500003B30100404E005F1180401E005F11404012F56
S31500003B4008D0022F09D0032F0ED0062F13D00A2F2C
S31500003B501DD03AE00020206037E00122012100203C
S31500003B6000F0A2F80220F6E701220121012000F070
S31500003B709BF80120EFE70AF0F1F8FFF755FD012267
S31500003B800221DFF8E802FFF733FD0320E3E7042014
S31500003B90E1E7072F02D0092F02D016E0002000E04F
S31500003BA00120286011E0012F06D0042F16D0072F20
S31500003BB00DD0082F19D008E00020DFF840130A685E
S31500003BC022F0300242EA00100860BDE8F1830122CB
S31500003BD00121042000F068F80120EEE7012201210E
S31500003BE0022000F061F80220E7E70320E5E7DFF8AE
S31500003BF00403FBE50148E8010190D00300400E40B4
S31500003C000121002004F095BA80400E4070B500F006
S31500003C103BF801220021022000F046F8217CDFF863
S31500003C20F05200200229296808BF0120490840EA0D
S31500003C3041002860082122782846FFF7D9FCA08891
S31500003C40617A41EAC020A860EE68207AFFF750FD4D
S31500003C50E28806F07F6141EAC221A27A1143227A04
S31500003C6041EAC2110843E860A17B607B090141EA91
S31500003C700030E17B0843217B40EA0140286170BDAA
S31500003C8002001A0003001C000446112096E60000FC
S31500003C9004300E4000410E4004000E400500200096
S31500003CA040410E4084DA03202DE9F84F042882466D
S31500003CB0904673D8DFE800F04E493F0344000126E2
S31500003CC00220012700240029DFF80892904D60D0D9
S31500003CD0BAF1020F02BF2868C0F3011000284FF0A6
S31500003CE0000B0CD18B4800682868C0074FF0010B09
S31500003CF005D5286820F0300040F010002860EE63FB
S31500003D0000F04EF80028FBD0B8F1000F46D0394637
S31500003D1000F047F80028FAD0BAF1020F3ED1BBF105
S31500003D20000F3BD02868C0071BD5012220210220A6
S31500003D3000F0C0F819E00426082003270224C2E791
S31500003D401026202005270424BDE7402680200727CB
S31500003D500624B8E74FF480764FF40070092708244C
S31500003D60B1E70021022000F083F8022000F01CF8E1
S31500003D700446012200210220FFF796FF2146022079
S31500003D8000F02CF8EE63394600F00BF80028FAD064
S31500003D9004E0E86300F004F80028FBD1BDE8F18FE9
S31500003DA021464846FFF72BBC401E0328564912D829
S31500003DB0DFE800F0020C06080869C0F30800704747
S31500003DC0086800E0886800F07F0070475248006885
S31500003DD0C0F30A00704700207047000070B5401E0F
S31500003DE00D46032805F07F01474C484E3DD8DFE8D5
S31500003DF000F0022A101DC5F308051A213046FFF708
S31500003E00FEFB0028F9D12069400A45EA40202061DE
S31500003E1070BD0D4618213046FFF7F1FB0028F9D199
S31500003E202068C00945EAC010206070BD0D46192102
S31500003E303046FFF7E4FB0028F9D1A068C00945EA3F
S31500003E40C010A06070BD23480068606920F0300093
S31500003E5040F010006061C5F3C310FFF749FC216A0A
S31500003E602E4A114029430843206270BDB0400E40DF
S31500003E7027480268C2F30112002A18BF002907D09A
S31500003E80202902D0302903D005E04FF4000103E0D9
S31500003E904FF4400100E02249C26E0A408A42FBD13B
S31500003EA0490204D5C06F800A00F001007047012066
S31500003EB07047000010B502280AD10B0004D0194B38
S31500003EC04FF480645C64196012B1BDE81040CFE71E
S31500003ED0012010BD90400E4050410E4006000C00DF
S31500003EE098002E006006140060162A00701716004F
S31500003EF070272C000025080070400E405C410E40E3
S31500003F00A4DA0320012D310110400E4040410E403D
S31500003F1024400E403C300E409C400E4000F8FF0FFF
S31500003F20FF33E10764400E4010B51B4B1C6890FA46
S31500003F30A0F2B2FA82F224EA000091400843186027
S31500003F4010BD164901200860704770B514480FF27D
S31500003F50580301680020002203EBC20453F83250D4
S31500003F606468104E366876070DD4B5F5007F18BF25
S31500003F70B5F5806F05D0B5F5006F18BFB5F5803F74
S31500003F8001D144F48074294202D0214208BF28435B
S31500003F90521C092AE0D370BD00500E4008500E4056
S31500003FA004500E40E841E00F010000000000000050
S31500003FB004000000010000000800000001000000ED
S31500003FC010000000010000000001000001000000D8
S31500003FD0000800001D000000000200001D00000097
S31500003FE0000400001D000000000001001D0000008C
S31500003FF00168C90707D58168890704D48168C9079C
S31500004000FCD401214160704710B5012169486A4C12
S31500004010FFF7BCFB694901200860002009F014FF86
S31500004020012304220221052009F050FF00F00FF8B9
S31500004030012020700AF03EF801234022211D0FF2D4
S31500004040B4100AF005F85E490860C00F10BD10B53F
S31500004050012201210420FFF727FE5A485A4C016825
S3150000406041F0010101600022C16841F08071C16028
S31500004070002356495648086056480260564A13605F
S31500004080022323601523554C236000230364544BFD
S315000040900B65544911604FF48071534A11600168F1
S315000040A041F48071016010BD4648006800B10120EE
S315000040B0C0B27047D12202704170090A81704B4923
S315000040C00A78C270501C0870042070472DE9F84F1A
S315000040D080464D1DFEF70AFD002782464FF6FF7B00
S315000040E0434C15E008EB0700594610F8026C3046C1
S315000040F009F0F0FF83464F4637480068C00707D5EA
S3150000410034480068C00503D520680028FCD0267016
S31500004110FFF7CAFF40B3F8B2E9B2884224D2FEF7ED
S31500004120E5FCA0EB0A0080B2B0F5FA7F22DCF8B21B
S3150000413010B95B260127DFE707F10109FFB2012F5E
S3150000414008BF6E1FD7D0EDB2E81E874208BF5E4695
S31500004150D1D0A81E874208BF4FEA1B26CBD0681EC7
S315000041608742BFD15D26C6E7FFB2EDB2AF4208BFB8
S31500004170002000D00120BDE8F28F10B50C460246A3
S31500004180217800200529A4BF1046FFF79FFF0421D0
S31500004190217010BD00B50A48006891B040226946FA
S315000041A009F041FF20B1C2B269461220FDF74DFE6B
S315000041B011B000BD0035080094F2032010881442A7
S315000041C0F0DB0320F0ED00E0F00004E0B00F00E0CB
S315000041D055CEACC5000E00E0800E00E0100004E0F5
S315000041E0FF0300400D000100040304E07BFD0320F3
S315000041F0200000E073696C616273767561727464A5
S315000042006F776E004178007801E00178407800EB26
S31500004210012080B270470170090A417070470A0A8E
S3150000422002704170704710B50023040014BF1C468D
S31500004230C3F10304E4B25B1C0A55120A042BF4DB37
S3150000424010BD30B50024050014BF2546C4F1050590
S31500004250EDB2641C4A55120A42EA03621B0A062C96
S31500004260F1DB30BD30B54A788B78CC78097818B157
S3150000427020461D460C4602E0154608461A4645EA03
S31500004280002044EA022141EA004030BD00B583B077
S3150000429020B10622684600F02AF803E006226846A6
S315000042A001F0AAFB9DF800209DF8010040EA0221DA
S315000042B09DF8020002069DF8030042EA00429DF8BE
S315000042C0040042EA00229DF80500104303B000BD39
S315000042D010B5002300E05B1CDCB28C4205D210F85E
S315000042E0014B9442F7D0002010BD012010BD10B53F
S315000042F0002304E0541EE41A0C5DC4545B1C934274
S31500004300F8DB10BD10B5002480B14FF6FF7202E055
S31500004310944206D0641CA4B2035D002BF8D19442EB
S3150000432004D179210FF2F400FCF70EFA204610BDF5
S3150000433010F8012B11F8013B0AB19A42F8D0D01AB5
S3150000434040B2704730B5994228BF1946002303E0B2
S315000043500833401C521C9BB203F10804A14203DB44
S3150000436004781578AC42F3D08B420CDA00781278D8
S315000043705040C0438024C0B201E064085B1C8B42FD
S3150000438001DA0442F9D198B230BDF8B555052D0EC3
S3150000439002F0070704460E462A4601F02DFB47B1F8
S315000043A0FF20615D725DF840014022EA000008438B
S315000043B06055F1BD00210FF27802002805E000F0FB
S315000043C00F03D35C5918C9B20009F8D108467047E3
S315000043D06128A8BF572107DA4128A8BF372103DA89
S315000043E03A28B4BF30210021401AC0B270474108B4
S315000043F0400021F0AA3120F05530084381088000A2
S3150000440021F0CC3120F0333008430109000121F0BE
S31500004410F03120F00F300843704700006279746570
S315000044202D7574696C69746965732E6300000000EC
S315000044300001010201020203010202030203030456
S31500004440704710B5DFF8D44AFDF748FE6061FDF706
S3150000445041FEA0616069E06118B100F007F86528C7
S3150000446003DABDE810409D21A2E010BD10B5DFF8CB
S31500004470AC4AA069E169884202D2AF2100F0F2FBA2
S31500004480A069E169401A4FF6FE71084010BDDFF8D9
S315000044908C1A4A69904203D3C969884200F035BD37
S315000044A000207047002818BFFFF7F1BF01207047B2
S315000044B030B1DFF8681A4969401A4010401C80B2D2
S315000044C07047010001D100207047DFF8501A496992
S315000044D001EB4000801E70474088C0F30C00C01CF2
S315000044E00004800C4000001D80B2704710B50446E1
S315000044F0FFF7F2FF04EB4000DFF8201A4FF6FF73D8
S3150000450000E0801CCA69904202D202889A42F8D022
S3150000451010BDDFF80C1A08607047DFF8041A0FF2B6
S315000045208400086070472DE9F843DFF8F0598046AB
S315000045302889A0B3B8F80200000430D4DFF8E049B7
S315000045400FF260012068DFF8DC9909F0D7FD20B989
S315000045504FF4BA714846FCF7F7F8002701E07F1CD4
S31500004560BFB22889874204DB4FF4BB714846FCF78B
S31500004570EBF8286A216800EBC706306808B9316095
S3150000458003E009F0BBFD0028E9D1B088401CB080EB
S315000045904046FFF7A1FFF18801EB4000F080BDE83F
S315000045A0F1830000756E636C61696D6564000000DF
S315000045B00FF68030FCF7C8B870B50446DFF85C0922
S315000045C0807801281AD12088FFF77BFF04002FD0BE
S315000045D0022526463046FFF7A6FF708840F40040C5
S315000045E0708036F81500FFF76CFF060002D0708861
S315000045F00004EFD56D1C042D1ADAEAE7022817D15C
S31500004600FEF76EFA05462088FFF75BFF06000AD024
S315000046107088800403D540F2392100F023FB3088EE
S31500004620C0F30E0020802846BDE87040FEF795BA1C
S3150000463070BD00B5ADF5806DADB04FF496626946BC
S3150000464000F073F80DF5806D2DB000BD2DE9F8432F
S3150000465007468846FFF740FF45007888C0F30D00FF
S315000046607880800422D5FEF73BFA04463846FFF7E9
S315000046701FFF81464046FFF71BFF0646AAB2394692
S31500004680404601F0B9F90020DFF8901806E001EB8A
S31500004690400293894B4508BF9681401C0A78904298
S315000046A0F5DB2046BDE8F243FEF757BAAAB2394613
S315000046B04046BDE8F84301F09FB910B50C4601E04D
S315000046C0FFF714FFA04202D241880904F8D510BDB5
S315000046D070B5DFF848580446A878012804BF686A10
S315000046E000281DD1204609F030FD022818DB0021E4
S315000046F0204609F03AFD0DE0012100F0A0FA78B954
S315000047003046FFF7DEFE0088000409D43146204615
S3150000471009F05AFD06463000EED16C62012070BDEC
S315000047202046FFF749FF002070BD2DE9F74FDFF85F
S31500004730EC470020E080606292B0FEF7D1F90121DB
S31500004740A1704FF0000AA188ADF802100021A180E7
S31500004750E1690191FEF701FA2089C200206A92B24E
S31500004760002101F0ABF90DF10200FFF725FFFEF77E
S31500004770B7F9217862785518FEF7EFF9EDB206E041
S3150000478004EB46000C30FFF717FF06F1010A5FFA4B
S315000047908AF6AE42F4DB129848B1002501E0804764
S315000047A06D1C1298EDB250F825000100F7D1D4F82F
S315000047B014904FF0000B01250DF1080A0198814570
S315000047C002D3BBF1000F37D0BBF1000F06D0ABF11F
S315000047D001005FFA80FB5AF82B8004E04846FFF799
S315000047E085FEC8468146B8F8020000F44041B1F59E
S315000047F0004FE3D140F48040A8F80200022638F8C2
S315000048001600FFF75EFE070012D0788801040FD469
S3150000481040F4004078803846FFF785FEBBF1100F64
S31500004820BDBF4AF82B700BF101005FFA80FB002533
S31500004830761C042EE3DBC1E7002DB8D0656A55B1BE
S315000048402888FFF73EFE6888000447BF00206062A4
S315000048502846FFF7B1FE0020ADF800008246606AE8
S315000048600025A0B30088002100F0E9F9ADF80000AA
S31500004870002100F0E4F90646BDF8000000F051F909
S315000048800546304600F04DF98246BDF850005045C9
S315000048901ADB300018D000F044F90746304600F025
S315000048A028F9014613983A4601F0A6F83046FFF774
S315000048B008FE18B14188C1F30D0141800022606AEB
S315000048C0314609F0ABFC02E00020ADF80000666955
S315000048D0B346B0460BE03088000404D5D6F80E0087
S315000048E008B109F0BBFD3046FFF700FE0646019809
S315000048F0864223D23046FFF7EFFD81463046FFF76A
S31500004900D7FDBDF80010884206D10AEB0500C01C91
S315000049108010400000F1040970880004DBD5584679
S31500004920FFF7C6FD318801F40041084330801FFAC5
S3150000493089F00BEB400B06EB4008D4E70220A07091
S315000049400DF10200FFF738FE6846FFF735FE1298B4
S3150000495060B14FF0000902E0804709F101091298A1
S315000049605FFA89F950F829000100F5D16769B9465F
S3150000497011E0022639F81600FFF7A3FD20B10088E2
S31500004980C0F30E0029F81600761C042EF2DB48460A
S31500004990FFF7ACFD8146C145EBD30BE00746FFF7B9
S315000049A0A5FD4146FFF789FE4845F7D301988145A5
S315000049B02BD13746474549D23846FFF797FD002F9A
S315000049C00646F6D078880004F3D500F088F8B84299
S315000049D004D17888C0F30D007880EAE704D2014656
S315000049E03846FFF733FEE4E7019707E03046FFF766
S315000049F07DFD4146FFF761FE37460646464504D231
S31500004A00308800F06DF88642F0D337B100F067F8D1
S31500004A1001001CBF3846FFF719FE0198B946C3E7E7
S31500004A203846FFF759FD06465846FFF741FD8146D1
S31500004A30720092B23946584600F0DEFF002249461F
S31500004A400DF1020009F099FB0BEB460BFEF748F857
S31500004A50064617E021784018401EC0B204EB40001D
S31500004A60002187898181380009D0FFF72AFD00F0EF
S31500004A7037FA002239460DF1020009F07EFB607814
S31500004A80401E607060780100E4D10021201D09F00D
S31500004A90A5FBFFF716FD070006D1BDF80200A080B2
S31500004AA0C4F81CB00020A0703046FEF756F8002F60
S31500004AB0B6D1BDF8000078B10446FFF702FD070045
S31500004AC01CBF0AEB05007880204600F012F8139907
S31500004AD05246284400F090FF15B0BDE8F08F3888A4
S31500004AE0C0F30E00EDE480B5FFF7EBFCBDE8024035
S31500004AF0D8E410B5040012D0FFF7F5FF18B940F25C
S31500004B00394100F0AFF82046FFF7DBFC38B10188E9
S31500004B10090402D5D0F80A0010BD083010BD0020E7
S31500004B2010BD10B5010013D0FFF7CBFC0446FFF70C
S31500004B30B9FC18B940F2534100F094F844B120880A
S31500004B40000401D5208910BD6088C0F30C0010BD9B
S31500004B50002010BD2DE9F04104460D46FFF7B1FCDB
S31500004B60060040D0FFF79EFC0FF2C85718B940F276
S31500004B70664100F0A0F82046FFF7D3FF8046304696
S31500004B80FFF7B4FC454504462DD003DB40F26E41E9
S31500004B9000F091F83088000448BF358123D4758031
S31500004BA03046FFF799FC06EB4005FDF799FFDFF865
S31500004BB06C13CA69661B944204BFCD610026FDF7DB
S31500004BC0CCFFB6B2082E06DA32462846BDE8F041DA
S31500004BD0FF2100F073BF08220021284600F06EFF77
S31500004BE0A6F108006880BDE8F081F8B507460C46D6
S31500004BF0FFF767FC06463846FFF793FF051B84421E
S31500004C00ADB21BD003DB4FF4936100F02BF8AEB1CD
S31500004C103088000406D5D6F80A0034812844C6F840
S31500004C200A00F1BD3846FFF764FF2246411900F03D
S31500004C30E3FE21463846BDE8F4408BE7F1BD38B5C2
S31500004C400C46FFF73EFC05000AD0FFF72BFC18B90F
S31500004C5040F2AB4100F006F805EB4400808832BD17
S31500004C60002032BD0FF2CC40FBF76EBDF8B50C4606
S31500004C701546FFF726FC06000FF2B84714D0FFF7DB
S31500004C8011FC18B940F2B64100F015F82846FFF7B6
S31500004C9018FCFFF707FC18B940F2B74100F00BF813
S31500004CA006EB44008580F1BD3846BDE8F44040F28D
S31500004CB0BA41FBF749BD3846FBF746BD70B5044619
S31500004CC00D46002608E0FFF72CFF294686192046E8
S31500004CD0FFF7B5FFB6B204462000F4D1304670BDEA
S31500004CE038B5C01C8D4C80104500A06AADB218B115
S31500004CF040F2CF41FFF7B6FFA069E169411AC90347
S31500004D00B5EB114F05DA690049420844A06201205B
S31500004D1032BD002032BD81490020886270472DE9EE
S31500004D20F84F0446E01C80107C4D40000027001D13
S31500004D30AE690FF2004AB4F5005F88461FFA80F9A3
S31500004D4004DB40F2E6415046FBF7FEFCFDF7C8FEE9
S31500004D508346E869A96A09B9301A03E05FEA0802DE
S31500004D6002D0081A461008E0701A4610B0B220B9F0
S31500004D7040F20C515046FBF7E7FCB6B24E4515DB48
S31500004D80EF6907EB4900E861A86A28B1B8F1000F9E
S31500004D9004BF00EB4900A86200207C80B880F88040
S31500004DA0388004F108016889081868815846FDF7BB
S31500004DB0D4FE1FB901211F2002F07EFD3846BDE852
S31500004DC0F24FFFF775BBF8B504460D4616460021AF
S31500004DD00A20FFF7A4FF0746FFF773FB48B10681D9
S31500004DE0C0F80A40018841F400410180C0F80E5025
S31500004DF03846F2BD70B504460D4611462846FFF703
S31500004E008EFF06463CB1300005D0FFF772FE2A46FB
S31500004E10214600F0F1FD304670BDF8B504460D465A
S31500004E20164615E02846FFF77CFEB7B2874288BFD4
S31500004E3007462846FFF75DFE01463A46204600F043
S31500004E40DBFD01212846FFF7FAFE3C440546F61B2A
S31500004E50B0B20028E6D1F1BD2DE9F84381460E46F1
S31500004E601446FDF73DFE2D4D8046287801002BD0D7
S31500004E70401E2870C0B205EB4000A9788789F9B9B1
S31500004E8081813846FFF71DFB00F02AF83846FFF708
S31500004E9030FE3246494600F0AFFD3846FFF729FEA0
S31500004EA022460021304400F009FE00223946281D22
S31500004EB009F063F94046FDF750FE0120BDE8F28394
S31500004EC06878401C6870E1E7A019012180B2FFF7FD
S31500004ED026FF0700DAD14046FDF73FFE0020EDE74A
S31500004EE020B141884DF6FF7211404180704738B5B8
S31500004EF0FDF7F6FD044600210B4809F06FF905465B
S31500004F002046FDF72AFE284632BD8041C00F704775
S31500004F10024900208880704700000000ECF503205D
S31500004F20ACDD032034510000F0F503202DE9F041FB
S31500004F300446884617461E464046FFF7DAFDC51961
S31500004F404046FFF7EEFDB919884203DA40F2B15147
S31500004F50FFF788FE300013D00698010003D13246D1
S31500004F602946204604E0012832462146284603D138
S31500004F70BDE8F04100F040BDBDE8F04100F07FBD66
S31500004F80BDE8F08110B50C46FFF7B3FD00B1005D3A
S31500004F9010BD38B50C461546FFF7ABFD00B10555FB
S31500004FA031BD38B50446FFF7BCFD05462046FFF780
S31500004FB0A0FD2946BDE8384000221BE770B50D4626
S31500004FC0691C0446C9B2FFF7DDFF060229462046E2
S31500004FD0FFF7D8FF301880B270BD00B583B002234A
S31500004FE08DF80420120A8DF80520012200920A4647
S31500004FF0014601A8FFF79AFF07BD10B50446FFF763
S3150000500046FA10B1A4F108000CE010BD10B5FFF788
S3150000501058FA040004D0FFF75FFA04EB400001E001
S31500005020002010BDBDE81040FFF742BAF8B50446AF
S315000050300D46FFF746FA060016D07088C0F30C0737
S315000050402846FFF73EFA07F00101CF19FFF744FAA9
S3150000505007EB40072046FFF7D9FFA84203D040F2EE
S315000050606E61FFF7FFFD7780F1BD2DE9F0410C463B
S31500005070FFF727FA05002DD06888C0F30C0606F066
S3150000508001008019001B04F00101471AE01C20F002
S315000050900300284400F108082846FFF703FABFB2C8
S315000050A008B1A64203D240F28A61FFF7DBFDB442A3
S315000050B010D0092F0EDB6C8008220021404600F03C
S315000050C0FDFCA7F10800A8F802004046BDE8F04143
S315000050D0FFF7EEB90020BDE8F08170B5044682B056
S315000050E02068FFF78AFFADF8000000B3FFF7E9F983
S315000050F005001CD000880FF23C06000404D540F2DF
S31500005100A5613046FBF720FB6846FFF755FABDF868
S315000051100000FFF7D6F90546FFF7C4F920B940F2BB
S31500005120AB613046FBF710FB05F10800206073BD4C
S31500005130000000006275666665722D6D616E6167BE
S31500005140656D656E742E6300012100F01F029140AB
S31500005150DFF8C82705E0012100F01F029140DFF8C3
S31500005160C027400942F820107047012100F01F02B5
S315000051709140DFF8B027F4E710B5012818BF2028C2
S31500005180DFF8A44705D04FF4BD710FF66400FBF7B6
S31500005190DBFA204610BD426892884089401A824256
S315000051A001DA01207047002070473EB5012818BF7C
S315000051B0202834D1012818BF202830D1FFF7DCFF82
S315000051C00446FDF78DFC0546A06901AB6A4602A9B7
S315000051D00AF091FB00992289206889B200F024F830
S315000051E02846FDF7BAFCA0690AF0FBFB012816D198
S315000051F0216820898988401A218A88420FDBA069A4
S3150000520090F83110022903D10AF073FB022804DA60
S31500005210A06990F83100012801D100F001F837BDEE
S31500005220A06900210AF0B7BB70B504460D461646C4
S31500005230FDF756FCE188A9420CD22288521A52196F
S3150000524092FBF6F306FB13222280A288AA18511AB3
S31500005250A180E580BDE87040FDF77FBCF8B5012868
S3150000526018BF20280C46154616D1FFF785FF0646BF
S31500005270307B10B101207073F1BD707B18B13046E0
S31500005280BDE8F240B2E00FF2CD1700F006F818B113
S3150000529000F003F80028FBD1F1BDB0693B462A4671
S315000052A021460AF082BC70B505460E46FFF764FF3C
S315000052B0012D18BF202D044640D1A069016890F841
S315000052C03200E8B90420886400F031F9A06900686A
S315000052D0C16C002E07D041F00401C1640C20FFF719
S315000052E033FF052106E021F00401C1640C20FFF71D
S315000052F032FF0021A0690068BDE870400AF0F2BCE8
S315000053000420486300F013F9A0690068816B002E41
S3150000531007D041F0040181630C20FFF715FF05213A
S3150000532006E021F0040181630C20FFF714FF002141
S31500005330A0690068BDE870400AF061BD70BD38B56F
S315000053400446DFF8E805814230D0DFF8DC55A8696D
S31500005350A0422BD12A89286899B2FFF765FF2968F0
S315000053600020C88002E0284600F021F820460AF016
S31500005370C0FA03281ADA2A68E889698A93884143B9
S31500005380002B89B2EFD05388128840188342B8BFE9
S31500005390914205DB9A42E6D28342A8BF9142E2DA05
S315000053A02046BDE8344001210AF0F5BA31BD38B5D2
S315000053B00446DFF87C35E089658A21680246684341
S315000053C0084400F10801A0690AF0A7FBA0690AF0E9
S315000053D090FA022801DBFFF723FF608AA18A401CAE
S315000053E090FBF1F201FB1200608231BDFEB504466E
S315000053F0207B68BB60680FF25D074188084400F1B6
S315000054000805A0696B4601AA02A90AF094FA606829
S315000054108188009A891A019A8E1A418800888842E2
S315000054200ED26089421AA0693B4629460AF0BDFBA6
S3150000543070B9606861894288711A561800F10805CA
S31500005440A0693B46F2B229460AF0AFFB00B9607389
S31500005450F7BD000070B5DFF8D054A96981421C463B
S3150000546015D168688188A14238BF8488FDF738FB6A
S3150000547069686B894A88A4B2A21892FBF3F603FB0B
S3150000548016224A8069688A88121B8A80E2E670BD05
S3150000549038B50D46FFF770FE112D044609D1A069F7
S315000054A000210AF087FA002020732046BDE832402A
S315000054B09CE7132D06D1A06901210AF07BFA012091
S315000054C0207331BD20680188084405722068018870
S315000054D0228900F043F901808188491C8180A069F6
S315000054E00AF07FFA226821899288891A89B220B93E
S315000054F0E2898A42A8BF012105DA012808D1208A5B
S31500005500814205DB0021A069BDE834400AF043BAB8
S3150000551031BD80B5DFF81C040169090606D50AF01D
S315000055205BFCBDE8044001460120B1E701BD0C204B
S315000055301BE6F8B50C461546FFF71EFE0646EAB210
S31500005540306880883189891A884201DB0120F2BDE2
S3150000555000270DE0FDF7C4FA31680B8814F8012B1B
S3150000556019447F1C0A7231680A88338900F047F9AA
S31500005570AF42EFD30020F2BDF8B5012818BF2028AE
S3150000558004460D463AD100F023FA10B9204600F041
S315000055906CF82046FFF7F0FD06462046FFF7ECFDC7
S315000055A0012C18BF202C29D1DFF88C13016001F1E2
S315000055B048024260402202818022012C18BF202C22
S315000055C0428150D1012C16BF202C01F1D0000020C1
S315000055D0012C18BF202CB06110D1DFF86003A98C14
S315000055E0A8618030E861F181EA8C32828A4207D272
S315000055F01C21304604F0C8F90220F2BD0120F2BD9C
