:10000000000800209B5A0200178D0000338D00006D
:100010004F8D00006B8D0000878D000000000000F8
:10002000000000000000000000000000A38D0000A0
:10003000DF8D000000000000AB900000F393000093
:10004000DB7E0000F9030200C79B000033A2000022
:100050002100020039040200FF0302000104020033
:10006000FB030200697A0000017E00009BA80000EB
:10007000698F0000199000001FAB00002FB6000030
:100080008FBA00006FBE00001D7E0000B7C50000E3
:10009000CBC50000CBCC000023CF000043D1000033
:1000A0000FEF000047F500000F0B0100AB3401001B
:1000B0003B040200FD0302005B3B01006F040200F1
:1000C000773C0100015A0200D7540100EB5B0100AC
:1000D00067710100A37101005B7A01006F7E01006E
:1000E0009792010093AB0100AFC00100C321020051
:1000F000A34A0200034F0200435A0200635A02005F
:10010000B35A0200B55A02000000000013B779FA92
:10011000C925DDB7ADF3CFE0F1B614B8000100009A
:1001200000000000000000002000000001000000AE
:1001300000000000000000000000000000000000BF
:1001400000000000000000000000000000000000AF
:10015000000000000000000000000000000000009F
:10016000000000000000000000000000000000008F
:10017000000000000000000000000000000000007F
:10018000000000000000000000000000000000006F
:10019000000000000000000000000000000000005F
:1001A000000000000000000000000000000000004F
:1001B000000000000000000000000000000000003F
:1001C000000000000000000000000000000000002F
:1001D000000000000000000000000000000000001F
:1001E000000000000000000000000000000000000F
:1001F00000000000000000000000000000000000FF
:1002000002987203029878030298EA060298FC01A9
:10021000029894030298BA0302989403029848043F
:1002200002987E050298A40502989E030298420651
:100230000298B8060298A4030763076390B963792C
:1002400000B902EC00CD114502EC00CC01DB0671D7
:1002500002980E03411103B804D91C7207319112A0
:1002600010DA087102DD10721C7002B80698F810DE
:100270003038127208B806988E0F00C0240008406B
:10028000207800F802EC00CA05B823DAEA7202EC22
:1002900000C8911110D9167100C1FC1E0021141163
:1002A00011500A7108DB06720AB8CC700768911108
:1002B000173111402111C0311140011990B841117D
:1002C00008D90471627820D904726578273123DD5A
:1002D0000872C0DA0471607803B8411107310872FE
:1002E000A1152035927102DD1672A11120D98871F5
:1002F000CCDA847206B8054DB27202980E03211151
:100300004049C0D93471A031411540350165514192
:100310000361076308DA147204DA1E7210490134AB
:100320000A7101DB147190B8677800C00D0F0C0DD5
:100330000698FA1001D8087207B802987600CC32F5
:10034000204A00C0051708500698FA1011300142E3
:100350000DDA6671208800C1DE1B250120BB04DA9E
:10036000107208DA0A7200C120841000F823E82312
:100370003114056B01DA06711E49024B076B076BDE
:1003800000C04C1F00213810BC2002DA127100B9E5
:10039000FF21A11380DB087100C100FCFF011810D0
:1003A0000298960200C3F41E0021341080D84671D2
:1003B000EFBA0698BC0E00920362DDDA9472A111C6
:1003C00001D9327100C238100840241204232813C6
:1003D00002EC00C804D9167104BA18300871006024
:1003E000FD20012A02EC00C8FF22FA7604DC067226
:1003F00018B8737890B8437802980E0306980E09DF
:1004000000B8011A91101730011900C20202000051
:100410000698840704D9067101B802A800C0F41E2A
:100420000021041380DB06710298380001DB5E7145
:1004300000C2541F002124111114FF3402EC00C823
:10044000FF24FA76076106980811036111380F300E
:1004500003611114011141100698081101D80872A6
:1004600003B802987600042202DB167124101128CA
:10047000112806981C1100C218000840FF2008121D
:10048000411007600698081101D8087120BC10DBE4
:10049000067202980E0300BB00C14C1F0021141508
:1004A000511207620762C021112CFF320E71408881
:1004B000511406983E034143009441115112076ABA
:1004C000FF320E715114076406983E03076C4143D6
:1004D00000C1501F00211410013BB821141111124A
:1004E00031100F30127100BA046101D80471114249
:1004F00000600FD8F472311006601E30047201B82B
:10050000003A087204B8029876000298A40100C06C
:100510005C1F002104110F3103DD1A7200C000605E
:100520000840041007D80E7200C01040084004B9FB
:10053000181000F80698BA0E00B8477800F830880E
:100540005088FF34087102ECFF24F87002EC00CDF3
:10055000141001BB5150FFD8047131440760006B87
:1005600010DBF2710421FF22E4720F4C009500931E
:1005700000A006980E0900F806980E0900C5981FFD
:1005800000215415069828050698180C00C59C1FD4
:10059000002100F806980E090698EE0C18700698CF
:1005A0000E090E7006980E090698AE100698EE0C0D
:1005B0000698EE050698D20B00F806980E0910B9B9
:1005C00002BA069886070698280500C59C1F0021D8
:1005D00000F89112033288B903DE44727179A110D8
:1005E00020D80C71069828050698180C6C7000C36A
:1005F000F41E0021341380DB1A7100C3A8100840D8
:10060000A1141034024C481300BC48139114076421
:1006100048138CBB627B40D80671517900BA076AD7
:1006200000C0A000084006982C040420087809782F
:10063000041121411810911102D90C7200C1701FD0
:10064000002106982E0500A006980E0900BD069808
:100650006A0A10B903DC047100B902BA0698860769
:1006600004D9067100404072811008D810710698B4
:100670006A0A03DC08720698DE07267006984A05A7
:10068000FFD80C7288B8477800B84478447091104D
:1006900010D80E7100BB00C46C5008400698B80713
:1006A00020B802A800F800C0F41E0021041320DBCB
:1006B0002071911010D80E710760FFD808728CB8A5
:1006C0004478967008DB9272A11328DB8C7203BD0C
:1006D00006981C050698EE0C00C5A01F0021069880
:1006E0006A0A00BA03DC2A72042500C00C510840D3
:1006F0000698D808211400C01400084004100268AD
:10070000042334111128F823341106983411412A96
:100710005415212D0698B60A0298A20F9110015582
:1007200003355150011900A000C16C1F00211411A4
:1007300001D9167100C024600840041221510761DC
:100740000F3107691152281000A001B8811180D91A
:100750002C7100C10C500840141004302072642128
:100760001412EC211410014A0762036080302150FA
:100770008C480A717F2155211410013000A0069881
:100780000E090698EE0C00BD06981C0588B847783F
:1007900000B8447800C5A81F002154150698B60A71
:1007A0000298A20F06980E0900C4BC1F0021441431
:1007B0001DB3315B302C20750698BC0800C060006A
:1007C00008400410016801D80E7100C064000840A0
:1007D000237808B8657806984A05FFD8067208B8E5
:1007E000607800C2000002020698840700F800B991
:1007F00000C09C10084018101C200AB9181000C234
:10080000600008402410911188BB0D302C71082223
:100810000812FC2204D9147204D804716A7B08D827
:1008200004716C7B2F7A487B107004D804716D7B47
:1008300008D804716F7B217A507B517B8CB8427849
:1008400000A006980E0906986A0A07DC0A7200C51D
:100850009C1F002100F80698D20B01B9911004D812
:10086000047100B900C2000002000698860700402B
:10087000207100C0F41E0021041120D914710761F9
:1008800001D9E0728110076001D8D8728CB8647801
:100890000698EE0500C5AC1F0021541500C01C5180
:1008A00008400698D808212D069828050698180CA7
:1008B00000C5B01F002100F806980E09811108D963
:1008C0000C710698DE0720B802A800F80698EE051D
:1008D00000BD06981C0588B8477800B8447800C564
:1008E000B41F002154150298A20FB110076001D85F
:1008F0000A7108B87F78020C7E7806980E0901F814
:10090000911010D846710698700D0698920D0698B1
:100910004A0E00C51C510840541100C53050084013
:100920005412E82554151159112D06760122212D56
:1009300000C1001F00211411112DD07518B8757851
:100940008CB8447801B802A800F8B110076810D834
:10095000307100C04810084000C300000840311446
:100960006024282444113411076101D9FA7144121A
:100970002810076228100762281007622810E87004
:100980000298160D0C700698860A11380472076AD0
:1009900000BB00C1041F002100C4405108401411D5
:1009A00020391672417B007C00C46C50084000C2A4
:1009B00000000101281400A00698D20700C2F41E0E
:1009C0000021241240DA0672617B007C88BA527AD8
:1009D00000A088BA727A811204DAFC7200A088B88A
:1009E0006B7800C0640008402F7800A0B11001D8D7
:1009F000047200A000C0287008400411108800C1D3
:100A0000001800401810442004111088A820041178
:100A100010884CBA757A18103DB11088F4B8427835
:100A200044207278D8207378E82073784FB200C4DD
:100A3000FFFF8080413A4FAA01BC01644113076364
:100A400000C06C70084003B918100110011001B902
:100A500018100110011001100110982004110761F5
:100A600001B80160003A0471044904D9047241528A
:100A70000760003A0471084908D9047231520460D1
:100A8000003B0E7200630064314241424FAAB270D3
:100A90004FAA44B801685378F8B853784020527888
:100AA00000913DA9009100C01470084018100091F9
:100AB000582018100091BC20181000A04024066493
:100AC00000C0FFFF0000013C1DB00220015840287B
:100AD00006751EAC01EC00A000C21850084024119D
:100AE0001DB4111324113051F871066C4024041008
:100AF0000158112800C3901F0021341106983411A9
:100B000000B88020013A0662215A412A00A00090D4
:100B100000C6C01F0021008801B007680F305CB11B
:100B200011130F330111C0480698700A0698CC07BC
:100B300000C4641F002103DD167214BA281400C219
:100B400000010840317A9C22CC22207A00A009DDE5
:100B5000EE7100BA03DF1E71004B067228143119C2
:100B600053B080BB006B30380A7109DD0671029802
:100B7000D20E00A04413281441150698860A00607E
:100B8000B83000C4E010084044120762013221402E
:100B90000824287CF8255412F03240DE04724048C4
:100BA00004DB08720DDD0C72044BEF30144806981C
:100BB0003E090088811140D91E72B1123032CF4AED
:100BC0002138B1D8127208D8067104D80A719C2451
:100BD000D424237C347098244412FF32C322047539
:100BE00080B8D82481D8247140D90472237C084B62
:100BF00004BA80DC067180D8367206B904A901D81F
:100C00002E7264242824307C4E7008D80C7107BAE8
:100C100024D8047106BA187004D80C7101BA40D8EF
:100C20000E7102BA0A7005BA20D8047203BAE02421
:100C300044114024181407611814911118311142FD
:100C400000C100600840141110D90471404A2031DD
:100C50001142281408140090308802480698DE0ECD
:100C6000009308DB047100F800A05CB00F3000A016
:100C70001088B111076980D90A7100C1800008404D
:100C80000811009100A000C400010840441000A019
:100C900000C020300E40041104101050F47200A067
:100CA00000C028400E400413315107610C31076920
:100CB0001153381000A00698E60B00C0F41F002165
:100CC00004110698A00A217A237A00C300001000BC
:100CD0000698E00A00C0781F00211DB1181000A07E
:100CE000511400C0B81F00210410012C0A7500B86F
:100CF00026A80698BC0800C0741F00211DB118105A
:100D000028B010B9115911380EB9114028A880B86F
:100D100000C144300840081100C1F01F0021141028
:100D2000303B06710760076000C40830084044117A
:100D30001150FF30015118146FB8076826A8217AA6
:100D4000050C21102020267800C063EF0000314000
:100D500026A8050C20EC247A20EC217A184826A835
:100D600028B00AB901510F31115028A8050C207A7A
:100D700020EC0F0C98B846784178B11080D83E71BD
:100D800000C04C30084000C16D01000018100D0E6D
:100D90000D0E00C07030084004113031127108206F
:100DA00025782478960CF82004113031F272DC207A
:100DB00000C106000000181000B918100698900A2B
:100DC00000C2681F002124100151FF311150081288
:100DD00000A00698E60B00B826A800C07C1F0021E2
:100DE0001DB1181000A030B840780DB101D9FC72C7
:100DF000427800C074300E4004114CBA407A18108A
:100E0000EC2004115C7A1810A4BB707B4E7B4F7BE6
:100E100000C20430084000A00698E60B217A227A2E
:100E200000C0881F00211DB1181000BB0698E00A01
:100E3000A4BB00C040300E400411033101492872A8
:100E4000B112076207623020041121510F3118726C
:100E50006E7B6F7BF02004114CBA7C7A1810142042
:100E60000411607A1810B11002D81071707B30B87C
:100E7000627860780DB001D8FC7108B86E780EB851
:100E80004EB110D90C723EA8140C0FB83EA81070C9
:100E900044A8140C01B800C1B0300E40081100C0C5
:100EA00077801F003DB201423DAA00C0FFFFFFFC5A
:100EB000013A3DAA140C00C077E01F0001423DAA90
:100EC00051B801687D7808B87E780698D2070698F0
:100ED000EC070698CC0751140698BC08F4B845787E
:100EE0000A0C00C0841F00211DB1181000A051B8C9
:100EF00001685D7800C00000000344A83EA800C15E
:100F0000B0300E40081110B807683DB101393DA955
:100F100008B86F7800A001F8541000DC12710114B9
:100F20000698BC0818B8707800B8417800F80298A4
:100F3000320D0698700D008800C5681F00215415F9
:100F40005112FF350762FF320698900A0159512964
:100F5000047511590090212912750698920D069872
:100F60004A0E03D80472FF0FCE7018B8727800F8DA
:100F700000C0F41F0021041001D8147150BD069860
:100F8000A80E00C3086208402C7B287B00BB1DB460
:100F900000A001D8047200A00698BC081DB4282443
:100FA000408800C00470084004108020FF300672A2
:100FB0000298440E00DF0672011316703111016BA6
:100FC0001159112B016300C1FF070000113B012BD8
:100FD00000C08801000001583128087605B878BDA6
:100FE0002870F820087605B8C8BD1E70DCBDDC206E
:100FF000067606B81470E020067607B80C70E82074
:10100000067608B8047009B800C1006208401412DE
:10101000076201DA187110DA08720698A80E2670B5
:1010200008212C79287950BD0698A80E0768036816
:1010300000C12C60084000C2FF0FFFFF1414213CC8
:101040000144481101B8009400A002D8047200A025
:101050000698BC081DB42824408800C004700840CD
:101060000410FF3080DC3C7106985611015900C213
:10107000EC1F0021241550452A71541221100698A6
:10108000561111280A75042554155045EE7200C0FA
:101090001C6008447FB906611810113A48B9797983
:1010A000281002B8009400A000C4786008404412E0
:1010B0002155FF355152281400A0EBBA00C0641F1F
:1010C00000210411113A10D9067118B97479281049
:1010D00000A00698AE1011510698A00A00B8B111F0
:1010E000076940D9067202988C0F00BC08D940717C
:1010F000202400C160600840111200DC0C71A022A5
:10110000241210DA10710C70BC222412076204DA67
:1011100004710421141200C180000840320C28110F
:101120000762281107622811076228114B0C00C1C1
:101130005C1F0021141200DC1C7120D8087101B85A
:101140000698960FF0DA0C720CDB087102B806985C
:10115000960F482400C380000840FFB801200421F6
:10116000141111410871014118130824014200C1F2
:10117000383008401411014100C0006008400410DC
:1011800030300168014118132813481300B800C11A
:101190005C1F0021141203682150F0300152281105
:1011A00000A064BC066C415C512C0698BC085088B9
:1011B0000698D2030095B110076820D8207108B8AE
:1011C0006578911004D808720698DE0700F888B890
:1011D0006E7800C064000840217800F808B86C7888
:1011E00020B85A7859785B7800C0F4400840787885
:1011F000797800C0E81F0021041040A846A84EB02E
:1012000010D844724DB100C09FFFFFFF113840B1AC
:1012100002D90A72604804BB41540870204802BBDE
:1012200002BC4DA8F8B87078190C3EB141413EA9F6
:10123000F4B973797378717800C4F840084000C23B
:1012400000410840227000C20000010044AA230CA3
:1012500000C200000B0044AA00C41041084000C2B4
:101260001841084004BB587C050C597C0C240F0C19
:101270002FAB050CB11008D81471647A657A1CB8CC
:1012800079787B7820B879787B78607CF424411376
:1012900051140698BC08727B53B80168050C687835
:1012A00040EC00C0801F00211DB1181000F8015053
:1012B00053A800C0B860084004110761076180D9D5
:1012C000047240EC00C4F84008404EB010D80471DD
:1012D000182441130C23527C407B01502FA8050C8D
:1012E000797C0A0C00C0000001020814787C050C0F
:1012F000507C08B86D7800A0115910D906710760AC
:10130000076008D90471076004D90471036002D929
:101310000471016001D90471006000A010880411FB
:10132000023006710761076100C0FFFF000011383D
:10133000009100A000C2FFFF00002138213900BA4F
:1013400001D806710148112A0069006001D8F672BF
:101350000138F67200A08020FF30FF48812000A0F5
:10136000580400000028012803280018002A012A38
:101370000118052A022900000200000305000209E5
:1013800000012A000A010A004008002005000A079F
:1013900000002A000200001820000400605600200F
:1013A0000500200300052A000200011800000108C2
:1013B000FFFF0000A813000002000108FFFF00006B
:1013C000A013000007000008FFFF000198130000B1
:1013D00008000708FFFF00030200000000000108EA
:1013E000FFFF00009413000002000108FFFF00004F
:1013F0008C13000004000308FFFF000184130000A9
:1014000002000108FFFF00007C1300000500010836
:10141000FFFF00007813000003000700AC1300007A
:101420000900000009000000641300000000000033
:10143000E05B02000200000018140000E15B020003
:1014400000000000E25B020000000000FFFFFFFF61
:1014500040787D0100000000005A62020001000097
:10146000C0CF6A0002000000809FD500020100008A
:10147000406F400102020000010000000000000077
:10148000040000000100000008000000010000004E
:101490001000000001000000000100000100000039
:1014A000000800001D000000000200001D000000F8
:1014B000000400001D000000000001001D000000ED
:1014C000050000000000000000C20100000500004F
:1014D00000100000000000000000000000000000FC
:1014E00000000000000000000000000000001030BC
:1014F00000000000000000000000000000001003D9
:1015000000000000000000000000000007000003D1
:10151000050000000000000040420F00050100002F
:101520000000000000000000000108070F000A0092
:10153000C8002000A000010001000000050000001C
:10154000000000000000000000000000000000009B
:10155000A00068010A200706020A04070000000034
:101560000002070000000000000000000802000068
:101570000020002078206400000000001C140000FF
:10158000000000000000000001000000000000005A
:101590000000000000000000000000000200000049
:1015A000006A180005010B00000006010D00000094
:1015B00020010000A3B0000020040001A9B0000039
:1015C00020010002B3B0000020000003D7B00000EB
:1015D000000000000000000020010B0293BA000090
:1015E00000000000000000002002210017C50000DC
:1015F000200121013DC500000000000000000000A6
:1016000020000D00DBBC000020000D0169BD0000C2
:1016100020030D0283BD000020020D03C7BD0000A2
:1016200020020D0419BE00000000000000000000B0
:101630002002090037B600002001090165B600004C
:10164000200209027BB6000020050903C9B600008C
:1016500020060904E1B6000020040905F1B70000E6
:101660002003090605B80000200309070BB7000096
:10167000200609084FB700002004090995B70000AB
:101680002004090AA9B700002006090BC7B700000B
:101690002002090CDBB700002001090D93B90000FE
:1016A0002003090E19B800002004090F2DB800000E
:1016B000200509109FB60000200209117DB7000027
:1016C0002007091227B7000020060913E3B900001C
:1016D000000000000000000020040A004FB80000D5
:1016E00020020A017DB8000020050A0203B90000AB
:1016F00020050A031DB9000020040A0457B90000A0
:1017000020040A056BB9000020030A06CDB80000CA
:1017100020040A07A7B9000020080A08CBB9000076
:10172000000000000000000020060C00CDBB0000FF
:1017300020000C0B11BC0000200A0C0CE7BB0000C1
:1017400020010C0D39BC000000000000000000006A
:101750002009080033B500002001080161B5000030
:101760002002080275B5000020020803B7B500008A
:101770002001080401B60000000000000000000085
:1017800020070300E3B3000020020301B7B200000A
:101790002001030225B400002000030339B4000037
:1017A000200503044BB4000020080305A3B4000087
:1017B000200503068BB40000200203074DB3000090
:1017C0002001030891B3000020010309C1B4000007
:1017D0002006030AE1B200002007030B69B40000F1
:1017E0002003030C67B300002002030DD5B40000F2
:1017F000000000000000000020010F0051C30000A5
:1018000020020F019DC3000020020F026FC40000E0
:1018100020010F043DC3000020010F066FC300002C
:1018200020000F078BC3000020050F08CBC300006A
:1018300020020F09F7C3000020010F0A0BC40000AB
:1018400020000F0B27C3000020020F0E91C40000E0
:1018500020000F0FA5C4000020040F10E3C30000F8
:1018600020010F1137C4000020010F1221C4000015
:1018700000000000000000002000010015B2000080
:10188000200101012DB200002000010321B1000060
:101890002006010459B100002002010AFFB1000036
:1018A0002001010B93B100002001010CD7B1000011
:1018B0002002010D73B100002002010E65B200008C
:1018C000000000000000000020040E0005BF000022
:1018D00020020E01E7BF000020000E0223C000001E
:1018E00020020E07ADC0000020040E0CD1C1000084
:1018F00000000000000000000000000001000200E5
:1019000015005400A9005301A7024F059F0A0000CB
:10191000FC00D80A066CFBFF9D00370518E2FEFFAD
:1019200075000403F5E3FFFF4900B9019D43000082
:1019300035005701F85700001600D1005857000035
:101940000E007C00D049000008004B002839000040
:10195000F8006C0B78DEFAFF9F00F1044EEAFEFF00
:101960007500DF0248DEFFFF4C00C3018D3300002D
:1019700024001901E44B00001300AC00904A000061
:101980000C006C00B13F000007004300463200002D
:10199000C800FCFE50190000C800FCFE1019000031
:1019A00083FFBFFFE2FFF1FFF9FFFEFF0000000031
:1019B000FFFF000000000000FC00D2104C06FAFF00
:1019C00081009B05F132FFFF500062020B350000E1
:1019D00026004B01885F00001800E0005E5D0000FB
:1019E0000E008C006A4F000008005100F73C000018
:1019F000F8006D23441FEEFFF800F20E8E37FAFF59
:101A00007B00A40324A7FFFF4E00D601AD340000E5
:101A100025003001004D00001300C000CA4A00003C
:101A20000B006E00F73C0000060038008A2B000017
:101A30009600FCFEF01900008C00FCFEB0190000BE
:101A400083FFBFFFE2FFF1FFF9FFFEFF0000000090
:101A5000010000000400000001000000040000007C
:101A60000100000000000000000000000200000370
:101A7000000000000001090000011000000000004B
:101A8000002800000000000002000000000000002C
:101A9000002800000000000010000000F401000019
:101AA000FA00000096000000640000004B000000F7
:101AB000320000001E0000001400000000000000C2
:101AC00001010000010100003C0094003C00960070
:101AD0000000000000010203000103FF04FF02FDFB
:101AE000FE0000000F0E0C080C080D18100000007E
:101AF000030100020102030013001D001200100088
:101B00001500000005D7000051D700005DD7000088
:101B100000000000500040002800020000085000B3
:101B200024001800000000046C888391AAF5A538F1
:101B300060370BDB5A6083BE3F49F6D4A3C55F38DC
:101B400074C9B3E3D2103F504AFF607BEB40B799B2
:101B50005899B8A6CD3C1ABDE69D350E480103CC78
:101B6000DBFDF4AC1191F4EFB9A5F9E9A7832C5E84
:101B70002CBE97F2D203B0208BD28915D08E1C7464
:101B80002430ED8FC24563765C15525ABF9A32639A
:101B90006DEB2A65499C80DC00000100010000011A
:101BA0000001020203000200000000000202010026
:101BB0000200000000000100010005010005020212
:101BC0000300020000000000020501000500000003
:101BD000BD9C0000000000009411000000002800DF
:101BE00000000000000000000000000000000000F5
:101BF000809C2B8F80841E00000025002500B400EF
:101C00004C0F002000000000809C2B8F80841E0061
:101C100000002600260099004C0F00200000000064
:101C2000809C2B8F80841E000000000024002C016B
:101C30004C0F002000000000809C2B8F80841E0031
:101C40000000270027002C014C0F0020F055000059
:101C500000000000B20C000000002800000000009E
:101C6000000000000000000000000000809C2B8F9E
:101C700080841E00000023002300B600500F0020C7
:101C800000000000809C2B8F80841E000000240038
:101C900024009D00500F002000000000809C2B8F2E
:101CA00080841E000000250025007D00500F0020CC
:101CB00000000000809C2B8F80841E000000260006
:101CC00026005300500F002000000000809C2B8F46
:101CD00080841E000000000022002C01500F002014
:101CE00000000000809C2B8F80841E0000002700D5
:101CF00027002C01500F002000000F4000000000C2
:101D000000040F4001000000FFFFFFFFFFFFFFFF87
:101D1000FFFFFFFF000000000000000000000000C7
:101D200001000000FFFFFFFF4B60D2273E3CCE3B8F
:101D3000F6B053CCB0061D65BC86987655BDEBB3A6
:101D4000E7933AAAD835C65A96C298D84539A1F42D
:101D5000A033EB2D817D0377F240A463E5E6BCF868
:101D600047422CE1F2D1176BF551BF376840B6CB33
:101D7000CE5E316B5733CE2B169E0F7C4AEBE78E2F
:101D80009B7F1AFEE242E34F512563FCC2CAB9F3BE
:101D9000849E17A7ADFAE6BCFFFFFFFFFFFFFFFF22
:101DA00000000000FFFFFFFF183F010604100100C4
:101DB0000001010600102700000C000000000000D8
:101DC00000000000183F0106041001000001010698
:101DD00000102700000C00000000000000000000C0
:101DE000020000001CC7710000000000A81D0000D8
:101DF000D01B00000000000002000000388EE3004D
:101E000000000000C41D00004C1C00000000000089
:101E1000F01F03013F00370000000000E01D00003C
:101E2000040002000181010000010000180002000E
:101E30000000000001000000280007000000000072
:101E40000000000000000000000000000000000092
:101E500000000000A0070000480001000000000092
:101E6000540002000000000000000000A000040078
:101E700001480000FF4C000001490000FF4D000038
:101E8000002001000807000010200100AAAAAA00F3
:101E9000182001000060DA000830010013AC0001D6
:101EA00030300200E3381000010000004030010033
:101EB00000000000A04001007A27000FB840010098
:101EC00000C08300F44001002010000034410200F3
:101ED00080080000E6870000404102006D00880095
:101EE000C0E6524D60410400000000000000000008
:101EF000060000000600000014600800100000004A
:101F0000000000C61FC00100C85000000080000093
:101F10000000000300000000000000005060060008
:101F200018000500410C00000800000091000400AA
:101F3000294176710000000078600C008C000C00D4
:101F40000000000014001A00000000000000000063
:101F500001040B192C404C59605B534736251B116B
:101F60004AF338966745231211090000E460070020
:101F70008F0846CB0000000023086404D007CB483C
:101F800091200600F9541C008294EA870461030042
:101F900051551100B01B000089BB000020610100F9
:101FA000FFDF000014700700F8700200000300005B
:101FB0006000A58300000000820000000000800196
:101FC000D5000000487002003C3D0000BC19000034
:101FD00070700300054100000F9C030006E04900FB
:101FE000FFFFFFFFFFFFFFFFF01F03013F00370070
:101FF00000000000F81D0000040002000181010043
:1020000000010000180002000000000001000000B4
:102010002800070000000000000000000000000091
:10202000000000000000000000000000A007000009
:102030004800010000000000540002000000000001
:1020400000000000A000040001480000FF4C000058
:1020500001490000FF4D00000020010008070000BA
:1020600010200100AAAAAA00182001000060DA00CE
:102070000830010013AC000130300200114910009B
:10208000010000004030010000000000A0400100FD
:102090007A27000FB840010000C0E300F4400100BF
:1020A000201000003441020080080000E687000094
:1020B00040410200EA008800C0E6524D6041040041
:1020C0000000000000000000060000000600000004
:1020D0001460080010000000000000C61FC00000CF
:1020E000C850000000D032000000000300000000D3
:1020F0000000000050600600FC006900410C000078
:102100000000000011000800294176710000000065
:1021100078600C000804000000000000BE031A00F4
:10212000000000000000000001040C1A2F4653615B
:102130006862584935201407C491A063564433237C
:1021400022529224E46007008108A1CB0000000025
:10215000198407059411CB489920060001612000DD
:102160008294EA870461030065B611001E370000FF
:1021700089BB000020610100FFDF00001470070030
:10218000F8720200000300006000278400000000D5
:102190008200000000008001D500000048700200AD
:1021A0003C3D0000BC19000070700300C30000003B
:1021B0000F9C030006E04900FFFFFFFFFFFFFFFF4A
:1021C0004145532D3132382D454342004145532D71
:1021D0003139322D454342004145532D3235362D9C
:1021E000454342004145532D3132382D435452006E
:1021F0004145532D3139322D435452004145532D21
:102200003235362D4354520002000000B75A020006
:10221000BB5A0200D75A0200D35A0200DB5A02000E
:10222000F55A02000201000080000000C0210000F9
:102230001000000000000000100000000822000054
:1022400003010000C0000000CC21000010000000CD
:10225000000000001000000008220000040100003F
:1022600000010000D8210000100000000000000064
:1022700010000000082200000B0500008000000094
:10228000E421000010000000000000001000000029
:10229000082200000C050000C0000000F021000032
:1022A00010000000000000001000000008220000E4
:1022B0000D05000000010000FC21000010000000DE
:1022C00000000000100000000822000002000000D2
:1022D000242200000300000040220000040000004F
:1022E0005C2200000B000000782200000C000000BF
:1022F000942200000D000000B02200000000000049
:102300000000000010F1C0621160704710F180629F
:102310001160704770B504000D0016002900200000
:10232000FFF7F4FF31002000FFF7ECFF70BD10B5A0
:102330000121184800F0DDF90121174800F0D9F912
:10234000002305220A21032001F08BFA0023052235
:102350000B21032001F085FA45F203100F490860B4
:102360000F48104908601048040000224FF47F41D4
:102370002000FFF7CFFF0C4804005FF450225FF409
:102380007F012000FFF7C6FF60210848FFF7BAFF72
:1023900010BD0000003508000045080064600E40D4
:1023A0000451000868600E4014600E4008600E4042
:1023B0008B0013EB401313F184431A607047020043
:1023C000880010EB421010F184400068704710F153
:1023D000C0621160704710F180621160704770B583
:1023E00004000D00160029002000FFF7F4FF310063
:1023F0002000FFF7ECFF70BD202801D2012100E092
:102400000021C9B2012111FA00F0704780B51221F4
:10241000DFF82806FFF7D3FF0028F8D101BD80B50B
:10242000FFF7F4FFDFF814060068000C10F003005B
:1024300002BD70B5040001200500DFF804068442E7
:1024400004D2002005000020060008E0DFF8F405B3
:10245000844202D20120060001E0022006002A0088
:102460001021DFF8E405FFF7A3FFDFF8E0050068BF
:1024700030F0807050EA0660DFF8D015086070BD5B
:10248000DFF8CC1509680800704710B501F0B0FA04
:102490000400DFF8B8050068C0F30420401C00FB0E
:1024A00004F010BD38B5DFF8040700F0D7FA0500D6
:1024B000EDB22800072805D0092807D101F098FAC5
:1024C000040005E0FFF7DCFF040001E00020040049
:1024D000200032BD70B50400002C0FD1DFF8D0060B
:1024E00000F0BCFA0600F6B23000012808D004283B
:1024F0000DD0072807D008280DD010E0002011E0EB
:10250000002005000DE0FFF7BBFF050009E001F02A
:1025100091FA050005E0FFF7B8FF050001E0002093
:102520000500280070BD70B4DFF888462468002CD0
:1025300001D0012300E0002341F67134DFF8745626
:102540002C60DFF81045246814F040742200002548
:102550002C00052C10D2DFF8005505EBC4052D79B1
:102560000E00F6B2B54205D1DFF8EC5455F8345000
:10257000854201D2641CECE7052C02D103252A0018
:1025800005E0DFF8D45405EBC4056D792A00120686
:10259000DFF8C0542D6835F040751543DFF8B4649A
:1025A0003560DBB2002B03D00025DFF8086635600C
:1025B00070BC704780B501F019FA0021FFF7B3FF36
:1025C00001BD38B504000D0029002000FFF7ABFF66
:1025D00031BD01000F22CB1C934201D2C81C00E088
:1025E000100000077047DFF8D0050068C0F3011045
:1025F0007047DFF8C415096831F0300151EA001165
:10260000DFF8B42511607047F8B5040000262000FB
:10261000DFF8A815884207D0DFF8A415884203D058
:10262000DFF8A015884200D1FFE7200000F016FA7D
:1026300005002000DFF88415884208D0DFF88015F7
:1026400088420BD0DFF87C1588420ED014E0DFF80A
:102650007805006810F0070005000DE0DFF86C0554
:10266000006810F00700050006E0DFF86405006868
:1026700010F007000500FFE7002D21D0022D08D043
:1026800003D3042D09D00CD31DE001F0EAF90600B4
:102690001BE001F0ECF9060017E001F0E5F9060097
:1026A00013E001F093F90700DFF8A0030068C0F31E
:1026B0000060401CFFF7A0FEB7FBF0F0060004E04E
:1026C0000020060001E0002006003000F2BDDFF827
:1026D00004150968C90704D4DFF8FC14096801422D
:1026E000FAD1704710B50400200000F016F9401C24
:1026F00010BD2DE9F04104000D005FF00008200A34
:1027000010F00F0001280CD0022812D005280CD0A0
:10271000062812D0072816D009281AD00A281FD058
:1027200022E0DFF8240306001FE0DFF8F4060600CD
:102730001BE0DFF8F006060017E0DFF8EC06060005
:102740000120804611E0DFF8E406060010208046F4
:102750000BE0DFF8DC0606005FF48030804604E022
:10276000DFF8D006060000E00EE0C4F304300700F6
:10277000B8F1000F02D04046FFF7A9FFEDB22A00E2
:1027800039003000FFF714FEBDE8F08138B50400D1
:1027900014F47810002831D0B0F5003F42D0B0F5E5
:1027A000802F2FD0B0F5002F38D0B0F5202F45D096
:1027B000B0F5402F00F0A080B0F5602F00F0A080B1
:1027C000B0F5901F4CD0B0F5A01F4FD0B0F5B01FA2
:1027D0006DD0B0F5D01F3DD0B0F5E01F61D0B0F5A1
:1027E000001F00F08380B0F5281F4ED0B0F5301FD9
:1027F0006CD0B0F5381F00F087808AE001F0F8F85F
:10280000050088E001F0F4F80500DFF82C06006808
:10281000C0F30820401CB5FBF0F57CE001F0E8F8BF
:10282000050078E001F0E4F80500DFF81006006824
:10283000C0F30820401CB5FBF0F56CE001F0D8F8BF
:102840000500DFF8FC050068C0F30420401CB5FB60
:10285000F0F560E0DFF86403FFF7D6FE05005AE00C
:10286000DFF86003FFF7D0FE050054E0DFF84C030B
:10287000FFF7CAFE0500DFF8CC05006810F00F0076
:10288000FFF7BAFDB5FBF0F545E0DFF83003FFF7E1
:10289000BBFE0500DFF8AC050068C0F30110C540C1
:1028A00039E0DFF81C03FFF7AFFE050033E0DFF887
:1028B0001003FFF7A9FE0500DFF88C050068C0F3E0
:1028C0000110FFF799FDB5FBF0F524E0DFF8F00209
:1028D000FFF79AFE0500DFF870050068C0F30120DD
:1028E000001DFFF789FDB5FBF0F514E0DFF8D40219
:1028F000FFF78AFE05000EE0FFF7D4FD05000AE0B1
:10290000FFF7BEFD050006E00020FFF7E3FD050030
:1029100001E000200500280032BD70B50400C4F3BA
:1029200003100500012D0DD0C0F08380032D17D0BA
:102930000FD3052D22D01AD3072D4BD025D3082D28
:102940006DD076E0DFF804010068C0F304200600D3
:1029500071E0DFF8EC040068C0F3042006006AE0D0
:10296000DFF8E8000068C0F30060060063E0DFF80D
:10297000C8040068C0F3082006005CE0DFF8BC046F
:102980000068C0F30820060055E02000DFF860155D
:10299000884204D0DFF85C1588420CD017E0DFF8DD
:1029A000A404006810F00F0006003000FFF724FDBB
:1029B000401E06000DE0DFF88C040068C0F3011033
:1029C00006003000FFF718FD401E060001E0002061
:1029D000060030E02000DFF82015884204D0DFF840
:1029E0001C1588420CD017E0DFF85C040068C0F3C7
:1029F000011006003000FFF7FFFC401E06000DE04E
:102A0000DFF844040068C0F301200600301DFFF722
:102A1000F3FC401E060001E0002006000BE0DFF89A
:102A20002807844202D10020060001E000200600B1
:102A300001E000200600300070BD000004300E40B0
:102A40000148E8010190D00300400E4000410E40D3
:102A50002C08002004000E4050140000010001204A
:102A600011F00F031A001300012B0AD0022B20D003
:102A7000032B35D0052B4FD0062B64D0082B74D0F8
:102A800090E0DFF8A4381B6813F00703022B0AD08C
:102A90000CD3042B01D003D308E00223180007E075
:102AA0000323180004E00423180001E005231800A4
:102AB0007AE0454B1B6813F00703012B04D0022B6F
:102AC00005D0042B06D008E00323180007E00223FA
:102AD000180004E00A23180001E00123180063E055
:102AE0003A4B1B6813F00703012B06D011D3032BBD
:102AF0000CD005D3042B06D00BE0032318000AE00A
:102B00000223180007E00A23180004E00623180037
:102B100001E00123180047E02D4B1B6813F0070369
:102B2000012B04D0022B05D0042B06D008E0032390
:102B3000180007E00223180004E00A23180001E04F
:102B40000123180030E0DFF8E4371B6813F00103BD
:102B5000002B04D0012B05D10923180004E0072322
:102B6000180001E0012318001EE0DFF854391B684B
:102B700013F03003002B06D0102B07D0202B08D0E9
:102B8000302B09D00BE0012318000AE007231800BE
:102B900007E00423180004E00823180001E00123E3
:102BA000180001E000231800C0B2704706000C00B6
:102BB00098002E0040000E4024400E4002001A00F3
:102BC00003001C000500200080400E4084400E40A1
:102BD00088400E4044410E4040410E402DE9F84FE0
:102BE00004000D00032603275FF0000B5FF0000ACE
:102BF000112C19D1EDB2042D03D100F01BFF824638
:102C00000BE0EDB2052D08D100F06DF9DFF870187A
:102C1000884202D300F067F98246BAF1000F03D070
:102C20000021504601F0B8F814F00F0081464846E4
:102C300001280CD002285DD0032875D0052866D065
:102C4000062800F0AA80082800F0BA80E5E0EDB27E
:102C50002800022808D003280BD004280ED005280D
:102C600015D00A281CD01CE0042006000020070014
:102C700018E0032006000120070013E002200600F0
:102C800002200700DFF83C08FFF7D3FB0AE0012031
:102C9000060003200700DFF82C08FFF7CAFB01E05D
:102CA000BBE0BAE0012201213800C0B200F06FFAA7
:102CB000FFF780FCBAF1000F01D0FFF7A7FBDFF8A8
:102CC00008080660DFF8B803FFF760FDFFF7B1FB07
:102CD00000F07CFE0090FFF7A2FB0100C9B2009853
:102CE000FFF76FFCBAF1000F03D10121002001F0C2
:102CF00053F892E0BBF1000F02D1DFF8D0B7FFE745
:102D0000EDB2062D01D0012000E00020C0B2BBF1E1
:102D1000000F02D1DFF8B8B7FFE7EDB2062D01D002
:102D2000012000E00020C0B2BBF1000F02D1DFF8AB
:102D3000A4B7FFE7EDB22800012808D0022809D087
:102D400003280FD0062815D00A281FD021E0002024
:102D500080461FE001220121002000F018FA022025
:102D6000804617E001220121012000F010FA012025
:102D700080460FE000F02AFEFFF75BFB01220221F4
:102D80002748FFF715FB0320804603E00420804618
:102D900000E042E0CBF800803FE0EDB228000728D9
:102DA00002D0092805D009E00020DFF8801508606E
:102DB00005E00120DFF87415086000E02DE02CE04C
:102DC000EDB22800012806D004280FD0072805D02E
:102DD000082813D015E00020804613E001220121CD
:102DE000042000F0D4F9012080460BE001220121EB
:102DF000022000F0CCF90220804603E00320804648
:102E000000E00AE0DFF8B806006830F0300050EA71
:102E10000810DFF8AC160860FFE7BDE8F18F00008E
:102E2000B0400E40C0400E40E0400E40E8400E4032
:102E3000F0400E4050410E400C410E4008410E4003
:102E400014410E4020410E4028410E400100080070
:102E5000DFF8A026904224D0DFF89C26904220D0B4
:102E6000DFF8982690421CD0DFF8942690421CD0C0
:102E7000DFF8902690421CD0DFF88C2690421CD0C0
:102E8000DFF8882690421CD0DFF8842690421CD0C0
:102E9000DFF8802690421CD0DFF87C2690421CD0C0
:102EA0001FE0DFF8780600681CE0DFF874060068B1
:102EB00018E0DFF87006006814E0DFF86C060068C0
:102EC00010E0DFF8680600680CE0DFF864060068D0
:102ED00008E0DFF86006006804E0DFF85C060068E0
:102EE00000E000207047DFF8F00500687047000040
:102EF0006006140060162A007017160070272C0058
:102F0000F8B504002000FFF7A1FF0700002F04D050
:102F100017F1010F01D0012000E00020C0B2DFF85E
:102F2000B80500680600DFF8B00504601120FFF75F
:102F300095FD052801D1FFF73DFB1821DFF8B0050D
:102F4000FFF73DFA0028F8D117F1010F01D0012059
:102F500000E00020C0B22000DFF89815884208D0B9
:102F6000DFF89415884208D0DFF89015884208D021
:102F70000AE0022060F35A6706E0012060F35A6716
:102F800002E037F0C067FFE71120FFF767FD052873
:102F900002D12000FFF74DFAA64203D20121200002
:102FA00000F0FAFEDFF8400507601120FFF756FD3C
:102FB000052821D100F00AFD0500AC4201D3012013
:102FC00000E00020C0B2DFF810050068A84201D37D
:102FD000012000E00020C0B2DFF8FC040068844259
:102FE00001D1012000E00020C0B2FFF718FAC0B202
:102FF00001002800FFF7E5FA2148FFF7C7FBFFF7BC
:1030000018FAA64203D30121002000F0C5FEF1BD4D
:103010002DE9F04104000D00160000200400DFF847
:103020001C05006854F0405188438046EDB2002DE5
:1030300002D05FF0805000E00020F6B2002E02D0F7
:103040005FF0005100E000212043084350EA0808E7
:10305000002C02D1F6B2002E0CD000F0EBFC0700E1
:10306000FFF7DDF9C0B201003800FFF7AAFA380017
:10307000FFF7DFF9DFF8C404C0F80080BDE8F08195
:103080000025080070B504001120FFF7E7FC0428B4
:1030900001D0012000E00020C0B201220021022066
:1030A00000F075F86078002806D1A078002803D1D8
:1030B000E07890F0010000E00020C0B20025207C04
:1030C000012801D0012000E00020C0B2207C0228AD
:1030D00001D101200500DFF86404006840084000C9
:1030E0002843DFF85814086022780821DFF84C04E0
:1030F000FFF75EF9A088617A51EAC020DFF840143A
:103100000860DFF840040668207AFFF762FA16F0DC
:103110007F61E28851EAC221A27A1143227A51EA00
:10312000C2110843DFF81C140860607BA17B090111
:1031300051EA0030E17B0843217B50EA0140DFF88F
:103140000814086070BD00008009120010B504006A
:103150001120FFF783FC022801D0012000E00020AD
:10316000C0B200220021002000F011F82078617820
:1031700050EAC120A17850EA0160E17850EA0122CA
:10318000DFF8C813DFF8C803FFF729F910BD2DE9F0
:10319000F84F04000D001600E4B2002C29D0022CD8
:1031A0000CD01DD3042C12D02ED201208146022037
:1031B0008246012007000020804626E00420814648
:1031C0000820824603200700022080461DE01020D0
:1031D000814620208246052007000420804614E016
:1031E0004020814680208246072007000620804636
:1031F0000BE04FF4807081464FF400708246092046
:1032000007000820804600E064E0EDB2002D58D0B1
:103210005FF0000BE4B2022C13D1FFF7E4F90028B1
:103220000FD1DFF830030068800A10F001000120A0
:103230008346DFF808030068C00702D50120FFF7C6
:10324000D8F9A648C0F800904146A548FFF7B7F85E
:103250000028F9D0F6B2002E3CD03900A048FFF784
:10326000AEF80028F9D0E4B2022C33D15FFA8BFB20
:10327000BBF1000F2ED0DFF8C4020068C00705D5EF
:1032800001222021022000F0FDF803E000210220AD
:1032900000F0BDF8022000F020F80090012200218B
:1032A0000220FFF774FF0099022000F041F88B48DC
:1032B000C0F8009039008A48FFF781F8002809D14A
:1032C000F8E78648C0F800A041468548FFF777F840
:1032D0000028F9D1BDE8F18F00000100C9B2012931
:1032E00006D01DD3032909D014D304290CD017E02C
:1032F000994A1268D205D20D100013E07A4A12687A
:1033000012F07F0210000DE0944A126812F07F0262
:10331000100007E0924A12685205520D100001E0B9
:10332000002210007047000094400E4070400E4094
:1033300070B504000E00E4B2012C06D066D3032C55
:103340001AD045D3042C2DD060E0B6F5007F01D211
:10335000012000E00020C0B2F605F60D1A216448F5
:10336000FFF72DF80028F9D17B480068400A400299
:1033700030437949086049E0802E01D2012000E005
:103380000020C0B216F07F0618215948FFF717F841
:103390000028F9D154480068C009C001304352499F
:1033A000086033E0802E01D2012000E00020C0B28E
:1033B00016F07F0619214E48FFF701F80028F9D1D1
:1033C00066480068C009C0013043644908601DE0D8
:1033D00043480068800810F0010090F00100C0B27E
:1033E0005648006830F0300050F010005349086033
:1033F000C6F3C310FFF7EDF80500524800685949BD
:103400000840304328434F490860FFE770BD70B55E
:1034100004000D00E4B2022C01D1012000E00020E4
:10342000C0B2FFF7E0F8002803D15FF440000600C7
:1034300016E0EDB22800002808D0202802D030285D
:1034400008D00BE05FF40000060009E05FF44000E4
:10345000060005E05FF44000060001E04248060077
:103460001F4800683040B042FAD1700205D51F48AD
:103470000068800A10F0010000E0012070BD00002B
:10348000012D310170B504000D001600E4B2022CCC
:1034900014D1EDB2002D06D04FF4806011490860C0
:1034A000EDB232480560F6B2002E06D02900C9B24E
:1034B0002000C0B2FFF7ABFF01E0FFE7012070BDC5
:1034C0005C410E400148E80174400E4080400E40CF
:1034D00088400E4084400E403C08002060400E4072
:1034E00090400E40A8400E4010400E40A0400E40BC
:1034F00040410E4040420F0080841E0000093D0004
:10350000C0CF6A00405DC6000024F400C0EA21017B
:1035100080BA8C010048E80180D543023082E00F78
:103520003C82E00F4882E00F4C82E00F5082E00FB7
:103530005882E00F5C82E00F6082E00F24400E4072
:103540002C400E4030400E4034400E407F1B0007A0
:1035500038400E403C300E4020400E4018400E4097
:103560009C400E4000F8FF0FFF33E10764400E401F
:103570008B0013EB401313F184431A60704710F172
:10358000C0621160704710F180621160704770B5C1
:1035900004000D00160029002000FFF7F4FF3100A1
:1035A0002000FFF7ECFF70BD38B504000D00E4B259
:1035B000002C02D140F2FF3037E0E4B2012C02D1FE
:1035C0004FF6C07031E0E4B2022C02D140F6FF7039
:1035D0002BE0E4B2032C02D14FF47F4025E0E4B2AB
:1035E000042C01D1002020E0E4B2052C02D14FF6DA
:1035F000FF701AE0E4B2062C01D1002015E0E4B21D
:10360000072C01D1002010E0E4B2082C01D10F20DA
:103610000BE0E4B2092C02D14FF4404005E0E4B2E3
:103620000A2C01D1072000E00020284110F0010001
:10363000012010FA05F1DFF87403E4B2302202FB36
:1036400004F210440C30FFF79EFF31BD38B5040082
:103650000D00E4B2002C02D140F2FF3037E0E4B2BA
:10366000012C02D14FF6C07031E0E4B2022C02D13D
:1036700040F6FF702BE0E4B2032C02D14FF47F4000
:1036800025E0E4B2042C01D1002020E0E4B2052CB6
:1036900002D14FF6FF701AE0E4B2062C01D10020EF
:1036A00015E0E4B2072C01D1002010E0E4B2082CB0
:1036B00001D10F200BE0E4B2092C02D14FF44040BD
:1036C00005E0E4B20A2C01D1072000E000202841E7
:1036D00010F00100012010FA05F1DFF8D002E4B289
:1036E000302202FB04F210440C30FFF748FF31BDDA
:1036F0002DE9F04706000F0090469946089C099D69
:103700005FF0000AF6B2002E02D140F2FF3037E03F
:10371000F6B2012E02D14FF6C07031E0F6B2022EA1
:1037200002D140F6FF702BE0F6B2032E02D14FF427
:103730007F4025E0F6B2042E01D1002020E0F6B251
:10374000052E02D14FF6FF701AE0F6B2062E01D117
:10375000002015E0F6B2072E01D1002010E0F6B2ED
:10376000082E01D10F200BE0F6B2092E02D14FF442
:10377000404005E0F6B20A2E01D1072000E000200B
:10378000384110F001005FEA98008000B908890014
:10379000884201D1012000E00020C0B2B8F1080F3A
:1037A0000FD2F6B24046C0B2800016FA00F20F20E7
:1037B0004146C9B2890010FA01F17D48FFF7E7FEE2
:1037C00011E0B8F108008246F6B25046C0B280005F
:1037D00016FA00F20F205146C9B2890010FA01F121
:1037E0007448FFF7D4FEB8F1080F10D217F00300A9
:1037F0004146C9B2890010FA01F203204146C9B21C
:10380000890010FA01F16C48FFF7C1FE0FE017F0D4
:1038100003005146C9B2890010FA01F20320514653
:10382000C9B2890010FA01F16448FFF7B0FE5FFAEF
:1038300089F94A4641466248FFF79AFEE4B22200FF
:1038400041466048FFF794FE012010FA08F05649FF
:103850000860EDB22A0041465B48FFF789FEBDE8EB
:10386000F087F8B504000D0016001F00E4B2002C2C
:1038700002D140F2FF3037E0E4B2012C02D14FF622
:10388000C07031E0E4B2022C02D140F6FF702BE0B0
:10389000E4B2032C02D14FF47F4025E0E4B2042CC3
:1038A00001D1002020E0E4B2052C02D14FF6FF70D8
:1038B0001AE0E4B2062C01D1002015E0E4B2072C96
:1038C00001D1002010E0E4B2082C01D10F200BE060
:1038D000E4B2092C02D14FF4404005E0E4B20A2CD6
:1038E00001D1072000E00020284110F00100F6B2CD
:1038F000002E0CD0002F05D029002000C0B2FFF709
:10390000A5FE04E029002000C0B2FFF74DFE082DFF
:103910001BD22648E4B2302101FB04F10844406880
:103920000F212A00D2B2920091408843F6B22900BA
:10393000C9B2890016FA01F108431C49E4B23022E9
:1039400002FB04F2114448601CE01848E4B2302144
:1039500001FB04F1084480680F212A00083AD2B222
:10396000920091408843F6B229000839C9B2890013
:1039700016FA01F108430D49E4B2302202FB04F2C9
:1039800011448860F6B2002E0CD1002F05D029001A
:103990002000C0B2FFF75AFE04E029002000C0B2A8
:1039A000FFF702FEF1BD000024A4004000A000408B
:1039B00000A4004004A4004008A400400CA400405F
:1039C00010A4004014A4004028A4004038B500F022
:1039D0000FF804002E480068C0F308200500681C9A
:1039E000B4FBF0F42B480460200032BD2A48704735
:1039F0002A49096811F0070102290CD00FD30429C4
:103A000001D004D30BE02649096808000AE04FF40E
:103A10000041080006E023490968080002E0224945
:103A20000968080021490968C1F30421491CB0FB59
:103A3000F1F070471B480068704710B50400194842
:103A400004601648006810F00700022801D1FFF753
:103A5000BDFF10BD1648006850F47000144908609E
:103A600070474FF4004070474FF47A7070470C482D
:103A70000068704710B504000948046007480068F2
:103A800010F00700042801D1FFF7A0FF10BD0000CF
:103A900008410E403808002000F0490294400E40D2
:103AA00034080020300800203C08002000410E406F
:103AB00088ED00E080B5FFF789FF01BD8B0013EBB7
:103AC000401313F184431A6070470200880010EB22
:103AD000421010F184400068704780B51221DFF871
:103AE0007008FFF7F2FF0028F8D101BD80B5FFF79D
:103AF000F4FFDFF85C080068000C10F0030002BD62
:103B0000DFF8A81A08607047DFF8A40A0068704759
:103B10004AF6E850DFF89C1A086070470020DFF88A
:103B200034180860704745F60E00DFF82818086062
:103B300070471021D0F1020011FA00F0704770B503
:103B40000400E4B2002C17D1DFF80C080068DFF89D
:103B50000C1808601120FEF781FFDFF804180870C8
:103B6000FFF7BBFFDFF8E8070068000C10F0030068
:103B7000DFF8F017087059E0DFF8E8070078FFF782
:103B8000D8FFDFF8E4170860DFF8C807006810F016
:103B900001000600FFF7C7FF00200500DFF8BC07A3
:103BA000007810F001000543DFF8B0070078C00688
:103BB00001D5102000E000200543DFF8A0070078C1
:103BC000400601D5402000E000200543DFF88C07C7
:103BD0000078400701D5042000E000200543DFF80D
:103BE0007C070068C00502D54FF4807000E000201B
:103BF0000543DFF8B80A0560FFF76FFFDFF86007DD
:103C00000078052805D0DFF8580701781120FEF765
:103C1000E5FFDFF848070078C00703D40220DFF88B
:103C20008C1A0860002E01D0FFF778FF70BDF8B540
:103C3000DFF884090068000A10F00305DFF81007B8
:103C40000068000C10F00306FFF747FF3000290062
:103C5000C0B2C9B2884219D2EDB2022D16D11120DC
:103C6000FEF740FD07001120FEF790FD00FB07F076
:103C70000400DFF84809844203D3DFF8340AFFF771
:103C80003FF905211120FEF7A9FFFFE7F1BD10B5AF
:103C90000400E4B2002C02D00020FFF750FFFFF731
:103CA000C6FFDFF8100A006850F00400DFF8041ABD
:103CB000086030BFE4B2002C03D00120FFF73FFFC3
:103CC00001E0FFF7F7FE10BD38B50400E4B2002CA8
:103CD00002D00020FFF733FFFFF7A9FFDFF87406DB
:103CE000006810F001000500FFF71DFF4FF4207081
:103CF000DFF8B8190860002D01D0FFF70FFFDFF8DB
:103D0000B409006850F00400DFF8A819086030BF5B
:103D1000E4B2002C03D00120FFF711FF01E0FFF710
:103D2000C9FE31BD80B50020FFF709FF01BD80B598
:103D30000120FFF704FF01BDF8B5DFF88009006836
:103D400030F4403050F40035DFF87009006850F46A
:103D50004036FFF7DDFEDFF864090068C0070BD4CA
:103D6000DFF85409006810F00307012F01D0022F7B
:103D700002D1002000F0D9F900200400042C07DA59
:103D8000DFF838090560DFF834090660641CF5E7E0
:103D9000DFF828090560F1BDF8B504000D00DFF873
:103DA00020090068C0F30420471C002C04D1FFF751
:103DB0001FFE7843060000E02600DFF808090078BF
:103DC000002809D0DFF80009864205D22900C9B2CF
:103DD000022000F007F804E02900C9B2002000F03A
:103DE00001F8F1BD2DE9F84304000D00DFF8D0081B
:103DF0000068C0F30420471CFFF7FAFD8046FFF778
:103E000075FE814648462100C0B2C9B2884224D01E
:103E100007FB08F00600E4B2022C0BD1DFF89C0788
:103E2000864201D2012000E00020C0B202214046BB
:103E3000FEF7C7FB2000C0B2FFF77BFEDFF82815B6
:103E40000860E4B2002C03D100214046FEF7B9FB24
:103E5000EDB2002D01D0FFF740FEBDE8F18310B5B3
:103E600004002078DFF85C18087001210020FFF7BB
:103E700093FF10BDDFF84017096831F440714278B4
:103E800051EA0221DFF830271160704701207047A6
:103E900010B5DFF83808006850F08070DFF82C1893
:103EA00008600021DFF82C08FFF70FFE0400002C4B
:103EB00003D0042000F0D7FB02E0002000F0D3FB89
:103EC00010BDF0B401242505DFF808683668C6F394
:103ED00003263200DFF8F8673688DFF8F4773F888A
:103EE00028377F08BE192836571C5FF0050C0CFBDD
:103EF00007F7B6FBF7F6761E3000072800D3072039
:103F0000000630F0E066002E01D1012600E0002618
:103F1000F6B235F4E006002E01D1012600E00026BD
:103F2000F6B2DFF8B067366836F0EE6606432E4329
:103F3000DFF8A0773E60DFF8A067B6F90060002EDA
:103F400029D4DFF89467368833009BB213F1280632
:103F5000760816FA83F62836571C12F1010C5FEA30
:103F60005C0C1CEB4707B6FBF7F63100072900D3C2
:103F70000721090131F07006002E01D1012600E071
:103F80000026F6B2DFF85467366836F070060E4346
:103F9000DFF848773E60F0BC7047DFF834271080C8
:103FA000DFF8342711807047C0B2002802D0012802
:103FB00006D00BE0DFF82817DFF82827116005E0AE
:103FC000DFF82417DFF81C271160FFE7704730B4D3
:103FD0000300DFF8180700680400C9B2002905D003
:103FE000022909D005D3032909D00AE004F0FF040F
:103FF00009E0C4F3072406E0C4F3074403E0240EF9
:1040000001E0002026E0D2B2002A0FD1240334F4CC
:104010007040002801D000201CE0DFF8B0060068E6
:1040200030F470402043DFF8A4562860D2B2012A51
:104030000FD1240334F47040002801D0002009E09F
:10404000DFF8AC06006830F470402043DFF8A0567B
:104050002860012030BC7047F0B400260024DBB299
:10406000D2B252EA03252F00002F34D07F1E0CD08D
:10407000FF3F3AD07F1E12D0FF3F3FD07F1E17D0A8
:10408000FF3F45D07F1E1DD04BE0DFF868763F68CC
:104090003E00C6F307273C0006F0FF0641E0DFF8CC
:1040A00054763F683E00370E3C00C6F3074638E0C2
:1040B000DFF844763F683E00C6F307273C0006F071
:1040C000FF062EE0DFF830763F683E00370E3C00FA
:1040D000C6F3074625E0DFF824763F683E00C6F3C6
:1040E00007273C0006F0FF061BE0DFF810763F686C
:1040F0003E00370E3C00C6F3074612E0DFF80076BC
:104100003F683E00C6F307273C0006F0FF0608E0C4
:10411000DFF8EC753F683E00370E3C00C6F30746FB
:10412000FFE706600C60F0BC704738B50400DFF8AC
:10413000D4050068C007FAD4DFF87C05006810F0E9
:1041400003000500002D05D001220D21DFF8B80580
:10415000FFF7B4FC28002100C0B2C9B2884209D1DF
:10416000E4B2002C05D100220D21DFF89C05FFF7F9
:10417000A5FC3FE0032D01D0002D1CD1E4B2022CA0
:1041800002D0E4B2012C16D15FF40020FFF7B8FC96
:10419000DFF870050068C007FAD4DFF81C05006876
:1041A0008008800050F00100DFF80C150860FFF770
:1041B000ABFC0003FBD5DFF84C050068C007FAD460
:1041C000DFF8F404006880088000E4B22043DFF8E0
:1041D000E8140860DFF82C050068C007FAD4E4B2E0
:1041E000002C01D1002200E001220D21DFF818058A
:1041F000FFF764FC31BD38B504000220DFF8141568
:104200000860DFF81005006810F00F00022801D0E8
:1042100000209BE0FFF73AFE2089C92801D2012047
:1042200000E00020C0B22089A188884201D301208B
:1042300000E00020C0B2B4F90C00C92801DA012066
:1042400000E00020C0B26078012807D1A088C9280A
:1042500001D2012000E00020C0B209E0607802280D
:1042600006D1A0880B2801D2012000E00020C0B2B6
:10427000E08842F21171884201D2012000E0002062
:10428000C0B2E0884B2802D20020050013E0E0888D
:10429000B0F5FA7F03D25FF0805005000BE0E088B4
:1042A00040F6C411884203D25FF00050050002E0DE
:1042B0005FF040500500DFF81C040068B4F90C10F2
:1042C000002901D4012100E00021DFF84C24104036
:1042D00028430843DFF8FC130860DFF81404006883
:1042E00050F44070DFF808140860FFF7D1FDB4F90E
:1042F0000C102089FFF751FEA088DFF81414088005
:10430000A08800F05DF9A07BFFF74EFE012201219D
:10431000608800F02BF8002801D1002016E0DFF8BB
:10432000FC03006850F48060DFF8F01308606078E8
:10433000FFF7FBFEA07A202801D1012200E0002235
:104340000521DFF8D803FFF7B9FB012032BD0000DB
:1043500004300E4080410E4090400E404C560020EC
:10436000365700203757002010300E402DE9F04F0F
:104370008BB004000D00160000275FF000086846AF
:104380000021002200230EC00C3804A800210022C6
:1043900000230EC00C3807A80021002200230EC005
:1043A0000C3803A800210160B4F5E16F06D340F694
:1043B000B930844202D25FF0010A01E05FF0000AE6
:1043C0005FFA8AFABAF1000F01D10020EAE0B4F5F1
:1043D000E16F02D95FF0010B01E05FF0000B5FFAC3
:1043E0008BFBBBF1000F09D04FF4E160070040F6F2
:1043F000B8308046B8EB0700814608E04FF496607D
:1044000007004FF4E1608046B8EB070081465FFA91
:104410008BFBBBF1000F0BD0DFF8040300680690A4
:104420000698000E09900698C0F3074006900CE02D
:10443000DFF8EC02006806900698C0F307200990A8
:104440009DF8180000F0FF000690DFF88802006871
:10445000000F10F003008DF80C009DF80C305A4648
:10446000D2B207A904A8FFF7F7FDDFF884020068BD
:10447000000A10F003008DF80D009DF80D305A462B
:10448000D2B208A905A8FFF7E7FDE01B0999069A33
:10449000891A4843B0FBF9F002900298069908186F
:1044A0000290E01B0799049A891A4843B0FBF9F07F
:1044B00000900098049908180090E01B0899059A4C
:1044C000891A4843B0FBF9F0019001980599081842
:1044D000019009980299884213D30298069988425C
:1044E0000FD30898019988420BD301980599884207
:1044F00007D307980099884203D30098049988420B
:1045000001D200204EE0F6B2002E14D0DFF81402E3
:1045100000685FFA8BFBBBF1000F01D0022100E0C5
:104520000021DFF804221040029A50EA02200843DA
:10453000DFF8F0110860EDB2002D32D000229DF8B6
:104540000C105846C0B2FFF742FD002801D10020F0
:1045500028E001229DF80D105846C0B2FFF737FD44
:10456000002801D100201DE001980099884201D265
:10457000009800E0019800900098E72801D2009888
:1045800000E0E7200090DFF8A4010068400A400244
:104590005FFA8BFB00995BEA41010843DFF88C115D
:1045A000086001200BB0BDE8F08F00002C300E40F9
:1045B00024300E4008300E4000300E40012D3101F5
:1045C00070B504000025DFF84401006810F007060C
:1045D000DFF800010068C00710D5022E0ED3142C9E
:1045E00002D2042005002EE0142C04D3282C02D281
:1045F0000820050027E01020050024E0DFF8D400A3
:104600000068C00710D4022E0ED20A2C02D2042059
:10461000050018E00A2C04D3142C02D2082005004F
:1046200011E0102005000EE0DFF8A8000068C007C8
:1046300009D5022E07D2282C02D20820050002E05C
:1046400010200500FFE76D1E280350EA0525DFF85E
:104650008400006830F47F402843DFF87810086059
:10466000FFF72FFC70BD38B504000021DFF86400AF
:10467000FFF72BFA0500002D02D1E4B2022C01DB7A
:10468000002D01D0012000E00020C0B2DFF87C0046
:104690000068C008C000E4B22043DFF87010086072
:1046A000DFF86C000088FFF78BFF31BD60400E40E3
:1046B000C0EA210110ED00E040300E4018300E40FD
:1046C00000410E4048560020002D31016C300E4054
:1046D000565500204C300E402A57002050300E40D6
:1046E0007740205758300E40372110B73083E00F05
:1046F000EC300E402483E00F2883E00F1C83E00F92
:104700002083E00F78300E4054300E4070300E4061
:104710002857002038300E40FEFFFFCF3C300E40BF
:104720001883E00F5C300E40FD80FFFF64300E40C8
:1047300040B2002808D5444940B210F00F000844A8
:1047400010F8040C400903E0404940B2085C4009FD
:10475000704740B2002804D440B2332801DA012265
:1047600000E00022D2B23A4A110040B2420951F8A8
:10477000221010F01F00C14011F0010090F0010064
:10478000C0B2704740B210F1100F04DB40B23328C2
:1047900001DA012200E00022D2B22E4A126840B2B1
:1047A00002EB800211647047F0B4049D059CB2F1E5
:1047B000005F04D3284FBA4201D2012700E000274E
:1047C000FFB212F07F07002F01D1012700E0002780
:1047D000FFB201275FEA830CBCF1010CBCFA8CFC30
:1047E000DCF1200C17FA0CF77F1E3A4201D10127A9
:1047F00000E00027FFB200273E009E421FD2E4B235
:10480000002C09D08E4204D250F8267042F826704F
:1048100013E042F8265010E08E4208D252F826707B
:10482000002F0AD150F8267042F8267005E052F8A1
:104830002670002F01D142F82650761CDDE7054F87
:104840003A60F0BC7047000018ED00E000E400E0C2
:1048500000E100E008ED00E000000220F8B50400EF
:1048600064B214F10C0F04DB64B2332C01DA0120C2
:1048700000E00020C0B2EFF31080C00701D5012096
:1048800027E0200040B2FFF764FF002801D001209C
:104890001FE0200040B2FFF74BFF0500EFF311804F
:1048A0000700002F04D0B5EB571F01D3012010E003
:1048B00008480068C005C00D0600002E08D0300072
:1048C000103840B2FFF734FF854201D3012000E0E9
:1048D0000020F2BD04ED00E030B402680368046813
:1048E00005680A604B608C60CD6030BC704710B4C6
:1048F000426852095201C9B20B00002B042B09D99E
:104900005B1F022B0BD9DB1E032B03D91B1F022BB2
:1049100005D90BE0C9B251EA0203436006E0C9B20F
:1049200051EA020353F010034360FFE710BC7047E5
:1049300070B504000D001600002D01D0012000E02C
:104940000020C0B2290014F12000FFF7C5FFF6B225
:10495000102E05D115F1100114F12000FFF7BCFF56
:1049600070BD002A012110F01F029140DFF8F022F3
:1049700040B2430942F823107047012110F01F0292
:104980009140B84A40B2430942F82310704710B42E
:1049900040B2002808D54A01B34B40B210F00F04D2
:1049A000234403F8042C03E04A01B04B40B21A54EC
:1049B00010BC70478B0013EB401313F184431A6053
:1049C000704710F180621160704738B504000D0027
:1049D000082C01DA012000E00020C0B295F00102AD
:1049E000D2B22100A548FFF7E5FF31BD10B50400A4
:1049F000002C01D0012000E00020C0B22078000689
:104A000030F0E060002801D1012000E00020C0B2B9
:104A100001200120E078082801DA012000E00020D0
:104A2000C0B201219448FDF764FE20786178090244
:104A300051EA0060A17808439149086000208D493F
:104A4000086000208F49086000208C4908605FF0F2
:104A50000040874908605FF0FF308B4908600920FB
:104A6000FFF78BFFE1780920FFF791FF0920FFF79F
:104A700079FF10BD2DE9F84304000D001600012058
:104A800010FA04F9082C01DA012000E00020C0B27D
:104A9000002D01D0012000E00020C0B228687B4931
:104AA000084201D1012000E00020C0B20120012015
:104AB00001200120A87A000430F44030002801D100
:104AC000012000E00020C0B2E87A000530F4801038
:104AD000002801D1012000E00020C0B2287B400561
:104AE00030F40010002801D1012000E00020C0B205
:104AF000012028686649302202FB04F28850687B56
:104B00006349302202FB04F211448860A87AE97AF2
:104B1000090551EA0040297B50EA41505C493022A6
:104B200002FB04F211444860B0088000584930226A
:104B300002FB04F2114488615348C0F8009000F071
:104B4000AFF880464A48006859EA000048490860C2
:104B5000287A002805D04948006859EA00004749EA
:104B60000860687A002805D04648006859EA0000C5
:104B7000444908604248006807002879002805D0A9
:104B80002879C043000270F47F400740687900280C
:104B900002D0687957EA0027A879002801D0A879BF
:104BA0008743E879002801D0E87907433448076053
:104BB00049463848FFF705FF3748C0F8009040469F
:104BC00000F072F8BDE8F18370B50400012010FA1E
:104BD00004F5082C01DA012000E00020C0B200F04A
:104BE0005FF8060022480068A843214908602900B0
:104BF0002048FFF7E6FE300000F056F870BD2DE9C2
:104C0000F8430400012010FA04F8082C01DA01200E
:104C100000E00020C0B200F043F881461F48006861
:104C200007001C48006806001948302101FB04F108
:104C30000844C0680500484600F036F818EA07073F
:104C400018EA0606C5F30A15002E03D1002D03D17C
:104C5000002F01D0002000E0681CBDE8F2830000B6
:104C600000E100E080E200E018ED00E000E400E098
:104C70006C200E4020200E400055080034200E40CD
:104C800000200E402C200E4068200E40F0FFC0FF98
:104C900080200E4028200E403C200E4060200E4018
:104CA000EFF3108072B67047002800D162B67047EB
:104CB000026CD20702D4426C0A42FCD1704738B56C
:104CC00004000D00A068C006FCD540212000FFF7BD
:104CD000EFFFEDB2A56231BD12480068800C10F004
:104CE000010090F00100C0B20E48006810F4403F8F
:104CF00001D1012000E00020C0B241F671300A4924
:104D000008600A4800684008400008490860704789
:104D10000648006840084000044908600020024935
:104D20000860704704300E4040000E4008000E40FE
:104D300001201A490860704710B419480168002022
:104D400000242200092A27D2164C04EBC20464680E
:104D50002300154C2468640711D4124C54F83240D7
:104D6000B4F5007F08D0B4F5806F05D0B4F5006FBE
:104D700002D0B4F5803F02D153F48073FFE7094CB1
:104D800054F83240214205D0194203D1054C54F861
:104D900032402043521CD5E710BC704708500E40EB
:104DA00004500E4078140000E841E00F10B40328CE
:104DB00001DA012200E00022D2B24A79202A01D28F
:104DC000012200E00022D2B20A784B7852EA830234
:104DD0008B7852EA8312CB7852EA03120B7952EAAB
:104DE000C3224B7952EA03328B7952EA4342104B89
:104DF00004011A5110BC70470178427851EA8201CF
:104E0000827851EA0211C27851EA4211027951EADC
:104E10000221427951EA0231827951EAC231C279E2
:104E200051EA0241027A51EA4241024A1160704756
:104E300040200440002004400E4A1268920012F004
:104E40003C0211000C4A1268C2F3811211438170B6
:104E5000094A126812F03F024270084A126812F0C2
:104E6000F0021100064A1268C2F3031211430170E6
:104E700070470000E4FF0FE0E0FF0FE0E8FF0FE005
:104E8000ECFF0FE02DE9F84304000D0016001F00B1
:104E9000002D04D1DFF8F402FDF778FC0500FFB225
:104EA0003800002806D020280ED0402816D06028D0
:104EB00020D029E02809B04201D3012000E00020E1
:104EC000C0B21020814620E0E808B04201D30120A2
:104ED00000E00020C0B20820814616E00620B5FBA5
:104EE000F0F0B04201D3012000E00020C0B2062063
:104EF00081460AE0A808B04201D3012000E000206A
:104F0000C0B20420814600E023E006FB09F040081F
:104F100010EB4510804606FB09F0B8FBF0F8B8F13D
:104F200020085FEAC808DFF86802804501D2012046
:104F300000E00020C0B2DFF85C0210EA0808206838
:104F400030F0600020602068FFB238432060C4F871
:104F50001480BDE8F183F8B504000D001600002DA3
:104F600004D1DFF82802FDF711FC0500681E71006E
:104F7000B0FBF1F007003F0238006FF3D6000028C5
:104F800001D1012000E00020C0B26761F1BD824B79
:104F9000984208D0814B984205D0814B984202D06C
:104FA000804B984201D1012300E00023DBB2C9B25B
:104FB000CB431A0012F005025300C360C9B2C160AE
:104FC000704738B504000D007348844208D0734818
:104FD000844205D07248844202D07248844201D192
:104FE000012000E00020C0B2200000F090F8A87C72
:104FF000002803D0206850F080402060E87C002822
:1050000003D0287D50F08000A065687BB5F91010B2
:105010000843B5F90E10084360602B7BAA686968E5
:105020002000FFF72FFFA87D000710F0E040E97D8A
:10503000090511F4E00108432066687D002803D0CB
:10504000206850F480302060606F30F0300060677E
:10505000606F297E084360672878E06031BD38B50D
:1050600004000D004C48844208D04C48844205D0CE
:105070004B48844202D04B48844201D1012000E0D9
:105080000020C0B2200000F042F8A87B002802D027
:105090004FF4806000E000202168B5F91020104333
:1050A00050F0010008432060287D002802D05FF006
:1050B000005000E00020216808432060A87C002800
:1050C00003D0E87C50F08000A065287B50F480502D
:1050D0006060AA6869682000FFF73DFF687B0028D0
:1050E00001D01020E060A87D000710F0E040E97DCD
:1050F000090511F4E00108432066687D002803D00B
:10510000206850F4803020602878E06031BD22496A
:10511000884208D02149884205D02149884202D0DE
:105120002049884201D1012100E00021C9B240F6A6
:10513000AA61C1600021016041F2050141600021C6
:105140008160002141610021C1641749816400210F
:105150004167002181670021C1670F49884208D05B
:105160000E49884205D00E49884202D00D49884236
:1051700001D100210165002181650849884202D0E2
:105180000849884201D10021C165704740410500AE
:10519000F9FF7F00F8FF7F0000000140000401409C
:1051A00000080140000C0140F9FF010002695206AD
:1051B000FCD5C9B2416302699206FCD5C069C0B290
:1051C000704702695206FCD5C9B241637047032893
:1051D000816470470200880010EB421010F1844097
:1051E0000068704710F1C0621160704710F1806272
:1051F0001160704738B504000D00E4B2002C02D1F4
:1052000040F2FF3037E0E4B2012C02D14FF6C0701B
:1052100031E0E4B2022C02D140F6FF702BE0E4B2A0
:10522000032C02D14FF47F4025E0E4B2042C01D1DD
:10523000002020E0E4B2052C02D14FF6FF701AE006
:10524000E4B2062C01D1002015E0E4B2072C01D114
:10525000002010E0E4B2082C01D10F200BE0E4B2F2
:10526000092C02D14FF4404005E0E4B20A2C01D1F0
:10527000072000E00020284110F001002900DFF89D
:10528000C407E4B2302202FB04F210441C30FFF7E2
:10529000A1FF32BD38B504000D00E4B2002C02D1EC
:1052A00040F2FF3037E0E4B2012C02D14FF6C0707B
:1052B00031E0E4B2022C02D140F6FF702BE0E4B200
:1052C000032C02D14FF47F4025E0E4B2042C01D13D
:1052D000002020E0E4B2052C02D14FF6FF701AE066
:1052E000E4B2062C01D1002015E0E4B2072C01D174
:1052F000002010E0E4B2082C01D10F200BE0E4B252
:10530000092C02D14FF4404005E0E4B20A2C01D14F
:10531000072000E00020284110F00100012010FAD1
:1053200005F1DFF82007E4B2302202FB04F210445A
:105330000C30FFF75BFF31BD38B504000D00E4B25F
:10534000002C02D140F2FF3037E0E4B2012C02D150
:105350004FF6C07031E0E4B2022C02D140F6FF708B
:105360002BE0E4B2032C02D14FF47F4025E0E4B2FD
:10537000042C01D1002020E0E4B2052C02D14FF62C
:10538000FF701AE0E4B2062C01D1002015E0E4B26F
:10539000072C01D1002010E0E4B2082C01D10F202D
:1053A0000BE0E4B2092C02D14FF4404005E0E4B236
:1053B0000A2C01D1072000E00020284110F0010054
:1053C000012010FA05F1DFF87C06E4B2302202FB7E
:1053D00004F210440C30FFF705FF31BD2DE9FC410C
:1053E00005000E0017009846089C2000C0B20190EE
:1053F0004046C0B200903B00DBB2320031002800D2
:10540000C0B2FEF775F9BDE8F3810100002002008B
:10541000042A0DD2DFF8300650F82200407F88427F
:1054200004D1DFF8240650F8220002E0521CEFE716
:105430000020704710B5040094F83100022805D10F
:10544000617F607EFFF7D6FEC0B200E0002010BD95
:1054500070B582B00400E4B22000FFF7D6FF05006B
:10546000002D2DD095F83100022829D12800FFF712
:10547000E1FF2875687D022822D195F82E000028CA
:105480001ED100208DF800006946686802F0AEFA6F
:105490000600287D002803D095F82F00002806D0AC
:1054A000002085F82F00686802F063FA08E0002EFB
:1054B00006D19DF80000002802D0686802F03AFA90
:1054C00073BD10B582B0040094F8310002281CD1DD
:1054D000607D002804D1A17FA07EFFF7DBFE38E0CD
:1054E000607D012804D1A17FA07EFFF725FF30E079
:1054F000207D002804D1A17FA07EFFF7CBFE28E00D
:10550000A17FA07EFFF718FF23E094F83100012867
:105510001FD1207D00280ED111208DF80000200021
:1055200002F06FF801226946200001F0FBFF200025
:1055300002F0BBF80DE013208DF80000200002F00F
:1055400060F801226946200001F0ECFF200002F023
:10555000ACF8002016BD2DE9F84304000D0016003C
:10556000FFF79EFB0700A088E188884207D3002050
:1055700030603800FFF798FBDFF8D00422E0208885
:105580005FF0140880B214214843204410F1080948
:1055900042462900484602F093FB208814214843E4
:1055A0002044083030602088401CE18890FBF1F2F4
:1055B00001FB12002080A088401CA0803800FFF76B
:1055C00073FB0020BDE8F28370B504000D00FFF707
:1055D00067FB0600A088002807D100202860300063
:1055E000FFF762FBDFF8680414E060881421484389
:1055F0002044083028606088401CE18890FBF1F26C
:1056000001FB12006080A088401EA0803000FFF7E0
:105610004BFB002070BD70B504000D00FFF740FB90
:105620000600A088002807D1002028603000FFF77E
:105630003BFBDFF81C0409E0608814214843204448
:10564000083028603000FFF72FFB002070BD90F875
:10565000321000290DD104210268D1600168096966
:105660008907FBD50168496F51F002010268516753
:1056700014E090F83210012910D10168496C8907B3
:10568000FBD4042102685160016889688907FBD551
:105690000168496D51F0020102685165704790F848
:1056A0003210002909D10168496F31F00201026806
:1056B000516708210268D16010E090F8321001298A
:1056C0000CD10168496C8907FBD40168496D31F040
:1056D000020102685165082102685160704790F824
:1056E000321000290DD101210268D16001680969D9
:1056F000C907FBD50168496F51F001010268516784
:1057000014E090F83210012910D10168496C890722
:10571000FBD401210268516001688968C907FBD583
:105720000168496D51F0010102685165704790F8B8
:105730003210002909D10168496F490849000268FF
:10574000516702210268D16010E090F832100129FF
:105750000CD10168496C8907FBD40168496D49087F
:10576000490002685165022102685160704770B5B6
:1057700086B004000D000026012084F82C0094F867
:105780003200002803D120681C3006000BE094F89A
:105790003200012803D120681C30060003E00020FD
:1057A00084F82C000FE004940FF27D000390002099
:1057B0000290686801900120009033002A682169F6
:1057C000A06802F08FF806B070BD70B586B0040016
:1057D0000D000026012084F82D0094F832000028E6
:1057E00003D12068343006000BE094F83200012821
:1057F00003D120682830060003E0002084F82D0043
:105800000FE004940FF2811003900020029068686A
:105810000190012000902B683200E168606802F07E
:1058200039F806B070BD00002DE9F84304000D0002
:105830001600B0466946D8F82400FFF7ECFE814612
:105840008348814501D101209CE00098002801D0C7
:10585000012000E00020C0B298F83200002810D1EA
:10586000D8F80000006C80050BD57A4800990861D3
:105870000020009988604FF40070D8F80010886408
:1058800042E098F8320001280FD1D8F80000C06A31
:1058900000060AD56F4800990861002000998860C9
:1058A0008020D8F8001048632EE098F832000028D5
:1058B00010D1D8F80000006CC0050BD566480099DF
:1058C00008610020009988604FF48070D8F80010BB
:1058D000886419E098F8320001280FD1D8F8000048
:1058E000C06A40060AD55C4800990861002000990A
:1058F00088604020D8F80010486305E00020009937
:105900000861002000998860FFF7CAF90700009835
:10591000C06800280ED00098406800998968431A32
:1059200000980268009801694046DDF800C0DCF884
:105930000CC0E0476946D8F82400FFF745FED8F8C8
:1059400024008088002809D06946D8F82400FFF791
:1059500062FE00994046FFF70AFF0FE0012088F839
:1059600014004046FFF7ADFD002088F82C0098F8A1
:105970003100032802D04046FFF7D9FE3800FFF778
:1059800093F90120BDE8F2832DE9F84304000D00EE
:105990001600B0466946D8F82800FFF73CFE81465D
:1059A0002B48814501D1012039E00098002801D021
:1059B000012000E00020C0B2002000990861002012
:1059C00000998860FFF76CF907000098C06800280C
:1059D0000AD0009843680098026800214046DDF82C
:1059E00000C0DCF80CC0E0476946D8F82800FFF793
:1059F000EBFDD8F828008088002809D06946D8F83F
:105A00002800FFF708FE00994046FFF7DEFE02E09F
:105A1000002088F82D003800FFF746F90120BDE886
:105A2000F2830300002B01D10C4809E0002904D0C7
:105A3000002A02D0B2F5006F01D9094800E0002029
:105A40007047000000A000406C5500200A7000F074
:105A50000B7000F00D7000F00C7000F0027000F0A0
:105A6000037000F002001068DFF8503A984240F0EE
:105A70008A82087A002801D100209BE0087A012858
:105A800001D1002096E0087A022801D1002091E09F
:105A9000087A032801D100208CE0087A042801D17B
:105AA000002087E0087A052801D1002082E0087AEA
:105AB000062801D101207DE0087A072801D10120C4
:105AC00078E0087A082801D1012073E0087A0928D3
:105AD00001D101206EE0087A0A2801D1012069E095
