:1040000000080020A77A0200E3B70000FFB7000015
:104010001BB8000037B8000053B8000000000000D3
:104020000000000000000000000000008FB8000049
:104030005BBB000000000000A3BE000077C60000CC
:1040400017AA000049250200E3CC00005D21020010
:104050008D2502004F250200512502004B2502004C
:1040600079A5000011A9000047D3000019BA00008B
:10407000C9BA0000CBD5000067E00000C7E400002B
:10408000A7E800002DA90000EFEF000003F00000FA
:1040900003F700005BF9000073FB00003F1901000B
:1040A000771F01002B350100B75E01008F2502004C
:1040B0004D250200EB630100C3250200E764010007
:1040C0000D7A0200477D010013B779FAC925DDB7E3
:1040D000ADF3CFE0F1B614B800010000000000001D
:1040E00000000000200000000100000000000000AF
:1040F00000000000000000000000000000000000C0
:1041000002984C030298520302984C060298FC0154
:1041100002986A030298900302986A0302980604C0
:104120000298F00402981605029874030298B405E8
:1041300002981A0602987A030763076390B96379B5
:1041400000B902EC00CD114502EC00CC01DB067198
:1041500002980E03411103B804D91C720731911261
:1041600010DA087102DD10721C7002B80698A80EF1
:104170003038127208B80698260D00C02400084096
:10418000207800F802EC00CA05B823DAEA7202ECE3
:1041900000C8911110D9167100C11C0F0021141113
:1041A00011500A7108DB06720AB8CC7007689111C9
:1041B000173111402111C0311140011990B841113E
:1041C00008D90471627820D904726578273123DD1B
:1041D0000872C0DA0471607803B8411107310872BF
:1041E000A1152035927102DD1672A11120D98871B6
:1041F000CCDA847206B8054DB27202980E03211112
:104200004049C0D93471A031411540350165514153
:104210000361076308DA147204DA1E72104901346C
:104220000A7101DB147190B8677800C00D0F0C0D96
:104230000698AA0E01D8087207B802987600CC3208
:10424000204A00C0051708500698AA0E11300142F6
:104250000DDA6671208800C1DE1B250120BB04DA5F
:10426000107208DA0A7200C120841000F823E823D3
:104270003114056B01DA06711E49024B076B076B9F
:1042800000C06C0F00213810BC2002DA127100B996
:10429000FF21A11380DB087100C100FCFF01181091
:1042A0000298960200C3140F0021341080D8467182
:1042B000EFBA0698540C00920362DDDA9472A111F1
:1042C00001D9327100C23810084024120423281387
:1042D00002EC00C804D9167104BA183008710060E5
:1042E000FD20012A02EC00C8FF22FA7604DC0672E7
:1042F00018B8737890B8437802980E030698260889
:1043000000B8011A91101730011900C20202000012
:104310000698D60604D9067101B802A800C0140F89
:104320000021041380DB06710298380001DB5E7106
:1043300000C2740F002124111114FF3402EC00C8D4
:10434000FF24FA7607610698B80E036111380F3022
:1043500003611114011141100698B80E01D80872BA
:1043600003B802987600042202DB1671241011288B
:1043700011280698CC0E00C218000840FF20081231
:10438000411007600698B80E01D8087120BC10DBF8
:10439000067202980E0300BB00C16C0F00211415B9
:1043A000511207620762C021112CFF320E71408842
:1043B0005114069818034143009441115112076AA1
:1043C000FF320E715114076406981803076C4143BD
:1043D00000C1700F00211410013BB82114111112FB
:1043E00031100F30127100BA046101D8047111420A
:1043F00000600FD8F472311006601E30047201B8EC
:10440000003A087204B8029876000298A40106984F
:10441000520C00B8477800F830885088FF34087193
:1044200002ECFF24F87002EC00CD141001BB5150D7
:10443000FFD8047131440760006B10DBF271042176
:10444000FF22E4720F4C0095009300A00698260806
:1044500000F80698260800C5900F0021541506980C
:10446000DE0A00C5940F002100F806982608069879
:10447000C20B1870069826080E7006982608069833
:10448000500E0698C20B069860050698A20A00F81E
:104490000698260810B902BA0698D80600C5940FE7
:1044A000002100F89112033288B903DE407271795D
:1044B000A11020D808710698DE0A5C7000C3140FA2
:1044C0000021341380DB1A7100C3A8100840A11426
:1044D0001034024C481300BC48139114076448136D
:1044E0008CBB627B40D80671517900BA076A00C064
:1044F000A00008400698FA030420087809780411FF
:104500002141181000A00698260800BD06986C09E5
:1045100010B903DC047100B902BA0698D80604D9B0
:10452000067100404072811008D8107106986C091D
:1045300003DC087206982C0726700698BC04FFD886
:104540000C7288B8477800B844784470911010D83D
:104550000E7100BB00C46C5008400698060720B8D6
:1045600002A800F800C0140F0021041320DB207102
:10457000911010D80E710760FFD808728CB844787B
:10458000967008DB9272A11328DB8C7203BD06982B
:10459000B0040698C20B00C5980F002106986C095C
:1045A00003DC0472042554150698C00902983A0DDC
:1045B0009110015503355150011900A001B8811126
:1045C00080D92C7100C10C500840141004302072A6
:1045D00064211412EC211410014A07620360803038
:1045E00021508C480A717F21C9211410013000A08C
:1045F000069826080698C20B00BD0698B00488B835
:10460000477800B8447800C5A00F002154150698DB
:10461000C00902983A0D0698260800C4B40F00217C
:1046200044141DB3315B302C207506980A0800C075
:10463000600008400410016801D80E7100C06400D9
:104640000840237808B865780698BC04FFD806723D
:1046500008B8607800C2000002020698D60600F88A
:1046600000B900C09C10084018101C200AB918108E
:1046700000C2600008402410911188BB0D302C71DD
:1046800008220812FC2204D9147204D804716A7B2F
:1046900008D804716C7B2F7A487B107004D80471A1
:1046A0006D7B08D804716F7B217A507B517B8CB86D
:1046B000427800A00698260806986C0907DC0A7262
:1046C00000C5940F002100F80698A20A01B99110C4
:1046D00004D8047100B900C2000002000698D80690
:1046E0000040207100C0140F0021041120D9147162
:1046F000076101D9E0728110076001D8D8728CB8C7
:1047000064780698600500C5A40F0021541506982A
:10471000DE0A00C5A80F002100F8069826088111BE
:1047200008D90C7106982C0720B802A800F8069842
:10473000600500BD0698B00488B8477800B8447892
:1047400000C5AC0F0021541502983A0DB110076056
:1047500001D80A7108B87F78020C7E78069826087E
:1047600001F8911010D8367100C5905008405411CE
:10477000A0255412E82554151159112D0676012251
:10478000212D00C1200F00211411112DDC7518B846
:1047900075788CB8447801B802A800F8B1100768A1
:1047A00010D8307100C04810084000C30000084015
:1047B00031146024282444113411076101D9FA719D
:1047C0004412281007622810076228100762281078
:1047D000E8700298E60B0C70069890091138047284
:1047E000076A00BB00C1240F002100C4B450084078
:1047F000141120391272417B007CB82400C20000E1
:104800000101281400A00698200700C2140F0021FF
:10481000241240DA0672617B007C88BA527A00A0CA
:1048200088BA727A811204DAFC7200A088B86B78B8
:1048300000C0640008402F7800A0B11001D80472B5
:1048400000A000C0287008400411108800C10018A2
:1048500000401810442004111088A820041110886A
:104860004CBA757A18103DB11088F4B842784420DB
:104870007278D8207378E82073784FB200C4FFFFB5
:104880008080413A4FAA01BC01644113076300C014
:104890006C70084003B918100110011001B918100C
:1048A000011001100110011098200411076101B8D6
:1048B0000160003A0471044904D90472415207604E
:1048C000003A0471084908D9047231520460003B6F
:1048D0000E7200630064314241424FAAB2704FAA87
:1048E00044B801685378F8B8537840205278009162
:1048F0003DA9009100C01470084018100091582084
:1049000018100091BC20181000A04024066400C0BC
:10491000FFFF0000013C1DB0022001584028067531
:104920001EAC01EC00A0009000C6B80F002100886A
:1049300001B0076800C47C0F00214413036B3150A1
:104940000F30315008140F3003630F330111C0488A
:1049500006987A0906981A070C2403DD167214BA11
:10496000281400C268000840B8B90069014918124B
:1049700000A009DDEE7100BA03DF1E71004B067264
:104980002814311953B080BB006B30380A7109DD2F
:10499000067102986A0C00A0441328144115069869
:1049A00090090060B83000C4E0100840441207626B
:1049B000013221400824287CF8255412F03240DED0
:1049C0000472404804DB08720DDD0C72044BEF30BA
:1049D0001448069862080088811140D91E72B112ED
:1049E0003032CF4A2138B1D8127208D8067104D8B3
:1049F0000A719C24D424237C347098244412FF32FE
:104A0000C322047580B8D82481D8247140D9047297
:104A1000237C084B04BA80DC067180D8147206B976
:104A200004A901D80C7264242824307C2C7000BAAC
:104A3000E02444114024181407611814911118310E
:104A4000114200C100600840141110D90471404A9D
:104A5000203111422814081400903088024806982A
:104A6000760C009308DB047100F800A000C07C0FF6
:104A70000021041003600F3000A01088B1110769F5
:104A800080D90A7100C1800008400811009100A07F
:104A900000C460000840441000A000C020300E4058
:104AA000041104101050F47200A000C028400E4001
:104AB0000413315107610C3107691153381000A0FC
:104AC0000698AC0A00C0FC0F002104112EA9F820A2
:104AD00004110698AA09217A237A0698E00900A011
:104AE000511400C0B00F00210410012C0A7500B849
:104AF00026A806980A0828B010B9115911380EB91D
:104B0000114028A880B800C14430084008116FB88F
:104B1000076826A8217A050C21102020267800C0DD
:104B200063EF000026A8050C20EC247A20EC217A03
:104B3000184826A828B00AB901510F31115028A8E9
:104B4000050C207A20EC0F0C98B846784178B1100B
:104B500080D83A7100C04C3008407DB918100D0E55
:104B60000D0E00C070300840041130311271082061
:104B700025782478960CF82004113031F272DC206C
:104B800000C106000000181000B9181006989A0914
:104B900000C28C0F002124100151FF311150081266
:104BA00000A00698AC0A00B826A800A030B840784B
:104BB0000DB101D9FC72427800C074300E4004116E
:104BC0004CBA407A1810EC2004115C7A1810A4BB7F
:104BD000707B4E7B4F7B00C20430084000A00698DB
:104BE000AC0A00C0F80F002104112EA9217A227A04
:104BF0000698E0090111FF300769FF3151B30DBC80
:104C0000415C413B115900290475084B51ABA4BBD1
:104C100000C040300E400411033101492872B11226
:104C2000076207623020041121510F3118726E7B28
:104C30006F7BF02004114CBA7C7A181014200411F8
:104C4000607A1810B11002D81071707B30B8627899
:104C500060780DB001D8FC7108B86E780EB84EB10E
:104C600010D90C723EA8140C0FB83EA8107044A8BE
:104C7000140C01B800C1B0300E40081100C077809C
:104C80001F003DB201423DAA00C1E40F00211410F3
:104C900054A8140C00C077E01F0001423DAA51B88F
:104CA00001687D7808B87E780698200706983A074C
:104CB00006981A07511406980A08F4B845780A0CA1
:104CC00000A051B801685D7800B844A83EA800C1B2
:104CD000B0300E40081110B807683DB101393DA948
:104CE00008B86F7800A001F8541000DC12710114AC
:104CF00006980A0818B8707800B8417800F8029849
:104D0000020C00C58C0F002154155114FF350764A7
:104D10004113FF3407633112FF330762FF32311052
:104D2000212B0158012A06989A0901585128047527
:104D300001584128187551B00CD8067121580670D9
:104D40003110115901290675FF0FB87018B8727823
:104D500000F8EBBA00C0880F00210411113A10D9F5
:104D6000067118B97479281000A00698500E1151D8
:104D70000698AA0900B8B111076940D906720298CD
:104D8000240D00BC08D94071202400C140600840B7
:104D9000111200DC0C71C022241210DA10710C7098
:104DA000DC222412076204DA04710421141200C107
:104DB00080000840320C2811076228110762281170
:104DC000076228114B0C00C1800F0021141200DC77
:104DD0001C7120D8087101B806982E0DF0DA0C72FB
:104DE0000CDB087102B806982E0D482400C3800021
:104DF0000840FFB80120042114111141087101413C
:104E000018130824014200C1383008401411014130
:104E100000C00060084004103030016801411813E0
:104E20002813481300B800C1800F00211412036832
:104E30002150F0300152281100A064BC066C415C86
:104E4000512C06980A0850880698A4030095B110C2
:104E5000076820D8207108B86578911004D80872C6
:104E600006982C0700F888B86E7800C064000840E7
:104E7000217800F808B86C7820B85A7859785B78AF
:104E800000C1E80F0021141054A84EB010D854727D
:104E90004DB100C09FFFFFFF113840B102D914721D
:104EA000604800C1040000401112104A04BB415484
:104EB0000C70204802B903BA02BB02BC4DA840A93D
:104EC000F8B87078190C3EB141413EA9F4B9737934
:104ED0007378717800C1E00F002100C400410840E0
:104EE000287000C20000010044AA230C00C2000088
:104EF0000B0044AA00C1E00F002100C220000040C6
:104F000000C41841084004BB00C0C83F0000141191
:104F1000113821400814050C1140081404240F0C0A
:104F20002FAB050CB11008D810711CB879787B78BC
:104F300020B879787B78607CF4244113511406986A
:104F40000A08727B53B80168050C687840EC00F8D9
:104F5000015053A800C06860084004110761076150
:104F600080D9047240EC00C4F84008404EB010D81C
:104F70000471182441130C23527C407B01502FA84C
:104F8000050CFC23341200C1FF3FC0E0113A281386
:104F90000A0C48B97079081406322813050C015020
:104FA000081408B86D7800A0115910D9067107606F
:104FB000076008D90471076004D90471036002D93D
:104FC0000471016001D90471006000A0108804110F
:104FD000023006710761076100C0FFFF0000113851
:104FE000009100A0B9030000002801280328001840
:104FF000002A012A0118052A0229000002000003E4
:105000000500020900012A000A010A001408002014
:1050100005000A0700002A00020000182000040012
:105020006C5500200500200300052A00020001182D
:1050300000000108FFFF00002C50000002000108E2
:10504000FFFF00002450000007000008FFFF0001E0
:105050001C50000008000708FFFF000302000000CA
:1050600000000108FFFF00001850000002000108C6
:10507000FFFF00001050000004000308FFFF0001C4
:105080000850000002000108FFFF0000005000006F
:1050900005000108FFFF0000FC4F000003000700AF
:1050A000305000000900000009000000E84F000037
:1050B000000000001A830100020000009C50000064
:1050C0001B83010000000000BE98010000000000EA
:1050D000FFFFFFFF010000000000000004000000CF
:1050E00001000000080000000100000010000000A6
:1050F00001000000000100000100000000080000A5
:105100001D000000000200001D000000000400005F
:105110001D000000000001001D000000050000004F
:105120000000000000C201000005000000100000A7
:10513000000000000000000000000000000000006F
:10514000000000000000000000001030000000001F
:10515000000000000000000000001003000000003C
:105160000000000000000000070000030001080725
:105170000F000A00C8002000A0000000010000008D
:10518000050000000000000000000000A000550124
:105190000A200706020A04070000000000020700B8
:1051A000000000000000000008020000C81F0020EE
:1051B0007820640000000000A05000000000000003
:1051C00000000000000000000000000000000000DF
:1051D000000000000000000002000000006A18004B
:1051E00003000400000006010D0000002001000083
:1051F000DBDA000020040001E1DA000020010002F7
:10520000EBDA0000200000030FDB000000000000CC
:105210000000000020010B02CBE4000000000000B1
:1052200000000000200221004FEF000020012101BA
:1052300075EF0000000000000000000020000D00DD
:1052400013E7000020000D01A1E7000020030D027C
:10525000BBE7000020020D03FFE7000020020D0461
:1052600051E80000000000000000000020020900DA
:105270006FE00000200109019DE00000200209020A
:10528000B3E000002005090301E100002006090445
:1052900019E100002004090529E2000020030906A5
:1052A0003DE200002003090743E100002006090851
:1052B00087E1000020040909CDE100002004090A6B
:1052C000E1E100002006090BFFE100002002090CCB
:1052D00013E200002001090DCBE300002003090EBA
:1052E00051E200002004090F65E2000020050910CA
:1052F000D7E0000020020911B5E1000020070912E3
:105300005FE10000200609131BE40000000000001C
:105310000000000020040A0087E2000020020A01C9
:10532000B5E2000020050A023BE3000020050A0365
:1053300055E3000020040A048FE3000020040A055E
:10534000A3E3000020030A0605E3000020040A0787
:10535000DFE3000020080A0803E40000000000006A
:105360000000000020060C0005E6000020000C0BE9
:1053700049E60000200A0C0C1FE6000020010C0D7D
:1053800071E6000000000000000000002009080095
:105390006BDF00002001080199DF000020020802F5
:1053A000ADDF000020020803EFDF00002001080449
:1053B00039E00000000000000000000020070300AA
:1053C0001BDE000020020301EFDC000020010302CD
:1053D0005DDE00002000030371DE000020050304F1
:1053E00083DE000020080305DBDE00002005030645
:1053F000C3DE00002002030785DD00002001030852
:10540000C9DD000020010309F9DE00002006030ABF
:1054100019DD00002007030BA1DE00002003030CB0
:105420009FDD00002002030D0DDF000000000000E2
:105430000000000020010F0089ED000020020F0194
:10544000D5ED000020020F02A7EE000020010F049E
:1054500075ED000020010F06A7ED000020000F07EA
:10546000C3ED000020050F0803EE000020020F0925
:105470002FEE000020010F0A43EE000020000F0B6A
:105480005FED000020020F0EC9EE000020000F0F9C
:10549000DDEE000020040F101BEE000020010F11B4
:1054A0006FEE000020010F1259EE00000000000016
:1054B00000000000200001004DDC0000200101017F
:1054C00065DC00002000010359DB00002006010418
:1054D00091DB00002002010A37DC00002001010BF3
:1054E000CBDB00002001010C0FDC00002002010DCD
:1054F000ABDB00002002010E9DDC0000000000007C
:105500000000000020040E003DE9000020020E0112
:105510001FEA000020000E025BEA000020020E07D6
:10552000E5EA000020040E0C09EC00000000000079
:1055300000000000000000000100020015005400FF
:10554000A9005301A7024F059F0A0000FC00D80ADA
:10555000066CFBFF9D00370518E2FEFF7500040393
:10556000F5E3FFFF4900B9019D43000035005701F5
:10557000F85700001600D100585700000E007C00BC
:10558000D049000008004B0028390000F8006C0BDF
:1055900078DEFAFF9F00F1044EEAFEFF7500DF029D
:1055A00048DEFFFF4C00C3018D33000024001901C9
:1055B000E44B00001300AC00904A00000C006C00AB
:1055C000B13F00000700430046320000C800FCFE67
:1055D0008C550000C800FCFE4C55000083FFBFFF47
:1055E000E2FFF1FFF9FFFEFF00000000FFFF0000F7
:1055F00000000000FC00D2104C06FAFF81009B0561
:10560000F132FFFF500062020B35000026004B0113
:10561000885F00001800E0005E5D00000E008C0056
:105620006A4F000008005100F73C0000F8006D23AD
:10563000441FEEFFF800F20E8E37FAFF7B00A40342
:1056400024A7FFFF4E00D601AD3400002500300135
:10565000004D00001300C000CA4A00000B006E009D
:10566000F73C0000060038008A2B00009600FCFE84
:105670002C5600008C00FCFEEC55000083FFBFFFA1
:10568000E2FFF1FFF9FFFEFF000000000100000053
:105690000400000001000000040000000100000000
:1056A00000000000000000000200000300000000F5
:1056B00000010900000110000000000000280000A7
:1056C00000000000020000000000000000280000B0
:1056D0000000000010000000F4010000FA000000CB
:1056E00096000000640000004B0000003200000043
:1056F0001E00000014000000000000000101000076
:10570000010100003C0094003C00960000000000F5
:1057100000010203000103FF04FF02FDFE00000080
:105720000F0E0C080C080D181000000003010002F9
:105730000102030013001D001200100015000000FC
:1057400035010100810101008D0101000000000010
:105750004600400029000200000800006C88839188
:10576000AAF5A53860370BDB5A6083BE3F49F6D4F3
:10577000A3C55F3874C9B3E3D2103F504AFF607BC2
:10578000EB40B7995899B8A6CD3C1ABDE69D350EA9
:10579000480103CCDBFDF4AC1191F4EFB9A5F9E9B4
:1057A000A7832C5E2CBE97F2D203B0208BD2891532
:1057B000D08E1C742430ED8FC24563765C15525A2E
:1057C000BF9A32636DEB2A65499C80DC00000100C2
:1057D00001000001000102020300020000000000BD
:1057E00002020100020000000000010001000501AA
:1057F0000005020203000200000000000205010093
:1058000005000000324B0000A60E00009A100000B8
:105810000000280000000000000000000000000060
:10582000AC5C0000809C2B8F80841E0000001C005C
:105830001C006400540F002000000000809C2B8F8F
:1058400080841E000000000027006400500F00202C
:10585000645C0000809C2B8F80841E000000070089
:1058600008002C01600F0020645C0000809C2B8FDE
:1058700080841E0000000A000A002C01600F002036
:10588000645C0000809C2B8F80841E0000001A0046
:105890001A002C01600F0020645C0000809C2B8F9C
:1058A00080841E0000001B001B009600600F00207B
:1058B000845C0000809C2B8F80841E0000001C00F4
:1058C0001C002C015C0F0020645C0000809C2B8F6E
:1058D00080841E0000001D001D002C01600F0020B0
:1058E000445C0000809C2B8F80841E000000000020
:1058F0001A002C01580F0020445C0000809C2B8F64
:1059000080841E0000001C0027002C01580F00207E
:1059100000000F4001000000FFFFFFFFFFFFFFFF3F
:10592000FFFFFFFF0000000000000000000000007B
:1059300001000000FFFFFFFF4B60D2273E3CCE3B43
:10594000F6B053CCB0061D65BC86987655BDEBB35A
:10595000E7933AAAD835C65A96C298D84539A1F4E1
:10596000A033EB2D817D0377F240A463E5E6BCF81C
:1059700047422CE1F2D1176BF551BF376840B6CBE7
:10598000CE5E316B5733CE2B169E0F7C4AEBE78EE3
:105990009B7F1AFEE242E34F512563FCC2CAB9F372
:1059A000849E17A7ADFAE6BCFFFFFFFFFFFFFFFFD6
:1059B00000000000FFFFFFFF183F01060410010078
:1059C0000001010600102700000C0000000000008C
:1059D00000000000183F010604100100000101064C
:1059E00000102700000C0000000000000000000074
:1059F000183F0106041001000001010600102700F5
:105A0000000C00000000000000000000183F01062C
:105A1000041001000001010600102700000C000026
:105A20000000000000000000183F01060410010003
:105A30000001010600102700000C0000000000001B
:105A400000000000020000003333330000000000BB
:105A5000B8590000045800000000000002000000D7
:105A60003333330000000000D45900000458000014
:105A7000000000000200000033333300000000008B
:105A8000F05900000458000000000000020000006F
:105A900033333300000000000C5A000004580000AB
:105AA000000000000200000033333300000000005B
:105AB000285A00000458000000000000F00F040104
:105AC000445A00000000000000C003000BC00300A7
:105AD0000400020001810100000100001800020022
:105AE0000000000001000000280007000000000086
:105AF00000000000000000000000000000000000A6
:105B000000000000A00700004800010000000000A5
:105B1000540002000000000000000000A00004008B
:105B200001480000FF4C000001490000FF4D00004B
:105B3000002001000807000010200100AAAAAA0006
:105B4000182001000060DA00083001003FAC0000BE
:105B500030300200AA2A100001000000403001008D
:105B600000000000A04001007A27000FF44001006F
:105B7000201000003441020080080000E687000089
:105B80004041020048008800C0E65311146015002F
:105B900010000000000000841FC00100C8200000A9
:105BA000000000000000000300000000C804FF0027
:105BB000A20800000A00000191000400294176714A
:105BC000000000008C00D40A00000000D1032A006D
:105BD0000000000000000000040A132232414A4F76
:105BE0000000000014700300F870020000030000C1
:105BF0006000D08128700100000080014870020020
:105C00003C3D0000BC1900007070030005810000DD
:105C10001301000000235500FFFFFFFFF00F0401F8
:105C2000445A00000000000000C003000BC0030045
:105C3000083001003FAC0000F440010020100000DB
:105C4000FFFFFFFFF00F0401745A00000000000086
:105C500000C0030009C003000830010037AC000099
:105C6000FFFFFFFFF00F0401A45A0000000800002E
:105C700000C0030008C003000830010037AC00007A
:105C8000FFFFFFFFF00F04018C5A0000000000002E
:105C900000C0030009C003000830010037AC000059
:105CA000F440010020000000FFFFFFFFF00F04019F
:105CB0005C5A00000000000000C003000BC003009D
:105CC000F440010020000000FFFFFFFF4145532D7D
:105CD0003132382D454342004145532D3139322D63
:105CE000454342004145532D3235362D4543420050
:105CF0004145532D3132382D435452004145532DE7
:105D00003139322D435452004145532D3235362D11
:105D10004354520002000000BF7A0200C37A02001E
:105D2000DF7A0200DB7A0200E37A0200FD7A0200E9
:105D30000201000080000000CC5C000010000000A8
:105D40000000000010000000145D000003010000CE
:105D5000C0000000D85C000010000000000000003F
:105D600010000000145D00000401000000010000AC
:105D7000E45C0000100000000000000010000000C3
:105D8000145D00000B05000080000000F05C0000C6
:105D9000100000000000000010000000145D000072
:105DA0000C050000C0000000FC5C000010000000BA
:105DB0000000000010000000145D00000D05000050
:105DC00000010000085D000010000000000000005D
:105DD00010000000145D000002000000305D0000B3
:105DE000030000004C5D000004000000685D00003E
:105DF0000B000000845D00000C000000A05D0000AE
:105E00000D000000BC5D000000000000000000006C
:105E10008B0013EB401313F184431A6070470200A8
:105E2000880010EB421010F184400068704710F1B8
:105E3000C0621160704710F180621160704770B5E8
:105E400004000D00160029002000FFF7F4FF3100C8
:105E50002000FFF7ECFF70BD202801D2012100E0F7
:105E60000021C9B2012111FA00F0704770B5040099
:105E700001200500DFF83405844204D2002005002B
:105E80000020060008E0DFF82805844202D2012045
:105E9000060001E0022006002A001021DFF81405A8
:105EA000FFF7B6FFDFF86406006830F0807050EA54
:105EB0000660DFF85816086070BDDFF854160968F0
:105EC0000800704710B500F0EBFE0400DFF83C0658
:105ED0000068C0F30420401C00FB04F010BD38B57E
:105EE000DFF8300600F068FA0500EDB22800072858
:105EF00005D0092807D100F0D3FE040005E0FFF724
:105F0000DCFF040001E000200400200032BD70B579
:105F10000400002C0FD1DFF8000600F04DFA060057
:105F2000F6B23000012808D004280DD0072807D089
:105F300008280DD010E0002011E0002005000DE041
:105F4000FFF7BBFF050009E000F0CCFE050005E00F
:105F5000FFF7B8FF050001E000200500280070BD34
:105F600030B4DFF8B0472468002C01D0012300E0F2
:105F7000002341F67134DFF89C572C60DFF89C4514
:105F8000246814F040742200DFF89445A04202D245
:105F90000024220005E0DFF88C45A04201D2012454
:105FA00022001206DFF87445246834F0407414436C
:105FB000DFF868552C60DBB2002B03D00024DFF83B
:105FC00054572C6030BC704780B500F067FE00214C
:105FD000FFF7C6FF01BD38B504000D002900200001
:105FE000FFF7BEFF31BD01000F22CB1C934201D24F
:105FF000C81C00E0100000077047DFF824070068A5
:10600000C0F301107047DFF81817096831F030014C
:1060100051EA0011DFF8082711607047F8B5040055
:1060200000262000DFF8F016884207D0DFF8EC16D3
:10603000884203D0DFF8EC16884200D1FFE7200049
:1060400000F0BAF905002000DFF8CC16884208D02D
:10605000DFF8C81688420BD0DFF8C81688420ED089
:1060600014E0DFF8C406006810F0070005000DE03A
:10607000DFF8B806006810F00700050006E0DFF85A
:10608000B006006810F007000500FFE7002D21D0E2
:10609000022D08D003D3042D09D00CD31DE000F04D
:1060A00050FE06001BE000F052FE060017E000F074
:1060B0004BFE060013E000F0E1FD0700DFF84C04A2
:1060C0000068C0F30060401CFFF7C6FEB7FBF0F0AD
:1060D000060004E00020060001E000200600300079
:1060E000F2BDDFF850160968C90704D4DFF8481676
:1060F00009680142FAD170472DE9F04104000D0012
:106100005FF00008200A10F00F0001280CD00228D0
:1061100012D005280CD0062812D0072816D009283E
:106120001AD00A281FD022E0DFF8880206001FE0FC
:10613000DFF84C0706001BE0DFF84807060017E011
:10614000DFF8440706000120804611E0DFF83C0735
:106150000600102080460BE0DFF8340706005FF4ED
:106160008030804604E0DFF87007060000E00EE0B3
:10617000C4F304300700B8F1000F02D04046FFF727
:10618000B0FFEDB22A0039003000FFF741FEBDE854
:10619000F08138B5040014F47810002827D0B0F549
:1061A000003F38D0B0F5802F25D0B0F5002F2ED08D
:1061B000B0F5202F3BD0B0F5402F7AD0B0F5602F4E
:1061C0007BD0B0F5901F44D0B0F5A01F47D0B0F5FC
:1061D000B01F59D0B0F5D01F35D0B0F5E01F4DD06D
:1061E000B0F5001F5FD0B0F5381F6AD06EE000F048
:1061F00057FD05006CE000F053FD0500DFF8DC06FC
:106200000068C0F30820401CB5FBF0F560E000F02A
:1062100047FD05005CE000F043FD0500DFF8C00627
:106220000068C0F30820401CB5FBF0F550E000F01A
:1062300037FD0500DFF8AC060068C0F30420401C01
:10624000B5FBF0F544E0DFF8D004FFF7E7FE05000A
:106250003EE0DFF8D004FFF7E1FE050038E0DFF8AC
:10626000B804FFF7DBFE0500DFF87C06006810F0DD
:106270000F00FFF7F1FDB5FBF0F529E0DFF89C0416
:10628000FFF7CCFE050023E0DFF89004FFF7C6FE21
:106290000500DFF85806006810F00300FFF7DCFD8A
:1062A000B5FBF0F514E0DFF87C04FFF7B7FE05005E
:1062B0000EE0FFF714FE05000AE0FFF7FEFD050003
:1062C00006E00020FFF723FE050001E000200500A6
:1062D000280032BD70B50400C4F303100500012D81
:1062E0000CD05ED3032D17D00FD3052D22D01AD397
:1062F000072D39D025D3082D49D052E0DFF80C0204
:106300000068C0F3042006004DE0DFF8D8050068FF
:10631000C0F30420060046E0DFF8F0010068C0F397
:10632000006006003FE0DFF8B4050068C0F3082015
:10633000060038E0DFF8A8050068C0F30820060072
:1063400031E0DFF83C0784420BD1DFF89C050068A0
:1063500010F00F0006003000FFF77EFD401E060023
:1063600001E0002006001EE0DFF8180784420BD190
:10637000DFF87805006810F0030006003000FFF732
:106380006BFD401E060001E0002006000BE0DFF878
:10639000D807844202D10020060001E00020060058
:1063A00001E000200600300070BD00000148E80157
:1063B0000190D00300400E400100012011F00F03B6
:1063C0001A001300012B0AD0022B20D0032B36D049
:1063D000052B50D0062B65D0082B75D091E0DFF847
:1063E0003C381B6813F00703022B0AD00CD3042B94
:1063F00001D003D308E00223180007E003231800AC
:1064000004E00423180001E0052318007BE0DFF816
:1064100018331B6813F00703012B04D0022B05D09F
:10642000042B06D008E00323180007E0022318001D
:1064300004E00A23180001E00123180063E0BB4BCD
:106440001B6813F00703012B06D011D3032B0CD0CC
:1064500005D3042B06D00BE0032318000AE0022327
:10646000180007E00A23180004E00623180001E0E2
:106470000123180047E0AE4B1B6813F00703012B04
:1064800004D0022B05D0042B06D008E0032318000B
:1064900007E00223180004E00A23180001E00123AA
:1064A000180030E0DFF878371B6813F00103002B89
:1064B00004D0012B05D10923180004E0072318009C
:1064C00001E0012318001EE0DFF858371B6813F0C5
:1064D0003003002B06D0102B07D0202B08D0302BF8
:1064E00009D00BE0012318000AE00723180007E099
:1064F0000423180004E00823180001E00123180019
:1065000001E000231800C0B27047000000410E40B7
:106510000008002006000C0098002E0004000E4029
:1065200041787D01015A62022DE9F84F04000D0007
:10653000032603275FF0000B14F00F00824650463D
:1065400001280CD002284ED0032866D0052857D049
:10655000062800F09C80082800F0AC80D7E0EDB25F
:106560002800022808D003280BD004280ED00528C4
:1065700015D00A281CD01CE00420060000200700CB
:1065800018E0032006000120070013E002200600A7
:1065900002200700DFF89006FFF768FC0AE0012000
:1065A000060003200700DFF88006FFF75FFC01E02C
:1065B000ADE0ACE0012201213800C0B200F098F952
:1065C000FFF702FDDFF864060660DFF8A005FFF7BD
:1065D000E0FDFFF74BFC00F051FB804600214046F8
:1065E000FFF7F9FC93E0BBF1000F02D1DFF838B1FF
:1065F000FFE7EDB2062D01D0012000E00020C0B27F
:10660000BBF1000F02D1DFF828B1FFE7EDB2062D94
:1066100001D0012000E00020C0B2BBF1000F02D188
:10662000DFF808B1FFE7EDB22800012808D0022802
:1066300009D003280FD0062815D00A2820D022E040
:106640000020814620E001220121002000F050F9C5
:106650000220814618E001220121012000F048F9C2
:106660000120814610E000F009FBFFF7FFFB01224B
:106670000021DFF80C02FFF7CBFB0320814603E08B
:106680000420814600E042E0CBF800903FE0EDB20C
:106690002800072802D0092805D009E00020DFF8EB
:1066A0008015086005E00120DFF87415086000E03F
:1066B0002DE02CE0EDB22800012806D004280FD0F0
:1066C000072805D0082813D015E00020814613E0E4
:1066D00001220121042000F00BF9012081460BE08A
:1066E00001220121022000F003F90220814603E08B
:1066F0000320814600E00AE0DFF82805006830F05A
:10670000300050EA0910DFF81C150860FFE7BDE80B
:10671000F18F000040000E4002001A0003001C0030
:1067200024400E400500200080400E4084400E4072
:1067300088400E4044410E4040410E402DE9F0415A
:1067400004000D00160000200400DFF8EC040068CF
:1067500054F0405188438046EDB2002D02D05FF0E6
:10676000805000E00020F6B2002E02D05FF0005111
:1067700000E000212043084350EA0808002C02D121
:10678000F6B2002E09D000F0ADFA07000021380063
:10679000FFF721FC3800FFF769FBDFF89C04C0F825
:1067A0000080BDE8F081000070B504001120FFF703
:1067B00003FE042801D0012000E00020C0B2012225
:1067C0000021022000F094F86078002806D1A0781B
:1067D000002803D1E07890F0010000E00020C0B272
:1067E0000025207C012801D0012000E00020C0B25B
:1067F000207C022801D101200500DFF83C0400685C
:10680000400840002843DFF830140860227808214F
:10681000DFF82404FFF7FCFADFF820040068C00862
:10682000C000E17A0843DFF814140860A088617A98
:1068300051EAC020DFF808140860DFF80804066891
:10684000207AFFF7D0FB16F07F61E28851EAC2217F
:10685000A27A1143227A51EAC2110843DFF8E41305
:106860000860607BA17B090151EA0030E17B0843AD
:10687000217B50EA0140DFF8D013086070BD0000B2
:10688000B0400E40C0400E40E0400E40E8400E4098
:10689000F0400E4010B504001120FFF78DFD0228D6
:1068A00001D0012000E00020C0B200220021002021
:1068B00000F01EF82078617850EAC120A17850EAF3
:1068C0000160E17850EA0122DFF88013DFF88003ED
:1068D000FFF7B5FA10BD000050410E400C410E40CC
:1068E00008410E4014410E4020410E4028410E4008
:1068F0002DE9F84F04000D001600E4B2002C29D059
:10690000022C0CD01DD3042C12D02ED20120814693
:1069100002208246012007000020804626E0042055
:1069200081460820824603200700022080461DE0A1
:106930001020814620208246052007000420804642
:1069400014E0402081468020824607200700062070
:1069500080460BE04FF4807081464FF40070824611
:10696000092007000820804600E060E0EDB2002D1D
:1069700054D05FF0000BE4B2022C0DD1FFF73DFBC9
:10698000002809D101208346DFF8AC020068C00767
:1069900002D50120FFF737FBDFF8B802C0F80090FE
:1069A0004146DFF8B402FFF73AFA0028F8D0F6B211
:1069B000002E3CD03900DFF8A002FFF730FA0028A3
:1069C000F8D0E4B2022C32D15FFA8BFBBBF1000F9E
:1069D0002DD099480068C00705D50122202102204A
:1069E00000F0FEF803E00021022000F0C1F80220D0
:1069F00000F01FF80090012200210220FFF778FF2D
:106A00000099022000F040F89248C0F80090390048
:106A10009148FFF704FA002809D1F8E78D48C0F83B
:106A200000A041468C48FFF7FAF90028F9D1BDE8EB
:106A3000F18F0100C9B2012906D01DD3032909D065
:106A400014D304290CD017E0844A1268D205D20D61
:106A5000100013E0774A126812F07F0210000DE078
:106A60007F4A126812F07F02100007E07D4A126828
:106A70005205520D100001E0002210007047000086
:106A8000600614007007160070B504000E00E4B232
:106A9000012C06D066D3032C1AD045D3042C2DD05C
:106AA00060E0B6F5007F01D2012000E00020C0B216
:106AB000F605F60D1A215E48FFF7B1F90028F9D165
:106AC00066480068400A400230436449086049E073
:106AD000802E01D2012000E00020C0B216F07F0617
:106AE00018215348FFF79BF90028F9D15148006855
:106AF000C009C00130434F49086033E0802E01D205
:106B0000012000E00020C0B216F07F06192148489D
:106B1000FFF785F90028F9D151480068C009C00184
:106B200030434F4908601DE04B480068800810F072
:106B3000010090F00100C0B23F48006830F0300022
:106B400050F010003C490860C6F3C310FFF74BFA41
:106B500005003C480068444908403043284339490F
:106B60000860FFE770BD0000800912000005080002
:106B700070B504000D00E4B2022C01D1012000E048
:106B80000020C0B2FFF739FA002803D15FF44000BB
:106B9000060016E0EDB22800002808D0202802D018
:106BA000302808D00BE05FF40000060009E05FF435
:106BB0004000060005E05FF44000060001E02B48BD
:106BC0000600254800683040B042FAD1700205D571
:106BD00027480068800A10F0010000E0012070BD25
:106BE00070B504000D001600E4B2022C14D1EDB211
:106BF000002D06D04FF480601E490860EDB21E489B
:106C00000560F6B2002E06D02900C9B22000C0B23D
:106C1000FFF7AEFF01E0FFE7012070BD94400E409A
:106C200070400E405C410E400148E80174400E4047
:106C300040410E4010400E4024400E4028400E407F
:106C40002C400E4030400E4034400E407F1B000769
:106C500038400E4060400E4090400E4020400E40B4
:106C600018400E409C400E4000F8FF0FFF03E10764
:106C7000A0400E40A8400E4064400E4038B500F0E1
:106C80000FF804003A480068C0F308200500681CAB
:106C9000B4FBF0F437480460200032BD364870473A
:106CA0003649096811F0070102290CD00FD30429D5
:106CB00001D004D30BE03249096808000AE04FF420
:106CC0000041080006E02F490968080002E02E494B
:106CD000096808002D490968C1F30421491CB0FB6B
:106CE000F1F0704727480068704710B50400254848
:106CF00004602248006810F00700022801D1FFF765
:106D0000BDFF10BD2248006850F4700020490860A3
:106D10002048006850F400501E4908601E48006872
:106D2000800880001C4908601C480068400840003A
:106D30001A4908601A48006830F080501849086005
:106D400070474FF4004070474FF47A7070470C481A
:106D50000068704710B504000948046007480068DF
:106D600010F00700042801D1FFF788FF10BD0000D4
:106D700008410E400C08002000F0490294400E40EB
:106D800008080020040800201008002000410E40E0
:106D900088ED00E054300E4040300E4074300E401C
:106DA00060300E4040B2002808D5444940B210F08F
:106DB0000F00084410F8040C400903E0404940B2B9
:106DC000085C4009704740B2002804D440B2222831
:106DD00001DA012200E00022D2B23A4A110040B2A8
:106DE000420951F8221010F01F00C14011F00100BB
:106DF00090F00100C0B2704740B210F1100F04DBF8
:106E000040B2222801DA012200E00022D2B22E4A4A
:106E1000126840B202EB800211647047F0B4049D26
:106E2000059CB2F1005F04D3284FBA4201D201277A
:106E300000E00027FFB212F07F07002F01D10127E9
:106E400000E00027FFB201275FEA830CBCF1010CD0
:106E5000BCFA8CFCDCF1200C17FA0CF77F1E3A42CE
:106E600001D1012700E00027FFB200273E009E422B
:106E70001FD2E4B2002C09D08E4204D250F8267002
:106E800042F8267013E042F8265010E08E4208D2F5
:106E900052F82670002F0AD150F8267042F826705A
:106EA00005E052F82670002F01D142F82650761CDA
:106EB000DDE7054F3A60F0BC7047000018ED00E0D8
:106EC00000E400E000E100E008ED00E0007C0020CC
:106ED000F8B5040064B214F10C0F04DB64B2222C88
:106EE00001DA012000E00020C0B2EFF31080C007FB
:106EF00001D5012027E0200040B2FFF764FF002801
:106F000001D001201FE0200040B2FFF74BFF050039
:106F1000EFF311800700002F04D0B5EB571F01D30A
:106F2000012010E008480068C005C00D0600002ED2
:106F300008D03000103840B2FFF734FF854201D34B
:106F4000012000E00020F2BD04ED00E030B4026852
:106F50000368046805680A604B608C60CD6030BCD3
:106F6000704710B4426852095201C9B20B00002B9D
:106F7000042B09D95B1F022B0BD9DB1E032B03D972
:106F80001B1F022B05D90BE0C9B251EA0203436073
:106F900006E0C9B251EA020353F010034360FFE771
:106FA00010BC704770B504000D001600002D01D014
:106FB000012000E00020C0B2290014F12000FFF7FA
:106FC000C5FFF6B2102E05D115F1100114F1200005
:106FD000FFF7BCFF70BD002A80B5FFF74FFE01BD73
:106FE0008B0013EB401313F184431A6070470200C7
:106FF000880010EB421010F18440006870474AF698
:10700000E850DFF8C81A086070470020DFF8C019A0
:107010000860704745F60E00DFF8B4190860704745
:10702000DFF8AC0A0068C0B2704770B50400E4B283
:10703000002C0CD1DFF89C090068DFF89C1908606F
:107040001120FFF7B9F9DFF8941908704FE0DFF865
:107050008009006810F001000600FFF7DBFF002048
:107060000500DFF87409007810F001000543DFF82F
:1070700068090078C00601D5102000E00020054313
:10708000DFF854090078400601D5402000E00020D8
:107090000543DFF844090078400701D5042000E0EB
:1070A00000200543DFF830090068C00502D54FF421
:1070B000807000E000200543DFF8240A0560DFF857
:1070C0001C090078052805D0DFF810090178112087
:1070D000FFF72AFADFF800090078C00703D402207E
:1070E000DFF8FC190860002E01D0FFF78EFF70BD9D
:1070F00038B50400E4B2002C13D0DFF8E8090068CA
:10710000DFF8D0190860DFF8DC09006830F47F4050
:10711000050055F4EE45DFF8CC09056000F060F994
:1071200007E0DFF8B0090068DFF8B819086000F080
:1071300057F931BDDFF8B0090078012804D0DFF835
:10714000A809007802280FD1DFF88C09006810F038
:107150000300012804D1DFF884090068C003FAD5D0
:107160000320DFF884190870704710B50400E4B2FA
:10717000002C02D00020FFF758FFDFF870090068EC
:1071800050F00400DFF8641908600120FFF7B0FF39
:10719000FFF7D0FF30BF0020FFF7AAFFE4B2002CBA
:1071A00003D00120FFF741FF01E0FFF715FF10BDFD
:1071B00038B50400E4B2002C02D00020FFF735FF00
:1071C000DFF80C08006810F001000500FFF722FF4F
:1071D0004FF42070DFF808190860002D01D0FFF788
:1071E00014FFDFF80809006850F00400DFF8FC180D
:1071F00008600120FFF77CFFFFF79CFF30BF0020F5
:10720000FFF776FFE4B2002C03D00120FFF70DFF5B
:1072100001E0FFF7E1FE31BD80B50020FFF705FF7B
:1072200001BD80B50120FFF700FF01BDF8B5DFF813
:10723000CC08006830F4403050F40035DFF8BC086A
:10724000006850F44036FFF7DAFEDFF8B008006857
:10725000C0070BD4DFF88008006810F00307012F87
:1072600001D0022F02D1002000F0EFF9DFF88C08E6
:107270000068C00715D572B64AF6E850DFF87018F6
:107280000860DFF87008006850F08000DFF86418CC
:107290000860DFF86408006850F48070DFF8581860
:1072A00008600120FFF724FFFFF744FF00200400DF
:1072B000042C07DADFF844080560DFF840080660B0
:1072C000641CF5E7DFF834080560F1BDF0B4DFF8C1
:1072D0003038DFF83048DFF83058DFF83068DFF852
:1072E0003078DFF830C8DFF83008006810F1010F9F
:1072F00021D0586801001868020011606068010020
:1073000020680200116068680100286802001160AE
:107310007068010030680200116078680100386808
:1073200002001160DCF804000100DCF8000002003B
:107330001160012000E00020F0BC704738B5DFF894
:10734000DC07006850F08070DFF8D017086000217B
:10735000DFF8CC07FFF74BFE0400002C03D004201D
:1073600000F091FB02E0002000F08DFBDFF8B40795
:10737000006830F0C040DFF8AC170860DFF8A00705
:10738000006850F00600DFF898170860684600F0C3
:1073900047FC9DF80100012821D19DF80000032839
:1073A0001DDADFF814080078002818D1DFF8780714
:1073B000006850F00100DFF870170860DFF864071C
:1073C00000680500DFF864070540DFF8640705433F
:1073D000DFF8500705600120DFF8DC17087031BDC9
:1073E000F0B401242505DFF8FC663668C6F30326F1
:1073F0003200DFF840673688DFF838773F88283773
:107400007F08BE192836571C5FF0050C0CFB07F7E8
:10741000B6FBF7F6761E3000072800D307200006DB
:1074200030F0E066002E01D1012600E00026F6B221
:1074300035F4E006002E01D1012600E00026F6B268
:10744000DFF8A066366836F0EE6606432E43DFF8B6
:1074500094763E60DFF86467B6F90060002E29D4A8
:10746000DFF85867368833009BB213F12806760898
:1074700016FA83F62836571C12F1010C5FEA5C0CF1
:107480001CEB4707B6FBF7F63100072900D30721AD
:10749000090131F07006002E01D1012600E000261E
:1074A000F6B2DFF81C67366836F070060E43DFF878
:1074B00010773E60F0BC7047DFF878261080DFF868
:1074C000FC2611807047C0B2002802D0012806D0E7
:1074D0000BE0DFF8F016DFF8F026116005E0DFF8CA
:1074E000EC16DFF8E4261160FFE77047F8B50400FA
:1074F0000D001600FFF794FD0100C9B204290CDA53
:10750000DFF8CC0600680700E4B2002C02D0C7F315
:1075100007271CE007F0FF0719E0DFF8B80600684E
:107520000700EDB2002D05D0022D09D005D3032DA3
:1075300009D00AE007F0FF0709E0C7F3072706E0D4
:10754000C7F3074703E03F0E01E0002013E0F6B267
:10755000002E0FD13F0337F47040002801D00020E7
:1075600009E0DFF8B805006830F470403843DFF810
:10757000AC2510600120F2BDF0B400260024DBB27F
:10758000D2B252EA03252F00002F34D07F1E0CD038
:10759000FF3F3AD07F1E12D0FF3F3FD07F1E17D053
:1075A000FF3F45D07F1E1DD04BE0DFF82C763F68B3
:1075B0003E00C6F307273C0006F0FF0641E0DFF877
:1075C00018763F683E00370E3C00C6F3074638E0A9
:1075D000DFF808763F683E00C6F307273C0006F058
:1075E000FF062EE0DFF8F4753F683E00370E3C00E2
:1075F000C6F3074625E0DFF820753F683E00C6F376
:1076000007273C0006F0FF061BE0DFF80C753F681B
:107610003E00370E3C00C6F3074612E0DFF8C075A7
:107620003F683E00C6F307273C0006F0FF0608E06F
:10763000DFF8AC753F683E00370E3C00C6F30746E6
:10764000FFE706600C60F0BC704738B50400DFF857
:1076500094050068C007FAD4DFF87C04006810F0D5
:1076600003000500002D05D001220D21DFF878056B
:10767000FFF7B6FC28002100C0B2C9B2884209D188
:10768000E4B2002C05D100220D21DFF85C05FFF7E4
:10769000A7FC27E0002D06D1E4B2012C03D1022083
:1076A000DFF844140870DFF83C050068C007FAD41E
:1076B000DFF82404006880088000E4B22043DFF88B
:1076C00018140860DFF81C050068C007FAD4E4B29B
:1076D000002C01D1002200E001220D21DFF8080575
:1076E000FFF77EFC31BD38B504000220DFF8041539
:1076F0000860DFF80005006810F00F00022801D0D4
:10770000002080E0FFF7E2FD2089C92801D2012096
:1077100000E00020C0B22089A188884201D3012066
:1077200000E00020C0B2B4F90C00C92801DA012041
:1077300000E00020C0B26078012806D1A088C928E6
:1077400001D2012000E00020C0B2E08842F21171B5
:10775000884201D2012000E00020C0B2E0884B281E
:1077600002D20020050013E0E088B0F5FA7F03D2D2
:107770005FF0805005000BE0E08840F6C4118842BD
:1077800003D25FF00050050002E05FF040500500BA
:10779000DFF88C030068B4F90C10002901D4012132
:1077A00000E00021DFF85024104028430843DFF8B0
:1077B00070130860FFF7C2FDB4F90C102089FFF7C1
:1077C0007BFEA088DFF828140880A08800F008F964
:1077D000A07BFFF778FE01220121608800F014F8F9
:1077E000002801D100200EE0A07A002801D001225B
:1077F00000E000220521DFF80404FFF7F1FB6078C8
:10780000FFF723FF012032BD2DE9F04F87B00400C0
:107810000D00160000275FF0000802A800210022DA
:10782000C0E90012684600210022C0E9001205A844
:1078300000210022C0E900120020ADF81000B4F5CC
:10784000E16F06D340F6B930844202D25FF0010AFC
:1078500001E05FF0000A5FFA8AFABAF1000F01D185
:107860000020B2E0B4F5E16F02D95FF0010B01E056
:107870005FF0000B5FFA8BFBBBF1000F09D04FF4F8
:10788000E160070040F6B8308046B8EB070081465B
:1078900008E04FF4966007004FF4E1608046B8EBD3
:1078A000070081465FFA8BFBBBF1000F0BD0DFF8BE
:1078B0005003006801900198000E06900198C0F3F3
:1078C000074001900CE0DFF8380300680190019850
:1078D000C0F3072006909DF8040000F0FF0001901F
:1078E00080480068000F10F003008DF810009DF82C
:1078F00010305A46D2B205A96846FFF73DFEE01B9C
:107900000699019A891A4843B0FBF9F0039003984D
:10791000019908180390E01B0599009A891A4843B9
:10792000B0FBF9F0029002980099081802900698AE
:10793000039988420BD303980199884207D305988D
:107940000299884203D302980099884201D200200C
:107950003BE0F6B2002E14D0DFF8A80200685FFA10
:107960008BFBBBF1000F01D0022100E00021DFF80A
:1079700098221040039A50EA02200843DFF884124C
:107980000860EDB2002D1FD000229DF8101058465F
:10799000C0B2FFF7ABFD002801D1002015E002982E
:1079A000E72801D2029800E0E7200290DFF85C02AD
:1079B0000068400A40025FFA8BFB02995BEA4101D2
:1079C0000843DFF848120860012007B0BDE8F08FD7
:1079D00080410E4090400E405055002047560020F8
:1079E00070B504000025DFF80402006810F00706F7
:1079F000DFF82C010068C00710D5022E0ED3142C1E
:107A000002D2042005002EE0142C04D3282C02D22C
:107A10000820050027E01020050024E0DFF8000121
:107A20000068C00710D4022E0ED20A2C02D2042005
:107A3000050018E00A2C04D3142C02D208200500FB
:107A400011E0102005000EE0DFF8D4000068C00748
:107A500009D5022E07D2282C02D20820050002E008
:107A600010200500FFE76D1E280350EA0525DFF80A
:107A7000B000006830F47F402843DFF8A4100860AD
:107A8000FFF7AEFC70BD38B5040000211548FFF7C4
:107A9000AEFA0500002D02D1E4B2022C01DB002D6C
:107AA00001D0012000E00020C0B2DFF840010068F2
:107AB000C008C000E4B22043DFF830110860DFF8EE
:107AC00030010088FFF78CFF31BD000008300E4008
:107AD0000082E00F5455002040300E407C300E40B4
:107AE00060400E404C300E404656002010ED00E045
:107AF00090310E4098310E4088300E4018300E40C4
:107B00003880E00F4080E00F4880E00F5080E00FA9
:107B10005880E00F6080E00F1C83E00F6C300E4057
:107B20004C300E4060300E4044300E40000F0EF0DE
:107B3000B4C0400B4254002010B402210022C0B255
:107B4000002801D100231900314B1B68012B05D1FE
:107B500001231A004AF6E8532D4C2360C0B20228D4
:107B600006D12C4B1B6833F074032A4C236005E0CC
:107B7000284B1B6853F07403264C2360264B1B686C
:107B800053F00803244C2360244B1B6833F44063F8
:107B90008C0214F440642343204C23601E4B1B686A
:107BA00033F008031C4C2360D2B2002A02D0002319
:107BB000174C236010BC7047465600203A560020F0
:107BC00050300E407740205758300E40372110B7C4
:107BD0002C83E00F3083E00F2483E00F2883E00F35
:107BE0002083E00F78300E4054300E4070300E404D
:107BF0003856002038300E40FEFFFFCF3C300E409C
:107C00001883E00F5C300E40FD80FFFF64300E40B3
:107C100090310E4064310E409C310E403C400E408D
:107C20000E4A1268920012F03C0211000C4A1268CF
:107C3000C2F3811211438170094A126812F03F02A7
:107C40004270084A126812F0F0021100064A1268E7
:107C5000C2F303121143017070470000E4FF0FE00C
:107C6000E0FF0FE0E8FF0FE0ECFF0FE08B0013EB0D
:107C7000401313F184431A60704710F1C062116021
:107C8000704710F180621160704770B504000D00FC
:107C9000160029002000FFF7F4FF31002000FFF755
:107CA000ECFF70BD38B504000D00E4B2002C01D12A
:107CB0003F2035E0E4B2012C02D14FF478402FE0B0
:107CC000E4B2022C02D14FF47C6029E0E4B2032C30
:107CD00002D14FF47E4023E0E4B2042C01D1002015
:107CE0001EE0E4B2052C01D1FF2019E0E4B2062C1D
:107CF00001D1002014E0E4B2072C01D100200FE0F4
:107D0000E4B2082C01D100200AE0E4B2092C01D130
:107D1000002005E0E4B20A2C01D1002000E00020A0
:107D2000284110F00100012010FA05F1DFF860038E
:107D3000E4B2302202FB04F210440C30FFF7A1FF42
:107D400031BD38B504000D00E4B2002C01D13F2054
:107D500035E0E4B2012C02D14FF478402FE0E4B2D8
:107D6000022C02D14FF47C6029E0E4B2032C02D152
:107D70004FF47E4023E0E4B2042C01D100201EE049
:107D8000E4B2052C01D1FF2019E0E4B2062C01D1A8
:107D9000002014E0E4B2072C01D100200FE0E4B28F
:107DA000082C01D100200AE0E4B2092C01D1002006
:107DB00005E0E4B20A2C01D1002000E000202841B7
:107DC00010F00100012010FA05F1DFF8C402E4B25E
:107DD000302202FB04F210440C30FFF74EFF31BD9D
:107DE0002DE9F04706000F0090469946089C099D32
:107DF0005FF0000AF6B2002E01D13F2035E0F6B266
:107E0000012E02D14FF478402FE0F6B2022E02D1BB
:107E10004FF47C6029E0F6B2032E02D14FF47E408D
:107E200023E0F6B2042E01D100201EE0F6B2052EAA
:107E300001D1FF2019E0F6B2062E01D1002014E096
:107E4000F6B2072E01D100200FE0F6B2082E01D1C4
:107E500000200AE0F6B2092E01D1002005E0F6B2BA
:107E60000A2E01D1002000E00020384110F001006E
:107E70005FEA98008000B9088900884201D101209A
:107E800000E00020C0B2B8F1080F0FD2F6B24046B1
:107E9000C0B2800016FA00F20F204146C9B2890034
:107EA00010FA01F17B48FFF7F0FE11E0B8F108008D
:107EB0008246F6B25046C0B2800016FA00F20F2099
:107EC0005146C9B2890010FA01F17348FFF7DDFE8F
:107ED000B8F1080F10D217F003004146C9B289006B
:107EE00010FA01F203204146C9B2890010FA01F1EB
:107EF0006A48FFF7CAFE0FE017F003005146C9B207
:107F0000890010FA01F203205146C9B2890010FA23
:107F100001F16348FFF7B9FE5FFA89F94A46414625
:107F20006048FFF7A3FEE4B2220041465E48FFF737
:107F30009DFE012010FA08F054490860EDB22A00B5
:107F400041465A48FFF792FEBDE8F087F8B50400B5
:107F50000D0016001F00E4B2002C01D13F2035E0D7
:107F6000E4B2012C02D14FF478402FE0E4B2022CAD
:107F700002D14FF47C6029E0E4B2032C02D14FF42B
:107F80007E4023E0E4B2042C01D100201EE0E4B2E4
:107F9000052C01D1FF2019E0E4B2062C01D100200C
:107FA00014E0E4B2072C01D100200FE0E4B2082C69
:107FB00001D100200AE0E4B2092C01D1002005E043
:107FC000E4B20A2C01D1002000E00020284110F08A
:107FD0000100F6B2002E0CD0002F05D029002000A1
:107FE000C0B2FFF7AEFE04E029002000C0B2FFF7E8
:107FF00059FE082D1BD22648E4B2302101FB04F1C2
:10800000084440680F212A00D2B292009140884370
:10801000F6B22900C9B2890016FA01F108431C49D9
:10802000E4B2302202FB04F2114448601CE018481C
:10803000E4B2302101FB04F1084480680F212A00DA
:10804000083AD2B2920091408843F6B2290008392A
:10805000C9B2890016FA01F108430D49E4B2302291
:1080600002FB04F211448860F6B2002E0CD1002FFE
:1080700005D029002000C0B2FFF763FE04E029000C
:108080002000C0B2FFF70EFEF1BD000024A40040A6
:1080900000A0004000A4004004A4004008A4004048
:1080A0000CA4004010A4004014A4004028A40040E8
:1080B000012110F01F029140DFF8F02240B2430985
:1080C00042F823107047012110F01F029140B84A76
:1080D00040B2430942F82310704710B440B2002860
:1080E00008D54A01B34B40B210F00F04234403F803
:1080F000042C03E04A01B04B40B21A5410BC704744
:108100008B0013EB401313F184431A60704710F196
:1081100080621160704738B504000D00082C01DA48
:10812000012000E00020C0B295F00102D2B221008F
:10813000A548FFF7E5FF31BD10B50400002C01D0C4
:10814000012000E00020C0B22078000630F0E0609E
:10815000002801D1012000E00020C0B20120012050
:10816000E078082801DA012000E00020C0B20121F7
:108170009448FDF7C1FF20786178090251EA006058
:10818000A17808439149086000208D4908600020CB
:108190008F49086000208C4908605FF000408749E3
:1081A00008605FF0FF308B4908600820FFF78BFF05
:1081B000E1780820FFF791FF0820FFF779FF10BD55
:1081C0002DE9F84304000D001600012010FA04F90F
:1081D000082C01DA012000E00020C0B2002D01D0FF
:1081E000012000E00020C0B228687B49084201D18C
:1081F000012000E00020C0B2012001200120012068
:10820000A87A000430F44030002801D1012000E0B9
:108210000020C0B2E87A000530F48010002801D1B7
:10822000012000E00020C0B2287B400530F400109F
:10823000002801D1012000E00020C0B20120286800
:108240006649302202FB04F28850687B6349302281
:1082500002FB04F211448860A87AE97A090551EA20
:108260000040297B50EA41505C49302202FB04F275
:1082700011444860B00880005849302202FB04F2E3
:10828000114488615348C0F8009000F0AFF8804670
:108290004A48006859EA000048490860287A0028DE
:1082A00005D04948006859EA000047490860687AE3
:1082B000002805D04648006859EA00004449086093
:1082C0004248006807002879002805D02879C04373
:1082D000000270F47F4007406879002802D0687976
:1082E00057EA0027A879002801D0A8798743E879C0
:1082F000002801D0E87907433448076049463848E8
:10830000FFF705FF3748C0F80090404600F072F8CC
:10831000BDE8F18370B50400012010FA04F5082CC3
:1083200001DA012000E00020C0B200F05FF8060092
:1083300022480068A8432149086029002048FFF727
:10834000E6FE300000F056F870BD2DE9F843040059
:10835000012010FA04F8082C01DA012000E00020C6
:10836000C0B200F043F881461F48006807001C486F
:10837000006806001948302101FB04F10844C06878
:108380000500484600F036F818EA070718EA06061E
:10839000C5F30A15002E03D1002D03D1002F01D003
:1083A000002000E0681CBDE8F283000000E100E06E
:1083B00080E200E018ED00E000E400E06C200E40F8
:1083C00020200E400045080034200E4000200E40C2
:1083D0002C200E4068200E40F0FFC0FF80200E4091
:1083E00028200E403C200E4060200E40EFF310800D
:1083F00072B67047002800D162B67047026CD2078F
:1084000002D4426C0A42FCD1704738B504000D001A
:10841000A068C006FCD540212000FFF7EFFFEDB2B9
:10842000A56231BD41F6713009490860094800680C
:108430004008400007490860704706480068400847
:1084400040000449086000200149086070470000AE
:1084500040000E4008000E4001201F490860704790
:1084600010B41E480168002000242200092A2DD2E1
:108470001B4C04EBC204646823001A4C2468640794
:1084800011D4174C54F83240B4F5007F08D0B4F53D
:10849000806F05D0B4F5006F02D0B4F5803F02D1F3
:1084A00053F48073FFE7104C2468E40501D533F0E2
:1084B0001C030B4C54F83240214205D0194203D121
:1084C000074C54F832402043521CCFE7C40301D577
:1084D00030F01C0010BC704708500E4004500E4095
:1084E000D4500000E841E00F88300E4010B403285B
:1084F00001DA012200E00022D2B24A79202A01D218
:10850000012200E00022D2B20A784B7852EA8302BC
:108510008B7852EA8312CB7852EA03120B7952EA33
:10852000C3224B7952EA03328B7952EA4342104B11
:1085300004011A5110BC70470178427851EA820157
:10854000827851EA0211C27851EA4211027951EA65
:108550000221427951EA0231827951EAC231C2796B
:1085600051EA0241027A51EA4241024A11607047DF
:1085700040200440002004402DE9F84304000D0091
:1085800016001F00002D04D1DFF8D801FDF701FE11
:108590000500FFB23800002806D020280ED0402861
:1085A00016D0602820D029E02809B04201D301204C
:1085B00000E00020C0B21020814620E0E808B04270
:1085C00001D3012000E00020C0B20820814616E05F
:1085D0000620B5FBF0F0B04201D3012000E00020FE
:1085E000C0B2062081460AE0A808B04201D30120AB
:1085F00000E00020C0B20420814600E023E006FB3A
:1086000009F0400810EB4510804606FB09F0B8FB66
:10861000F0F8B8F120085FEAC808DFF84C0180459F
:1086200001D2012000E00020C0B2DFF8400110EAD2
:108630000808206830F0600020602068FFB23843EE
:108640002060C4F81480BDE8F183494B984202D001
:10865000484B984201D1012300E00023DBB2C9B2AC
:10866000CB431A0012F005025300C360C9B2C160C7
:10867000704738B504000D003D48844202D03D48A3
:10868000844201D1012000E00020C0B2200000F0AF
:1086900038F8A87C002803D0206850F08040206083
:1086A000E87C002803D0287D50F08000A065687B1E
:1086B000B5F910100843B5F90E10084360602B7B24
:1086C000AA6869682000FFF757FFA87D000710F02F
:1086D000E040E97D090511F4E00108432066687D6A
:1086E000002803D0206850F480302060606F30F0A4
:1086F00030006067606F297E084360672878E0601B
:1087000031BD1B49884202D01A49884201D101215A
:1087100000E00021C9B240F6AA61C16000210160F9
:1087200041F2050141600021816000214161002189
:10873000C1641149816400214167002181670021E2
:10874000C1670B49884202D00A49884201D1002101
:108750000165002181650749884201D10021C16579
:108760007047000040410500F9FF7F00F8FF7F00DF
:108770000000014000040140F9FF010002695206B7
:10878000FCD5C9B24163704781647047020088001C
:1087900010EB421010F184400068704710F1C06285
:1087A0001160704710F180621160704738B50400A5
:1087B0000D00E4B2002C01D13F2035E0E4B2012CE1
:1087C00002D14FF478402FE0E4B2022C02D14FF4F2
:1087D0007C6029E0E4B2032C02D14FF47E4023E018
:1087E000E4B2042C01D100201EE0E4B2052C01D13A
:1087F000FF2019E0E4B2062C01D1002014E0E4B21D
:10880000072C01D100200FE0E4B2082C01D1002098
:108810000AE0E4B2092C01D1002005E0E4B20A2C00
:1088200001D1002000E00020284110F001002900C3
:10883000DFF8B807E4B2302202FB04F210441C3027
:10884000FFF7A4FF32BD38B504000D00E4B2002CE0
:1088500001D13F2035E0E4B2012C02D14FF4784041
:108860002FE0E4B2022C02D14FF47C6029E0E4B2A4
:10887000032C02D14FF47E4023E0E4B2042C01D15A
:1088800000201EE0E4B2052C01D1FF2019E0E4B283
:10889000062C01D1002014E0E4B2072C01D1002005
:1088A0000FE0E4B2082C01D100200AE0E4B2092C68
:1088B00001D1002005E0E4B20A2C01D1002000E043
:1088C0000020284110F00100012010FA05F1DFF826
:1088D0001C07E4B2302202FB04F210440C30FFF714
:1088E00061FF31BD38B504000D00E4B2002C01D1A8
:1088F0003F2035E0E4B2012C02D14FF478402FE064
:10890000E4B2022C02D14FF47C6029E0E4B2032CE3
:1089100002D14FF47E4023E0E4B2042C01D10020C8
:108920001EE0E4B2052C01D1FF2019E0E4B2062CD0
:1089300001D1002014E0E4B2072C01D100200FE0A7
:10894000E4B2082C01D100200AE0E4B2092C01D1E4
:10895000002005E0E4B20A2C01D1002000E0002054
:10896000284110F00100012010FA05F1DFF87C0623
:10897000E4B2302202FB04F210440C30FFF70EFF89
:1089800031BD2DE9FC4105000E0017009846089CFA
:108990002000C0B201904046C0B200903B00DBB264
:1089A000320031002800C0B2FFF71AFABDE8F381A7
:1089B000010000200200042A0DD2DFF8340650F82E
:1089C0002200407F884204D1DFF8240650F82200BC
:1089D00002E0521CEFE70020704710B5040094F845
:1089E0003100022805D1617F607EFFF7DFFEC0B253
:1089F00000E0002010BD70B582B00400E4B2200099
:108A0000FFF7D6FF0500002D2DD095F83100022884
:108A100029D12800FFF7E1FF2875687D022822D1BF
:108A200095F82E0000281ED100208DF80000694620
:108A3000686801F063FD0600287D002803D095F8E2
:108A40002F00002806D0002085F82F00686801F06C
:108A500018FD08E0002E06D19DF80000002802D085
:108A6000686801F0EFFC73BD10B582B0040094F8A3
:108A7000310002281CD1607D002804D1A17FA07E96
:108A8000FFF7E1FE38E0607D012804D1A17FA07EE0
:108A9000FFF728FF30E0207D002804D1A17FA07ED1
:108AA000FFF7D1FE28E0A17FA07EFFF71BFF23E0A8
:108AB00094F8310001281FD1207D00280ED111200B
:108AC0008DF80000200001F02DFB012269462000F6
:108AD00001F0B9FA200001F079FB0DE013208DF8C8
:108AE0000000200001F01EFB01226946200001F079
:108AF000AAFA200001F06AFB002016BD2DE9F84318
:108B000004000D001600FFF771FC0700A088E18843
:108B1000884207D3002030603800FFF76BFCDFF895
:108B2000D40422E020885FF0140880B21421484366
:108B3000204410F1080942462900484601F048FE49
:108B40002088142148432044083030602088401C8D
:108B5000E18890FBF1F201FB12002080A088401C0C
:108B6000A0803800FFF746FC0020BDE8F28370B516
:108B700004000D00FFF73AFC0600A088002807D18A
:108B8000002028603000FFF735FCDFF86C0414E0AB
:108B90006088142148432044083028606088401CC5
:108BA000E18890FBF1F201FB12006080A088401E7A
:108BB000A0803000FFF71EFC002070BD70B50400DF
:108BC0000D00FFF713FC0600A088002807D1002045
:108BD00028603000FFF70EFCDFF81C0409E0608815
:108BE000142148432044083028603000FFF702FC7D
:108BF000002070BD90F8321000290DD104210268C8
:108C0000D160016809698907FBD50168496F51F096
:108C100002010268516714E090F83210012910D166
:108C20000168496C8907FBD404210268516001681E
:108C300089688907FBD50168496D51F00201026816
:108C40005165704790F83210002909D10168496FC9
:108C500031F002010268516708210268D16010E01A
:108C600090F8321001290CD10168496C8907FBD4B6
:108C70000168496D31F002010268516508210268FE
:108C80005160704790F8321000290DD1012102681F
:108C9000D16001680969C907FBD50168496F51F0C6
:108CA00001010268516714E090F83210012910D1D7
:108CB0000168496C8907FBD4012102685160016891
:108CC0008968C907FBD50168496D51F00101026847
:108CD0005165704790F83210002909D10168496F39
:108CE000490849000268516702210268D16010E01A
:108CF00090F8321001290CD10168496C8907FBD426
:108D00000168496D490849000268516502210268FD
:108D10005160704770B586B004000D000026012038
:108D200084F82C0094F83200002803D120681C300D
:108D300006000BE094F83200012803D120681C30B3
:108D4000060003E0002084F82C000FE004940FF2EA
:108D50007D0003900020029068680190012000903F
:108D600033002A682169A06801F044FB06B070BD99
:108D700070B586B004000D000026012084F82D0097
:108D800094F83200002803D12068343006000BE04C
:108D900094F83200012803D120682830060003E04F
:108DA000002084F82D000FE004940FF2811003904E
:108DB0000020029068680190012000902B6832002A
:108DC000E168606801F0EEFA06B070BD2DE9F84385
:108DD00004000D001600B0466946D8F82400FFF7DD
:108DE000EDFE81468448814501D101209CE0009838
:108DF000002801D0012000E00020C0B298F8320025
:108E0000002810D1D8F80000006C80050BD57B48F5
:108E1000009908610020009988604FF40070D8F82C
:108E20000010886442E098F8320001280FD1D8F889
:108E30000000C06A00060AD5704800990861002049
:108E4000009988608020D8F8001048632EE098F8D8
:108E50003200002810D1D8F80000006CC0050BD5F6
:108E60006748009908610020009988604FF480707D
:108E7000D8F80010886419E098F8320001280FD162
:108E8000D8F80000C06A40060AD55D48009908611C
:108E90000020009988604020D8F80010486305E061
:108EA000002000990861002000998860FFF79EFA71
:108EB00007000098C06800280ED00098406800990C
:108EC0008968431A00980268009801694046DDF8F5
:108ED00000C0DCF80CC0E0476946D8F82400FFF772
:108EE00046FED8F824008088002809D06946D8F8C2
:108EF0002400FFF763FE00994046FFF70BFF0FE0E9
:108F0000012088F814004046FFF7AEFD002088F8E5
:108F10002C0098F83100032802D04046FFF7DAFE13
:108F20003800FFF767FA0120BDE8F2832DE9F84326
:108F300004000D001600B0466946D8F82800FFF777
:108F40003DFE81462C48814501D1012039E0009841
:108F5000002801D0012000E00020C0B200200099CC
:108F60000861002000998860FFF740FA0700009828
:108F7000C06800280AD00098436800980268002161
:108F80004046DDF800C0DCF80CC0E0476946D8F880
:108F90002800FFF7ECFDD8F828008088002809D0C9
:108FA0006946D8F82800FFF709FE00994046FFF708
:108FB000DFFE02E0002088F82D003800FFF71AFAE3
:108FC0000120BDE8F2830300002B02D1DFF88C0AF8
:108FD0000AE0002904D0002A02D0B2F5006F02D9BD
:108FE000DFF87C0A00E000207047000000A000408D
:108FF0006C5400200A7000F00B7000F00D7000F04F
:109000000C7000F002001068DFF8583A984240F007
:109010008982087A002801D100209BE0087A012883
:1090200001D1002096E0087A022801D1002091E0C9
:10903000087A032801D100208CE0087A042801D1A5
:10904000002087E0087A052801D1002082E0087A14
:10905000062801D101207DE0087A072801D10120EE
:1090600078E0087A082801D1012073E0087A0928FD
:1090700001D101206EE0087A0A2801D1012069E0BF
:10908000087A0B2801D1022064E0087A0C2801D16B
:1090900002205FE0087A0D2801D102205AE0087A08
:1090A0000E2801D1022055E0087A0F2801D10220B4
:1090B00050E0087A102801D102204BE0087A1128EC
:1090C00001D1032046E0087A122801D1032041E0B3
:1090D000087A132801D103203CE0087A142801D132
:1090E000032037E0087A152801D1032032E0087AFE
:1090F000162801D103202DE0087A172801D103207A
:1091000028E0087A182801D1052023E0087A1928D8
:1091100001D105201EE0087A1A2801D1052019E0A6
:10912000087A1B2801D1052014E0087A1C2801D1F7
:1091300005200FE0087A1D2801D105200AE0087AF1
:109140001E2801D1052005E0087A1F2801D105203D
:1091500000E0FF20D075487A002801D100209BE074
:10916000487A012801D1002096E0487A022801D1EE
:10917000002091E0487A032801D100208CE0487A51
:10918000042801D1002087E0487A052801D1012078
:1091900082E0487A062801D101207DE0487A07283C
:1091A00001D1012078E0487A082801D1012073E03C
:1091B000487A092801D101206EE0487A0A2801D1B5
:1091C000022069E0487A0B2801D1022064E0487A45
:1091D0000C2801D102205FE0487A0D2801D102203D
:1091E0005AE0487A0E2801D1022055E0487A0F282B
:1091F00001D1022050E0487A102801D103204BE031
:10920000487A112801D1032046E0487A122801D17A
:10921000032041E0487A132801D103203CE0487A3A
:10922000142801D1032037E0487A152801D1032002
:1092300032E0487A162801D103202DE0487A172819
:1092400001D1052028E0487A182801D1052023E023
:10925000487A192801D105201EE0487A1A2801D140
:10926000052019E0487A1B2801D1052014E0487A2E
:109270001C2801D105200FE0487A1D2801D10520C6
:109280000AE0487A1E2801D1052005E0487A1F2807
:1092900001D1002000E0FF201076087A002801D1DB
:1092A00000209BE0087A012801D1012096E0087A8D
:1092B000022801D1022091E0087A032801D103207D
:1092C0008CE0087A042801D1042087E0087A052878
:1092D00001D1052082E0087A062801D10B207DE02B
:1092E000087A072801D10C2078E0087A082801D1F3
:1092F0000D2073E0087A092801D10E206EE0087A6B
:109300000A2801D10F2069E0087A0B2801D1062034
:1093100064E0087A0C2801D107205FE0087A0D2864
:1093200001D108205AE0087A0E2801D1092055E021
:10933000087A0F2801D10A2050E0087A102801D1BC
:109340000B204BE0087A112801D1092046E0087A69
:10935000122801D10A2041E0087A132801D10B20FC
:109360003CE0087A142801D10C2037E0087A15284F
:1093700001D10D2032E0087A162801D10E202DE00F
:10938000087A172801D10F2028E0087A182801D17F
:10939000002023E0087A192801D101201EE0087A74
:1093A0001A2801D1022019E0087A1B2801D10320D4
:1093B00014E0087A1C2801D104200FE0087A1D2847
:1093C00001D105200AE0087A1E2801D1062005E017
:1093D000087A1F2801D1072000E0FF20D076487AC4
:1093E000002801D101209BE0487A012801D1022008
:1093F00096E0487A022801D1032091E0487A0328B8
:1094000001D104208CE0487A042801D1052087E0AE
:10941000487A052801D10B2082E0487A062801D13C
:109420000C207DE0487A072801D10D2078E0487AA9
:10943000082801D10E2073E0487A092801D10F20B5
:109440006EE0487A0A2801D1062069E0487A0B28A4
:1094500001D1072064E0487A0C2801D108205FE0A0
:10946000487A0D2801D109205AE0487A0E2801D106
:109470000A2055E0487A0F2801D10B2050E0487AA5
:10948000102801D109204BE0487A112801D10A2087
:1094900046E0487A122801D10B2041E0487A13288F
:1094A00001D10C203CE0487A142801D10D2037E08E
:1094B000487A152801D10E2032E0487A162801D1C9
:1094C0000F202DE0487A172801D1002028E0487AA3
:1094D000182801D1012023E0487A192801D102205F
:1094E0001EE0487A1A2801D1032019E0487A1B2887
:1094F00001D1042014E0487A1C2801D105200FE096
:10950000487A1D2801D106200AE0487A1E2801D198
:10951000072005E0487A1F2801D1002000E0FF2045
:10952000107790E21068DFF84035984240F0898269
:10953000087A002801D100209BE0087A012801D197
:10954000002096E0087A022801D1002091E0087AF4
:10955000032801D100208CE0087A042801D10020E2
:1095600087E0087A052801D1002082E0087A0628E1
:1095700001D101207DE0087A072801D1012078E09F
:10958000087A082801D1012073E0087A092801D15E
:1095900001206EE0087A0A2801D1012069E0087AEA
:1095A0000B2801D1022064E0087A0C2801D10220A6
:1095B0005FE0087A0D2801D102205AE0087A0E28CF
:1095C00001D1022055E0087A0F2801D1022050E095
:1095D000087A102801D102204BE0087A112801D125
:1095E000032046E0087A122801D1032041E0087ADE
:1095F000132801D103203CE0087A142801D103206C
:1096000037E0087A152801D1032032E0087A1628BD
:1096100001D103202DE0087A172801D1032028E08A
:10962000087A182801D1052023E0087A192801D1E9
:1096300005201EE0087A1A2801D1052019E0087AD1
:109640001B2801D1052014E0087A1C2801D105202F
:109650000FE0087A1D2801D105200AE0087A1E28AB
:1096600001D1052005E0087A1F2801D1052000E07E
:10967000FF20D075487A002801D100209BE0487A6D
:10968000012801D1002096E0487A022801D100206B
:1096900091E0487A032801D100208CE0487A042820
:1096A00001D1002087E0487A052801D1012082E01D
:1096B000487A062801D101207DE0487A072801D1A7
:1096C000012078E0487A082801D1012073E0487A27
:1096D000092801D101206EE0487A0A2801D1022030
:1096E00069E0487A0B2801D1022064E0487A0C280E
:1096F00001D102205FE0487A0D2801D102205AE012
:10970000487A0E2801D1022055E0487A0F2801D16D
:10971000022050E0487A102801D103204BE0487A1B
:10972000112801D1032046E0487A122801D10320F4
:1097300041E0487A132801D103203CE0487A1428FC
:1097400001D1032037E0487A152801D1032032E007
:10975000487A162801D103202DE0487A172801D134
:10976000052028E0487A182801D1052023E0487A0E
:10977000192801D105201EE0487A1A2801D10520B8
:1097800019E0487A1B2801D1052014E0487A1C28EA
:1097900001D105200FE0487A1D2801D105200AE0FB
:1097A000487A1E2801D1052005E0487A1F2801D1FA
:1097B000002000E0FF201076087A002801D1002068
:1097C0009BE0087A012801D1012096E0087A02285E
:1097D00001D1022091E0087A032801D103208CE016
:1097E000087A042801D1042087E0087A052801D1ED
:1097F000052082E0087A062801D10B207DE0087A56
:10980000072801D10C2078E0087A082801D10D2022
:1098100073E0087A092801D10E206EE0087A0A2840
:1098200001D10F2069E0087A0B2801D1062064E0FD
:10983000087A0C2801D107205FE0087A0D2801D1B1
:1098400008205AE0087A0E2801D1092055E0087A4C
:109850000F2801D10A2050E0087A102801D10B20EE
:109860004BE0087A112801D1092046E0087A122835
:1098700001D10A2041E0087A132801D10B203CE0F5
:10988000087A142801D10C2037E0087A152801D174
:109890000D2032E0087A162801D10E202DE0087A3A
:1098A000172801D10F2028E0087A182801D10020BC
:1098B00023E0087A192801D101201EE0087A1A282D
:1098C00001D1022019E0087A1B2801D1032014E0FD
:1098D000087A1C2801D104200FE0087A1D2801D144
:1098E00005200AE0087A1E2801D1062005E0087A42
:1098F0001F2801D1072000E0FF20D076487A0028F9
:1099000001D101209BE0487A012801D1022096E094
:10991000487A022801D1032091E0487A032801D136
:1099200004208CE0487A042801D1052087E0487A99
:10993000052801D10B2082E0487A062801D10C20AD
:109940007DE0487A072801D10D2078E0487A082880
:1099500001D10E2073E0487A092801D10F206EE072
:10996000487A0A2801D1062069E0487A0B2801D1FB
:10997000072064E0487A0C2801D108205FE0487A8B
:109980000D2801D109205AE0487A0E2801D10A2079
:1099900055E0487A0F2801D10B2050E0487A102872
:1099A00001D109204BE0487A112801D10A2046E074
:1099B000487A122801D10B2041E0487A132801D1BE
:1099C0000C203CE0487A142801D10D2037E0487A79
:1099D000152801D10E2032E0487A162801D10F2037
:1099E0002DE0487A172801D1002028E0487A18286D
:1099F00001D1012023E0487A192801D102201EE07C
:109A0000487A1A2801D1032019E0487A1B2801D18D
:109A1000042014E0487A1C2801D105200FE0487A80
:109A20001D2801D106200AE0487A1E2801D107200E
:109A300005E0487A1F2801D1002000E0FF201077C0
:109A400001E0074808E0487C5076887C5077C87C65
:109A50009076087D9077002070470000027000F03B
:109A6000037000F0000001400004014038B504001C
:109A70000D00EDB2002D35D001230422E17EE07D02
:109A8000FEF764FA01230222217F207EFEF75EFAB0
:109A900094F83100022814D100230122617F607EF6
:109AA000FEF754FA00230422A17FA07EFEF74EFAAF
:109AB0000120009001230122617F607EFEF761FF9B
:109AC00045E094F83100032841D100230122617F51
:109AD000607EFEF73BFA00230422A17FA07EFEF702
