:1000000000080020DF6002008B8B0000A78B00003F
:10001000C38B0000DF8B0000FB8B000000000000A2
:10002000000000000000000000000000178C00002D
:10003000538C0000000000001F8F0000679200003A
:10004000877D0000510902003B9A0000A7A0000034
:1000500079050200910902005709020059090200BE
:100060005309020015790000AD7C00000FA70000C5
:10007000DD8D00008D8E000053A90000F7B4000054
:1000800057B9000037BD0000C97C00007FC40000E4
:1000900093C4000093CB0000EBCD00000BD0000018
:1000A000D7ED00000FF40000E7090100B3170100CD
:1000B000930902005509020055A90000DB38010030
:1000C000C70902008B3F0100456002009740010014
:1000D000F75801005B610100BF760100FB7601006B
:1000E000B37F0100C7830100EF97010013B1010046
:1000F0002FC60100072802000000000013B779FA9C
:10010000C925DDB7ADF3CFE0F1B614B800010000AA
:1001100000000000000000002000000001000000BE
:1001200000000000000000000000000000000000CF
:1001300000000000000000000000000000000000BF
:1001400000000000000000000000000000000000AF
:10015000000000000000000000000000000000009F
:10016000000000000000000000000000000000008F
:10017000000000000000000000000000000000007F
:10018000000000000000000000000000000000006F
:10019000000000000000000000000000000000005F
:1001A000000000000000000000000000000000004F
:1001B000000000000000000000000000000000003F
:1001C000000000000000000000000000000000002F
:1001D000000000000000000000000000000000001F
:1001E000000000000000000000000000000000000F
:1001F00000000000000000000000000000000000FF
:100200000298980302989E03029828070298FC011E
:100210000298BA030298E0030298BA0302986E04A7
:100220000298BC050298E2050298C4030298800671
:100230000298F6060298CA030763076390B96379C8
:1002400000B902EC00CD114502EC00CC01DB0671D7
:1002500002980E03411103B804D91C7207319112A0
:1002600010DA087102DD10721C7002B8069836119F
:100270003038127208B80698CC0F00C0240008402D
:10028000207800F802EC00CA05B823DAEA7202EC22
:1002900000C8911110D9167100C1F41E002114116B
:1002A00011500A7108DB06720AB8CC700768911108
:1002B000173111402111C0311140011990B841117D
:1002C00008D90471627820D904726578273123DD5A
:1002D0000872C0DA0471607803B8411107310872FE
:1002E000A1152035927102DD1672A11120D98871F5
:1002F000CCDA847206B8054DB27202980E03211151
:100300004049C0D93471A031411540350165514192
:100310000361076308DA147204DA1E7210490134AB
:100320000A7101DB147190B8677800C00D0F0C0DD5
:100330000698381101D8087207B802987600CC32B6
:10034000204A00C0051708500698381111300142A4
:100350000DDA6671208800C1DE1B250120BB04DA9E
:10036000107208DA0A7200C120841000F823E82312
:100370003114056B01DA06711E49024B076B076BDE
:1003800000C0441F00213810BC2002DA127100B9ED
:10039000FF21A11380DB087100C100FCFF011810D0
:1003A0000298960200C3EC1E0021341080D84671DA
:1003B000EFBA0698FA0E00920362DDDA9472A11188
:1003C00001D9327100C238100840241204232813C6
:1003D00002EC00C804D9167104BA18300871006024
:1003E000FD20012A02EC00C8FF22FA7604DC067226
:1003F00018B8737890B8437802980E0306984C09A1
:1004000000B8011A91101730011900C20202000051
:100410000698C20704D9067101B802A800C0EC1EF4
:100420000021041380DB06710298380001DB5E7145
:1004300000C24C1F002124111114FF3402EC00C82B
:10044000FF24FA76076106984611036111380F30D0
:1004500003611114011141100698461101D8087268
:1004600003B802987600042202DB167124101128CA
:10047000112806985A1100C218000840FF200812DF
:10048000411007600698461101D8087120BC10DBA6
:10049000067202980E0300BB00C1441F0021141510
:1004A000511207620762C021112CFF320E71408881
:1004B0005114069864034143009441115112076A94
:1004C000FF320E715114076406986403076C4143B0
:1004D00000C1481F00211410013BB8211411111252
:1004E00031100F30127100BA046101D80471114249
:1004F00000600FD8F472311006601E30047201B82B
:10050000003A087204B8029876000298A40100C16B
:10051000306108401411076180D91A7102EC1DB0D6
:1005200002EC1DB1015811288020E02008759112BD
:10053000084A211900C0541F002104110F3103DDA6
:100540001A7200C000600840041007D80E7200C084
:100550001040084004B9181000F80698F80E00B8CA
:10056000477800F830885088FF34087102ECFF2487
:10057000F87002EC00CD141001BB5150FFD804718B
:1005800031440760006B10DBF2710421FF22E4723A
:100590000F4C0095009300A006984C0900F80698AF
:1005A0004C0900C5981F0021541506986605069849
:1005B000560C00C59C1F002100F806984C090698AF
:1005C0002C0D187006984C090E7006984C09069868
:1005D000EC1006982C0D06982C060698100C00F8C6
:1005E00006984C0910B902BA0698C4070698660521
:1005F00000C59C1F002100F89112033288B903DE68
:1006000044727179A11020D80C710698660506987D
:10061000560C6C7000C3EC1E0021341380DB1A7181
:1006200000C3A8100840A1141034024C481300BCA9
:1006300048139114076448138CBB627B40D8067141
:10064000517900BA076A00C0A00008400698520419
:10065000042008780978041121411810911102D959
:100660000C7200C1681F002106986C0500A0069856
:100670004C0900BD0698A80A10B903DC047100B942
:1006800002BA0698C40704D906710040407281106E
:1006900008D810710698A80A03DC087206981C088E
:1006A000267006988805FFD80C7288B8477800B87D
:1006B00044784470911010D80E7100BB00C46C5087
:1006C00008400698F60720B802A800F800C0EC1E03
:1006D0000021041320DB2071911010D80E710760E7
:1006E000FFD808728CB84478967008DB9272A11318
:1006F00028DB8C7203BD06985A0506982C0D00C5A0
:10070000A01F00210698A80A00BA03DC4272042543
:1007100000C00C51084006981609211400C01400AE
:1007200008400410026804233411112800C130610C
:1007300008401411076180D90C71911108D9067114
:10074000FC23E025F823341106987211412A541530
:10075000212D0698F40A0298E00F911001550335F7
:100760005150011900A000C1641F0021141101D9CA
:10077000167100C0246008400412215107610F3136
:1007800007691152281000A001B8811180D92C717D
:1007900000C10C500840141004302072642114125F
:1007A000EC211410014A07620360803021508C480C
:1007B0000A717F2155211410013000A006984C09C0
:1007C00006982C0D00BD06985A0588B8477800B8E1
:1007D000447800C5A81F002154150698F40A029811
:1007E000E00F06984C0900C4BC1F002144141DB33F
:1007F000315B302C20750698FA0800C06000084074
:100800000410016801D80E7100C06400084023780C
:1008100008B8657806988805FFD8067208B8607829
:1008200000C2000002020698C20700F800B900C02A
:100830009C10084018101C200AB9181000C2600053
:1008400008402410911188BB0D302C710822081229
:10085000FC2204D9147204D804716A7B08D804718C
:100860006C7B2F7A487B107004D804716D7B08D89C
:1008700004716F7B217A507B517B8CB8427800A049
:1008800006984C090698A80A07DC0A7200C59C1F46
:10089000002100F80698100C01B9911004D80471D9
:1008A00000B900C2000002000698C4070040207191
:1008B00000C0EC1E0021041120D91471076101D978
:1008C000E0728110076001D8D8728CB864780698FD
:1008D0002C0600C5AC1F0021541500C01C51084057
:1008E00006981609212D069866050698560C00C52F
:1008F000B01F002100F806984C09811108D90C712D
:1009000006981C0820B802A800F806982C0600BD1E
:1009100006985A0588B8477800B8447800C5B41FCF
:10092000002154150298E00FB110076001D80A7138
:1009300008B87F78020C7E7806984C0901F891106F
:1009400010D846710698AE0D0698D00D0698880E00
:1009500000C51C510840541100C5305008405412C5
:10096000E82554151159112D06760122212D00C1BB
:10097000F81E00211411112DD07518B875788CB897
:10098000447801B802A800F8B110076810D8307197
:1009900000C04810084000C3000008403114602423
:1009A000282444113411076101D9FA714412281026
:1009B000076228100762281007622810E870029862
:1009C000540D0C700698C40A11380472076A00BBF3
:1009D00000C1FC1E002100C4405108401411203900
:1009E0001672417B007C00C46C50084000C20000BD
:1009F0000101281400A00698100800C2EC1E002176
:100A0000241240DA0672617B007C88BA527A00A018
:100A100088BA727A811204DAFC7200A088B86B7806
:100A200000C0640008402F7800A0B11001D8047203
:100A300000A000C0287008400411108800C10018F0
:100A400000401810442004111088A82004111088B8
:100A50004CBA757A18103DB11088F4B84278442029
:100A60007278D8207378E82073784FB200C4FFFF03
:100A70008080413A4FAA01BC01644113076300C062
:100A80006C70084003B918100110011001B918105A
:100A9000011001100110011098200411076101B824
:100AA0000160003A0471044904D90472415207609C
:100AB000003A0471084908D9047231520460003BBD
:100AC0000E7200630064314241424FAAB2704FAAD5
:100AD00044B801685378F8B85378402052780091B0
:100AE0003DA9009100C014700840181000915820D2
:100AF00018100091BC20181000A04024066400C00B
:100B0000FFFF0000013C1DB002200158402806757F
:100B10001EAC01EC00A000C21850084024111DB406
:100B2000111324113051F871066C4024041001583F
:100B3000112800C3901F002134110698721100B8CB
:100B40008020013A0662215A412A00A0009000C686
:100B5000C01F0021008801B007680F305CB111137D
:100B60000F330111C0480698AE0A06980A0800C45F
:100B70005C1F002103DD167214BA281400C20001A4
:100B80000840317A9C22CC22207A00A009DDEE7147
:100B900000BA03DF1E71004B06722814311953B0DE
:100BA00080BB006B30380A7109DD06710298100FA6
:100BB00000A04413281441150698C40A0060B830F8
:100BC00000C4E010084044120762013221400824AA
:100BD000287CF8255412F03240DE0472404804DBD1
:100BE00008720DDD0C72044BEF30144806987C0936
:100BF0000088811140D91E72B1123032CF4A21389B
:100C0000B1D8127208D8067104D80A719C24D42471
:100C1000237C347098244412FF32C322047580B8B8
:100C2000D82481D8247140D90472237C084B04BA9B
:100C300080DC067180D8367206B904A901D82E72FC
:100C400064242824307C4E7008D80C7107BA24D84C
:100C5000047106BA187004D80C7101BA40D80E712C
:100C600002BA0A7005BA20D8047203BAE02444110B
:100C7000402418140761181491111831114200C151
:100C800000600840141110D90471404A203111420B
:100C90002814081400903088024806981C0F00930E
:100CA00008DB047100F800A05CB00F3000A01088D1
:100CB000B111076980D90A7100C18000084008118C
:100CC000009100A000C400010840441000A000C032
:100CD00020300E40041104101050F47200A000C027
:100CE00028400E400413315107610C31076911533C
:100CF000381000A00698240C00C0F41F0021041135
:100D00000698DE0A217A237A00C3000010000698B4
:100D10001E0B00C0701F00211DB1181000A051143F
:100D200000C0B81F00210410012C0A7500B826A8C5
:100D30000698FA0800C06C1F00211DB1181028B0D9
:100D400010B9115911380EB9114028A880B800C146
:100D500044300840081100C1F01F00211410303B3E
:100D600006710760076000C4083008404411115044
:100D7000FF30015118146FB8076826A8217A050CB6
:100D800021102020267800C063EF0000314026A803
:100D9000050C20EC247A20EC217A184826A828B0EB
:100DA0000AB901510F31115028A8050C207A20EC06
:100DB0000F0C98B846784178B11080D83E7100C0C9
:100DC0004C30084000C16D01000018100D0E0D0ED2
:100DD00000C07030084004113031127108202578AD
:100DE0002478960CF82004113031F272DC2000C116
:100DF00006000000181000B918100698CE0A00C2AC
:100E0000601F002124100151FF311150081200A071
:100E10000698240C00B826A800C0741F00211DB13C
:100E2000181000A030B840780DB101D9FC7242789A
:100E300000C074300E4004114CBA407A1810EC20F7
:100E400004115C7A1810A4BB707B4E7B4F7B00C2F0
:100E50000430084000A00698240C217A227A00C0B1
:100E6000801F00211DB1181000BB06981E0BA4BBEB
:100E700000C040300E400411033101492872B11204
:100E8000076207623020041121510F3118726E7B06
:100E90006F7BF02004114CBA7C7A181014200411D6
:100EA000607A1810B11002D81071707B30B8627877
:100EB00060780DB001D8FC7108B86E780EB84EB1EC
:100EC00010D90C723EA8140C0FB83EA8107044A89C
:100ED000140C01B800C1AC300E40081100C077807E
:100EE0001F003DB201423DAA00C0FFFFFFFC013AD6
:100EF0003DAA140C00C077E01F0001423DAA51B882
:100F000001687D7808B87E780698100806982A0847
:100F100006980A0851140698FA08F4B845780A0C9D
:100F200000C07C1F00211DB1181000A051B801683D
:100F30005D7800C00000000344A83EA800C1AC30AA
:100F40000E40081110B807683DB101393DA908B835
:100F50006F7800A001F8541000DC1271011406989B
:100F6000FA0818B8707800B8417800F80298700D47
:100F70000698AE0D008800C5601F0021541551125F
:100F8000FF350762FF320698CE0A015951290475D0
:100F900011590090212912750698D00D0698880ED7
:100FA00003D80472FF0FCE7018B8727800F800C032
:100FB000F41F0021041001D8147150BD0698E60EEC
:100FC00000C3086208402C7B287B00BB1DB400A036
:100FD00001D8047200A00698FA081DB4282440889D
:100FE00000C00470084004108020FF300672029890
:100FF000820E00DF0672011316703111016B115958
:10100000112B016300C1FF070000113B012B00C041
:101010008801000001583128087605B86EBD287097
:10102000E820087605B8C8BD1E70DCBDDC20067659
:1010300006B81470F020067607B80C70E820067623
:1010400008B8047009B800C10062084014120762B1
:1010500001DA187110DA08720698E60E2670082177
:101060002C79287950BD0698E60E0768036800C100
:101070002C60084000C2FF0FFFFF1414213C014404
:10108000481101B8009400A002D8047200A006988C
:10109000FA081DB42824408800C0047008400410D9
:1010A000FF3080DC3C7106989411015900C2EC1F9E
:1010B0000021241550452A715412211006989411CC
:1010C00011280A75042554155045EE7200C01C60A5
:1010D00008447FB906611810113A48B97979281087
:1010E00002B8009400A000C4786008404412215562
:1010F000FF355152281400A0EBBA00C05C1F00213C
:101100000411113A10D9067118B97479281000A089
:101110000698EC1011510698DE0A00B8B111076963
:1011200040D906720298CA0F00BC08D94071202429
:1011300000C160600840111200DC0C71A022241272
:1011400010DA10710C70BC222412076204DA0471E8
:101150000421141200C180000840320C28110762DB
:10116000281107622811076228114B0C00C1541F77
:101170000021141200DC1C7120D8087101B80698F7
:10118000D40FF0DA0C720CDB087102B80698D40F99
:10119000482400C380000840FFB801200421141136
:1011A00011410871014118130824014200C138306F
:1011B00008401411014100C00060084004103030A4
:1011C0000168014118132813481300B800C1541FC7
:1011D0000021141203682150F0300152281100A0A0
:1011E00064BC066C415C512C0698FA08508806983D
:1011F000F8030095B110076820D8207108B8657809
:10120000911004D8087206981C0800F888B86E7807
:1012100000C064000840217800F808B86C7820B855
:101220005A7859785B7800C0F4400840787879782B
:1012300000C0E81F0021041040A846A84EB010D8F6
:1012400044724DB100C09FFFFFFF113840B102D979
:101250000A72604804BB41540870204802BB02BCBB
:101260004DA8F8B87078190C3EB141413EA9F4B9C7
:1012700073797378717800C4F840084000C2004167
:101280000840227000C20000010044AA230C00C2E2
:1012900000000B0044AA00C41041084000C21841DD
:1012A000084004BB587C050C597C0C240F0C2FAB58
:1012B000050CB11008D81471647A657A1CB8797875
:1012C0007B7820B879787B78607CF42441135114C2
:1012D0000698FA08727B53B80168050C687840ECF0
:1012E00000C0781F00211DB1181000F8015053A84C
:1012F00000C0B860084004110761076180D904721A
:1013000040EC00C4F84008404EB010D804711824D6
:1013100041130C23527C407B01502FA8050C797C93
:101320000A0C00C0000001020814787C050C507CF7
:1013300008B86D7800A0115910D9067107600760D0
:1013400008D90471076004D90471036002D90471DB
:10135000016001D90471006000A0108804110230FE
:1013600006710761076100C0FFFF0000113800919E
:1013700000A000C2FFFF00002138213900BA01D8C7
:1013800006710148112A0069006001D8F67201381F
:10139000F67200A08020FF30FF48812000A00000EE
:1013A000680400000028012803280018002A012AE8
:1013B0000118052A022900000200000305000209A5
:1013C00000012A000A010A004008002005000A075F
:1013D00000002A00020000182000040084550020AC
:1013E0000500200300052A00020001180000010882
:1013F000FFFF0000E813000002000108FFFF0000EB
:10140000E013000007000008FFFF0001D8130000F0
:1014100008000708FFFF00030200000000000108A9
:10142000FFFF0000D413000002000108FFFF0000CE
:10143000CC13000004000308FFFF0001C4130000E8
:1014400002000108FFFF0000BC13000005000108B6
:10145000FFFF0000B813000003000700EC130000BA
:101460000900000009000000A413000000000000B3
:10147000E65002000200000058140000E75002008D
:10148000000000004655020000000000FFFFFFFFC3
:1014900040787D0100000000005A62020001000057
:1014A000C0CF6A0002000000809FD500020100004A
:1014B000406F400102020000010000000000000037
:1014C000040000000100000008000000010000000E
:1014D00010000000010000000001000001000000F9
:1014E000000800001D000000000200001D000000B8
:1014F000000400001D000000000001001D000000AD
:10150000050000000000000000C20100000500000E
:1015100000100000000000000000000000000000BB
:10152000000000000000000000000000000010307B
:101530000000000000000000000000000000100398
:101540000000000000000000000000000700000391
:10155000050000000000000040420F0005010000EF
:101560000000000000000000000108070F000A0052
:10157000C8002000A00001000100000005000000DC
:10158000000000000000000000000000000000005B
:10159000A00068010A200706020A040700000000F4
:1015A0000002070000000000000000000802000028
:1015B0001020002078206400000000005C1400006F
:1015C000000000000000000000000000000000001B
:1015D0000000000000000000000000000200000009
:1015E000006A180006010C00000006010D00000052
:1015F000200100006BAF00002004000171AF00006B
:10160000200100027BAF0000200000039FAF00001C
:10161000000000000000000020010B025BB9000088
:10162000000000000000000020022100DFC30000D5
:101630002001210105C4000000000000000000009E
:1016400020000D00A3BB000020000D0131BC0000F4
:1016500020030D024BBC000020020D038FBC0000D4
:1016600020020D04E1BC00000000000000000000AA
:1016700020020900FFB40000200109012DB500007F
:101680002002090243B500002005090391B50000BE
:1016900020060904A9B5000020040905B9B6000018
:1016A00020030906CDB6000020030907D3B50000CA
:1016B0002006090817B60000200409095DB60000DD
:1016C0002004090A71B600002006090B8FB600003D
:1016D0002002090CA3B600002001090D5BB8000030
:1016E0002003090EE1B600002004090FF5B6000042
:1016F0002005091067B500002002091145B6000059
:1017000020070912EFB5000020060913ABB800004E
:10171000000000000000000020040A0017B70000CD
:1017200020020A0145B7000020050A02CBB70000DD
:1017300020050A03E5B7000020040A041FB80000D2
:1017400020040A0533B8000020030A0695B70000FC
:1017500020040A076FB8000020080A0893B80000A8
:10176000000000000000000020060C0095BA0000F8
:1017700020000C0BD9BA0000200A0C0CAFBA0000F4
:1017800020010C0D01BB0000000000000000000063
:1017900020090800FBB300002001080129B4000063
:1017A000200208023DB40000200208037FB40000BC
:1017B00020010804C9B4000000000000000000007F
:1017C00020070300ABB20000200203017FB100003C
:1017D00020010302EDB200002000030301B300006A
:1017E0002005030413B30000200803056BB30000B9
:1017F0002005030653B300002002030715B20000C2
:101800002001030859B200002001030989B3000038
:101810002006030AA9B100002007030B31B3000022
:101820002003030C2FB200002002030D9DB3000023
:10183000000000000000000020010F0019C200009D
:1018400020020F0165C2000020020F0237C3000012
:1018500020010F0405C2000020010F0637C200005E
:1018600020000F0753C2000020050F0893C200009C
:1018700020020F09BFC2000020010F0AD3C20000DE
:1018800020000F0BEFC1000020020F0E59C3000013
:1018900020000F0F6DC3000020040F10ABC200002A
:1018A00020010F11FFC2000020010F12E9C2000049
:1018B000000000000000000020000100DDB000007A
:1018C00020010101F5B0000020000103E9AF000094
:1018D0002006010421B000002002010AC7B0000068
:1018E0002001010B5BB000002001010C9FB0000043
:1018F0002002010D3BB000002002010E2DB10000BE
:10190000000000000000000020040E00CDBD00001B
:1019100020020E01AFBE000020000E02EBBE000050
:1019200020020E0775BF000020040E0C99C00000B5
:1019300000000000000000000000000001000200A4
:1019400015005400A9005301A7024F059F0A00008B
:10195000FC00D80A066CFBFF9D00370518E2FEFF6D
:1019600075000403F5E3FFFF4900B9019D43000042
:1019700035005701F85700001600D10058570000F5
:101980000E007C00D049000008004B002839000000
:10199000F8006C0B78DEFAFF9F00F1044EEAFEFFC0
:1019A0007500DF0248DEFFFF4C00C3018D330000ED
:1019B00024001901E44B00001300AC00904A000021
:1019C0000C006C00B13F00000700430046320000ED
:1019D000C800FCFE90190000C800FCFE5019000071
:1019E00083FFBFFFE2FFF1FFF9FFFEFF00000000F1
:1019F000FFFF000000000000FC00D2104C06FAFFC0
:101A000081009B05F132FFFF500062020B350000A0
:101A100026004B01885F00001800E0005E5D0000BA
:101A20000E008C006A4F000008005100F73C0000D7
:101A3000F8006D23441FEEFFF800F20E8E37FAFF18
:101A40007B00A40324A7FFFF4E00D601AD340000A5
:101A500025003001004D00001300C000CA4A0000FC
:101A60000B006E00F73C0000060038008A2B0000D7
:101A70009600FCFE301A00008C00FCFEF0190000FD
:101A800083FFBFFFE2FFF1FFF9FFFEFF0000000050
:101A9000010000000400000001000000040000003C
:101AA00000010900000110000000000000280000F3
:101AB00000000000020000000000000000280000FC
:101AC0000000000010000000F4010000FA00000017
:101AD00096000000640000004B000000320000008F
:101AE0001E000000140000000000000001010000C2
:101AF000010100003C0094003C0096000000000042
:101B0000000001020200000000010203000103FFC7
:101B100004FF02FDFE0000000F0E0C080C080D185B
:101B200010000000030100020102030013001D0069
:101B30001200100015000000CDD5000019D60000DD
:101B400025D6000000000000349E000000000000C8
:101B50001711000000002800000000000000000035
:101B60000000000000000000809C2B8F80841E007D
:101B7000000025002500B400480F002000000000F0
:101B8000809C2B8F80841E00000026002600990078
:101B9000480F002000000000809C2B8F80841E00D6
:101BA0000000000024002C01480F0020000000006D
:101BB000809C2B8F80841E000000270027002C01B2
:101BC000480F0020C65C000000000000B80B0000B9
:101BD00000002800000000000000000000000000DD
:101BE00000000000809C2B8F80841E0000002300DA
:101BF0002300B6004C0F002000000000809C2B8FBB
:101C000080841E000000240024009D004C0F002052
:101C100000000000809C2B8F80841E0000002500A7
:101C200025007D004C0F002000000000809C2B8FC1
:101C300080841E0000002600260053004C0F002068
:101C400000000000809C2B8F80841E00000000009C
:101C500022002C014C0F002000000000809C2B8FE4
:101C600080841E000000270027002C014C0F00205C
:101C7000FBD9020000000000E71800000000780116
:101C80000000000000000000000000000000000054
:101C9000809C2B8F80841E000000000027008C0099
:101CA000500F0020FBD9020000000000E7180000E0
:101CB00000007801000000000000000000000000AB
:101CC0008C210000809C2B8F80841E00000000006F
:101CD00027008C00580F0020EBBE00000000000021
:101CE000E71800000000780100000000000000007C
:101CF0000000000050210000809C2B8F80841E007B
:101D00000000000027008C00540F0020EBBE0000F4
:101D100000000000E718000000007801000000004B
:101D20000000000000000000C4210000809C2B8FF8
:101D300080841E000000000027008C005C0F002043
:101D40005000400028000100000850002400180046
:101D50000100000490015002780101000040900150
:101D6000AE017801010000106C888391AAF5A538B6
:101D700060370BDB5A6083BE3F49F6D4A3C55F389A
:101D800074C9B3E3D2103F504AFF607BEB40B79970
:101D90005899B8A6CD3C1ABDE69D350E480103CC36
:101DA000DBFDF4AC1191F4EFB9A5F9E9A7832C5E42
:101DB0002CBE97F2D203B0208BD28915D08E1C7422
:101DC0002430ED8FC24563765C15525ABF9A326358
:101DD0006DEB2A65499C80DC0000010001000001D8
:101DE00000010202030002000000000002020100E4
:101DF00002000000000001000100050100050202D0
:101E000003000200000000000205010005000000C0
:101E100000000F400000000000040F40010000001F
:101E2000183F010604100100000101060010270000
:101E3000000C00000000000000000000183F010638
:101E4000041001000001010600102700000C000032
:101E50000000000000000000183F0106041001000F
:101E60000001010600102700000C00000000000027
:101E700000000000183F01060410010000010106E7
:101E800000102700000C000000000000000000000F
:101E9000183F010604100100000101060010270090
:101EA000000C00000000000000000000183F0106C8
:101EB000041001000001010600102700000C0000C2
:101EC0000000000000000000020000001CC77100BC
:101ED00000000000201E0000481B00000000000061
:101EE00002000000388EE300000000003C1E0000ED
:101EF000C41B000000000000020000000000800081
:101F000000000000581E0000701C000000000000CF
:101F1000020000000000800000000000741E0000AD
:101F2000D81C00000000000002000000000080003B
:101F300000000000901E0000A41C00000000000033
:101F4000020000000000800000000000AC1E000045
:101F50000C1D000000000000F01F03013F003700CF
:101F600000000000F81E00000400020001810100D2
:101F70000001000018000200000000000100000045
:101F80002800070000000000000000000000000022
:101F90001000000000000000605100202007000039
:101FA0004800010000040000540002000D0F000072
:101FB00001010000A000040003C00100FF4C00006C
:101FC00001490000FF4D000000200100080700004B
:101FD00010200100AAAAAA00182001000060DA005F
:101FE0000830010013AC000130300200F93D100050
:101FF000010000004030010000000000A04001008E
:102000007A27000FB840010000C08300F4400100AF
:10201000201000003441020080080000E687000024
:1020200040410200E9008800C0E6524D60410400D2
:102030000000000000000000060000000600000094
:102040001460080010000000300000461F08040063
:10205000C820001000500A0000000003000000002B
:10206000000000005060060018000500000A000093
:102070000A00800011000A0029417671000000006A
:1020800078600C000F040000000000001400120033
:102090005B948C1B0000000001040B192C404C5970
:1020A000605B534736251B114AF338966745231268
:1020B00011090000E46007008208BA8C00000000EB
:1020C00064048207AC0DCB0C90200600F9541C0070
:1020D00082940AC704610300C7EF1100A01B00002F
:1020E0000A88000020610100FFDF00003061080065
:1020F0004CD4E83304196F00080E141A20262C3231
:10210000383E10325476980A1D5F0000010000002E
:1021100014700700F8700200000300006000A5833F
:10212000000000008200000000008001D5000000D7
:10213000487002003C3D0000BC19000070700300B4
:10214000060102000F9C030006E04900FFFFFFFFAD
:10215000F01F03013F00370000000000101F0000C7
:102160002800070000000000000000000000000040
:102170001000000000000000605100202017000047
:102180004800010001040000FFFFFFFFF01F0301F2
:102190003F00370000000000281F000030610800E9
:1021A0004CD4E83B04196F00080E141A20262C3278
:1021B000383E10325476980A1D5F0000010000007E
:1021C000FFFFFFFFF01F03013F003700000000008A
:1021D000401F000028000700000000000000000071
:1021E000000000001000000000000000605100200E
:1021F00020170000480001000104000030610800C1
:102200004CD4E83B04196F00080E141A20262C3217
:10221000383E10325476980A1D5F0000010000001D
:10222000FFFFFFFFF01F03013F0037000000000029
:10223000C81E00000400020001810100000100002E
:102240001800020000000000010000002800070044
:10225000000000000000000000000000000000007E
:102260000000000000000000A0070000480001007E
:102270000000000054000200000000000000000008
:10228000A000040001480000FF4C000001490000CC
:10229000FF4D000000200100080700001020010091
:1022A000AAAAAA00182001000060DA000830010084
:1022B00013AC000130300200E338100001000000D0
:1022C0004030010000000000A04001007A27000F0C
:1022D000B840010000C08300F4400100201000005D
:1022E0003441020080080000E687000040410200FF
:1022F0006D008800C0E6524D6041040000000000FF
:102300000000000006000000060000001460080045
:1023100010000000000000C61FC00100C8500000EF
:10232000008000000000000300000000000000002A
:102330005060060018000500410C00000800000075
:1023400091000400294176710000000078600C00C3
:102350008C000C000000000014001A0000000000B7
:102360000000000001040B192C404C59605B5347DE
:1023700036251B114AF338966745231211090000D0
:10238000E46007008F0846CB0000000023086404C7
:10239000D007CB4891200600F9541C008294EA87AC
:1023A0000461030051551100B01B000089BB0000FF
:1023B00020610100FFDF000030610800E853FA00EF
:1023C000000000000000000000000000000000000D
:1023D0000000000000000000010000001470070071
:1023E000F8700200000300006000A58300000000F8
:1023F0008200000000008001D5000000487002004B
:102400003C3D0000BC190000707003000541000055
:102410000F9C030006E04900FFFFFFFFFFFFFFFFE7
:10242000F01F03013F00370000000000E01E000025
:1024300004000200018101000001000018000200F8
:10244000000000000100000028000700000000005C
:10245000000000000000000000000000000000007C
:1024600000000000A007000048000100000000007C
:10247000540002000000000000000000A000040062
:1024800001480000FF4C000001490000FF4D000022
:10249000002001000807000010200100AAAAAA00DD
:1024A000182001000060DA000830010013AC0001C0
:1024B00030300200114910000100000040300100DE
:1024C00000000000A04001007A27000FB840010082
:1024D00000C0E300F440010020100000344102007D
:1024E00080080000E687000040410200EA00880002
:1024F000C0E6524D604104000000000000000000F2
:102500000600000006000000146008001000000033
:10251000000000C61FC00000C850000000D03200FC
:1025200000000003000000000000000050600600F2
:10253000FC006900410C00000000000011000800D0
:10254000294176710000000078600C00080400004A
:1025500000000000BE031A000000000000000000A0
:1025600001040C1A2F46536168625849352014073C
:10257000C491A0635644332322529224E46007009E
:102580008108A1CB00000000198407059411CB48F5
:1025900099200600016120008294EA87046103000B
:1025A00065B611001E37000089BB000020610100E4
:1025B000FFDF000030610800E853FA00000000006F
:1025C000000000000000000000000000000000000B
:1025D000000000000100000014700700F872020003
:1025E000000300006000278400000000820000005B
:1025F00000008001D5000000487002003C3D000052
:10260000BC19000070700300C30000000F9C0300A1
:1026100006E04900FFFFFFFFFFFFFFFFFFFFFFFF97
:10262000FFFFFFFFFFFFFFFF0000000000000000B2
:102630000000000001000000FFFFFFFF4B60D227F9
:102640003E3CCE3BF6B053CCB0061D65BC869876BA
:1026500055BDEBB3E7933AAAD835C65A96C298D877
:102660004539A1F4A033EB2D817D0377F240A463BB
:10267000E5E6BCF847422CE1F2D1176BF551BF37C4
:102680006840B6CBCE5E316B5733CE2B169E0F7C97
:102690004AEBE78E9B7F1AFEE242E34F512563FC33
:1026A000C2CAB9F3849E17A7ADFAE6BCFFFFFFFFCD
:1026B000FFFFFFFF00000000FFFFFFFF4145532D1C
:1026C0003132382D454342004145532D3139322DA9
:1026D000454342004145532D3235362D4543420096
:1026E0004145532D3132382D435452004145532D2D
:1026F0003139322D435452004145532D3235362D58
:102700004354520002000000F7600200FB60020028
:1027100017610200136102001B61020035610200B3
:102720000201000080000000BC2600001000000034
:10273000000000001000000004270000030100005A
:10274000C0000000C82600001000000000000000CB
:102750001000000004270000040100000001000038
:10276000D42600001000000000000000100000004F
:10277000042700000B05000080000000E026000098
:1027800010000000000000001000000004270000FE
:102790000C050000C0000000EC2600001000000046
:1027A0000000000010000000042700000D050000DC
:1027B00000010000F82600001000000000000000EA
:1027C0001000000004270000020000002027000085
:1027D000030000003C270000040000005827000010
:1027E0000B000000742700000C0000009027000080
:1027F0000D000000AC2700000000000000000000F9
:102800008B0013EB401313F184431A6070470200EE
:10281000880010EB421010F184400068704710F1FE
:10282000C0621160704710F180621160704770B52E
:1028300004000D00160029002000FFF7F4FF31000E
:102840002000FFF7ECFF70BD202801D2012100E03D
:102850000021C9B2012111FA00F0704780B51221A0
:10286000DFF83406FFF7D3FF0028F8D101BD80B5AB
:10287000FFF7F4FFDFF820060068000C10F00300FB
:1028800002BD70B5040001200500DFF81006844287
:1028900004D2002005000020060008E0DFF8000652
:1028A000844202D20120060001E0022006002A0034
:1028B0001021DFF8F005FFF7A3FFDFF8EC05006853
:1028C00030F0807050EA0660DFF8DC15086070BDFB
:1028D000DFF8D81509680800704710B501F0B2F8A4
:1028E0000400DFF8C4050068C0F30420401C00FBAE
:1028F00004F010BD38B5DFF8B80500F0DFFA0500C8
:10290000EDB22800072805D0092807D101F09AF870
:10291000040005E0FFF7DCFF040001E000200400F4
:10292000200032BD70B50400002C0FD1DFF8FC068A
:1029300000F0C4FA0600F6B23000012808D00428DE
:102940000DD0072807D008280DD010E0002011E096
:10295000002005000DE0FFF7BBFF050009E001F0D6
:1029600093F8050005E0FFF7B8FF050001E000203F
:102970000500280070BD70B4DFF8B4462468002C50
:1029800001D0012300E0002341F67134DFF8A056A6
:102990002C60DFF82045246814F0407422000025E4
:1029A0002C00052C10D2DFF8105505EBC4052D794D
:1029B0000E00F6B2B54205D1DFF8FC5455F834509C
:1029C000854201D2641CECE7052C02D103252A00C4
:1029D00005E0DFF8E45405EBC4056D792A00120622
:1029E000DFF8D0542D6835F040751543DFF8C46426
:1029F0003560DBB2002B03D00025DFF8346635608C
:102A000070BC704780B501F01BF80021FFF7B3FFE1
:102A100001BD38B504000D0029002000FFF7ABFF11
:102A200031BD01000F22CB1C934201D2C81C00E033
:102A3000100000077047DFF8FC050068C0F30110C4
:102A40007047DFF8F015096831F0300151EA0011E4
:102A5000DFF8E02511607047F8B50400002620007B
:102A6000DFF8D415884207D0DFF8D015884203D0AC
:102A7000DFF8CC15884200D1FFE7200000F01EFAF5
:102A800005002000DFF8B015884208D0DFF8AC154B
:102A900088420BD0DFF8A81588420ED014E0DFF88A
:102AA000A405006810F0070005000DE0DFF89805A8
:102AB000006810F00700050006E0DFF890050068E8
:102AC00010F007000500FFE7002D27D0022D0AD0E7
:102AD00005D3042D0BD012D3052D0CD021E000F02E
:102AE000EAFF06001FE000F0ECFF06001BE000F02C
:102AF000E5FF060017E000F0DEFF060013E000F03F
:102B00008FFF0700DFF8A0030068C0F30060401CDF
:102B1000FFF79AFEB7FBF0F0060004E00020060085
:102B200001E0002006003000F2BDDFF8241509683E
:102B3000C90704D4DFF81C1509680142FAD17047AF
:102B400010B50400200000F016F9401C10BD2DE95E
:102B5000F04104000D005FF00008200A10F00F00A3
:102B600001280CD0022812D005280CD0062812D03B
:102B7000072816D009281AD00A281FD022E0DFF82B
:102B8000240306001FE0DFF8280706001BE0DFF83B
:102B90002407060017E0DFF8200706000120804622
:102BA00011E0DFF818070600102080460BE0DFF880
:102BB000100706005FF48030804604E0DFF8040769
:102BC000060000E00EE0C4F304300700B8F1000F87
:102BD00002D04046FFF7A9FFEDB22A0039003000CD
:102BE000FFF70EFEBDE8F08138B5040014F478104C
:102BF000002831D0B0F5003F42D0B0F5802F2FD063
:102C0000B0F5002F38D0B0F5202F45D0B0F5402FCB
:102C100000F0A080B0F5602F00F0A080B0F5901F0C
:102C20004CD0B0F5A01F4FD0B0F5B01F6DD0B0F5AF
:102C3000D01F3DD0B0F5E01F61D0B0F5001F00F00F
:102C40008380B0F5281F4ED0B0F5301F6CD0B0F5A2
:102C5000381F00F087808AE000F0F4FE050088E06D
:102C600000F0F0FE0500DFF860060068C0F3082001
:102C7000401CB5FBF0F57CE000F0E4FE050078E0D8
:102C800000F0E0FE0500DFF844060068C0F308200D
:102C9000401CB5FBF0F56CE000F0D4FE0500DFF859
:102CA00030060068C0F30420401CB5FBF0F560E07E
:102CB000DFF88403FFF7D0FE05005AE0DFF8800359
:102CC000FFF7CAFE050054E0DFF86C03FFF7C4FE0F
:102CD0000500DFF80006006810F00F00FFF7B4FDF4
:102CE000B5FBF0F545E0DFF85003FFF7B5FE050052
:102CF000DFF8E0050068C0F30110C54039E0DFF8F7
:102D00003C03FFF7A9FE050033E0DFF83003FFF7CF
:102D1000A3FE0500DFF8C0050068C0F30110FFF74F
:102D200093FDB5FBF0F524E0DFF81003FFF794FE08
:102D30000500DFF8A4050068C0F30120001DFFF7BF
:102D400083FDB5FBF0F514E0DFF8F402FFF784FE35
:102D500005000EE0FFF7CEFD05000AE0FFF7B8FD25
:102D6000050006E00020FFF7DDFD050001E0002082
:102D70000500280032BD70B50400C4F3031005003F
:102D8000012D0DD0C0F08380032D17D00FD3052D5A
:102D900022D01AD3072D4BD025D3082D6DD076E045
:102DA000DFF804010068C0F30420060071E0DFF8DA
:102DB00020050068C0F3042006006AE0DFF8E800A0
:102DC0000068C0F30060060063E0DFF8FC04006800
:102DD000C0F3082006005CE0DFF8F0040068C0F3F0
:102DE0000820060055E02000DFF89415884204D042
:102DF000DFF8901588420CD017E0DFF8D80400689F
:102E000010F00F0006003000FFF71EFD401E060008
:102E10000DE0DFF8C0040068C0F3011006003000C8
:102E2000FFF712FD401E060001E00020060030E022
:102E30002000DFF85415884204D0DFF8501588428E
:102E40000CD017E0DFF890040068C0F30110060012
:102E50003000FFF7F9FC401E06000DE0DFF87804B3
:102E60000068C0F301200600301DFFF7EDFC401E96
:102E7000060001E0002006000BE0DFF89406844223
:102E800002D10020060001E00020060001E0002041
:102E90000600300070BD000004300E400148E8011B
:102EA0000190D00300400E4000410E402C0800204D
:102EB00006000C0004000E409014000001000120E8
:102EC00011F00F031A001300012B0BD0022B21D09D
:102ED000032B3BD0052B59D0062B73D0082B00F0C9
:102EE00083809EE0DFF8A4381B6813F00703022BF1
:102EF0000AD00CD3042B01D003D308E0022318001E
:102F000007E00323180004E00423180001E0052370
:102F1000180088E04B4B1B6813F00703012B06D009
:102F2000022B07D0042B08D0052B09D00BE003237C
:102F300018000AE00223180007E00A23180004E042
:102F40000B23180001E0012318006CE03E4B1B68C6
:102F500013F00703012B07D015D3032B0DD006D395
:102F6000052B0DD006D30EE0032318000DE002233D
:102F700018000AE00A23180007E00623180004E0FE
:102F80000B23180001E0012318004CE02F4B1B68B5
:102F900013F00703012B06D0022B07D0042B08D017
:102FA000052B09D00BE0032318000AE002231800C8
:102FB00007E00A23180004E00B23180001E00123B6
:102FC000180030E0DFF814381B6813F00103002B01
:102FD00004D0012B05D10923180004E007231800B1
:102FE00001E0012318001EE0DFF884391B6813F0AC
:102FF0003003002B06D0102B07D0202B08D0302B0D
:1030000009D00BE0012318000AE00723180007E0AD
:103010000423180004E00823180001E0012318002D
:1030200001E000231800C0B27047000098002E0095
:1030300040000E4024400E4002001A0003001C0015
:103040000500200080400E4084400E4088400E4025
:1030500044410E4040410E402DE9F84F04000D0060
:10306000032603275FF0000B5FF0000A112C19D133
:10307000EDB2042D03D100F007FD82460BE0EDB266
:10308000052D08D100F077F9DFF8A418884202D3A3
:1030900000F071F98246BAF1000F03D000215046CA
:1030A00000F0A4FE14F00F008146484601280CD021
:1030B00002285DD0032875D0052866D0062800F0C8
:1030C000B480082800F0C480EFE0EDB228000228A8
:1030D00008D003280BD004280ED0052815D00A28C4
:1030E0001CD01CE0042006000020070018E003208C
:1030F00006000120070013E002200600022007005E
:10310000DFF87008FFF7BDFB0AE00120060003208E
:103110000700DFF86008FFF7B4FB01E0C5E0C4E09A
:10312000012201213800C0B200F079FAFFF76AFCF1
:10313000BAF1000F01D0FFF791FBDFF83C08066001
:10314000DFF8D003FFF750FDFFF79BFB00F068FCB2
:103150000090FFF78CFB0100C9B20098FFF759FC03
:10316000BAF1000F03D10121002000F03FFE9CE0E6
:10317000BBF1000F02D1DFF804B8FFE7EDB2062D76
:1031800001D0012000E00020C0B2BBF1000F02D14D
:10319000DFF8ECB7FFE7EDB2062D01D0012000E02B
:1031A0000020C0B2BBF1000F02D1DFF8D8B7FFE7B3
:1031B000EDB2280001280AD002280BD0032811D034
:1031C000062817D00A2821D00B2822D029E0002079
:1031D000804627E001220121002000F020FA022091
:1031E00080461FE001220121012000F018FA012091
:1031F000804617E000F014FCFFF743FB0122022198
:103200002B48FFF7FDFA032080460BE004208046A0
:1032100008E001220121062000F001FA0520804685
:1032200000E042E0CBF800803FE0EDB22800072844
:1032300002D0092805D009E00020DFF8A0150860B9
:1032400005E00120DFF89415086000E02DE02CE097
:10325000EDB22800012806D004280FD0072805D099
:10326000082813D015E00020804613E00122012138
:10327000042000F0D4F9012080460BE00122012156
:10328000022000F0CCF90220804603E003208046B3
:1032900000E00AE0DFF8D806006830F0300050EABD
:1032A0000810DFF8CC160860FFE7BDE8F18F0000DA
:1032B000B0400E40C0400E40E0400E40E8400E409E
:1032C000F0400E4050410E400C410E4008410E406F
:1032D00014410E4020410E4028410E4001000800DC
:1032E000DFF8C026904224D0DFF8BC26904220D0E0
:1032F000DFF8B82690421CD0DFF8B42690421CD0EC
:10330000DFF8B02690421CD0DFF8AC2690421CD0EB
:10331000DFF8A82690421CD0DFF8A42690421CD0EB
:10332000DFF8A02690421CD0DFF89C2690421CD0EB
:103330001FE0DFF8980600681CE0DFF894060068DC
:1033400018E0DFF89006006814E0DFF88C060068EB
:1033500010E0DFF8880600680CE0DFF884060068FB
:1033600008E0DFF88006006804E0DFF87C0600680B
:1033700000E000207047DFF810060068704700008A
:103380006006140060162A007017160070272C00C3
:10339000F8B504002000FFF7A1FF0700002F04D0BC
:1033A00017F1010F01D0012000E00020C0B2DFF8CA
:1033B000D80500680600DFF8D00504601120FFF78B
:1033C0007DFD052801D1FFF71DFB1821DFF8D00591
:1033D000FFF71DFA0028F8D117F1010F01D00120E5
:1033E00000E00020C0B22000DFF8B815884208D005
:1033F000DFF8B415884208D0DFF8B015884208D04D
:103400000AE0022060F35A6706E0012060F35A6781
:1034100002E037F0C067FFE71120FFF74FFD0528F6
:1034200002D12000FFF72DFAA64203D2012120008D
:1034300000F0DCFCDFF8600507601120FFF73EFDBF
:10344000052821D100F0ECFA0500AC4201D301209F
:1034500000E00020C0B2DFF830050068A84201D3C8
:10346000012000E00020C0B2DFF81C0500688442A3
:1034700001D1012000E00020C0B2FFF7F8F9C0B28E
:1034800001002800FFF7C5FA2248FFF7ADFBFFF760
:10349000F8F9A64203D30121002000F0A7FCF1BDFA
:1034A0002DE9F04104000D00160000200400DFF8B3
:1034B0003C05006854F0405188438046EDB2002D31
:1034C00002D05FF0805000E00020F6B2002E02D063
:1034D0005FF0005100E000212043084350EA080853
:1034E000002C02D1F6B2002E0CD000F0CDFA07006D
:1034F000FFF7BDF9C0B201003800FFF78AFA3800C3
:10350000FFF7BFF9DFF8E404C0F80080BDE8F08100
:10351000800912000025080070B504001120FFF793
:10352000CDFC042801D0012000E00020C0B201221F
:103530000021022000F073F86078002806D1A078FE
:10354000002803D1E07890F0010000E00020C0B234
:103550000025207C012801D0012000E00020C0B21D
:10356000207C022801D101200500DFF880040068DA
:10357000400840002843DFF87414086022780821CE
:10358000DFF86804FFF73CF9A088617A51EAC020AF
:10359000DFF85C140860DFF85C040668207AFFF747
:1035A00040FA16F07F61E28851EAC221A27A114303
:1035B000227A51EAC2110843DFF838140860607BB0
:1035C000A17B090151EA0030E17B0843217B50EAED
:1035D0000140DFF82414086070BD10B5040011200C
:1035E000FFF76CFC022801D0012000E00020C0B2EF
:1035F00000220021002000F012F82078617850EAC3
:10360000C120A17850EA0160E17850EA0122DFF898
:10361000EC13DFF8EC03FFF70AF910BD00002DE909
:10362000F84F04000D001600E4B2200000282ED050
:10363000012823D002280FD0032804D0042814D056
:1036400006282FD039E00120814602208246012041
:1036500007000020804631E0042081460820824691
:10366000032007000220804628E010208146202009
:10367000824605200700042080461FE04020814646
:1036800080208246072007000620804616E04FF47F
:10369000807081464FF400708246092007000820A0
:1036A00080460BE04FF4804081464FF40040824654
:1036B0000F2007000E20804600E063E0EDB2002DF1
:1036C00057D05FF0000BE4B2022C13D1FFF7B3F92F
:1036D00000280FD1DFF82C030068800A10F00100E9
:1036E00001208346DFF804030068C00702D50120EB
:1036F000FFF7A7F9A548C0F800904146A448FFF796
:1037000086F80028F9D0F6B2002E3BD03900A04848
:10371000FFF77DF80028F9D0E4B2022C32D15FFA2D
:103720008BFBBBF1000F2DD0B0480068C00705D55A
:1037300001222021022000F0FDF803E000210220F8
:1037400000F0BDF8022000F023F8009001220021D3
:103750000220FFF764FF0099022000F041F88B4837
:10376000C0F8009039008A48FFF751F8002809D1C5
:10377000F8E78648C0F800A041468548FFF747F8BB
:103780000028F9D1BDE8F18F0000000094400E4000
:103790000100C9B2012906D01DD3032909D014D3D1
:1037A00004290CD017E0984A1268D205D20D1000F7
:1037B00013E0794A126812F07F0210000DE0934A7C
:1037C000126812F07F02100007E0914A1268520559
:1037D000520D100001E000221000704770400E40B2
:1037E00070B504000E00E4B2012C06D066D3032CA1
:1037F0001AD045D3042C2DD060E0B6F5007F01D25D
:10380000012000E00020C0B2F605F60D1A21644840
:10381000FEF7FDFF0028F9D17B480068400A40020E
:1038200030437949086049E0802E01D2012000E050
:103830000020C0B216F07F0618215948FEF7E7FFB6
:103840000028F9D154480068C009C00130435249EA
:10385000086033E0802E01D2012000E00020C0B2D9
:1038600016F07F0619214E48FEF7D1FF0028F9D146
:1038700066480068C009C0013043644908601DE023
:1038800043480068800810F0010090F00100C0B2C9
:103890005648006830F0300050F01000534908607E
:1038A000C6F3C310FFF7BDF8050052480068594938
:1038B0000840304328434F490860FFE770BD70B5AA
:1038C00004000D00E4B2022C01D1012000E0002030
:1038D000C0B2FFF7B0F8002803D15FF44000060043
:1038E00016E0EDB22800002808D0202802D03028A9
:1038F00008D00BE05FF40000060009E05FF4400030
:10390000060005E05FF44000060001E042480600C2
:103910001F4800683040B042FAD1700205D51F48F8
:103920000068800A10F0010000E0012070BD000076
:10393000012D310170B504000D001600E4B2022C17
:1039400014D1EDB2002D06D04FF48060114908600B
:10395000EDB232480560F6B2002E06D02900C9B299
:103960002000C0B2FFF7ABFF01E0FFE7012070BD10
:103970005C410E400148E80174400E4080400E401A
:1039800088400E4084400E403C08002060400E40BD
:1039900090400E40A8400E4010400E40A0400E4007
:1039A00040410E4040420F0080841E0000093D004F
:1039B000C0CF6A00405DC6000024F400C0EA2101C7
:1039C00080BA8C010048E80180D543023082E00FC4
:1039D0003C82E00F4882E00F4C82E00F5082E00F03
:1039E0005882E00F5C82E00F6082E00F24400E40BE
:1039F0002C400E4030400E4034400E407F1B0007EC
:103A000038400E403C300E4020400E4018400E40E2
:103A10009C400E4000F8FF0FFFF3E17F64400E4032
:103A200038B500F00FF804002E480068C0F30820F5
:103A30000500681CB4FBF0F42B480460200032BD84
:103A40002A4870472A49096811F0070102290CD059
:103A50000FD3042901D004D30BE0264909680800DC
:103A60000AE04FF40041080006E023490968080015
:103A700002E022490968080021490968C1F30421CC
:103A8000491CB0FBF1F070471B480068704710B547
:103A90000400194804601648006810F00700022866
:103AA00001D1FFF7BDFF10BD1648006850F470004B
:103AB0001449086070474FF4004070474FF47A7023
:103AC00070470C480068704710B50400094804604E
:103AD0000748006810F00700042801D1FFF7A0FF95
:103AE00010BD000008410E403808002000F04902D7
:103AF00094400E4034080020300800203C0800208C
:103B000000410E4088ED00E080B5FFF789FF01BD60
:103B10008B0013EB401313F184431A6070470200CB
:103B2000880010EB421010F184400068704780B5A7
:103B30001221DFF85808FFF7F2FF0028F8D101BD85
:103B400080B5FFF7F4FFDFF844080068000C10F0C0
:103B5000030002BDDFF8901A08607047DFF88C0A96
:103B6000006870474AF6E850DFF8841A086070472A
:103B70000020DFF81C180860704745F60E00DFF8DB
:103B80001018086070471021D0F1020011FA00F0FF
:103B9000704770B50400E4B2002C17D1DFF8F407C9
:103BA0000068DFF8F41708601120FFF787F9DFF8E5
:103BB000EC170870FFF7BBFFDFF8D0070068000CB8
:103BC00010F00300DFF8D817087059E0DFF8D007CD
:103BD0000078FFF7D8FFDFF8CC170860DFF8B007F0
:103BE000006810F001000600FFF7C7FF0020050085
:103BF000DFF8A407007810F001000543DFF898070C
:103C00000078C00601D5102000E000200543DFF851
:103C100088070078400601D5402000E000200543D9
:103C2000DFF874070078400701D5042000E0002089
:103C30000543DFF864070068C00502D54FF48070C3
:103C400000E000200543DFF8A40A0560FFF76FFFDE
:103C5000DFF848070078052805D0DFF8400701782D
:103C60001120FFF7F9F9DFF830070078C00703D417
:103C70000220DFF8781A0860002E01D0FFF778FFE5
:103C800070BDF8B5DFF86C090068000A10F0030594
:103C9000DFF8F8060068000C10F00306FFF747FF96
:103CA00030002900C0B2C9B2884219D2EDB2022D4B
:103CB00016D11120FEF744FF07001120FEF794FFF4
:103CC00000FB07F00400DFF8D809844203D3DFF8D3
:103CD000200AFFF75DFB05211120FFF7BDF9FFE783
:103CE000F1BD10B50400E4B2002C02D00020FFF7B3
:103CF00050FFFFF7C6FFDFF8FC09006850F0040032
:103D0000DFF8F019086030BFE4B2002C03D00120C6
:103D1000FFF73FFF01E0FFF7F7FE10BD38B50400E5
:103D2000E4B2002C02D00020FFF733FFFFF7A9FF19
:103D3000DFF85C06006810F001000500FFF71DFFCA
:103D40004FF42070DFF8A4190860002D01D0FFF7B0
:103D50000FFFDFF8A009006850F00400DFF89419A5
:103D6000086030BFE4B2002C03D00120FFF711FF40
:103D700001E0FFF7C9FE31BD80B50020FFF709FF64
:103D800001BD80B50120FFF704FF01BDF8B5DFF8E4
:103D90006809006830F4403050F40035DFF8580905
:103DA000006850F44036FFF7DDFEDFF84C0900688C
:103DB000C0070BD4DFF84409006810F00307012F97
:103DC00001D0022F02D1002000F0D9F90020040018
:103DD000042C07DADFF820090560DFF81C0906600B
:103DE000641CF5E7DFF810090560F1BDF8B50400C3
:103DF0000D00DFF80C090068C0F30420471C002CFC
:103E000004D1FFF71FFE7843060000E02600DFF82C
:103E1000F4080078002809D0DFF8EC08864205D2C3
:103E20002900C9B2022000F007F804E02900C9B255
:103E3000002000F001F8F1BD2DE9F84304000D0069
:103E4000DFF8BC080068C0F30420471CFFF7FAFD48
:103E50008046FFF775FE814648462100C0B2C9B2D0
:103E6000884224D007FB08F00600E4B2022C0BD1F4
:103E7000DFF82C08864201D2012000E00020C0B209
:103E800002214046FEF7C5FD2000C0B2FFF77BFED1
:103E9000DFF810150860E4B2002C03D10021404681
:103EA000FEF7B7FDEDB2002D01D0FFF740FEBDE8F3
:103EB000F18310B504002078DFF84818087001215C
:103EC0000020FFF793FF10BDDFF82817096831F4D1
:103ED0004071427851EA0221DFF8182711607047DB
:103EE0000120704710B5DFF82408006850F080709A
:103EF000DFF8181808600021DFF81408FFF70FFE3C
:103F00000400002C03D0042000F0CCFB02E00020D1
:103F100000F0C8FB10BDF0B401242505DFF8F06700
:103F20003668C6F303263200DFF8E8673688DFF824
:103F3000E4773F8828377F08BE192836571C5FF082
:103F4000050C0CFB07F7B6FBF7F6761E30000728CA
:103F500000D30720000630F0E066002E01D10126D4
:103F600000E00026F6B235F4E006002E01D101266D
:103F700000E00026F6B2DFF89867366836F0EE66A5
:103F800006432E43DFF888773E60DFF88C67B6F98A
:103F90000060002E29D4DFF88067368833009BB29A
:103FA00013F12806760816FA83F62836571C12F104
:103FB000010C5FEA5C0C1CEB4707B6FBF7F631001F
:103FC000072900D30721090131F07006002E01D125
:103FD000012600E00026F6B2DFF84067366836F0CA
:103FE00070060E43DFF834773E60F0BC7047DFF8B0
:103FF00024271080DFF8202711807047C0B20028E6
:1040000002D0012806D00BE0DFF81417DFF81427E0
:10401000116005E0DFF81017DFF808271160FFE7EF
:10402000704730B40300DFF8040700680400C9B229
:10403000002905D0022909D005D3032909D00AE0B7
:1040400004F0FF0409E0C4F3072406E0C4F30744C6
:1040500003E0240E01E0002026E0D2B2002A0FD1B6
:10406000240334F47040002801D000201CE0DFF865
:104070009C06006830F470402043DFF890562860BA
:10408000D2B2012A0FD1240334F47040002801D0A9
:10409000002009E0DFF89806006830F47040204303
:1040A000DFF88C562860012030BC7047F0B4002641
:1040B0000024DBB2D2B252EA03252F00002F34D005
:1040C0007F1E0CD0FF3F3AD07F1E12D0FF3F3FD063
:1040D0007F1E17D0FF3F45D07F1E1DD04BE0DFF87D
:1040E00054763F683E00C6F307273C0006F0FF0603
:1040F00041E0DFF840763F683E00370E3C00C6F3F3
:10410000074638E0DFF830763F683E00C6F3072701
:104110003C0006F0FF062EE0DFF81C763F683E000C
:10412000370E3C00C6F3074625E0DFF810763F68FF
:104130003E00C6F307273C0006F0FF061BE0DFF851
:10414000FC753F683E00370E3C00C6F3074612E0A0
:10415000DFF8EC753F683E00C6F307273C0006F029
:10416000FF0608E0DFF8D8753F683E00370E3C00D8
:10417000C6F30746FFE706600C60F0BC704738B531
:104180000400DFF8C0050068C007FAD4DFF86C054A
:10419000006810F003000500002D05D001220D215C
:1041A000DFF8A405FFF7B4FC28002100C0B2C9B2B3
:1041B000884209D1E4B2002C05D100220D21DFF89C
:1041C0008805FFF7A5FC3FE0032D01D0002D1CD191
:1041D000E4B2022C02D0E4B2012C16D15FF400202C
:1041E000FFF7B8FCDFF85C050068C007FAD4DFF819
:1041F0000C0500688008800050F00100DFF8FC1416
:104200000860FFF7ABFC0003FBD5DFF8380500685A
:10421000C007FAD4DFF8E404006880088000E4B244
:104220002043DFF8D8140860DFF818050068C007DD
:10423000FAD4E4B2002C01D1002200E001220D21C9
:10424000DFF80405FFF764FC31BD38B50400FFF763
:1042500047FE2089C92801D2012000E00020C0B219
:104260002089A188884201D3012000E00020C0B24B
:10427000B4F90C00C92801DA012000E00020C0B226
:104280006078012807D1A088C92801D2012000E068
:104290000020C0B209E06078022806D1A0880B286F
:1042A00001D2012000E00020C0B2E08842F211718A
:1042B000884201D2012000E00020C0B2E0884B28F3
:1042C00002D20020050013E0E088B0F5FA7F03D2A7
:1042D0005FF0805005000BE0E08840F6C411884292
:1042E00003D25FF00050050002E05FF0405005008F
:1042F000DFF81C040068B4F90C10002901D4012176
:1043000000E00021DFF84C24104028430843DFF888
:1043100000140860DFF81804006850F44070DFF8FB
:1043200010140860FFF7DEFDB4F90C102089FFF7C8
:104330005EFEA088DFF818140880A08800F05CF901
:10434000A07BFFF75BFE01220121608800F02CF8C2
:10435000002801D1002016E0DFF8FC03006850F4CB
:104360008060DFF8F41308606078FFF708FFA07A38
:10437000202801D1012200E000220521DFF8D80326
:10438000FFF7C6FB012032BD0000000004300E40E4
:1043900080410E4090400E40705500205A5600203B
:1043A0005B56002010300E402DE9F04F8BB004001A
:1043B0000D00160000275FF000086846002100226B
:1043C00000230EC00C3804A80021002200230EC0D8
:1043D0000C3807A80021002200230EC00C3803A8C7
:1043E00000210160B4F5E16F06D340F6B930844294
:1043F00002D25FF0010A01E05FF0000A5FFA8AFA78
:10440000BAF1000F01D10020EAE0B4F5E16F02D962
:104410005FF0010B01E05FF0000B5FFA8BFBBBF17B
:10442000000F09D04FF4E160070040F6B830804635
:10443000B8EB0700814608E04FF4966007004FF4A0
:10444000E1608046B8EB070081465FFA8BFBBBF169
:10445000000F0BD0DFF80403006806900698000EEA
:1044600009900698C0F3074006900CE0DFF8EC02D4
:10447000006806900698C0F3072009909DF8180080
:1044800000F0FF000690DFF888020068000F10F0CF
:1044900003008DF80C009DF80C305A46D2B207A9E3
:1044A00004A8FFF703FEDFF888020068000A10F096
:1044B00003008DF80D009DF80D305A46D2B208A9C0
:1044C00005A8FFF7F3FDE01B0999069A891A4843EE
:1044D000B0FBF9F002900298069908180290E01BD0
:1044E0000799049A891A4843B0FBF9F000900098A4
:1044F000049908180090E01B0899059A891A484306
:10450000B0FBF9F0019001980599081801900998FD
:104510000299884213D30298069988420FD30898CB
:10452000019988420BD301980599884207D30798CF
:104530000099884203D300980499884201D2002050
:104540004EE0F6B2002E14D0DFF8140200685FFAD5
:104550008BFBBBF1000F01D0022100E00021DFF84E
:1045600004221040029A50EA02200843DFF8F011BA
:104570000860EDB2002D32D000229DF80C10584694
:10458000C0B2FFF74EFD002801D1002028E0012233
:104590009DF80D105846C0B2FFF743FD002801D129
:1045A00000201DE001980099884201D2009800E0A7
:1045B000019800900098E72801D2009800E0E720D9
:1045C0000090DFF8A4010068400A40025FFA8BFB0C
:1045D00000995BEA41010843DFF88C110860012073
:1045E0000BB0BDE8F08F00002C300E4024300E40A0
:1045F00008300E4000300E4070B504000025DFF892
:104600004C01006810F00706DFF804010068C007DD
:1046100010D5022E0ED3142C02D2042005002EE059
:10462000142C04D3282C02D20820050027E01020E7
:10463000050024E0DFF8D8000068C00710D4022E7F
:104640000ED20A2C02D20420050018E00A2C04D352
:10465000142C02D20820050011E0102005000EE005
:10466000DFF8AC000068C00709D5022E07D2282C5D
:1046700002D20820050002E010200500FFE76D1EB1
:10468000280350EA0525DFF88800006830F47F40F1
:104690002843DFF87C100860FFF73DFC70BD000088
:1046A000012D310138B504000021DFF86400FFF767
:1046B00036FA0500002D02D1E4B2022C01DB002DF8
:1046C00001D0012000E00020C0B2DFF880000068C7
:1046D000C008C000E4B22043DFF870100860DFF8C3
:1046E00070000088FFF788FF31BD000060400E4079
:1046F000C0EA210110ED00E018300E4040300E40BD
:1047000000410E406C550020002D31016C300E40F0
:104710004C300E40665400204E56002050300E4063
:104720007740205758300E40372110B73083E00FC4
:10473000E0300E402483E00F2883E00F1C83E00F5D
:104740002083E00F78300E4054300E4070300E4021
:104750004C560020FEFFFFCF3C300E401883E00F88
:104760005C300E40FD80FFFF64300E4040B20028F8
:1047700008D5444940B210F00F00084410F8040C6A
:10478000400903E0404940B2085C4009704740B22C
:10479000002804D440B22F2801DA012200E00022D0
:1047A000D2B23A4A110040B2420951F8221010F038
:1047B0001F00C14011F0010090F00100C0B270472D
:1047C00040B210F1100F04DB40B22F2801DA0122B1
:1047D00000E00022D2B22E4A126840B202EB800200
:1047E00011647047F0B4049D059CB2F1005F04D3DE
:1047F000284FBA4201D2012700E00027FFB212F091
:104800007F07002F01D1012700E00027FFB2012719
:104810005FEA830CBCF1010CBCFA8CFCDCF1200CCF
:1048200017FA0CF77F1E3A4201D1012700E000275A
:10483000FFB200273E009E421FD2E4B2002C09D0F6
:104840008E4204D250F8267042F8267013E042F8E7
:10485000265010E08E4208D252F82670002F0AD15E
:1048600050F8267042F8267005E052F82670002FA6
:1048700001D142F82650761CDDE7054F3A60F0BCC6
:104880007047000018ED00E000E400E000E100E007
:1048900008ED00E000800020F8B5040064B214F1D7
:1048A0000C0F04DB64B22F2C01DA012000E00020A1
:1048B000C0B2EFF31080C00701D5012027E020002F
:1048C00040B2FFF764FF002801D001201FE0200064
:1048D00040B2FFF74BFF0500EFF311800700002FF8
:1048E00004D0B5EB571F01D3012010E00848006841
:1048F000C005C00D0600002E08D03000103840B2B0
:10490000FFF734FF854201D3012000E00020F2BD13
:1049100004ED00E030B402680368046805680A60CA
:104920004B608C60CD6030BC704710B44268520957
:104930005201C9B20B00002B042B09D95B1F022BBB
:104940000BD9DB1E032B03D91B1F022B05D90BE050
:10495000C9B251EA0203436006E0C9B251EA020358
:1049600053F010034360FFE710BC704770B50400BC
:104970000D001600002D01D0012000E00020C0B283
:10498000290014F12000FFF7C5FFF6B2102E05D163
:1049900015F1100114F12000FFF7BCFF70BD002AD3
:1049A0008B0013EB401313F184431A60704710F12E
:1049B000C0621160704710F180621160704770B57D
:1049C00004000D00160029002000FFF7F4FF31005D
:1049D0002000FFF7ECFF70BD38B504000D00E4B215
:1049E000002C01D13F2035E0E4B2012C02D14FF47C
:1049F00078402FE0E4B2022C02D14FF47C6029E031
:104A0000E4B2032C02D14FF47C4023E0E4B2042C46
:104A100001D100201EE0E4B2052C01D1FF2019E0F5
:104A2000E4B2062C01D1002014E0E4B2072C01D13D
:104A300000200FE0E4B2082C01D100200AE0E4B22B
:104A4000092C01D1002005E0E4B20A2C01D100209C
:104A500000E00020284110F00100012010FA05F1CB
:104A6000DFF86003E4B2302202FB04F210440C30A1
:104A7000FFF7A1FF31BD38B504000D00E4B2002CF2
:104A800001D13F2035E0E4B2012C02D14FF478404F
:104A90002FE0E4B2022C02D14FF47C6029E0E4B2B2
:104AA000032C02D14FF47C4023E0E4B2042C01D16A
:104AB00000201EE0E4B2052C01D1FF2019E0E4B291
:104AC000062C01D1002014E0E4B2072C01D1002013
:104AD0000FE0E4B2082C01D100200AE0E4B2092C76
:104AE00001D1002005E0E4B20A2C01D1002000E051
:104AF0000020284110F00100012010FA05F1DFF834
:104B0000C402E4B2302202FB04F210440C30FFF77E
:104B10004EFF31BD2DE9F04706000F009046994643
:104B2000089C099D5FF0000AF6B2002E01D13F20DB
:104B300035E0F6B2012E02D14FF478402FE0F6B204
:104B4000022E02D14FF47C6029E0F6B2032E02D18E
:104B50004FF47C4023E0F6B2042E01D100201EE089
:104B6000F6B2052E01D1FF2019E0F6B2062E01D1D2
:104B7000002014E0F6B2072E01D100200FE0F6B2BB
:104B8000082E01D100200AE0F6B2092E01D1002042
:104B900005E0F6B20A2E01D1002000E000203841E5
:104BA00010F001005FEA98008000B908890088428F
:104BB00001D1012000E00020C0B2B8F1080F0FD2EF
:104BC000F6B24046C0B2800016FA00F20F2041460D
:104BD000C9B2890010FA01F17B48FFF7F0FE11E03D
:104BE000B8F108008246F6B25046C0B2800016FA0C
:104BF00000F20F205146C9B2890010FA01F1734842
:104C0000FFF7DDFEB8F1080F10D217F003004146A0
:104C1000C9B2890010FA01F203204146C9B28900E5
:104C200010FA01F16A48FFF7CAFE0FE017F003001F
:104C30005146C9B2890010FA01F203205146C9B2A7
:104C4000890010FA01F16348FFF7B9FE5FFA89F9AC
:104C50004A4641466048FFF7A3FEE4B222004146BF
:104C60005E48FFF79DFE012010FA08F054490860E5
:104C7000EDB22A0041465A48FFF792FEBDE8F087A0
:104C8000F8B504000D0016001F00E4B2002C01D19D
:104C90003F2035E0E4B2012C02D14FF478402FE000
:104CA000E4B2022C02D14FF47C6029E0E4B2032C80
:104CB00002D14FF47C4023E0E4B2042C01D1002067
:104CC0001EE0E4B2052C01D1FF2019E0E4B2062C6D
:104CD00001D1002014E0E4B2072C01D100200FE044
:104CE000E4B2082C01D100200AE0E4B2092C01D181
:104CF000002005E0E4B20A2C01D1002000E00020F1
:104D0000284110F00100F6B2002E0CD0002F05D083
:104D100029002000C0B2FFF7AEFE04E02900200009
:104D2000C0B2FFF759FE082D1BD22648E4B230214D
:104D300001FB04F1084440680F212A00D2B292001E
:104D400091408843F6B22900C9B2890016FA01F1F0
:104D500008431C49E4B2302202FB04F211444860CB
:104D60001CE01848E4B2302101FB04F108448068DB
:104D70000F212A00083AD2B2920091408843F6B23D
:104D800029000839C9B2890016FA01F108430D4912
:104D9000E4B2302202FB04F211448860F6B2002E25
:104DA0000CD1002F05D029002000C0B2FFF763FE10
:104DB00004E029002000C0B2FFF70EFEF1BD0000A4
:104DC00024A4004000A0004000A4004004A400402F
:104DD00008A400400CA4004010A4004014A400400B
:104DE00028A40040012110F01F029140DFF8F022BA
:104DF00040B2430942F823107047012110F01F020E
:104E00009140B84A40B2430942F82310704710B4A9
:104E100040B2002808D54A01B34B40B210F00F044D
:104E2000234403F8042C03E04A01B04B40B21A5467
:104E300010BC70478B0013EB401313F184431A60CE
:104E4000704710F180621160704738B504000D00A2
:104E5000082C01DA012000E00020C0B295F0010228
:104E6000D2B22100A548FFF7E5FF31BD10B504001F
:104E7000002C01D0012000E00020C0B22078000604
:104E800030F0E060002801D1012000E00020C0B235
:104E900001200120E078082801DA012000E000204C
:104EA000C0B201219448FDF752FE207861780902D2
:104EB00051EA0060A17808439149086000208D49BB
:104EC000086000208F49086000208C4908605FF06E
:104ED0000040874908605FF0FF308B490860092077
:104EE000FFF78BFFE1780920FFF791FF0920FFF71B
:104EF00079FF10BD2DE9F84304000D0016000120D4
:104F000010FA04F9082C01DA012000E00020C0B2F8
:104F1000002D01D0012000E00020C0B228687B49AC
:104F2000084201D1012000E00020C0B20120012090
:104F300001200120A87A000430F44030002801D17B
:104F4000012000E00020C0B2E87A000530F48010B3
:104F5000002801D1012000E00020C0B2287B4005DC
:104F600030F40010002801D1012000E00020C0B280
:104F7000012028686649302202FB04F28850687BD1
:104F80006349302202FB04F211448860A87AE97A6E
:104F9000090551EA0040297B50EA41505C49302222
:104FA00002FB04F211444860B008800058493022E6
:104FB00002FB04F2114488615348C0F8009000F0ED
:104FC000AFF880464A48006859EA0000484908603E
:104FD000287A002805D04948006859EA0000474966
:104FE0000860687A002805D04648006859EA000041
:104FF000444908604248006807002879002805D025
:105000002879C043000270F47F4007406879002887
:1050100002D0687957EA0027A879002801D0A8793A
:105020008743E879002801D0E879074334480760CE
:1050300049463848FFF705FF3748C0F8009040461A
:1050400000F072F8BDE8F18370B50400012010FA99
:1050500004F5082C01DA012000E00020C0B200F0C5
:105060005FF8060022480068A8432149086029002B
:105070002048FFF7E6FE300000F056F870BD2DE93D
:10508000F8430400012010FA04F8082C01DA01208A
:1050900000E00020C0B200F043F881461F480068DD
:1050A00007001C48006806001948302101FB04F184
:1050B0000844C0680500484600F036F818EA0707BB
:1050C00018EA0606C5F30A15002E03D1002D03D1F8
:1050D000002F01D0002000E0681CBDE8F283000032
:1050E00000E100E080E200E018ED00E000E400E014
:1050F0006C200E4020200E400055080034200E4049
:1051000000200E402C200E4068200E40F0FFC0FF13
:1051100080200E4028200E403C200E4060200E4093
:10512000EFF3108072B67047002800D162B6704766
:10513000026CD20702D4426C0A42FCD1704738B5E7
:1051400004000D00A068C006FCD540212000FFF738
:10515000EFFFEDB2A56231BD12480068800C10F07F
:10516000010090F00100C0B20E48006810F4403F0A
:1051700001D1012000E00020C0B241F671300A499F
:1051800008600A4800684008400008490860704705
:1051900006480068400840000449086000200249B1
:1051A0000860704704300E4040000E4008000E407A
:1051B00001201A490860704710B41948016800209E
:1051C00000242200092A27D2164C04EBC20464688A
:1051D0002300154C2468640711D4124C54F8324053
:1051E000B4F5007F08D0B4F5806F05D0B4F5006F3A
:1051F00002D0B4F5803F02D153F48073FFE7094C2D
:1052000054F83240214205D0194203D1054C54F8DC
:1052100032402043521CD5E710BC704708500E4066
:1052200004500E40B8140000E841E00F01784278C5
:1052300051EA8201827851EA0211C27851EA4211A0
:10524000027951EA0221427951EA0231827951EA26
:10525000C231C27951EA0241027A51EA4241014A1D
:1052600011607047002004400E4A1268920012F04C
:105270003C0211000C4A1268C2F381121143817082
:10528000094A126812F03F024270084A126812F08E
:10529000F0021100064A1268C2F3031211430170B2
:1052A00070470000E4FF0FE0E0FF0FE0E8FF0FE0D1
:1052B000ECFF0FE02DE9F84304000D0016001F007D
:1052C000002D04D1DFF8D002FDF78EFC0500FFB2FF
:1052D0003800002806D020280ED0402816D060289C
:1052E00020D029E02809B04201D3012000E00020AD
:1052F000C0B21020814620E0E808B04201D301206E
:1053000000E00020C0B20820814616E00620B5FB70
:10531000F0F0B04201D3012000E00020C0B206202E
:1053200081460AE0A808B04201D3012000E0002035
:10533000C0B20420814600E023E006FB09F04008EB
:1053400010EB4510804606FB09F0B8FBF0F8B8F109
:1053500020085FEAC808DFF84402804501D2012036
:1053600000E00020C0B2DFF8380210EA0808206828
:1053700030F0600020602068FFB238432060C4F83D
:105380001480BDE8F183F8B504000D001600002D6F
:1053900003D18148FDF728FC0500681E7100B0FBB1
:1053A000F1F007003F0238006FF3D600002801D16A
:1053B000012000E00020C0B26761F1BD794B984246
:1053C00005D0794B984202D0784B984201D1012305
:1053D00000E00023DBB2C9B2CB431A0012F0050291
:1053E0005300C360C9B2C160704738B504000D00F6
:1053F0006C48844205D06C48844202D06B48844299
:1054000001D1012000E00020C0B2200000F08DF8A2
:10541000A87C002803D0206850F080402060E87C01
:10542000002803D0287D50F08000A065687BB5F986
:1054300010100843B5F90E10084360602B7BAA6872
:1054400069682000FFF736FFA87D000710F0E040F4
:10545000E97D090511F4E00108432066687D002814
:1054600003D0206850F480302060606F30F030004E
:105470006067606F297E084360672878E06031BD0F
:1054800038B504000D004748844205D046488442A0
:1054900002D04648844201D1012000E00020C0B281
:1054A000200000F042F8A87B002802D04FF4806072
:1054B00000E000202168B5F91020104350F00100F1
:1054C00008432060287D002802D05FF0005000E0F3
:1054D0000020216808432060A87C002803D0E87CD5
:1054E00050F08000A065287B50F480506060AA686E
:1054F00069682000FFF747FF687B002801D0102073
:10550000E060A87D000710F0E040E97D090511F496
:10551000E00108432066687D002803D0206850F42D
:10552000803020602878E06031BD1E49884205D077
:105530001D49884202D01D49884201D1012100E065
:105540000021C9B240F6AA61C1600021016041F2A8
:105550000501416000218160002141610021C16499
:105560001349816400214167002181670021C167DF
:105570000C49884205D00C49884202D00B49884228
:1055800001D100210165002181650749884201D1CF
:105590000021C1657047000040410500F9FF7F0010
:1055A000F8FF7F00000001400004014000080140B6
:1055B000F9FF010002695206FCD5C9B241630269D4
:1055C0009206FCD5C069C0B2704702695206FCD58C
:1055D000C9B24163704703288164704702008800A4
:1055E00010EB421010F184400068704710F1C06267
:1055F0001160704710F180621160704738B5040087
:105600000D00E4B2002C01D13F2035E0E4B2012CC2
:1056100002D14FF478402FE0E4B2022C02D14FF4D3
:105620007C6029E0E4B2032C02D14FF47C4023E0FB
:10563000E4B2042C01D100201EE0E4B2052C01D11B
:10564000FF2019E0E4B2062C01D1002014E0E4B2FE
:10565000072C01D100200FE0E4B2082C01D100207A
:105660000AE0E4B2092C01D1002005E0E4B20A2CE2
:1056700001D1002000E00020284110F001002900A5
:10568000DFF8B407E4B2302202FB04F210441C300D
:10569000FFF7A4FF32BD38B504000D00E4B2002CC2
:1056A00001D13F2035E0E4B2012C02D14FF4784023
:1056B0002FE0E4B2022C02D14FF47C6029E0E4B286
:1056C000032C02D14FF47C4023E0E4B2042C01D13E
:1056D00000201EE0E4B2052C01D1FF2019E0E4B265
:1056E000062C01D1002014E0E4B2072C01D10020E7
:1056F0000FE0E4B2082C01D100200AE0E4B2092C4A
:1057000001D1002005E0E4B20A2C01D1002000E024
:105710000020284110F00100012010FA05F1DFF807
:105720001807E4B2302202FB04F210440C30FFF7F9
:1057300061FF31BD38B504000D00E4B2002C01D189
:105740003F2035E0E4B2012C02D14FF478402FE045
:10575000E4B2022C02D14FF47C6029E0E4B2032CC5
:1057600002D14FF47C4023E0E4B2042C01D10020AC
:105770001EE0E4B2052C01D1FF2019E0E4B2062CB2
:1057800001D1002014E0E4B2072C01D100200FE089
:10579000E4B2082C01D100200AE0E4B2092C01D1C6
:1057A000002005E0E4B20A2C01D1002000E0002036
:1057B000284110F00100012010FA05F1DFF8780609
:1057C000E4B2302202FB04F210440C30FFF70EFF6B
:1057D00031BD2DE9FC4105000E0017009846089CDC
:1057E0002000C0B201904046C0B200903B00DBB246
:1057F000320031002800C0B2FFF78CF9BDE8F38118
:10580000010000200200042A0DD2DFF8300650F813
:105810002200407F884204D1DFF8200650F82200A1
:1058200002E0521CEFE70020704710B5040094F826
:105830003100022805D1617F607EFFF7DFFEC0B234
:1058400000E0002010BD70B582B00400E4B220007A
:10585000FFF7D6FF0500002D2DD095F83100022866
:1058600029D12800FFF7E1FF2875687D022822D1A1
:1058700095F82E0000281ED100208DF80000694602
:10588000686802F009F80600287D002803D095F822
:105890002F00002806D0002085F82F00686801F04E
:1058A000BEFF08E0002E06D19DF80000002802D0BF
:1058B000686801F095FF73BD10B582B0040094F8DC
:1058C000310002281CD1607D002804D1A17FA07E78
:1058D000FFF7E1FE38E0607D012804D1A17FA07EC2
:1058E000FFF728FF30E0207D002804D1A17FA07EB3
:1058F000FFF7D1FE28E0A17FA07EFFF71BFF23E08A
:1059000094F8310001281FD1207D00280ED11120EC
:105910008DF80000200001F0D0FD01226946200032
:1059200001F05CFD200001F01CFE0DE013208DF85D
:105930000000200001F0C1FD01226946200001F0B5
:105940004DFD200001F00DFE002016BD2DE9F843AD
:1059500004000D001600FFF7E3FB0700A088E188B4
:10596000884207D3002030603800FFF7DDFBDFF806
:10597000D00422E020885FF0140880B2142148434C
:10598000204410F1080942462900484602F0EEF88A
:105990002088142148432044083030602088401C6F
:1059A000E18890FBF1F201FB12002080A088401CEE
:1059B000A0803800FFF7B8FB0020BDE8F28370B587
:1059C00004000D00FFF7ACFB0600A088002807D1FB
:1059D000002028603000FFF7A7FBDFF8680414E020
:1059E0006088142148432044083028606088401CA7
:1059F000E18890FBF1F201FB12006080A088401E5C
:105A0000A0803000FFF790FB002070BD70B504004F
:105A10000D00FFF785FB0600A088002807D10020B5
:105A200028603000FFF780FBDFF8180409E0608889
:105A3000142148432044083028603000FFF774FBED
:105A4000002070BD90F8321000290DD104210268A9
:105A5000D160016809698907FBD50168496F51F078
:105A600002010268516714E090F83210012910D148
:105A70000168496C8907FBD4042102685160016800
:105A800089688907FBD50168496D51F002010268F8
:105A90005165704790F83210002909D10168496FAB
:105AA00031F002010268516708210268D16010E0FC
:105AB00090F8321001290CD10168496C8907FBD498
:105AC0000168496D31F002010268516508210268E0
:105AD0005160704790F8321000290DD10121026801
