:1000000000000420496B0000456B0000456B0000B8
:10001000456B0000456B0000456B0000456B000020
:10002000456B0000456B0000456B0000456B000010
:10003000456B0000456B0000456B0000456B000000
:10004000456B000089650000456B0000456B0000B2
:100050003D1900008D650000916500009568000065
:1000600099650000456B0000456B0000456B000082
:10007000456B0000456B0000456B0000456B0000C0
:10008000456B0000456B0000456B0000456B0000B0
:10009000456B0000456B0000456B0000456B0000A0
:1000A000456B0000456B0000456B0000456B000090
:1000B0001966000095650000456B00007965000039
:1000C000456B00006D530000456B0000456B000060
:1000D000456B0000456B0000456B0000456B000060
:1000E000456B0000456B0000456B0000456B000050
:1000F000456B0000456B0000456B0000456B000040
:10010000456B0000456B0000456B000010B5054CC9
:10011000237833B9044B13B10448AFF300800123B3
:10012000237010BDA80000200000000034960000DD
:100130000C4B43B10C480D4910B5AFF300800C488F
:10014000036823B910BD0A48036833B97047094BE7
:10015000002BF7D0BDE810401847064B002BF5D018
:10016000184700BF0000000034960000AC000020DB
:10017000A400002000000000154B002B08BF134B0B
:100180009D46A3F5803A00218B460F461348144A3A
:10019000121A06F03BFD0F4B002B00D098470E4B78
:1001A000002B00D098470020002104000D000D48CE
:1001B000002802D00C48AFF3008006F003FD2000B9
:1001C000290000F015F806F0E9FC00BF0000080067
:1001D000000004200000000000000000A800002033
:1001E000201B0020000000000000000000000000B4
:1001F0002DE98048374A536813F48063A7B008D0CC
:100200004FF000531B68A3F1020EDEF1000343EB35
:100210000E03012191604FF0005200211160002B6C
:1002200042D11EA805F01AFF05F070FE0546002811
:100230003AD09DF87830012B30D1446B05F0FEFEAA
:10024000209B5F0713D505F061FE05F0D7FE04463D
:1002500005F0E4FE44B305F059FE044605F056FEF1
:100260001D4B986023689D46636898471CE084B1E5
:1002700005F09AFD84420CD205F096FD04F1380396
:10028000834206D8636923B1204605F01FFE00288B
:10029000D9D105F5867005F019FED8E700F586700E
:1002A00005F014FE0028D6D10C4AD36C1B0E9346E1
:1002B0001CD10B490B484AF6E8520A60026842F02A
:1002C000040202600B60084A136843F40053136091
:1002D0000EE000BF00500E4000ED00E0B081E00FE6
:1002E00090310E4098310E4064310E40012BEAD01F
:1002F000B24A136A23F4441343F488131362A2F539
:100300008042136843F480731360AD4B02229A63FA
:100310009A6B02F00F02022A40F0B180DA6C22F0F0
:10032000405222F0010242F00102DA64D3F8EC20DC
:1003300042F44072C3F8EC20DA6E42F08072DA6662
:10034000A04B186800B1042004F01EFF9E4B9C4C8B
:10035000C8221A809D4BA0221A809D4B0F20002797
:10036000188004F0A9FE9B4BA36518972097169759
:1003700017971E971F97DBF86831C3F30722DBB28C
:1003800020921893E36CC3F301794B463A461EA9B9
:1003900016A804F00BFFD4F8EC30C3F30128434651
:1003A0003A461FA917A804F001FFDDF860E016998E
:1003B0001798209BDDF878C0DDF87CA04FF416720A
:1003C000A3EB0E03ACEB0105AAEB00065343554328
:1003D000B3FBF2F3B5FBF2F55643B6FBF2F6209A07
:1003E00073449A420D44064449D39E4547D8B245CA
:1003F00045D3B04243D8AC4541D3A9423FD8E26D82
:1004000022F4FE4222F0020242EA0323E365394667
:10041000484604F01DFE002831D00121404604F07A
:1004200017FE60B3636EB54238BF3546E72D23F43F
:10043000FF7328BFE72523F0010343EA4503636602
:10044000E36B43F48063E3632146A36FDE07FCD4D0
:10045000236C614A13F003030DD0012313608B6FEB
:10046000DD07FCD40B6C23F003030B6454498B6F42
:1004700013F00103FBD11360584B01221A604F4C5B
:10048000112004F015FF0021022004F0CDFC636A66
:10049000534823F001036362524B00251D60A36A99
:1004A00023F0070343F00603A3624F4BE362226B82
:1004B0004E4B02F07F62134323634D4B6363294627
:1004C00004F0CEFE4B4806F0ABF90121022004F007
:1004D000ABFC2946424806F079F9474B1D68002DD0
:1004E000FCD102236367454806F0BAF806F098F994
:1004F00006F046FB064604F0A5FE0146304606F02F
:1005000065F9666A04F09EFE0146354806F05EF91C
:1005100046F04056324806F083F96662D4F8C83097
:1005200043F00103C4F8C830354BDBF828209A6546
:100530000AA908AA352005F03FFC30B19DF820300B
:10054000042B06BF0A9B18682846C40315D52C48FF
:1005500000230CAA816D99540133062BFAD19DF822
:10056000353043F060038DF835309DF8363043F078
:1005700001038DF83630234B5A60234B234A1A600F
:100580005A609A604FF48070002298829A751A829D
:10059000DA751F4B1F4919605960996098829A75E6
:1005A0001A82DA751C4B1D48082119701C4B1D4915
:1005B00019601D4B1D4919603AE000BF00400E4014
:1005C00000300E408009C6439E180020A01800206D
:1005D0009C180020372110B7B40AC6439407C643BD
:1005E00000F04902A004C8432000050007450BD0D5
:1005F00047A002000148E801C800C64300250800E2
:1006000000500840C8000020380A00206C06002076
:10061000200A00206C050020380900206C0700200B
:1006200044090020EC7800004C0900200479000007
:100630001B4B1C4919601C4B1C4958601C48196015
:1006400003601C48C3F88C200160996A1A485A65F7
:10065000914208BF014619489A65A3F84020A3F8C3
:10066000422064220160A3F84420A3F84620A3F8A6
:100670004820A3F84A20A3F84C20A3F84E204FF6B8
:10068000FF729A82112004F013FE042805D10C4B4E
:100690005B6813F4403F00F076860023A6E200BFBB
:1006A00048090020F478000078070020FD2D0000A4
:1006B0002818002014000020BD2100002800002080
:1006C00000300E4002EA0406864203F1080308BF28
:1006D00015608B4203D013E92400002AF2D1BD4BF0
:1006E000BD4C5A691A691A699A69DB69BB4BC4F82F
:1006F000443148F2E673C4F838314FF40863C4F863
:100700003431B74BC4F8A030B64BB74DB74E4AF6AC
:100710003F429A6003F580434FF0C0729A62002313
:10072000C4F8FC30B24BC4F89C30B24B7F221A6044
:1007300003F1007323221A6003F54253343303227A
:100740001A604FF40023C4F89430012740232F602F
:10075000A94A2B604FF4607333604FF0407313600D
:10076000936101F0C3F8AA46376004F0A1FE054684
:100770000028FAD101234FF00450E0674FF48B5268
:10078000C4F880309D499E4E06F0C9FF9D4B2366FC
:10079000A42229469C48376806F038FA9B4B9C4AAD
:1007A0005A602946682237609A4806F02FFAC4F842
:1007B0008850C4F88C50C4F89050DBF85420DBF813
:1007C0000030D2B2FF2A43F3074301D0581C01D1B5
:1007D000902219238C49904FDFF8B882022093FBB6
:1007E000F0F342FA83F3CB7323234B738B4B887361
:1007F0004FF603721A6003F1007300251D604FF07D
:100800008043CAF80030864B864A1A60864A874978
:1008100003231360516040F6FF71516284491563F0
:1008200051635365834A84491380844B844A1D80F5
:10083000844B1D605A604FF400525A62824A4FF452
:100840004073136002F100720126156002F17E42CE
:100850000432136002F100724FF47A74156002F1F1
:100860007E42043213604FF480720A6001F17E41CF
:1008700004310B60754B1A6003F17E436C3BF02230
:100880001A6003F10073A0221A60714BC3F8B860BC
:1008900004F068F96F4B70481E6029464C2206F040
:1008A000B5F96E4B6E481E606E4B3B6004F020FF46
:1008B0004FF4FA72B0FBF4F4A4FB02231902100205
:1008C00010EB080041EA12614FF0000941EB090109
:1008D000654A002306F08CFDA0F58073814615F56E
:1008E000FA70BB624FF47A724FF0000344F10001DA
:1008F00006F07EFD05460F46B9F1000F03D12B200F
:1009000003F0E6FDB146390241EA156128024FEADB
:10091000590540194A464FF0000341F1000106F025
:1009200067FD524B1960524B064618600F464FEA5E
:1009300009634FEA19292CB92B20039303F0C8FD52
:10094000039B01244FF47A784FEA540EA3FB08016D
:1009500010EB0E004FF0000508FB091122462B4654
:1009600041F1000106F044FD424B2B4C1960424B13
:100970000236186047F10007B30843EA8773013B6A
:1009800023633E4B3E484FF00052C3F880211A606B
:10099000114A012363600723C2F8843004F0A8FEE3
:1009A000B0FBF8F73748384A40194FF00001794159
:1009B000002306F01DFD354B18604EF6602004F054
:1009C000C7FD334B4042D862274803F0F3FB06468D
:1009D00062E000BFD0FF0FE000400840C0E6535186
:1009E0007A27000F00300840944008460C40084623
:1009F000806D630324300844F8400846007A000004
:100A0000E81F0021C01F00215C1F0021EC1F0021F6
:100A10003F003700F41E0021005008407C000844CD
:100A2000300900204918000030100840201600202E
:100A3000DC0800201E090020A80008461C09002030
:100A40005808002090100840A0000844AC00084658
:100A5000001008400C400844081F0021C8400E4602
:100A6000000406000011010040420F003C18002065
:100A700038180020B8090020B409002000E100E087
:100A80006051070000093D0000127A00E4180020C0
:100A90008C1F002120A10700C14804F029FEF200AC
:100AA000870C8603500816EB000847F100092B4617
:100AB0004046494606F09CFCBA4BBB4E5860BB48CA
:100AC00004F0E4FDBA4BC4F80031BA4AA3F52003A0
:100AD000C4F810314FF400231570CAF80030B64B3B
:100AE000D3F8C81041F06C008142154640F0E88010
:100AF000B24AD268D10700F1E380D3F81031C3F3D2
:100B00000823002B40F0DC80EFF3108072B6AC4B72
:100B10009F69A3F5C0434FF06052D3F88410326050
:100B2000A84A4FF0006414602422C3F88420A64A27
:100B3000042414604FF480429A664FF480525A6243
:100B40001A6E5204FCD51A68D405F9D54FF48042C8
:100B50009A66DFF8D0E2D3F888401E944FF0040C78
:100B6000CEF800C0C3F8841095498F619A6604F0EE
:100B70009BFBA4B24FF605034FF60402944208BF54
:100B80001C46924B9C6501232B70914B914C18682D
:100B900004F0F2FD904A91496023062053640860F6
:100BA0000021C2F884108E4A4FF0805111604FF43A
:100BB000001232604FF0605232608A4A40F6FF7194
:100BC0005162516502F1C062A2F6BC721360864B9D
:100BD00040221A60D4F88C0004F0B8F804234FF0D7
:100BE00080521946104605F02FFB234668A1D1E933
:100BF00000017E4E7E4F3360C3E9150103F10C0402
:100C00004FF0FF3164A3D3E900236FF0010005F03A
:100C10001BFB204601F0B2FC022004F097F830687C
:100C2000642394224FF00008A0F84430A0F84A3022
:100C30009623A0F84C20A0F84830A0F84080A0F8F7
:100C40004280343004F022FD34686A49012504F101
:100C50000C0001F0B5FA04F1340084F8385004F0C7
:100C6000C1FC654B4FF000621A60237B634A2B4343
:100C700023731368346823F00F0343F003031360F6
:100C8000414604F10C0001F021FC04F0AFFEC7F86E
:100C90000080494BDBF82400D3F88831DFF88881E5
:100CA000C043284003F48003184304F1340400F0E7
:100CB0009383032388F80030514BFF221A70B6E368
:100CC000142003F005FC5EE7012B4E494E4D4F4CBE
:100CD0000FD13A68024042F0030207233A600B60EA
:100CE00006232B604A4B23604A4B4FF440421A6064
:100CF00095E33B68034043F0804343F004033B60CB
:100D000007230B6005232B60C02323608122424B05
:100D1000EDE7FF2198E32068B060A288A379BB715A
:100D2000BA80A1E33D4B099918681B791E9089F898
:100D3000043000297AD09DF81F201B2A28BF1B22CF
:100D4000531D8DF81E300DF17D00531C8DF87B3046
:100D500006F0E5FC16A801F0D9FC314A9DF81E30DA
:100D6000128829F8032026A99A1C51FA82F2002140
:100D700002F8201C1698BDF85C1042F81F0C0933CD
:100D800022F81B1C8DF81E30B7E300BFAFF30080C4
:100D9000081B880200000000081B881204000000E5
:100DA000605107008C1F002118600844AC07002028
:100DB0000300C000D418002000400E40004008404E
:100DC000006008401860084600400846005008408F
:100DD0002C00002078070020000008407000084424
:100DE000944008440010084088400844740A0020D9
:100DF000E81F00210C920000944008465C1F00216F
:100E0000180000200C4108440C41084608410844E1
:100E1000C10040000441084408410846608B0000BE
:100E2000708B000000400844DC1800200E238DF871
:100E30001E300A238DF87B30C44B1A68CDF87D2014
:100E40005A681B7ACDF881208DF8853082E7C04B37
:100E50001A889B788DF85A300323ADF858208DF806
:100E60001D305EE30921B9488FE33B79B94ABA499D
:100E70004FF4804005F082FD3B794FF0000A08F105
:100E8000FF32082BA4F802A092B200F095812DD871
:100E9000042BB24D59D0062B00F09080022B2CD1A0
:100EA000022A40F05F82B6F80530AD4AAD494FF4F2
:100EB000804005F063FDB6F80580AB4AA949B8F556
:100EC000007F28BF4FF4007843464FF4804005F080
:100ED00055FD00220323114602202B70A5F8018046
:100EE00005F0E4F8A4F8008000F09BBC102B00F0A3
:100EF000C98105D80A2B00F0BE804FF0060993E1A6
:100F0000122B00F0F480522BF7D1A8F103081FFA3E
:100F100088F5B6F80530954A00954FF4804094491D
:100F200005F02CFDB6F8050003F064F8002800F089
:100F30007884037B5B0740F174842A468D49B6F8B8
:100F4000050005F0F0F800F06CBC042A40F00A82BD
:100F5000B7F80720B7F80530874900924FF4804072
:100F6000864A05F00BFDB7F805901FFA89F318467D
:100F7000049303F03FF8C846049B10B9A4F802900C
:100F80004BE090F80890D0F804B07D4A0093B9F196
:100F9000020F0CBF4FF0010A4FF0020A5346794985
:100FA0004FF4804005F0EAFC05232B7085F801A082
:100FB000A5F802804A465946032095E0A8F10708A3
:100FC0001FFA88F8B7F80530CDF80480B7F8072085
:100FD00000926D496D4ADFF8DCB14FF4804005F0B6
:100FE000CDFC4FF00203B7F80500B7F807108DF8F5
:100FF0004C300BF10203CDF804800093CDF848B0DB
:1010000012AB0CCB03F01EF84FF6FF794845804633
:1010100006D17B68C3F30F2363804FF00A0903E115
:101020004FF002038DF83C30CDF804A0CDF800A0BD
:10103000CDF838B001300EAB0CCB494680B203F08E
:1010400001F8484582461CBF00F1FF3A1FFA8AFAB0
:101050004346CDF800A04E4A4E494FF4804005F07B
:101060008DFC07232B70A5F80180A5F803A00022B2
:101070001146042038E0022A40F074814FF4804089
:10108000B6F80530444A454905F078FCB6F8050045
:1010900002F0B0FF30B94FF001097368C3F30F23BA
:1010A0006380BDE0037B990740F1BF83238826AAB4
:1010B000013B22F86C3D12A9B6F8050005F00EF8C8
:1010C00081460028E9D1BDF82C50354A3549DDF874
:1010D00048802B464FF4804005F050FC1F4B0B22FC
:1010E0001A7041462A46484604F0E0FF99E3A8F109
:1010F00003081FFA88F5B7F805302B4A00954FF41E
:1011000080401B4905F03AFCB7F8050002F072FF79
:10111000002800F08D83037B1A0740F190832A4654
:101120001449B6F8050004F0FEFF8146002840F09F
:1011300081831E4A1E494FF4804005F01FFC074B77
:1011400013221A7049464A464846CDE7668B00008E
:10115000738B00006A780000F78B0000F9180020FC
:10116000E17700000D8D00009477000038780000D2
:101170008B8C0000D7000020198D000085780000BE
:10118000AB7700000A8C00002E8C000098780000DD
:10119000C6770000578C000000780000378D0000F3
:1011A000F07700007C8C00002F78000008780000A9
:1011B000A98C0000D9000020A8F105081FFA88F8C2
:1011C000B8F1020F02D0B8F1100F2DD1B6F80720F8
:1011D000B6F80530704900924FF480406F4A05F030
:1011E000CDFB6F4B12938DF84C800023B6F807109F
:1011F000B6F805000193009312AB0CCB02F022FF6E
:101200004FF6FF739842054623D0238826AA043B55
:1012100022F8763D0BA904F061FF8146D8B16580C4
:10122000B9F1000F00F0FD8296F8048065885D4AF0
:101230005D4943468DE820024FF4804005F09EFB57
:101240005A4B01221A7083F801805D8083F8049064
:101250000DE77368DEE6BDF82280554A5549CDF8A2
:1012600000802B464FF48040DDF82C9005F086FB83
:101270004E4B09221A7008F102025A705D804246F4
:10128000494699E6A8F105081FFA88F8B8F1020F57
:1012900002D0B8F1100FC7D1B6F80720B6F8053064
:1012A0003D4900924FF48040434ADFF8F4B05FFAC2
:1012B00088F54FF0000905F061FBB6F80500B6F8B7
:1012C0000710CDF848B08DF84C50CDF80490CDF80B
:1012D000009012AB0CCB02F0B5FE4FF6FF7A5045F2
:1012E0008046B6D08DF84450CDF80490CDF80090EB
:1012F000CDF840B008F1010010AB0CCB514680B2E4
:1013000002F0A0FE238826AA5045A3F10603054655
:1013100022F8763D18BF00F1FF350BA9404618BFF3
:10132000ADB204F0DBFE814610B1A4F8028077E78D
:10133000BDF82290214A2249DDF82CA043464FF403
:1013400080408DE8200205F019FB184B11221A701D
:1013500009F104025A70A3F802809D804A46514662
:101360000520C1E64FF004095EE71022002112A813
:1013700005F04CFC134B129312A902234846139319
:1013800004F0EAFC4DE204F031FB0F4C0F4B104827
:101390001049FFF7A0B900BF198D00005C7800006C
:1013A000D900002083770000D98C0000F9180020B4
:1013B000197800008B8C00007278000041780000E2
:1013C000AF8C0000100000200000FFFF0880E00F3D
:1013D00000000840B881E00FC14B1A689B88A8F84C
:1013E0000430C8F8002002F0B5FF21460A2002F0C0
:1013F00029FF98F80030BB48022B7FF465AC3968B0
:10140000B94B01404FF4EE4241F0804139601A601F
:1014100003F100734FF48A421A6043F8045C002021
:1014200002F098FFB14B03221A6002F0D9FEB04CD3
:101430003068B4F9002047F6FF718A423FF469AC86
:10144000002101F0F7F801463068AA4F0C3001F096
:101450003DF86468002C7FF45EAC384601F056F924
:10146000B37B64F30003B373A34BA44DDFF828836D
:10147000A34C202283F80123002183F8042328466B
:1014800083F8062383F8072383F8052383F80823CA
:1014900083F81D23602205F0B9FB9A489A4B4FF45C
:1014A000907285E80900B2822523984A6B72012365
:1014B00013702B720023C8F800300DF11F021B239C
:1014C00009A93620238004F077FC0DF11E020AA939
:1014D000392004F071FC0DF17809CDF80C8000285A
:1014E0003FF420AC9DF81E200A99202A28BF202214
:1014F00048468DF81E2006F012F90DF11D020AA9CA
:101500003A2004F059FC00283FF4A1AC9DF81D20BE
:101510000A99202A28BF202216A88DF81D2006F03F
:10152000FEF8DFF878827A4800234FF0020AC8F804
:101530000030C8F80430774B036080F804A003F053
:1015400069FB7548754B036080F804A01023037293
:1015500003F036FB7248734B0360734B80F804A0B2
:10156000C36080F808A0A0F810A08DE808045346D6
:1015700090E80600143004F043FE0998CDF810807E
:1015800000283FF46FAC9DF81F1003F053FB674831
:10159000674B03604FF0100880F8048003F03AFBBB
:1015A0006448654A654B03604FF6FE7A0823C260C3
:1015B00080F80480A0F810A00372059303F000FBEC
:1015C0005F48604A02600C2202725F4AC26080F883
:1015D0000480A0F810A003F0F3FA5C485C4A059B75
:1015E00002604FF0020B5B4A80F80480C260038205
:1015F00080F808B003F0E4FA5748584B0360584BA2
:10160000C36080F804800123038280F808B003F0EF
:10161000D7FA5448544B0360544BC36080F804809D
:10162000A0F810A080F808B003F0CAFA5048514B57
:101630000360514BC36080F80480A0F810A080F8CC
:1016400008B003F0BDFA4D4B049A1A604FF6FF72D2
:101650009A809DF81E20202A05D8931DAB73494619
:10166000474806F05CF89DF81D20202A06D8931DF7
:1016700085F8363016A9434806F051F801F02AFAE9
:101680002B7BB27B43F001032B736B7B02F00102D7
:1016900003F0F00362F386136B73AB7B0BB9062385
:1016A000AB73394BB98838689980186095F8353034
:1016B000042161F3030362F3861385F8353095F84E
:1016C000363013B9062385F83630304B3868BA887F
:1016D00018609A802E4F01F045FA3E462D4A5FE091
:1016E000CC8D0000E8FFFFBF244108445841084466
:1016F000C80000207C0A002000E100E0540900201E
:10170000C4000020D6BE898E55555500500A0020D1
:101710009C080020778B0000E00300207A8B0000FB
:10172000400500207D8B000080770000BC08002071
:10173000808B000038040020053D0000918B0000E4
:1017400090040020A28B0000253A00003003002006
:10175000B38B0000AB780000E8040020C48B0000CD
:101760004A8D000088030020D58B0000053A000058
:10177000D8020020E68B0000C5390000D40B002001
:101780006909002091090020630900208B090020CD
:10179000D00000201C0A0020D402002000190020E4
:1017A0001378002BFCD0EFF3108572B600231A4695
:1017B0000DF12101234805F099F9284603F074FD45
:1017C0009DF8213013B1039A00231360039B1A681C
:1017D000EFF3108872B6C2F501739BB23A440DF173
:1017E0002101184805F082F90546404603F05CFDEA
:1017F000039B18682844032818607FF66FAFB7F87A
:10180000008008F104039842FFF468AF09D8B7F8E4
:101810000290B9F1040F3FF428ABB9F1060F3FF481
:10182000A4AD039A0023136058E74FF0020934E493
:101830004FF001097368C3F30F236380F4E44FF0A2
:101840000309F7E7200A0020084BD3F88820120686
:101850000AD408229A60064B1B6813F4007F14BF59
:10186000044A054A02231360704700BF0040084045
:10187000041F00210040084600400844F8B5084D08
:10188000084E094F04242C60D6F888305B0300D43E
:10189000F8BD3C60022004F0CDF82C60F4E700BFF6
:1018A0008840084600400840884008440A4A536877
:1018B0005B0708D1094B5B682BB1094B1B6AC3F36B
:1018C0000C03013B9361074B80221A60064A1368A0
:1018D00023F040031360704700000840541F0021AC
:1018E0000010084088400846F41E0021EFF31080E5
:1018F00072B6114B4FF08052C3F880204FF48072C3
:10190000C3F880200222C3F880201022C3F8802070
:101910002022C3F880204FF00052C3F8802080229C
:10192000C3F880204022C3F880204FF00042C3F863
:10193000802003F0B9BC00BF00E100E0984B2DE926
:10194000F74F1F6EDA6E17409F6603F58053D3F88A
:10195000E060D3F8EC201640C3F8E86003F5A0433C
:10196000D3F80012D3F80C2201EA020BC3F808B234
:10197000A3F5005359691A6A01EA02084FEA1842AE
:101980001204DA61874BD3F80022920006D4D3F810
:101990000031C3F34073002B00F0E180EFF31080BF
:1019A00072B6814BDA68D96D12F0060F9A6E01EAB1
:1019B000020914BF4FF0010A4FF0000A29F4006237
:1019C00019F0040F5A6604D0784A13780133DBB259
:1019D000137003F069FC002F00F0DB803D0440F140
:1019E000C180734B7349D3F88830802003F4E052F0
:1019F0000A600860102041F8880C002A00F0B480CA
:101A0000DC0400F1B480580500F1B4804FF4000408
:101A1000B9074FF000050BD5654B6649D3F8883000
:101A200003F460420A60002A40F0A78044F4801466
:101A300017F4005F0CBF002702275F4B3340002BD9
:101A400054D016F4206F07D0002004F00BFF0620BE
:101A500026F4802602F03CFD16F0090F09D0544B05
:101A600020229A60A3F5405301229A62082002F0D6
:101A70002FFD16F0106F19D04D4B20229A604F4A5F
:101A80000123C2F8B8300192EFF31083009372B6CD
:101A9000002003F0CFFA009B184603F005FC019AE2
:101AA0000423C2F8B830092002F012FD16F4202FEA
:101AB00007D0002004F0D6FE072026F4802602F08E
:101AC00007FDF10312D53E4B4FF480321A603B4BB9
:101AD000C3F8E420D3F88020C2F30C023C2A05D8D6
:101AE000D3F8E030DA0301D502F0D8FC730709D54A
:101AF000344B1A684FF40053002A4DD0324A44F454
:101B000080241360700548BF44F0040416F4802656
:101B10006BD02E492E4A0B8812882E481A44043363
:101B20009BB2033A0B8002F03C022B4902444B6209
:101B3000937803F00703042B03D11D484168090380
:101B4000FCD42649013B0A60062B4BD8DFE813F092
:101B5000EE00F100EE00F400F700FA00FA009A46F9
:101B6000994638E7002453E74FF4002450E74FF03C
:101B700000744DE74FF400144AE71A0402D544F00C
:101B8000806455E798044CBF44F4800444F08074AA
:101B90004EE70024002550E7114A1360B2E700BF6A
:101BA0000000084000E100E0005008403709002034
:101BB0000040084088400844090A0B09001008400A
:101BC000EC100844B4040243241008441E09002009
:101BD0001C090020DC0800206010084028090020B3
:101BE00024100846032002F073FCBBF1000F1DD047
:101BF0001BF4805F18BF44F400441BF4807F18BFBF
:101C000044F480341BF4005F18BF44F010041BF44C
:101C1000007F18BF44F020041BF4806F18BF44F00D
:101C200040041BF4006F18BF44F08004B8F1000FAB
:101C30002FD018F0007F18BF47F0080718F0806F0A
:101C400018BF47F0100718F0006F18BF47F02007C3
:101C500018F4802F18BF45F0040518F4803F18BF12
:101C600044F4006418F4801F18BF44F4804418F44E
:101C7000001F18BF44F0020418F4002F09D003F02D
:101C800017FC831EDBB2012B01D9072801D144F4D4
:101C90000034B9F1000F00F0818019F4006F15D005
:101CA000A549A64ACB78002B4FD0013B4FF40060EA
:101CB000DBB25066CB704BB9A14B197840F60143AB
:101CC00000294ED002F1C0626C32136019F0007F1F
:101CD00004D02B2003F0A0FE44F0804419F4E00F60
:101CE00006D119F4805F4DD0BAF1000F00F0D78013
:101CF00019F4001F04D0292003F08EFE44F0005494
:101D000019F4800F2FD08F4B01221A608B4B4FF4A8
:101D100080525A66272003F07FFE8B4B80221A6088
:101D2000102243F8882C44F080542BE044F40054F3
:101D30005BE744F4806458E744F4007455E744F4E6
:101D4000807452E744F008044FE78049012008609E
:101D50007F484FF4006141F61F7E5166C0F800E0F5
:101D600051661367B2E719F4801F76D0754B0122D4
:101D70001A60724B4FF480525A66282003F04CFED2
:101D800044F0006419F4806F08D06B4A9378002BFC
:101D900000F0CA80013B937000231F436D4BDFF8B6
:101DA000FC91D3E900016C4B1A68204001233A40B2
:101DB000294089F8003000F0A7FD002389F80030A1
:101DC000DEB1664C2368B3B1D80712D4EFF31085A7
:101DD00072B6634E63483188022B01F03C0707441A
:101DE00040F022812368002B40F0DA80284603F07F
:101DF0005BFA0023236003F039FBB8F1000F29D010
:101E000018F0007F14D0584BD3F83821D20600F1D7
:101E10002281D3F80011D3F80021520821F47F1158
:101E200002F4FE120A43C3F800214FF00072DA6197
:101E300018F0006F0ED04C4BD3F8383113F0100F60
:101E40000CBF4A4A4A4A4FF400131360494B4FF003
:101E500000621A6003B0BDE8F08F19F4805F91D082
:101E6000384BDFF8D8A04FF0010BC3F800B04FF4A7
:101E70008053CAF86430222003F0CEFD4FF4802353
:101E8000CAF80430DAF85C3013F4A00F7FF47AAFAC
:101E90002A2003F0C1FD384BC3F828B043E7264A97
:101EA000137963B1013BDBB2137123B1002200232C
:101EB00014431D4366E7314B314A1A60F6E7214B64
:101EC00001221A601D4B4FF4805159661F490A6068
:101ED0004FF400625A662B4ADA66EFF3108B72B643
:101EE000294B1B780BB103F0EBFA234B1B6D0093CE
:101EF00003F0DEFA032803D0009BC3F30C032BB1DD
:101F0000224B1A78224B4FF0010A1A70584603F000
:101F1000CBF9BAF1000FC9D11E4B83F800A003F032
:101F200067FA4FF48052C2E71B4A01231360034A49
:101F30004FF48061516630E72009002000500840CE
:101F40003409002040510844884008443051084476
:101F50006C5008441019002008190020280900209E
:101F60001C090020DC080020004008400041084413
:101F70001841084420400844001008406C500846AE
:101F80000000010D00000101350900203609002084
:101F90002D0900202C090020205108441919002087
:101FA00023F00103226822F001029A4240D100226C
:101FB00022601A886FEA42426FEA52429F421A80B8
:101FC00029D12B48078807EB01092A49A1F1040A06
:101FD000043FBFB21A1DA9EB070E8A4228BF524622
:101FE000042F1FFA8EFE2FD89A781B88224907806B
:101FF000C3F30C03CB6302F00702204B0EF07F010A
:10200000042A3180D9605F6205D11D4B1B6803B182
:10201000984703F077FC184BD3F8E030D9037FF5ED
:10202000E5AE02F03BFAE1E6012B08BF3B46B9E71B
:1020300001F03F029A1A121A0D48008848BF403238
:1020400004389042B5DCD1E6B2F900C0BCF1000F13
:10205000CADA1346BCE7D3F81811D3F8182152088E
:1020600021F47F1102F4FE120A43C3F81821DCE6C2
:102070001E090020E0080020001008406010084001
:10208000300900202DE9F04781460F461646EFF350
:10209000108872B63D4D00296AD180232B603C4BDD
:1020A000D3F83021D2070AD53A4901220A604FF409
:1020B0000061596638490A604FF480525A66344CC0
:1020C000364BE36600232367FFF7D8FB344ADFF87B
:1020D000E8A0136843F040031360324BFF221A60FC
:1020E0004FF48073CAF8083004232B60B9F1000F55
:1020F00010D003F0E5F9222003F08EFC4FF480238A
:1021000063602023CAF80830234B01221A604FF481
:10211000805363663FB3304604F0A4FB224B012298
:102120001A6006B3214BDA6E9A6603F580431A6A89
:10213000DA6103F50053D3F80C22C3F80822A3F5A3
:102140004053DA6F9A67A3F50053D3F8EC20C3F835
:10215000E82003F5C043DA6B9A63A3F50053144AF1
:102160005A6603F075F94046BDE8F04703F09CB8A5
:10217000FFF784FB0F4B01221A6004232B6003F04E
:1021800097F9002889D003F0BDFBF8E788400844A0
:1021900000500840305108444051084400000101FB
:1021A000F41E0021004008440C4008440000084090
:1021B0005000F0020C40084600400840704770474D
:1021C000F8B506460D4611B91F2002F081F900232B
:1021D0003562736215B91F2002F07AF9E8680021B0
:1021E0004FF6FF721827CBB2834206D3144621461E
:1021F000304602F09FF92046F8BDAC6807FB034368
:10220000DC89944202D2002CF1D022460131EAE767
:102210002DE9F74F994DDFF898A2EB680193984BA1
:10222000D3F8A080D3F8A470044600F128064FF03C
:10223000010919B10A68501C40F08A8001F0D0FFF2
:10224000904B914A9B691278C3F382139A4204D04F
:102250008E4B3146186801F0F5FF8D4803F048FABF
:10226000814603F05FFB4FEAD9098A4A430803EB32
:10227000C913B3FBF0F0824B1060596811F4801F52
:10228000104640F0A680844ADFF8F4E11268D3F8E3
:10229000A830DEF8A810C2F3810213F4806302F1C3
:1022A0000102C9B218BFD300FF2905D0DEF8AC1077
:1022B000490501D503EBC2038360714BED68D3F888
:1022C000A010D3F8A42088450AD074480378C1F33D
:1022D000802E6EF30003C1F3C02161F3410303704C
:1022E00097420AD06D490B78C2F3802060F38203D5
:1022F000C2F3C02262F3C3030B7023894FF6FF724F
:10230000934207D0664A07211160002B63D1654BC9
:1023100005221A60019BAB4200F0A6806249634F20
:1023200025B12B6813B1AB68002B5DD1EFF31080A2
:1023300072B60B6823F007030B6002F0B5FF0023B1
:102340003B607B60002D7CD12B4619461A4680E00D
:10235000C2F3036EC2F307405AF82EE093B201288D
:1023600043EA0E0311D9820001EB020E08465B1A04
:1023700003EB000C50F804BFCCF800B07045F7D167
:10238000043201EB020B594653E7120F01F1080B1F
:102390004868072AF7D8DFE802F0070409110C0F94
:1023A0001417C04303F180631860ECE71A685040CB
:1023B000FAE703F03FFBE6E709FA00F003F1C06338
:1023C000F2E709FA00F0EDE71A6830EA0202FBD101
:1023D000D9E7002370E7B3F5805F28BF4FF480533F
:1023E000274A013B936195E72D4A07201060187931
:1023F000387093F805E09EFAAEF2B2FA82F2202A23
:1024000008BF4FF0FF325FFA82FC2EFA0CFE02F09A
:102410000F0242EA0E127A709A79BA70DA79FA707B
:102420001B687B60164B01309861EFF3108072B629
:102430000A6882F0070303F0070353400B6002F0C1
:1024400033FF2B68002B80D02A69AAB191681368EA
:10245000D289A36243F2C8239A4228BF1A46216355
:10246000E286304603F012F92378002043F002039D
:10247000237003B0BDE8F08F134666E7EC1F002120
:1024800000000840006008402400002034180020AC
:10249000605107008C1F00210020084018190020FF
:1024A0000400084404000846F41E0021541F0021C3
:1024B000D48D000008B590F86030032B04D0084696
:1024C00001F048FF002008BD022008BD70B590F85B
:1024D0006030032B05460E4611D02971416A39B18F
:1024E00002F00EF830B968626988284602F022F8D6
:1024F000002070BD31462846FFF7DCFFF8E70220D8
:1025000070BD00001B4BDB6813F0060F2BD11A4B7C
:102510005B6803F07063B3F1E06F0AD011D8B3F1D8
:10252000407F22D007D8B3F1807F02D0B3F1007F83
:1025300011D102207047B3F1806FFAD0B3F1A06FD0
:10254000F6E7B3F1206F0ED007D8B3F1006F0AD0D1
:10255000B3F1106F0BD001207047B3F1306F02D090
:10256000B3F1406FF7D10420704703207047052076
:10257000704700BF005008400040084003789A07A9
:1025800070B504464ED5426A002A4BD06FF3410322
:102590000370254BDB686BB1196859B1DB6813B167
:1025A0001B78112B06D82149D1F83C311B0C1B0498
:1025B000C1F83C3153691A68531C09D01B49D1F842
:1025C0003C311B0C1B0492B21343C1F83C3170BD6B
:1025D000D4E91223002203F00403134304D1237827
:1025E00043F00203237070BDEFF3108072B62569CB
:1025F000E36805F480352B43E36002F055FE0022CA
:1026000075B90023D4E9120102400B4052EA0301DC
:1026100008D00749A4F10C000968BDE870400847DC
:102620000423EFE770BD00BFEC1F0021004008400D
:10263000140000202D4B1B6870B52BB12C4C246866
:1026400014B12C4D2D682DB92B4B2A221A602B4B1F
:102650001860FEE7002942D0012934D0B4F90010F7
:102660008A4203DC26499142B8BF11462822A1F1D3
:10267000C80393FBF2F3234A646815785B421BB2EC
:102680009D42DCBF05F1FF331BB24FF47A7604EBB9
:10269000C3020133508852681BB211FB002020EAAC
:1026A000E0709D4200F5FA70B0FBF6F219DC03F120
:1026B0000053013B34F83300904228BF10460028F5
:1026C00008BF012009E0062335F91310914218B222
:1026D00002DD013BF8D118460130C0B270BD1C4686
:1026E000BCE734F833008242D1D9E0E74409002046
:1026F0004C090020480900201C0000202000002078
:10270000C880FFFF38090020FEE70000084B196C65
:1027100010B500225C6C0A43110A0270120C827020
:10272000220AC270230E220C41700271437110BD47
:10273000B081E00F2DE9F84398464369012B064626
:102740000D46174600F0BC80FFF7DCFE012829D1BA
:10275000BB897C68BF68ED1AADB23F2D2CD85B4BAE
:102760001A689442994607D1594B1B689F4203D17E
:10277000B8F1000F00F08F8003F0B4F8804603F04A
:10278000B1F848B1534BB3FBF0F39C4204D3524B26
:10279000B3FBF0F0844216D90E2001F099FE02201E
:1027A000BDE8F883002211460120FFF76BFCFFF71C
:1027B000A9FE0128FBD1CBE7AA09BB0102FB034418
:1027C00005F03F05CBE7B8F1010F4FF010037AD0C9
:1027D000424A1360B8F1000FE1D0C9F8004008FB8D
:1027E00004F43F4ADFF810910023E004610B04F089
:1027F000FFFDC9F82C00D9F830103948C1F3130196
:102800004FEAC8420023A1FB000104F0F1FD354B63
:10281000334A18602E4BF8041F60A0FB08017B0BA5
:1028200008FB0311002304F0E3FD2F4FC9F83C001F
:102830003B7823B9D9F8503003F03F033B702B4B62
:10284000D3F894305A061BD5294BB4FBF3F340F26E
:102850004D5203FB03F14A434CF20C6101FB13237D
:1028600003F5C91303F555631BB92B2001F030FEA6
:10287000012339781F4A4A43B2FBF3F31E4A13651A
:1028800002F0AEFF194BD3F83831DB0654BF1B48BA
:102890001B4802F071FF3046FFF770FE02F008FEA1
:1028A0000428FBD00A28F9D010B10F2001F010FE47
:1028B000114B9D6303F5805380229A6002F090FFD4
:1028C0000020BDE8F8830F4A136086E7D018002087
:1028D000C818002000371789007DDAAC3841084657
:1028E00000F04902CC1800205009002000400840A8
:1028F00000366E018096980000300840C0CF6A0014
:10290000E067350038410844654B2DE9F14F9046AA
:102910001F6861A3D3E9002302400B401343044620
:102920000D4600F08980002300F40022134318BFF5
:102930005C4B00F4801218BFD3F81C310023134302
:1029400018BF584B00F0805218BFD3F81C31002339
:10295000134309D0544B1B6803F07F43B3F1007F4E
:1029600002BF524B02221A6004F0010200231343FB
:1029700048D0002200230120002103F065FCDFF88D
:1029800050A1EFF3108B72B602F092FD484B9A689B
:102990009209C2F30903920548BF43EA0A030646B7
:1029A0000FFA83F902F084FD0238C0B2012865D81D
:1029B000023EF6B2012E8CBF00260126584602F0D8
:1029C00073FC19F5007F5BD1002EDAD1002211468D
:1029D000A7F812900120FFF755FB364B4FF4001279
:1029E0001A60354B1A683AB134496FF0FF0008603D
:1029F00001F1007102400A6000221A603B7B43F043
:102A000008033B73002205F00403134314D0A246CD
:102A100025F0040BEFF3108072B6FD69BB6905F079
:102A200001052B43BB6102F03FFC00246DBB002578
:102A300044EA0A0445EA0B05D7E9152314401D4072
:102A400054EA05030ED01E4B2246196838462B4621
:102A500004F008040025884754EA05031EBF194BFB
:102A600000221A6018F0010F11D0174A13680020D5
:102A7000106063B101B0BDE8F04F184700269DE734
:102A8000124A002E08BF9146A0E70425D0E701B006
:102A9000BDE8F08FAFF300800100181004000000C3
:102AA0002818002000500840041F0021004008465C
:102AB00000700840186008443C0900201870084461
:102AC00014000020401800204009002000FEFFFFF5
:102AD00000FCFFFF08B500214FF4857003F000FFF4
:102AE000064B00221A61012211461046FFF7CAFA6E
:102AF000FFF708FD0128FBD108BD00BF740A0020C4
:102B0000012838B514BF0125022528460CBF04242E
:102B10002C4601F0EBFC70B1012001F0E7FC50B154
:102B2000FFF7F0FC420706D40D4B188840F0807088
:102B300040EA05401860204601F0D8FC78B1012039
:102B400001F0D4FC58B1FFF7DDFC830707D4044A39
:102B500013681B0C1B0443F480732343136038BDBC
:102B6000041F00212DE9F04F3C4C3D4F85B0264617
:102B7000637A3C4D0133DBB2272B88BF25232046E7
:102B8000637203F05BF8B17B374896F80C80023132
:102B900003F032F86B68354A5B7A08F0010840466A
:102BA00012F803A0FFF7ACFF314BD5F80080D3F843
:102BB00088301A0608F10C0922D45146484601F023
:102BC000B9FCE8B9484603F0C7FAC8B9B8F84A30C2
:102BD00042F21072934298BFD01A01F0EBFA80468D
:102BE0008946EFF3108B72B6224AD2F83031DB07F8
:102BF00003D4D36813F0060A05D0584602F054FBFC
:102C0000FFF768FFB4E71C4B039283F800A0FEF7C0
:102C10004DFE039A194BD366194BC2F870A00822D7
:102C20001A60144A01234FF400613B60516640F67C
:102C3000014111670320009342464B4601F086FD97
:102C400018B90F4B80221A60D7E7584602F02CFBC8
:102C50000C4B2B6105B0BDE8F08F00BF540900207C
:102C600030510844740A002061090020658F00007B
:102C700000400840005008403409002000000101D5
:102C800088400844892C000002282DE9F3410D46B4
:102C90001ED002D8012805D0FEE7032851D0FF2816
:102CA0004FD0F9E74F4C237B980707D5FFF712FF6A
:102CB000FFF758FF237B6FF341032373237B9907AF
:102CC00001D4DA071ED402B0BDE8F041FFF74ABFD5
:102CD0008B79CC68DB0734D5227802F00F07032FFD
:102CE00013D0052F2DD140498B7B03F00103B3EBAB
:102CF000D21F04F1080005D10622083104F000FDBE
:102D0000804608B302B0BDE8F08137498B7B03F001
:102D10000103B3EBD21F04F10800F3D106220831FE
:102D200004F0EEFC0028EDD12E4C94F8361004F19E
:102D30003500023102F060FF237B43F0020323736E
:102D4000E0E7FFF7C7FEBEE7FFF7C4FE2E68274D9A
:102D500041465C22284603F059FFAB7E2F8343F0A7
:102D60002003AB76627E237E43EA0223AB84627F3C
:102D7000237F43EA0223EB8494F82330C3F3040354
:102D800085F84F3094F82330C3F3421385F8503060
:102D900004F11E001B232B8500F034FDD4F80E3007
:102DA000E27CEB60A37C2E6043EA0223227D607DFF
:102DB00043EA02432B61012795F84F30AB722F7520
:102DC000E18A394400F00AFD00F0DCF9EA8CAB8CB2
:102DD000074900924FF40060064A03F0CFFD064B0E
:102DE0001F708FE754090020740A0020C0090020DA
:102DF000E98D0000DC8D00001C0A00202DE9F04F59
:102E00009F4E8BB011464FF486709946904603F062
:102E100067FD336934463BB941464FF4837003F094
:102E20005FFD0BB0BDE8F08FB9F1000F08BFB8F13E
:102E3000080F40F0EB8000214FF4817003F050FD4B
:102E400006AA02A9022001F0F3FD0646002800F0C0
:102E5000BC809DF8083013F0F70F06D0EFF3108018
:102E600072B6884B1E6002F01FFA022E08D80022AC
:102E70003046114601F0DCFD0646002800F0A58032
:102E8000B6F8008018F4004F40F09F80B37803F04C
:102E90000703052B40F29980073BD3F1000A4AEB68
:102EA000030A02F085FDC6B2002E00F0AB80764B1F
:102EB0001B6B03F00703063301259D40A8F10608AC
:102EC000724B691E1FFA88F801EA08015B686D1AE7
:102ED00043F00058B542414480F091802A4606A84C
:102EE00004F01DFC06AB721B4146581904F017FC98
:102EF000674B9DF918501E68664BDDF81AB0DA6D05
:102F0000C2F301114FEA124801FB088242F210712C
:102F10008A425AD8DB6903F01F0808F1010890447F
:102F200002F000FD5C4B1427B0FBF7F703FB0877BA
:102F30004FF00A08B0FBF8F0B7FBF0F77F42EFF371
:102F4000108072B6554A564993699846554B1B787E
:102F500009684FF00009DBB229B19269013390464C
:102F60004FF00009DBB2019302F09EF90021894580
:102F7000019B4A4ADFF834E1126BDEF800E008BF3B
:102F8000D8453CBF03F1FF33DBB2013203F003034A
:102F90005846E3FB02010B46434909680246A1FB80
:102FA000028918F1004801FB039949F10009736B8C
:102FB0004846AEFB028910EB080003F5FA734FF4A4
:102FC0007A78B3FBF8F3FF1A0744636806975B7AD5
:102FD0008DF81C309DF81E308DF81D506AF30003EB
:102FE0008DF81E30BDF80A30ADF82030049B0993EF
:102FF00006A923690220984701F0F6FE11E7324640
:1030000006A873E76FF07F053746DEE7B9F1000FDA
:1030100008BFB8F5002F09D1002140F2011003F0DC
:103020005FFC3369002101209847FAE608F4C0529A
:103030000023134309D04FF480714FF4817003F0E3
:103040004FFC336900210320EEE708F440720023AF
:10305000134308D001214FF4817003F041FC236930
:103060000021FF20E0E708F020720023134319BF7E
:10307000012140F2011041464FF48370EDE700BF9B
:10308000740A00204018002000100840301008404A
:103090002818002000600840A08601000050084069
:1030A000880B0A4337090020B4090020B809002022
:1030B00008B5194A19491A4C03464FF4006003F049
:1030C0005DFC184A937E43F040039376164B002232
:1030D0001A70164B1B78012593B102F0AFFF4FF029
:1030E000005340F20222A5601A804FF20F025A806C
:1030F000236823F4E06343F48063236002F044FF19
:103100004FF00052A5601360236823F4E06343F49A
:103110008063236002F038FF678E0000528F00004A
:1031200000500E40C00900201C0A0020BC090020ED
:1031300010B5134CA37E5B0621D4FFF7CBFC2168AE
:10314000A38C40F2E24202FB0312226094F84F107B
:10315000A27A25200A4492FBF0F100FB1122A27210
:1031600022890132228162680A2101FB0323636004
:10317000238B5A1E228313B90820FFF799FF10BD35
:10318000C00900202DE9F04FDFF8B4A1DFF8B4B199
:1031900087B05D4C40F60100218903F0A1FBA37EBE
:1031A00013F04002254640F0AC8043F0010303F0E9
:1031B000FD0362F38203554AA376136821891BB18C
:1031C00092888A4200D19847A37A51481D4495F8C5
:1031D0002A30637502F032FD94E860004D4C4E4A8F
:1031E00063685B7A0120D15C0291FFF789FCD4F817
:1031F0000080FFF787F9012808F10C0907460594BC
:10320000029979D1484601F095F9044600283BD14E
:10321000B8F844307608A81BC01A00F0CBFF8046EF
:1032200005F164003044894600F0C4FFCDE9020195
:10323000EFF3108672B6394DD5F83031D90704D581
:10324000304602F031F803241EE0354BEB66354B77
:103250002C671F70344B1C70DAF8003023F04003E9
:10326000CAF800304FF40063CBF800706B662F4B48
:10327000EB66424600944B46032001F067FA50B9D2
:10328000304602F011F83C4601F0AEFD002C35D07E
:10329000FFF74EFF7DE7D5F83031DA0703D4244B32
:1032A0005B685B04CCD5234B1C4D01271F7002F0DB
:1032B000CFF8214B1F604FF480536B66EB6E23F009
:1032C000F85323F4F81343F0506343F48033EB6670
:1032D000002300930420DDE9022301F037FA38B916
:1032E0004FF40063CBF800706B660D4BEB66A7E7FD
:1032F000304601F0D9FFC7E70224C5E7059A0F4B16
:10330000136107B0BDE8F08FC0090020540A002007
:10331000CC090020740A0020658F0000005008408E
:10332000000001013409002036090020010C0100D1
:103330000040084035090020405108449D330000FA
:10334000F41E002130510844044B5A6D22B95865CF
:10335000A3F858100120704700207047C0090020D2
:10336000D0B50C4CE38C0A20584303F0A9FD064667
:10337000A08C0F4603F0A4FD0022074B03F006FECD
:1033800002460B463046394603F02AFF04F010F897
:103390002083D0BDC00900200000F43F2DE9F04794
:1033A000022886B00E460BD003D8012800F0FA811F
:1033B000FEE7032800F0FE81FF2800F0FB81F7E71D
:1033C000B64DCC68AB7ED90708D56FF30003AB765A
:1033D00000236B6033682B60FFF7C2FFB77917F0EB
:1033E000010742D14FF0FF3140F6030003F078FAB5
:1033F000AB7EAB4C13F0200F12D0696D6FF3451309
:10340000AB76002900F0B681237895F858206270D9
:1034100043F003032370A01C04F081F900236B65C3
:10342000A04803F0B5FAAB7E003018BF012060F36E
:103430004103DAB2AB762378C2F3001161F3820361
:10344000C2F3C00262F3C30360F304132370218844
:1034500040F6020003F044FA617891480231C9B2A3
:1034600002F0CAFB06B0BDE8F087218840F60300F1
:1034700003F036FA2378AA7EC3F3001363F38202C3
:103480002378AA76C3F3C001C2F30012914208D197
:1034900003F00303022B00F0488104D8012B00F055
:1034A0006681002787E0A3787F4A80494FF48050E7
:1034B00003F064FAA378022B00F0998012D8002B55
:1034C0005DD0012B40D07A4A16782EB1162B00F031
:1034D000CA80182B00F010817648072202704370D2
:1034E00002212EE00C2B22D0142B00F08F80082B11
:1034F000E9D12646704956F8032F73684FF480507F
:103500008DE80C006D4A03F039FA6D4B3268998AE8
:10351000C8B20240674801F47F4106460A430921C8
:1035200006F8011B0023C0F80120736009E0614820
:1035300000220370012343708370C27003714271D3
:103540000621FFF701FF36E023895E4A5E494FF40A
:10355000805003F013FA627A237A5C4943EA02232B
:103560008B800B465A4A43F8062B224652F8030F2B
:10357000C1F806009188998092799A711BE0A3891D
:10358000544A51494FF4805003F0F8F9627B237B91
:103590004E4843EA0223838003464F4A43F8062BF2
:1035A000224652F8031FC0F806105168596011896D
:1035B0001981927A9A72AB7E2178C3F3C002C1F36B
:1035C0008001914207D082F0010262F3C303DBB2B3
:1035D00043F02003AB76002F3FF40AAFAB7EC3F37A
:1035E000001282F0010262F30413AB7600E7E37885
:1035F0003A4A3B494FF4805003F0C0F92A89334BD3
:1036000005329A80374A1A60E278B6E7B4F80920A2
:10361000B4F803300292B4F807200192B4F8052000
:1036200000923149314A4FF4805003F0A7F9B4F8C1
:103630000530B4F803201F48DB08934228BF134627
:103640002B85152300216FF004066FF0270203700D
:103650000723817081714670C27003714671C27117
:10366000037209216DE72279E378214900924FF432
:103670008050204A03F082F92279E3780D48134004
:1036800003F00303022B18BF01231722032102704A
:1036900043708370FFF758FE37468CE7C00900205F
:1036A0008C0A0020380A00205E8E0000768E000012
:1036B000500A0020680A0020A98E0000498E0000F0
:1036C000740A00201A8E0000878E0000540A002021
:1036D000795B0000288E00001D5B00003C8E00001E
:1036E000978E0000095B0000C28E0000548E00001F
:1036F000048F0000068E0000B4F80520E3780192E4
:10370000227900922E492F4A4FF4805003F036F967
:103710006279A1792C4B42EA01229A802B4A1A60E5
:10372000D4F80320C3F80620B6E7B94694F8018020
:10373000B8F1000F3FF43FAF2548868A03F028F91F
:10374000301A04F1020A80B2B9F1000F04D0022845
:1037500086BF023880B200201FFA88F383423FF60A
:10376000A0AE524649461A4803F056F923E74FF0F7
:103770000009DBE795F828301648A21C0DF1170167
:1037800003F0B4F9C0B258B19DF81730002B0CBF4C
:10379000012202222378607062F3010323703FE666
:1037A0000122F7E70C4B9B7E9A073FF55BAE5B0768
:1037B0003FF558AEFFF7BCFCFFF7E4FC52E600BF54
:1037C000248F00000D8E0000540A0020D95A0000FA
:1037D000200A0020380A0020C0090020084A10B53D
:1037E000146840F2E243584303FB0141536800F57B
:1037F000807001EB500118441160506010BD00BF93
:10380000C009002030B500228BB01346D91003F058
:103810000704415C2141CC0741BF0AA98918013244
:1038200001F8283C0133252BF0D10D4C0023D91091
:1038300003F00705415C2941C9075FBF0AAD93FB4F
:10384000F2F102FB113149194EBF237011F8281C07
:1038500021700133252B04F10104E8D10BB030BDF8
:10386000EA0900202DE9F0474A4B4B4CDFF8509114
:103870004A4D0E464A491B1B17460B44D9F80020F7
:1038800023F4FF63801A23F0070398422860C84698
:1038900009D2444B1A78314637440020B94272D1DC
:1038A00088B9BDE8F0873A44141802F07DFAA0F513
:1038B00080508442EDD2D9F800003C18B4F5806FF6
:1038C00003D98222374B1A70EBE7DFF8F0A03146BC
:1038D000354E3A46504403F022FFC9F80040D6F86E
:1038E0000090B9F1000F1DD1B4F58E7FD9D32F4AC6
:1038F0000AF586730AF58E7A53F8041B42F8041B06
:103900005345F9D1294802F0E1FA08B98422D9E7F0
:103910001022FF21264803F079F92B68254A03F588
:10392000867313602868244B04F003070444E41BE7
:103930001C40B9F1000F09D11840C0F500612144C5
:1039400002F034FB346040B18522BBE7A14504D2CC
:10395000A4EB090109F50060F2E7D8F80020174947
:103960002868D21B02F034FBD8F800202B681449D9
:10397000D21B0446134411482B6002F08BFB002C31
:10398000E2D1BDE8F08711F8014BFF2C1CBF0120EC
:10399000832283E7A800002010000020E80F002009
:1039A0007F9E0000E50F0020181600200012002066
:1039B000201300201012002000F8FFFF1412002036
:1039C0001416002070B50E46B0B902F09FFA0446F6
:1039D00002F09CFA60B1094D04F5867304F5A274F7
:1039E000186859682A4603C20833A3421546F7D11E
:1039F000034B33600423B380002070BD8C0B002088
:103A0000AC0B002010B50C4630B9044802F026FB80
:103A1000034B23600423A380002010BDC80B0020AB
:103A2000CC0B00202DE9F04F01288DB040F04881EB
:103A30008A88002A00F04681A44D95F800B0BBF1B9
:103A4000000F00F04181A24B1C7898465CB9A14858
:103A5000067882463EB9A04E30681718B7F5806FD9
:103A600005D982241C7020460DB0BDE8F08FDFF828
:103A700084920968484403F052FEBBF1020F37609C
:103A800049D0032FEFD905A802F0E8FA9DF81430C9
:103A9000D9F80020012B914B31D19A4261D1079B7B
:103AA000DB032ED502232B7002F0C8FA8C4B1A6868
:103AB000A2F17E63A3F58433B3F5104F04D2136BE8
:103AC00003A99B68002098470398864B864A186094
:103AD00020F4FF6323F007034FF40061136002F04A
:103AE00065FA38B902F012FA90B14FF4006102F0B1
:103AF0005DFA68B1852388F800301C46B3E79A4226
:103B00002FD1842388F8003098F80030002BF2D1B0
:103B10002B78022BA7D1754B754F1A7812F0F70F3F
:103B2000994640F0A0806F4B35681B6805F0030B89
:103B30001D443B681D446C4B0193A5EB0B0525F41C
:103B4000FF65186825F0070585420DD9291A00F58B
:103B5000006002F02BFA019B28B1852488F8004010
:103B600081E78623CEE71D605D4B1A68A2F17E6374
:103B7000A3F58433B3F5104F72D2126B3368156915
:103B800039685C4AA3EB0B030020A847054632685E
:103B90003B6851495748A2EB0B0213443B6002F0CB
:103BA00079FA002DD9D199F80030002B7FF45BAF62
:103BB0003B687F2B7FF757AF03A905A801F0E0F919
:103BC00010B9059B89F8003099F8003013F0F70F11
:103BD0003FF449AF424D3B682968A1F17E62A2F5EE
:103BE0008432B2F5104FB8D20A6B0021D2F80C9093
:103BF000404A0846C8470028AFD13B6833603A4B7B
:103C00003D4F18603D4B7B602A68A2F17E63A3F5AF
:103C10008433B3F5104FA0D2936A39484FF4007142
:103C20009847002899D129683368A1F17E62A2F5EE
:103C30008432B2F5104F40D2CD6A2E4A3048394610
:103C4000A8470546326824492A4802F023FA40F280
:103C500003239D4223D040F201239D422BD102E752
:103C60004FF4817593E73A6833681A443A601C4A06
:103C70001168A1F17E62A2F58432B2F5104F12D222
:103C8000CD6A1C4A1C491E48A8470546326812499D
:103C9000184802F0FFF940F203239D4206D10123A8
:103CA0008AF80030DFE640F20225EFE740F2012318
:103CB0009D423FF478AF802450E740F20225C1E7EF
:103CC0000024D0E60D24CEE68124CCE6E60F0020C9
:103CD000E50F0020E40F0020E00F0020EB17A60303
:103CE0002808E10F1C16002018160020C40B002025
:103CF000EC0F0020E00B0020F00F002065380000E2
:103D00000010002001282DE9F34740F038818B880E
:103D1000012B40F036810B681B7813BB9B4A9C4CEF
:103D200013609C4A13609C4A13609C4A13609C4A2F
:103D300013609C4A13709C4A13609C4A136022785B
:103D4000022A01D102F06AF901232370984B002462
:103D50001C70984B1C70984B1C70204602B0BDE83C
:103D6000F087032B40F0F180934B894E1C78002C98
:103D700057D13378002B00F0E2808A4B1B78082B58
:103D80007BD1824A13689046F3B98C4D2B68A3F11E
:103D90007E63A3F58433B3F5104F6CD201F014F9B0
:103DA000002868D12A680190A2F17E63A3F58433CC
:103DB000B3F5104F04D2136B01219B6901A89847FA
:103DC0007C4B01221A702CE013F003071ABFC7F1D5
:103DD0000407FFB2274603EB070ABAF5806F00F22B
:103DE000B28077483A461844FF2102F00FFF6E4B2D
:103DF000684AC8F800A015681A6815445544DFF8E9
:103E0000A0A125F4FF65DAF8000025F0070585423A
:103E100099460BD9291A00F5006002F0C7F818B1CD
:103E200085240023337098E7CAF80050634AD9F814
:103E300000101068D8F80030A0F17E62A2F584323C
:103E4000B2F5104F14D2026B002015695C4AA847E6
:103E50000546D9F80030D8F800204C49584813449A
:103E6000DF1BC9F8007002F015F9002DD8D18CE7DE
:103E70004FF48175EDE78024D3E7002B61D04C4BE4
:103E80001B78002BF7D0494F3B6843B9434B4D4952
:103E90001868102202F09CF80028C1D1C1E713F085
:103EA00003021CBFC2F10402D2B203EB0209B9F54E
:103EB000806F48D84448384DDFF83481FF211844DA
:103EC00002F0A4FE4149424B424AC7F800905B1AF7
:103ED00013442A6803EA0803934201D98324A0E724
:103EE000914401F061FFA0F580508145F6D22B6826
:103EF0003A68DFF8AC901344D9F8000003EA0808E8
:103F0000804509D9A8EB000100F5006002F04EF8E9
:103F1000002885D1C9F800803A682B49286802F04A
:103F200057F82B683A6821498046134426482B608D
:103F300002F0B0F8B8F1000F7FF472AFA6E7812469
:103F40006FE784246DE782246BE7042B1BD1224C9E
:103F5000224A234913234FF4006002F00FFD13237C
:103F60000221204663702170FFF7EEF91D4A1E4BB7
:103F7000128905329A801D4A1A6062789A7100246B
:103F8000EBE60D24E9E60624E7E600BFE00F00209B
:103F9000E60F00201C160020E80F00201012002061
:103FA00018160020C40B0020EC0F0020141600206F
:103FB000E40F0020BC090020E50F00202808E10FD5
:103FC000E00B00200012002014120020100000203E
:103FD000A80000207F9E0000680A00208D8F00004E
:103FE000528F0000C0090020540A0020095B000025
:103FF00000F8FFFF10B508B3114B1A689188814291
:104000001CD39988814281BF0121126899809A60EE
:1040100099889A6800242AB904B19A604FF6FF7112
:10402000998004E0884204D10CB198809A601046CF
:1040300010BD013189B201241268ECE70022F6E7D5
:10404000D40B00202DE9F04385B0044688468DE866
:104050000C000C9EBDF83470FFF7CCFF4FF6FE79D4
:1040600005460DB1444505D94FF6FF74204605B00D
:10407000BDE8F0832B7A9DF804209A421ED1009966
:10408000686803F03DFBC8B9002EEFD02B69AA8AFF
:1040900053B14A4508D10290ADF80C0002A99847E7
:1040A00060B9029BBDF80C2043B1974206D13A4655
:1040B0001946304603F024FB0028D7D001342D6880
:1040C000A4B2CEE70B4BD3F8942002F00702022AE9
:1040D00004D001D3042A0AD9074800E00748D3F8DE
:1040E0000031C3F304230133B0FBF3F070474FF406
:1040F0000040F4E700400E40C0EA210100F0490210
:1041000070B525490B78032B44D0244C236823F445
:104110007F5222F00802130A5A2803F47F5316D95B
:104120004D88B5F5E16F14D8C92843F6C87632BF7B
:1041300000250125334613431E2823604FF0010359
:104140000BD8174A136093610822164B21E0002513
:10415000F1E7012543F6C873EDE7134A50281360D1
:104160009361F1D94B88B3F5E16F01D87828EBD989
:104170000E4A4DF601731360002D936102F1007237
:1041800014BF4FF457434FF4504313609361084BEF
:1041900008221A6070BD00BFDC180020E81F002153
:1041A0000841084494400844084108460441084432
:1041B00094400846084B09491B68096830B54FF020
:1041C00000440025E3FB00452A460023E0FB0123D1
:1041D0001046194630BD00BF381800203C1800209A
:1041E00008B501F07FFB0138114A1249124B08282B
:1041F0001AD8DFE800F005190F0F12121616160074
:104200000E480078116001280CBF4FF04412442280
:104210001A6008BD11600022FAE711604FF03312F6
:10422000F6E71160A222F3E71160054AF0E700BF4C
:1042300050410844F701F70150410846DC180020BE
:10424000A200F700F8B53D4B3D4A002808BF012009
:1042500018603C4B9B69C3F38213072B0C46137009
:1042600005D0012202FA03F313F04C0F61D1364B53
:104270001B78022B5FD0012B0CBF3221B421334DB0
:10428000002342F2107601FA03F252117243B2FB9C
:10429000F5F2904202D30133102BF4D129482C4A75
:1042A0002A4F0904C0F8BC1040F6FF711160013BB1
:1042B00002F100721B021360D0F8BC10D0F8BC30C1
:1042C000D0F8BC20D0F8B850D0F8B8E0D0F8B8603A
:1042D0001D48C6F30326C2F30742C3F30723CEF3F8
:1042E000031EB24005F00F0503FA0EF3C9B242F205
:1042F0001076A94052115B1172437343B2FBF7F27F
:10430000B3FBF7F3491113444E43B6FBF7F61E44D3
:10431000868005465CB1204601F09EF9204601F0FA
:1043200081F9204601F0E8F8204601F067F9A888F5
:10433000F8BD0021A3E79621A1E700BF34180020B3
:104340002400002000600840DC18002000DC05008C
:10435000B8600844F8B50446C820FFF7D1FE444BC6
:1043600044481E78032E03D1FF2404702046F8BD74
:10437000012E414D16D1072C12D8012C08BF022462
:104380002A683E4B134043EA04632B603C4B0422F3
:104390001A60A4B2E4B204702046FFF7B1FEE5E76C
:1043A0000724EDE7296821F0F95121F4FE1141F4C9
:1043B0007F5141F008012960002E48D1042C48D9D2
:1043C000231FDCB201272F4BD3F88821D24302F4FC
:1043D000FE1242F40052B2FA82F2C2F11302C2EBB0
:1043E0004212D3B2A34228BF2346DBB29AB296BB95
:1043F000BC001444244A83BB244EC2F858611F26D3
:10440000B3FBF6F6F2B202F1010EC6EB461601223C
:104410009E1B02FA0EF2013A3606920306F18076EE
:1044200002F47F1231431143174A2960D2F8583100
:10443000D4B123F07F4323F0040343F07F43C2F859
:1044400058314FF480038FB1114A1360A2E700275F
:10445000B9E73746B7E70024CBE74FF0E066013B0A
:10446000C2F85861DBB2CAE70A4BE8E70A4AECE750
:10447000DC18002018000020E81F00213F00C0E0E9
:104480005841084400400E40004008402C000007FE
:10449000084108460400000708410844094A0A493F
:1044A0004FF48033C2F8E8300B60916B074BC9B210
:1044B0009961926BC2F307229A6104229A610022E9
:1044C0009A61704700100840EC10084660100840E0
:1044D000034B044A18601860034B12681A60FEE729
:1044E0001C0000202818002020000020431E012B63
:1044F00003D9031F584258417047012070470000FC
:10450000B1F9122047F6FF739A4210B50BD0074B52
:1045100004791978064B1868FEF78CF884428CBF32
:104520000020012010BD012010BD00BFDC180020BC
:10453000281800202DE9F04F6D4F466A3B68D0F8EF
:10454000209089B00025039343880193039B8DF845
:104550001F50B342044688468DF81E5003D113B154
:10456000019B99424ED0B9F1000F00F0BC80D9F800
:104570000820002A00F0B780D9F80C20002A00F0AB
:10458000B2805C4A0492136802934FF0000A18222A
:104590004FF0010BD9F80C108A4515D2D9F8085004
:1045A00002FB0A55E989414531D8298A41452ED374
:1045B0002946204605928DF81EB0FFF7A1FF059A07
:1045C00020B38DF81FB02E464B4A92F800A09DF8FC
:1045D0001F20A4F10C0BEAB121792046FDF76AFFF8
:1045E000049B1A68002A63D091453AD139680029A2
:1045F00037D08E4235D1019B98451ED16662A4F812
:1046000002800025284609B0BDE8F08F2E460AF149
:10461000010ABFE79DF81E20002A66D0B6F91220D5
:1046200047F6FF718A4206D0344958460978FEF7AA
:1046300001F80146D1E7FF21CFE70023324641468A
:104640002046FEF777F805460028D7D05146204689
:10465000FDF730FF00233A6801992046FEF76AF81B
:10466000D0E7116821B3D9F80000814220D1516808
:104670002046FDF7CDFD0546E8B931682046FDF737
:10468000C7FD0546B8B9049B6662C3F80090A4F85C
:10469000028001233246414620463E60FEF74AF83A
:1046A000054640B9164B31461B6858469847A9E75E
:1046B000D9F80010DCE7049B1A46029B1360039BA9
:1046C0003B60029B1BB119682046FDF7A1FD5146D6
:1046D0002046FDF7EFFE3B68002B93D0196820467B
:1046E000FDF796FDB6E703258CE701258AE700BFB5
:1046F000301800202C18002018000020DC180020A2
:1047000028000020F8B5EFF3108072B60C4B0D4D69
:10471000AE691C780C4B1B68E4B25BB9002700F053
:10472000C3FD2B6B04F00304013330463946E4FB30
:104730000301F8BD0134AE690027E4B2EFE700BF22
:104740003709002000500840880B0A432DE9F04F3C
:104750008BB09B469DF85030059305469246EFF38B
:104760001083049372B6A94AA94E0301134401248D
:104770004FF4807909931C6009FA00F30393736680
:10478000059B022B04D1049800F08EFD012041E02E
:10479000FFF7B8FF059B012BCDE9000109D11AF104
:1047A000010A4BF1000B10EB0A0341EB0B049A4694
:1047B000A346306B002110F1010841F100094FEAD6
:1047C000890343EA98734FEA88029B4508BF9245E4
:1047D00023D28F4BDDE900671A6BDDE90034B6EBBD
:1047E0000A0667EB0B075C4508BF53450AD2013246
:1047F0004FF0000343F100039900900041EA9271E9
:1048000036184F41B94508BFB0450BD3049800F0A6
:104810004BFD00200BB0BDE8F08FBAEB020A6BEB4A
:10482000030BD2E77A490C6FC96E21F0604105F1A4
:10483000090324F0E00421F460011A02E404090CE5
:104840001B0642F00102090443F48033E40C944255
:104850000CBF0424002499426D4BD96E21F0E00175
:104860004FEAC1414FEAD14108BF44F002048A42F5
:1048700008BF44F0010414F00102089202D0654A16
:10488000C2E900ABDDE90067DDE90001BAEB06062D
:104890006BEB07078B4508BF82451A6B0AD20132C2
:1048A0004FF0000343F100039900900041EA927138
:1048B00036184F414B4642463046394602F098FD85
:1048C000554BC0B25855CB4508BFC24575D278B1DB
:1048D000089B1BB1514B41F61F721A60A00742BFE3
:1048E0004E4B4F4A1A60610742BF494B00221A677C
:1048F000474E06EB05134246C3F80CA1DDE9000163
:104900004B4602F075FD00FB09F301FB0833A0FBE9
:10491000080110EB0A02194441EB0B03CDE9062311
:1049200005F110031B011122F250FFF7EBFEDDE948
:1049300000ABDDE90078B0EB0A0A61EB0B0B4145F7
:1049400008BFB842326B0CD201324FF0000343F182
:1049500000039900900041EA92711AEB000A4BEBB8
:10496000010BDDE90001326BDDE90667361A67EB02
:104970000107DDE90089DDE90601494508BF404539
:104980000AD201324FF0000343F100039900900076
:1049900041EA927136184F411D4BBB4508BFB245E5
:1049A000DA6DFFF4F0AE03990A427FF4ECAE1A4AD6
:1049B000525D012532B11966E5E6BAEB080A6BEBE8
:1049C000090B80E7059A22B9099A1560039A5A667D
:1049D0001CE7039A1A66089B43B1104B114941F634
:1049E0001F7240F201101A6008601A60A20706D513
:1049F0000A4B0C490A4A0C481A6008601A6063079F
:104A000042BF0A4B01229A60BDE600BF0051084434
:104A10000050084020180020200900206C50084455
:104A200000001F1F6C5008460000010100400840B4
:104A30002DE9F0410E46EFF3108772B6434B444D1B
:104A40001B88DFF81CE103F03C01022829441CD13B
:104A500040480468B4B9BEF800401C44033C04F06C
:104A60003C042C4403F03F03E31A5B1BBEF8000038
:104A700048BF403383420DDB384600F015FC002070
:104A8000BDE8F08124F00104ECE7012814BF0446DE
:104A90000C46E7E70EB9002A50D08C4226D12E49A9
:104AA000C96B1FFA81F80AB1A2F80080002E45D028
:104AB0002949D1F88020C2F30C0293421FDA2388DF
:104AC0009DB21B04D8D4A27802F00702A5EB08051A
:104AD000052A3270C5F309051ED900F069FF2D1AA9
:104AE0002DB2002D18DA0420FFF7F2FC211FA94295
:104AF00038BF2146B1F80080C8F30C08D3E78D6BAE
:104B0000A5EB0805C5F3090500F0D2FCE5B90328BB
:104B10000CBF082300233370104A7580C8F30803C4
:104B2000D118B1605919B1F5007FC9BFC3F5007341
:104B30000023B380F260DCBFB580F360384600F03C
:104B4000B3FB2046BDE8F0810823E4E71C09002000
:104B5000DC08002028090020001008402016002052
:104B60001E09002010B4EFF3108072B60E4A0F49F0
:104B70000F4C01239365C2F8883000230B604C6012
:104B800003244C620B490C800B495DF8044B0B80ED
:104B90004FF4A021C2F8E81002F1C062EC321160BB
:104BA000064A136000F080BB001008406010084007
:104BB000DC0800201E0900201C0900202809002014
:104BC00037B50379124A03330446019300F14403D5
:104BD000009306CA0223143001F012FB228A0192CC
:104BE000E268237A009204F12C0094E8060001F0B8
:104BF00007FB237AA4F84500054684F8443022795F
:104C0000216804F1470002F08AFD284603B030BD58
:104C1000C88F000007B503790193054A0368009324
:104C200006CA0223083001F0EBFA03B05DF804FB7A
:104C3000D08F000070B50D4C0D4B06460D4694E824
:104C40000300083483E803001846FFF7E3FF094B2D
:104C500094E8030002221A7283E80300DE601D82DA
:104C60001846BDE87040FFF7ABBF00BFA08F000043
:104C7000A4180020441800200A4B40F2011210B57D
:104C80001A604FF0FF329A6001225A6008441A46B7
:104C9000814202D1D869C04310BD11F8014B946123
:104CA000F6E700BF00C00140C0F30323013B10B58D
:104CB0000446092B1BD8DFE803F033231B1A052613
:104CC000291A2C30184B0022C4F3043442B117497E
:104CD000D1F84401C00703D4D1F840010242FBD10E
:104CE00003F1047304EBC3039B0001221A6010BD9F
:104CF0000F4801F0B5FC01F093FD00220D4BE3E7F6
:104D000000220D4BE0E701220C4BDDE710220C4B9B
:104D1000DAE74FF480320B4BD6E700220A4BD3E799
:104D20000022024BD0E700BFB0400E4000400E40D2
:104D300000250800B8400E40C0400E40E0400E4044
:104D4000E8400E40F0400E4050410E4010F0080F79
:104D500014BF1E4A1E4A082310F0010F136014BF2F
:104D60001A4A1B4A012310F0040F136014BF194A9A
:104D7000194A4FF4007310F0020F136014BF134A66
:104D8000134A0223136010F0100F144B00F0600060
:104D900014BF00221B224028DA64114B11D0602876
:104DA00003D0202810D1012208E00E4AD2685AB15F
:104DB0001168012908D9526942F001021A610020E4
:104DC000704740F20112F9E70022F7E74400084675
:104DD000440008441C6008461C6008440000084069
:104DE0005C1F0021EC1F002138B50C4BD3F8EC50B0
:104DF00003F18063EC334FF480641C60084B0020A7
:104E0000186001F02FFD074B4FF400521A606A053D
:104E100003D503F1007398331C6038BD00100840BF
:104E20004018002054100844F8B5042800F29E8071
:104E3000DFE800F00A031192970080244025062342
:104E40000722002970D17EE04FF400744FF4807582
:104E500008230922F5E7002973D0454A536A13F065
:104E6000300F5ED1434BDB6B536ADC0705D5536AC9
:104E700023F0300343F0100353620322022304257E
:104E80003B4C25663C4C23449B001E68002EFCD006
:104E9000224494002368002BFCD0022866D100290C
:104EA00064D0334B5A6A12F0010F1A463ED04FF4C9
:104EB0008062C3F8A82020225A665A6A12F0300F86
:104EC0000CBF4FF440024FF40002D3F8901032EAC6
:104ED0000101FAD1520201D5D3F8A030244E0021AD
:104EE0000220D6F89C70FFF79FFFD6F89030726AC8
:104EF000224B22F0300242F010027262C7F30A071E
:104F0000316BFA0903320F2A03EA010328BF0F228B
:104F10003B4343EA0273336335662368002BFCD0BE
:104F2000F8BD0322022304250021A9E7536AD2F821
:104F3000903003F44003B3F5400FF8D1D2F8A0301D
:104F4000CCE7082402230A4A14660B4A1A4492004A
:104F50001368002BFCD1F8BD0125022400232A464A
:104F60006FE720241025042305226AE7F8BD00BF5F
:104F700000400E4000300E408004F21000F8FF0F99
:104F800070B5104C2268A2F17E63A3F58433B3F5AB
:104F9000104FE0B005460E4610D2136B69465B6AAF
:104FA0004FF4C0720020984730B923681B6B32461B
:104FB000DB6A29466846984760B070BD4FF40170BF
:104FC000FAE700BF2808E10F70B5194D2A68A2F171
:104FD0007E63A3F58433B3F5104FE0B004D34FF4F0
:104FE0000174204660B070BD136B002BF7D05B6A74
:104FF0004FF4C07269460020984704460028F0D15B
:1050000040F201262A68A2F17E63A3F58433B3F54A
:10501000104FE4D2136B00219B6A68469847B04258
:10502000F0D040F20323984218BF0446D9E700BFEE
:105030002808E10F042806D80138032806D8DFE83D
:1050400000F00202020200231B78FFDE704700001E
:10505000174BD3F88031032828D8DFE800F002107E
:105060001316DBB299B91B0313F4702F1ED111492B
:10507000CA6E22F470421343CB6601207047C3F31B
:105080000723EFE7C3F30743ECE71B0EEAE7012929
:10509000F3D11B0313F4702F08D10648D0F8EC208D
:1050A00022F470421343C0F8EC30E6E7002070476A
:1050B000B081E00F00300E40304B1A6FD96CC90739
:1050C00002F0070242D5012A40D9132851D91438D9
:1050D00013288CBF102308232849013BC86C1A03EE
:1050E00042EA032320F47F421343CB64244BCA6C6F
:1050F0001B88C2F303222833013202EB820003EB48
:105100005303B3FBF0F3C86C013B072B20F0EE60B8
:1051100028BF072340F4801040EA0363CB64194B97
:10512000B3F90030002B10DB2833500800EB4202AB
:1051300003EB5303B3FBF2F30A6D072B28BF0723DE
:1051400022F0700242EA03130B657047DB6CD9074B
:1051500006D4012A04D809280BD90A380928B8E747
:10516000064BDB6C13F00103B6D0012A03D82728C5
:10517000AFE70423B0E70023AEE700BF00300E40E6
:105180009E180020A0180020054A064B1B68136FCC
:1051900023F007031843044B10671888FFF78CBFF0
:1051A00000300E408009C6439C18002042EA0323C9
:1051B00040F2011293422BD0B3F5817F08D2012B2C
:1051C0001DD030D3B3F5807F31D0002213461CE0D0
:1051D00040F20122934222D006D8B3F5007FF4D1E9
:1051E000174BD3F870310DE0B3F5407F23D040F278
:1051F00001329342E9D1124BD3F878310BE0104BD6
:10520000D3F87431C3F30722DBB203600A6070473E
:105210000B4BD3F874311A0EC3F30743F5E7084B71
:10522000D3F87831EEE7064BD3F86C31EAE7044B5C
:10523000D3F86C31EFE7024BD3F87031EBE700BFE6
:10524000B081E00F044A1368002BFCD1034B58686F
:10525000C0F30140704700BFC800C64300300E4095
:1052600038B50E4C0D46D4F8002108B9FEF72AFFD8
:10527000D4F80031FEF726FF0446FFF7E3FF58B1EC
:10528000074B40221A610021204601F09FFA1DB110
:10529000044A1368002BFCD138BD00BF00400E400B
:1052A00000300E40C800C64300B962B67047000027
:1052B00000F00F000138072848D8DFE800F0040F9D
:1052C0001947232D4735244BD3F8943003F00703B7
:1052D000023B022B3CD8214AD05C70471E4BD3F8CE
:1052E000803003F00703013B032B33D81C4AF3E75C
:1052F000194BD3F8843003F00703013B032B29D863
:10530000184AE9E7144BD3F8883003F00703013B50
:10531000032B1FD8144ADFE70F4B1B6F13F0010F4D
:1053200014BF0920072070470B4BD3F85C3103F002
:105330003003202B06D0302B06D0102B0CBF0720BB
:1053400001207047042070470820704700207047F4
:10535000052070470120704700400E40B98F0000C3
:10536000BC8F0000C08F0000BC8F0000194B2DE9DE
:10537000F0411F68184B194D02221A60AB6913B334
:10538000EFF3108072B6DFF864800024D8F8006074
:10539000C8F80040FFF788FF0F23C8F800406C6290
:1053A0002C612C606B600E4B196851B11C60EFF3DF
:1053B000108072B60B4A936923EA01039361FFF7E9
:1053C00073FF06B1B04717B9074B02221A60BDE858
:1053D000F08100BF0419C843C8400E460080084051
:1053E000D818002000300E40C8400E44C4180020D9
:1053F000EFF3108072B6124B1978B9B9114BD3E99B
:105400000023002302F4105213430FD10E4B10223D
:105410001A600C4BD3E90023002302F4807213437B
:105420000AD00A4B20221A60FFF73EBF074B10221A
:105430001A600029F5D1ECE72022034BF3E700BF07
:105440002C0900201019002094400844944008467C
:10545000044B00221A70044B197811B11A70FFF72F
:10546000C7BF70472D0900202C09002038B50C4B10
:105470001B789BB10B4B1C6DC4F30C0474B9FFF784
:10548000E7FF094B094DD3E900012246012300F44F
:10549000805000212B70FDF737FA2C7038BD00BF0B
:1054A0002D090020001008401019002019190020B3
:1054B000024B5868C0F30360704700BF00400840CB
:1054C00008B5EFF3108172B6FFF7F2FF032806D19B
:1054D000074A136823F0F00343F0E0031360054B21
:1054E00001225A620846BDE80840FFF7DDBE00BF52
:1054F0005C1F002100000840124B828A9B88D21A50
:105500008368C3F17F4303F57F0303F576433C33A0
:105510004FF47A7101FB02320368D21A0A4B196800
:1055200030B5D517A2FB012312F1807201FB0533C0
:1055300043F10003520E42EAC312044B803A9A61CF
:1055400030BD00BFDC180020E41800208C1F0021B3
:10555000094B1B6830B5C517A3FB000110F1807023
:1055600003FB051141F10001400E40EAC1108038F3
:1055700020EAE07030BD00BFE4180020C28908B501
:105580004FF47A7353435AB1026802F51C52103239
:1055900013440279002A46F2A81008BF00200344F1
:1055A0001846FFF7D5FF014B586208BD8C1F00213C
:1055B000826808B5038B4FF47A7101FB03230279EB
:1055C000A3F50353002AA3F1100346F2A81008BF65
:1055D0000020181AFFF7BCFF014B186208BD00BF7E
:1055E0008C1F002110B5044630B1FFF7E1FF2046C3
:1055F000BDE81040FFF7C2BF10BD000008B5074B63
:10560000408B9B88C31A4FF47A705843A0F6C4109D
:10561000FFF79EFF024B986208BD00BFDC18002018
:105620008C1F002108B50A4B428A9B88D21A8368D6
:10563000C3F17F4303F57F0303F576433C334FF417
:105640007A7000FB0230FFF783FF024B586108BD00
:10565000DC1800208C1F002108B50A4BC28A9B88E9
:10566000D21A8368C3F17F4303F57F0303F57643C2
:105670003C334FF47A7000FB0230FFF769FF024BB6
:10568000D86108BDDC1800208C1F002138B5044605
:1056900058B383894FF47A70584323B1236803F5D4
:1056A0001C5310331844FFF753FF104D2861204658
:1056B000FFF764FF238A4FF47A705843A0F5035034
:1056C0001038FFF745FFE8602046FFF7C5FF20468A
:1056D000FFF712FF2046FFF7A5FF2046FFF78EFFDA
:1056E0002046BDE83840FFF763BF38BD8C1F00215E
:1056F00008B500F47813B3F5802F1FD007D8ABB1ED
:10570000B3F5003F29D0BDE8084000F0A9BFB3F5CC
:10571000002F1ED0B3F5202F25D0B3F5C02FF2D126
:10572000FEF7D0FC134BD3F810310CE0FEF7CAFCA7
:10573000104BD3F80031C3F3042306E0FEF7C2FC9C
:105740000C4BD3F80C31C3F308230133B0FBF3F057
:1057500008BDBDE80840FEF7B5BCFEF7B3FC054B3D
:10576000D3F80831EFE7FEF7ADFC024BD3F8143164
:10577000E1E700BF00400E4038B5124D4FF4002263
:105780002A60114A1060114A1268D2B1104B114CB4
:105790001B6F00F5F42000F59070B0FBF4F4033CAF
:1057A000E4B203F00703A34202D02046FFF7ECFC6B
:1057B000094B1B782BB1094B4FF4702224041A605B
:1057C0002C6038BD944008462C0000208009C64358
:1057D00000300E4040420F00D4180020944008448E
:1057E000F0B5334A334D51681068127A85B001AB79
:1057F00003C31A70304B314A9C6B1B6B1168304AE3
:1058000013F4801F2F4B12681B6801FB042404AAA9
:1058100014BFE418E41A2C4BB4FBF3F313442B4AE3
:1058200013F80B6C04ABF440B4FBF2F21A442B688F
:1058300012F80B7C23B92B20FEF74AFE01232B60C4
:105840002A68234B43F6FF51196004EB5203B3FB64
:10585000F2F3013B1F4A43EA063343EA872313600E
:105860001D4AB4FBF2F302FB1344642254431B4A67
:10587000944298BF03F1FF335C08651E5C1C64080A
:10588000072D04F1FF3403D8072C01D81DB914B932
:105890001020FEF71DFE124B4FF4EE621A60240238
:1058A00003F1007344EA05141C6005B0F0BD00BFAD
:1058B000D88F00002C00002000300840C8180020BD
:1058C000D0180020CC18002040BE4025401B5F139C
:1058D000A4400844A440084600F04902FFEF4902F2
:1058E00030400844064B5B6BC3F3C20203F0070071
:1058F00002B15043C3F3821303B15843704700BF52
:1059000000300840064A1146536803F07063B3F153
:10591000C06F02D1D36BDB06F6D540238B60704796
:1059200000400840214A936903F03001202910B556
:1059300028D1C3F302441CB1C3F3C422B2FBF4F474
:1059400013F4C01F18BF64006408032C28BF04248C
:10595000112000F085FE154A116D8BB22BB1C1F3F9
:105960000741C0084843B0FBF3F3926902F03001ED
:10597000202913D0302917D0102900D15B0803FB50
:1059800004F010BD936903F4E073402B02D0B3F52B
:10599000807F01D10224DBE70124D9E7C2F3C422CE
:1059A0000132B3FBF2F3EAE79B08E8E70060084046
:1059B0000D4BDB6C13F0200F0CBF00200420D90628
:1059C00048BF02301A0744BF0230C0B2590744BF73
:1059D0000230C0B29A0744BF0130C0B2DB0744BFF7
:1059E0000130C0B2704700BF00000840084B0949B1
:1059F00008221A6001221A600A6040221A602022DE
:105A00001A6010221A6004221A6080221A607047FD
:105A1000C8400E46CC400E46044BD3F89430002BC1
:105A2000BCBF034BC3F88000704700BF0040084074
:105A3000000008402DE9F04F87B00446FEF762FEF3
:105A4000804620468946FEF7B5FB224B0D461A6B71
:105A5000D968C90704463AD5520810460021CDE955
:105A600000010593DDE90023AB4208BFA242CDE966
:105A7000024501D2CDE90223FEF744FEB0EB080651
:105A8000059B61EB0907494508BF40451A6B0ED2DB
:105A900001324FF0000343F100034FEA830B4FEA5A
:105AA000820A4BEA927B16EB0A0647EB0B07DDE90D
:105AB00002239F4208BF9642DED3AF4208BFA642F0
:105AC00005D2A41B65EB070580468946CAE707B0E7
:105AD000BDE8F08F0050084038B5074C074AA5795B
