S01600007468726561642D746573742D6170702E7333370B
S3150000000028580020AD6503005536000055620300F0
S31500000010A70B0000000000000000FFFF54000000D6
S3150000002004180F000000000000000000000000009F
S3150000003000000000000000000000000000000000BA
S315000000400000000000000000000000005400000056
S315000000500000000028580020AD650300553600005A
S3150000006055620300A70A0A010002000004180FAC3B
S315000000700025540000000000000000000000000001
S31500000080000000000000000000000000000000006A
S31500000090000000000000000000000000FFFFFFFF5E
S315000000A0FFFFFFFFFFFFFFFF00E00300000000006F
S315000000B000000000FFFFFFFFFFFFFFFF1000000032
S315000000C0000000000000000000000000000000002A
S315000000D0000000000000000000000000DC7D0020A1
S315000000E0DC7D00202858002070BC0300D86D03007A
S315000000F050490020401F00200000040000000000BE
S3150000020028580020AD6503005536000055620300EE
S315000002105D62030059620300616203006D620300C0
S315000002206D6203006D6203006D6203006D62030080
S31500000230656203006D6203006D620300792B0000A6
S31500000240D57E000071040100251C00008500010018
S31500000250B50401007704010079040100730401006C
S31500000260D99202004B720000AF7300007F54000069
S315000002706D6203006D6203001B0500006D620300E2
S315000002806D620300697200006D6203006D62030017
S315000002906D6203006D6203006D6203006D62030010
S315000002A06D6203006D6203006D620300B704010016
S315000002B0750401001B760000EB0401006D6203006B
S315000002C0096A03006D6203006D6203006D6203003C
S315000002D06D6203006D6203006D6203006D620300D0
S315000002E07149724A01E021B1491E1369DB07FAD44C
S315000002F001B9BAE0506001201060106910F0060FD5
S3150000030005D0410700D5B3E0800700D5B3E0002053
S315000003107047F0B513460022002936D0624C634D73
S315000003208BB98B4231D250F8046BEE605B1C082609
S315000003302E60264601E036B3761E2F69FF07FAD4F3
S31500000340002EEED11FE0EFF3108672B600230EE00A
S315000003502F6907F01907102F08BF2F602F693F0775
S31500000360F6D550F8047BEF605B1C10272F608B429C
S31500000370F4D306B962B6264601E026B1761E286990
S31500000380C007FAD40EB96FF002021046F0BD2DE98F
S31500000390F84F474F0D4639680446002041F00101E9
S315000003A09B4639604FEA92088146AA4602E0B1446C
S315000003B00AEB860AC14517D204EB89063046FFF7D9
S315000003C08FFF010022D1C6F30A00C0F5006086083F
S315000003D0A8EB0900B04238BF06465A463146504699
S315000003E0FFF797FF0100E2D021682A68914209D001
S315000003F02046FFF775FF010004D15A460121284621
S31500000400FFF787FF3968490849003960BDE8F28F70
S315000004102749254A0B6843F001030B6088600120D9
S3150000042048604869400704D50868400840000860ED
S315000004301EE04869800704D5086840084000086047
S3150000044019E00220486001E022B1521E4869C00747
S31500000450FAD422B9086840084000086005E0086838
S31500000460400840000860002070476FF002007047A7
S315000004704FF0FF3070476FF001007047002386E7AA
S315000004800B48016841F00101016046F21A31C1646E
S315000004904FF4807141604169C907FCD40021C164F1
S315000004A00020704700000000809698000C000E4067
S315000004B008000E40072803D20FF2EC01085C7047D3
S315000004C0FF207047072803D20FF2E401085C70474B
S315000004D0FF20704738B504462D4800EB8105A87803
S315000004E00009FFF7E7FF2071A87800F00F00FFF77B
S315000004F0E9FF6071FF2814BF01200020E870214643
S31500000500E878A071287860706878224DA070284637
S3150000051000F0A1F80120A86031BD10B50FF27C01F2
S3150000052084B01CC968461CC019481B4A817BD36825
S3150000053014682340DB072AD5032928D2126900EB69
S31500000540810400EB4103E4781CB114B2002C48BFCF
S3150000055000229A820122C37B02FA01F11943C17378
S31500000560417B91B10021437BCB40DB0708D58173EA
S315000005708A40437B5A4042736846FFF7ABFF1FBD74
S31500000580491CC9B20329EED31FBD032181731FBDC8
S31500000590A461002000200040382000400000000038
S315000005A000FF000000000000E07B7C65466C6D00EB
S315000005B0FF7B7C65466C6D00890001EB401000F105
S315000005C084400260704730B5002A446BDFF834512E
S315000005D01ABF1022DFF83031DFF830312340002413
S315000005E0A84237D1DFF8280151B101290CD00229E0
S315000005F01ED003290CD0062915D0812918D023E056
S3150000060001680468006816E001680468006802E092
S31500000610416844684068090C01F4FE41C4F3034490
S315000006202143000C0CE08168806801F00F0107E0AF
S3150000063041684468406801F4FE4104F00F04214318
S3150000064000F0F00040EA010404FA02F0DFF8C410FA
S315000006501843086030BD38B504460D460220A06038
S315000006600022A9782046FFF7AEFF287969786B79D2
S31500000670020242EA016242EA0342EB7842EAC3021C
S31500000680EB790BB142F000522B7A0BB142F0040227
S31500000690AB790BB142F002026B7A0BB142F0010268
S315000006A0AB78F32806D1180004D10429BCBF042076
S315000006B060F31B6218064CBF42F0E00042EA4310AA
S315000006C02061154960690840A9780A0644BF21F0EF
S315000006D080010843297840EA4140E97A09B140F4AB
S315000006E0804060610221AA7A2046FFF765FF2879DB
S315000006F0F32804F13000BDE838400CBF0122002287
S31500000700102159E700200040FFFF00800080FFFF16
S315000007101082E00F34200040F8BFE1FF42DE704750
S3150000072038B504460D4600F02DFC01F096FA01F0AE
S31500000730A1FA2946204601F0A3FA2B4622460FF2DB
S31500000740CC11012001F015FC29462046BDE83440B5
S31500000750E4E765482DE9F047644D01682E1D4FF426
S3150000076020687165016AB16561490A68F265496880
S315000007703166416A7166816AB166C16AF166016B6A
S315000007803167806B706796F8340040074CBFF46B96
S31500000790B46B01F0AEFC0022F2648442554A014675
S315000007A024BFA2F1200AA2452746316505F1900330
S315000007B0DFF844C1DFF844E118D3A0693064E46986
S315000007C07464746DC4F30804062C13D1704511D3F8
S315000007D060450FD200884DF64264A0420AD13068C7
S315000007E0586040F201787068986003E0002737642B
S315000007F0776407464248814202D2014600E0091D5D
S315000008000846904203D20C68B4F1CD3FF7D03D497B
S31500000810081AB0640021002005EB8004401C06285D
S31500000820E167F9D3002003E0C0B205EB8004E1677D
S31500000830974223D252F8041D7145F9D36145F7D288
S31500000840CC07F5D5002405EB8409D9F87C908945B9
S3150000085002D0641C062CF6D3062CE9D1002814BF5E
S31500000860401E0520E0E7B16F002405EB8402641CFE
S31500000870D2F88070D767052CF7D319600146481E59
S31500000880C9B20029EFD1706DC0F30800032810D05B
S31500000890042811D0052812D0062813D00C2817D00A
S315000008A0122818D118480068800719D540F2025856
S315000008B016E040F6012813E040F6022810E040F664
S315000008C003280DE0B8F5206F0AD140F6042807E0AA
S315000008D040F6052804E018B1322838BF40F607284C
S315000008E04046BDE8F087000004ED00E0000000206F
S315000008F000E300E028580020D86D0300B40400008F
S315000009009C000020285800201C2005400D0A5B4151
S3150000091053534552543A25703A25645D0D0A00003A
S3150000092010B54C00014600F059FD224601F027FCA7
S31500000930A04201D0002010BD012010BD80B500F0FE
S315000009404DFD01F06EFC00B10120C0B202BDDFF822
S31500000950940A407D00B101207047DFF8882A117B98
S3150000096001B9704780B50146106A01F0B0FC20B1AC
S31500000970BDE8044040F24F11FAE201BD10B5DFF8C0
S31500000980644A627D010018BF012102B10122914231
S31500000990607519D068B16FF07F00FFF7DEFF01F0D8
S315000009A0F1FCC00510D5206ABDE81040012101F018
S315000009B01FBEDFF8644A94F90C0000F0CFFD207AE0
S315000009C0BDE8104000F02ABD10BDDFF8181A497DB9
S315000009D001F0FE010843D1E780B500F0FFFC01F00D
S315000009E0C7FB00F00300032801D1012002BD00204F
S315000009F002BD80B5B0F5004F07D100F0DAFDDFF893
S31500000A00840A00F0D4FCBDF80000DFF80C1AC88395
S31500000A10002002BD2DE9F04F440900F01F05002714
S31500000A20DFF8888A00E07F1C98F80660F8B2B042CA
S31500000A3045D2D8F80800FFB250F827004FF0000C56
S31500000A4001E00CF1010CC67E5FFA8CFEB645EAD2D7
S31500000A50D0F81CE05FFA8CFC182616FB0CF6B644A0
S31500000A609EF8086006F00706A642EAD19EF80960DD
S31500000A70B542E6DB9EF801B09EF8009006EB0B0A45
S31500000A80AAEB090AAA45DCDBDFF85C4A247854B1F4
S31500000A90DFF85049A47B34B9DEF80C401CB1246859
S31500000AA0EC40E4070BD511B1AC1B4C440C7012B1F1
S31500000AB09EF8081011701BB1C3F800E000E000209A
S31500000AC0BDE8F08F400918BF40F01800704710B518
S31500000AD0DFF81049206A01F0A4FB0246206ABDE84F
S31500000AE01040002101F0B9BB0B38102834BFDFF8E5
S31500000AF0480ADFF8640A006870473EB56846002178
S31500000B00002200230EC0DFF8100901788DF80010CE
S31500000B10817A0A0018BF022914D10079DFF8C45877
S31500000B2000F0BBF8044600F00EF858B1286A01221E
S31500000B30002101F01FFB00F006F818B140F2792100
S31500000B4000F063FB37BD286A6A46214601F032BBD6
S31500000B502DE9F041044604F01F001B2886B034D26C
S31500000B60002000906B46002200212046FFF752FF2E
S31500000B7007002AD02046FFF7B7FF5FEA000824D017
S31500000B80DFF86068DFF8B459F06B804515D001A82E
S31500000B904146062201F032FD306AC6F83C8001A9C2
S31500000BA001F0DCFB88B9306A03A901F0E5FBB5F971
S31500000BB01C10306A01F0ADFB38B90098B06277625C
S31500000BC00098002818BF006901E08A200EE0F06254
S31500000BD029798C421CBF2C71FFF78FFF96F90D0007
S31500000BE0C101306A09B201F0F9FE002006B0BDE885
S31500000BF0F081DFF8480900797047DFF84009B0F95D
S31500000C001C00002854BF05216FF0040108180A21B2
S31500000C1090FBF1F040B270470A2110FB01F0FFE7AC
S31500000C20F8B500F5D77240F277239A4201D38B20AC
S31500000C30F2BDDFF8B047DFF80459A26A0A23002A9A
S31500000C401EBFAE7F06F0C006802E12D0A67B86B9E8
S31500000C5092F9026016FB03F7B842B8BF16FB03F021
S31500000C6007DB92F9032012FB03F68642B8BF12FB9C
S31500000C7003F0217B61B10146206A01F04AFB18B1FD
S31500000C804FF4367100F0C1FA206A01F055FB01E01D
S31500000C9010FB03F0A8830020F2BD38B50446FFF729
S31500000CA023FF90B10023002200212046FFF7B2FE69
S31500000CB058B104F01F051B2D07D22046FFF702FF8F
S31500000CC018B90B2D01DB284632BDFF2032BD704717
S31500000CD0C0B2704710F1590F01DA0020704710F1C9
S31500000CE0240F01DBFF2070475A300002362190FBAB
S31500000CF0F1F0C0B2704770B5DFF8E846DFF8245A65
S31500000D0000202064687828B101F06CFE012818BF25
S31500000D10032801D1002070BDE16ADFF80C3ADFF844
S31500000D201C2800291FBFA66A7669002E022817D143
S31500000D302364906900F5FA709061E07C18B1002098
S31500000D400021642203E0E87829794FF4A07220702C
S31500000D50A2806170A878A0708020E080002030E03A
S31500000D60DFF8C8599069AE4213D1DFF8C43923645D
S31500000D7000F57A709061E07C88B9087920700122CC
S31500000D808B7808799A40101891F903201018401EA4
S31500000D900CE0236400F5FA709061E07C18B1002045
S31500000DA02080642005E04878207088786070087894
S31500000DB00001A0804879A07008890001E080C888F9
S31500000DC00001A06000F0FBFBE07094F90200010056
S31500000DD048BF4042C0B270BD70B50446DFF8046635
S31500000DE0257896F9140008B18C2070BDFFF783FFB3
S31500000DF0B075DFF83029DFF84407417801746901DE
S31500000E0001F5807181619379716C002BB37B1DBFF5
S31500000E10AD1EEDB221F0020141F0020173B9127864
S31500000E2062B16278920609D56FF00102327541F01F
S31500000E300101826902F50872826104E049084FF0F7
S31500000E40FF30490030757164032000F001F96A1C17
S31500000E50306A4FF4807392B2214601F0EBFD691CB3
S31500000E60884203DA40F2294100F0CFF9002070BD34
S31500000E7000000000F8B5DFF86C5595F91410002451
S31500000E80091D04290FD8DFE801F0080E1010030031
S31500000E90FFF7A2FF040008D0F2BD2C75286A01F006
S31500000EA06DF98D20F2BD8C20F2BD01F043FBE8B157
S31500000EB0286CDFF87418884218D1A87DB0B1DFF825
S31500000EC0140A0068002811D5DFF80C0AC168C16051
S31500000ED00122006800F00F0002FA00F0401E0142F5
S31500000EE004D100F0A4FB642001F0C0FD01F012FE65
S31500000EF0064695F9140010F1010F1CBF95F9140070
S31500000F0010F1020F29D195F91400DFF8307640422E
S31500000F10287501F005FE7862296C387949B9FFF722
S31500000F20BCFE01466A6C286A07F1100301F039F924
S31500000F300BE0FFF7B2FE07F11001009101466A6C63
S31500000F40286AD5F840C02B46E04760B100202875D6
S31500000F508C244FF0FF30786202E0002028758D2443
S31500000F60286A01F00BF9304601F011FE2046F2BD69
S31500000F70DFF81C0AFFF7D4BB2046BDE8104001F09D
S31500000F8006BE0000F8B501F0C5FDDFF88C54044636
S31500000F90A87A012803D1204601F0F9FDF1BDDFF85A
S31500000FA0F419DFF84064DFF8E87940200860012290
S31500000FB0306A012101F0DEF8DFF8DC194FF4001089
S31500000FC0086069460FF2840000680090306A01F0FC
S31500000FD0F9FC18B140F2D74100F006FE02208DF868
S31500000FE000006946306A01F0CAFC18B140F2D941E6
S31500000FF000F0FAFD306A01F0D2F80021002001F07D
S3150000100015FA00F004FB0120A87296F91400001DE1
S31500001010072810D8DFE800F0130F0707040B0B0BA7
S3150000102001F049FE0BE06FF00300307507E0892000
S3150000103000F032FB03E040F2FB4100F0D5FD204614
S3150000104001F0A5FD01F0ECFEF1BD00000401000079
S315000010502DE9F04DDFF8C0530446A87AA04282B0CD
S3150000106063D00FF2CC01DFF834690968DFF8208914
S31500001070DFF87073DFF820A9009103284FF4001BF6
S315000010804FD8DFE800F047023E2B01F0D2FE386A67
S31500001090694601F097FC18B14FF4A36100F04AF8D5
S315000010A002208DF800006946386A01F068FC18B124
S315000010B040F21A5100F03EF86879002814BF002269
S315000010C00222386A022101F01BFF18B140F21F51BB
S315000010D000F030F80320032CA87218D0CAF800B02C
S315000010E00220A8722879FFF7D8FD0146386A002247
S315000010F001F060F818B140F22F5100F01BF8022CF5
S3150000110013D0002C18BF032C0FD10020A872C6F8EC
S3150000111000B00AE0022C08D1CAF800B00220A8727A
S3150000112003E040F2455100F005F8BDE8F38D0000FC
S31500001130040200004046FFF7F3BA000010B503288A
S3150000114004460ED8DFE800F009020909FFF71AFF86
S31500001150BDE81040002000F0AEBB012000F0ABFB64
S31500001160E6E1BDE8104040F2635101E780B500F0CA
S315000011700EF804D500210175006A00F0FFFFA648AD
S31500001180407A012802D1BDE80140FBE601BDDFF847
S31500001190300A90F9141000297047DFF8200A407AC7
S315000011A0704780B5032801DB012002BD9A494872C9
S315000011B0897A884218BFFFF7C1FF002002BD2DE9DA
S315000011C07C4FDFF8FC6903EA010BD6E9068929EAB8
S315000011D0010528EA000402EA000A45EA0B0544EA8A
S315000011E00A044D4508BF44450DD0CDE9002302460B
S315000011F0306A0B4601F0E8FB18B140F28B5100F063
S3150000120004F8C6E90645BDE8738F0FF6E410FFF74C
S3150000121087BA38B5734D0446287BE8B1200018BF5D
S31500001220DFF8A02904D1A87C08B1402200E0002202
S315000012300023DFF890090021FFF7C1FF002C14BF3F
S3150000124008220022286A082101F05AFE20B1BDE8D2
S31500001250344040F2C7518BE631BDF8B50446022C46
S315000012600FF68C1503DB4FF4BE6100F0A5F85D4E5A
S31500001270307B002840F09780674FB87A012803D06A
S3150000128040F2F65100F098F8002107F1300000F026
S315000012905DFF306218B940F2F95100F08DF8306AFE
S315000012A0052101F028FA18B140F2FB5100F084F84C
S315000012B0306A0FF6501101F035FE18B140F2FC51BC
S315000012C000F07AF8306A01F061FE18B140F2FD5183
S315000012D000F072F84FF0FF30DFF8EC2806230146E5
S315000012E0FFF76DFF306A4FF0011100F0C8FF18B12B
S315000012F040F2126100F060F8306A4FF4803200214B
S3150000130000F0ABFF306A09224FF0FF3101F0F8FD23
S3150000131018B140F2196100F04FF801203073022332
S31500001320DFF8A80800F043F8BDF80000C0054CBF80
S315000013300020BDF80000707301F0FCF8FFF769FFAC
S31500001340F88BFFF756FB01F0A1FE00F087F838791D
S31500001350FFF7FEFB18B140F22C6100F02DF8F8798A
S3150000136000F042F8387A00F059F8307C00F08CF83A
S31500001370787900F0CFF800F022F900F0EFF8B07CB1
S3150000138000F0F2FAB7F91C00FFF74AFC388C00F0BF
S315000013908FF8788C00F0AAF8B87900F0D1F8601EC2
S315000013A08041C00FB8722046FFF7C8FEF1BD018824
S315000013B07F22684601F0DEBE2846FFF7B1B980B548
S315000013C000F00CF8012100F0F8FE10F5007F02D1C4
S315000013D06FF07F0002BD8005001602BDDFF8E00752
S315000013E0006A70474861002010B50446DFF8D00750
S315000013F0017B51B1611E8941006AC90F01F018FED7
S3150000140018B140F26761FFF700FF2000DFF8AC1764
S3150000141018BF0120C87110BDC45B0020F8B5044692
S3150000142001F078FB05464548DFF894670472377B80
S31500001430FFF78DFA00F0010080F00100074204D0AA
S31500001440306A84F0010101F0D3F82846BDE8F24085
S3150000145001F09DBBDFF86407007A7047DFF860078C
S31500001460017B01B9704780B5006ADFF86417002276
S3150000147001F0CBFD20B1BDE8044040F2926177E572
S3150000148001BD00005AB60300DFF83427117B107443
S3150000149001B9704780B50146106A01F0BDFD20B163
S315000014A0BDE8044040F29D6162E501BD18B103004C
S315000014B02249DFF80C370884197B01B9704780B5DB
S315000014C00146186A002201F099FD20B1BDE80440EA
S315000014D040F2AE614CE501BDDFF8E006008C7047D6
S315000014E0DFF8D806408C7047F35F00201349DFF819
S315000014F0D0364884197B01B9704780B50146186A11
S31500001500002201F074FD20B1BDE8044040F2C46140
S315000015102EE501BD09494A79824200D1704710B5CE
S315000015208C7A4871012C02D0FFF72CFD00E010BD2B
S315000015302046BDE810408BE54C5A0020C45B0020D5
S3150000154010B50446FFF74AFF214601F099FEDFF881
S315000015506C06847110BD0000505A002038B5044650
S315000015607F2C0CD100F025F8DFF86806FFF71FFF87
S31500001570BDF800007E24C00558BFBDF8004001F04C
S31500001580C9FA0546FFF7E3F960B960B27E2805D1CE
S31500001590DFF82C16896A09B191F904007E28B8BFD4
S315000015A0FFF7DBF9DFF814060473284601F0EFFABB
S315000015B031BD4FF6FF70ADF8000002237047DFF82B
S315000015C0FC0590F90C007E2807D1DFF8F405806A47
S315000015D008B97F20704790F90400704710B500F0F5
S315000015E0D1FE800411D5DFF8D4454FF0FF30A0625C
S315000015F000F0C8FEC0044CBF03200120002100F00B
S3150000160035FF01F08DFAE06210BDBDE8104080B5EF
S31500001610DFF8A8054FF0FF318162C162FFF7DCF900
S3150000162020B9BDE80440002100F020BF01BD80B50F
S3150000163000F0A8FE4005BDE804404CBF0320012091
S31500001640002100F0F3BE10B5DFF8744594F91400DC
S3150000165003280DD100F026F9DFF860154FF0FF30B2
S3150000166048620022216BBDE81040402001F0C7BA55
S3150000167010BD38B50446FFF7CAFFDFF8445501F040
S3150000168060FA686314B101F0C6F901E000206874DD
S31500001690BDE8314001F00FBB38B50446DFF81C1534
S315000016A0DFF81C554FF0FF30486201F04AFA6863D4
S315000016B095F91400012802DABDE83140A7E7A87DB4
S315000016C008B1686BA86300202875286A00F056FDEB
S315000016D0A87B10B10120E87331BD2046BDE8384033
S315000016E00022002101F08BBA10B500F023FF78B17B
S315000016F0FFF772F960B1DFF8C4444FF0FF30E062E3
S3150000170001F00EFAA06200F0D6FE002100F0AEFE57
S31500001710DFF8AC04807C18B1BDE8104000F081BA57
S3150000172010BD0000885E0020A9210000201C0000DA
S31500001730AF2100002DE9F043DFF884440FF2B049F1
S31500001740206A89B005AA022101F077F9050003D1C4
S3150000175040F6F40100F0A3F89DF81400DFF85C648D
S31500001760BDF8168007281CBF7079002819D1B8F17A
S31500001770060F16DB08F108008B2812D20020009015
S315000017804346DFF85474206A3A46294601F05DF96B
S31500001790404503D040F60D1100F081F83878000678
S315000017A002D5FFF71BFF77E001208DF80800CDF882
S315000017B004806A46206A294601F043F918B140F6CA
S315000017C0241100F06CF8787800F0070002281ED18A
S315000017D0FFF71DFF94F91400032808BFB8F1060FA0
S315000017E011D19DF80D0070B17878000900F001055F
S315000017F000F058F84FF0FF3070622A4600218F2023
S3150000180001F0FDF948E0F079002845D105E09DF8A2
S315000018100D0010B10020FFF716FFF0799DF80D10AE
S31500001820084203D040F64C1100F039F8F07930B197
S315000018307878800603D5206A00F0DDFE18B1FFF740
S31500001840E6FE002060743878401C404503D040F620
S31500001850661100F024F807EB08053079287000209F
S3150000186068709DF80E00A87095F90200FFF732FA2D
S31500001870E87008F10801FF202871C9B20098000C31
S3150000188068710098000AA8710098E8713846627C71
S3150000189001F0FAFC0020607409B0BDE8F083484608
S315000018A0FEF73EBF00202075206A00F067BC0FF2ED
S315000018B04830FEF735BFDFF80413897A012907D1CE
S315000018C0DFF818130B7898421CBF087001F0B3BA02
S315000018D070470000044008404C50084038B50446A4
S315000018E0002C0D4607D401F01BF9011B89B28D426D
S315000018F08041C00F32BD002032BD10B5DFF8BC42BA
S31500001900606A4FF47A71FFF7E9FF60B1DFF8B00261
S3150000191090F91400032803D10020FFF794FE02E09B
S315000019208920FFF7B9FEA06A0A21FFF7D7FF08B1A1
S31500001930FFF76DFE00F026FD00F0FF01E06AFFF7FD
S31500001940CDFF10B1BDE8104061E610BD10B540B93D
S3150000195001F062F801F0DEF80446FFF7CEFFFFF76C
S315000019600BBBBDE81040C8E738B5954D0446287B4B
S3150000197060B1200002D100F0DDFD08B1402200E098
S315000019800022002340200021FFF719FCAC7431BD72
S31500001990F01B00000840084018600846186008441C
S315000019A02DE9F04780461446600688B01D4648BFBC
S315000019B0002002D4200602D50120FFF795FEA003E1
S315000019C07F4E2DD5002070746946404601F045FBD8
S315000019D030BB9DF80800824F02280DD1BDF80000EB
S315000019E001F08AFDFF2815D0396831F810004FF450
S315000019F0567108420ED113E0032811D1684601F052
S31500001A009AFDFF2806D0396831F810004FF4567158
S31500001A10084205D0306A01F01DFB08B90120707438
S31500001A20600410D500F086FD68B1FEF7D5FF50B111
S31500001A3000F04DFD074600F03EFD874203D0002131
S31500001A40384600F013FD200744BF4046FFF772FEFC
S31500001A50E00548BFFFF7C2FD4FF41850044218BF17
S31500001A60FFF7D5FDE00244BF0120FFF702FE60024A
S31500001A7044BF0120FFF7FDFDE00144BF0020FFF752
S31500001A80F8FD96F914000FF26817012869DB306A31
S31500001A90DFF8289121034FF0FF3A33D596F9141059
S31500001AA001295EDB96F9141003295ADA00218DF814
S31500001AB0181001218DF8141003A900F060FC03989A
S31500001AC0306301F03EF87063B07D08B1706BB063AF
S31500001AD096F91400012804D002280ED1032030758F
S31500001AE03FE000203075306A00F048FBC9F824A0BA
S31500001AF0B07BA8B9316B002218E040F61D0100F05A
S31500001B0073F82EE014F0845F13D00021317500F0D5
S31500001B1035FB042000F081FFC9F824A0B07B10B18A
S31500001B200120F0731DE0002200218D2001F067F8EE
S31500001B3017E0A00248BF892002D4A00103D588205F
S31500001B40FFF7AAFD0DE0600048BFFFF770FDA0009B
S31500001B5007D524480068400403D40021002000F083
S31500001B6065FCA00744BF4046FFF76DFD002C04D579
S31500001B70FFF74DFD4046FFF766FD05F00201002325
S31500001B80994211D0404600F0EFFA022802D003280D
S31500001B9002D005E0892000E08D20FFF77DFD03E0FF
S31500001BA040F6880100F020F805F004010023994270
S31500001BB018BF01F0F7FC08B0BDE8F087C45B002051
S31500001BC048610020406700600A00FA935CB6030093
S31500001BD0947900205EB6030044740020BD7D002089
S31500001BE0885A0020044008403846FEF799BD000098
S31500001BF07068792E630000006C69627261696C2EF0
S31500001C006100000000000000010060030101010105
S31500001C106400B6006400C000000000000B00000075
S31500001C200000704701F016BD80B501210C4801F097
S31500001C30B7FD0421072002F01FF90A480A490B4A9A
S31500001C40016004211160022141620421084A1160E9
S31500001C50816A41F00201816201BD024802F07EB94B
S31500001C6000050800002005400108030080E200E0AE
S31500001C7000E100E0602080F31188704702F040BA6E
S31500001C8003460A4687A10420FFE70CB480B502AAE2
S31500001C9000F031F801BC5DF80CFB00B589B001F02D
S31500001CA0DBF80021079106910591049103910291B9
S31500001CB0019102467C49009100230FF20021012088
S31500001CC0FFF7E3FF7948C17843780278039181688A
S31500001CD00291818801918178009143200FF2E811E9
S31500001CE0FFF7D3FF09B000BD724931F81020521C2E
S31500001CF021F8102070472DE9F04107466C4800781E
S31500001D00A2B00C469046002690B9380018BF012FA5
S31500001D100ED0042F18BF052F0AD0312F18BF332F2E
S31500001D2006D0372F1EBF3B2F4FF6FF718F4275D15E
S31500001D3002F070F9002871D0802202A9384600F01E
S31500001D4076F8002C68D007E08DF80400012201A97E
S31500001D50002000F077F8641C207801005CD0A0F128
S31500001D6030020A2A05D20A2101FB0600A0F130063C
S31500001D70F1E7422818BF44280CD0462827D0572818
S31500001D8008D0622836D0662821D06C281CD070284E
S31500001D901DD0D9E7422807D158F8042B69460120FF
S31500001DA002F0F7F901220DE0572858F8042B69468E
S31500001DB004D1012002F0EDF9022203E0012002F035
S31500001DC0E8F904226946C3E758F8046BC3E758F8F4
S31500001DD0041B462807D10026885D00281EBF761CF6
S31500001DE0F6B2FF2EF8D1F2B2002000F02BF898B927
S31500001DF00026B0E758F8047BB8B20028ABD002F052
S31500001E0046FE0546B8B202F02AFE0146EAB20020B6
S31500001E1000F018F800289ED000F038F822B0BDE88F
S31500001E20F081122804BF002003F039BB704710B5BB
S31500001E30214C616001462270606802F0F1F8607022
S31500001E4010BD0000F8B515000C461B4E1CD070786E
S31500001E50317873680F1AFFB2EDB2BD42B8BF2F4694
S31500001E603A462146184403F07DFD707838187070A4
S31500001E70ED1B3C44E8B238B17068711C02F033F9CE
S31500001E800028E4D00120F2BD0020F2BD10B50A4CB6
S31500001E906068611C02F027F908B1012010BD60706E
S31500001EA010BD0000574600009479002058A7030093
S31500001EB0BE7D0020D0740020DC74002042423870C1
S31500001EC04242424257424200424242574442000086
S31500001ED02DE9F0410125012818BF202894B00446B9
S31500001EE00F4690461E4624D10AA80FF2A4012422CA
S31500001EF000F094FB68460AA9242200F08FFB10200C
S31500001F00012C18BF202CADF82400ADF8260008D00F
S31500001F10022C18BF212C04D0032C1CBF222C232CEE
S31500001F2014D1012E0197ADF80C8004D14FF48050E6
S31500001F3005E001200BE0022E03D14FF44050ADF82E
S31500001F400A006946204603F0CDFA0546E8B214B009
S31500001F50BDE8F08180B503F068FBC0B202BD80B574
S31500001F6003F0B8FBC0B202BD80B503F09FFCC0B25F
S31500001F7002BD0CB480B50A46014602AB034803F025
S31500001F80ADFD02BC00205DF80CFB000057580000B8
S31500001F900000014000C20100000000100000000027
S31500001FA0000000000000000000000000000000002B
S31500001FB000000000890001EB401000F1844002603F
S31500001FC07047000010B50446FFF754FE4E484AF627
S31500001FD0E8510160C162016B01F00F01022913D1C2
S31500001FE04A4A01211160806B00F00300012818BFE6
S31500001FF0022809D100221C214548FFF7DBFF0022F9
S3150000200000214448FFF7D6FF200A0028424808BFAF
S3150000201024024FF20F0104804180BFF35F8FBFF3AC
S315000020204F8F3E483E4A016801F4E061114301606A
S31500002030BFF34F8F00BFFDE780B5002000F009F821
S3150000204030B9BDE80440E3210FF2EC00FEF768BBAF
S3150000205001BD2DE9F042334C216842428D1815F03E
S315000020601F0108D0002802D44842054403E0484234
S31500002070284400F120052C48A5F12006A84224BFDB
S315000020802A48864203D3EFF30880854201D3002015
S315000020902DE000F03FFD81462548006810F001075D
S315000020A018BF03F09EFE206801468D4206D2A84264
S315000020B024BFCD2100F80119F9D206E0203800220C
S315000020C001E000F8012B8842FBD32560304603F07F
S315000020D08FFEE22001E006F8010BAE42FBD30FB102
S315000020E003F05CFE484600F052FD20682038BDE84B
S315000020F0F0820C48006870470A480068203870472C
S315000021000C4870470000000008300E404040084070
S3150000211060300E4074300E40000000200CED00E0F0
S315000021200400FA05185D002050490020401F0020D9
S3150000213094ED00E0000000206D6963726F2D696EFA
S315000021407465726E616C2E630000000038B504463B
S31500002150064804600D46204600F0C2FA294620468D
S31500002160BDE8344000F088BA01207047247A002088
S3150000217000F0DFBA0846114600F0D1BA70470846AB
S31500002180114603F049BE10B50C4611461A460346E1
S315000021902046BDE8104004F07BBA04F0ADBA04F066
S315000021A0B0BA0C3000F084B80C3000F093B80C30A4
S315000021B000F0A2B80C3000F0A6BE0C3003F029BE29
S315000021C00120704738B500F01BF800212561E16059
S315000021D0BDE8324004F018BF38B500F011F82169A7
S315000021E0E26829400D0018BF01251143E16004F0A3
S315000021F00BFF15B10020042134BD0020002134BDA1
S3150000220004460D4604F003BF38B5FFF7F9FF22690F
S31500002210E1682A4021EA0205E56004F0F5FE284659
S3150000222032BD8069704770B582B005460C0006BFA6
S315000022300FF25C00006820681646009006B9EE684A
S3150000224031462846FFF7E0FF32466946284604F045
S315000022506CFA0CB10098206073BDF8B500F10C075C
S315000022600C4615463846FFF7ABFF022628B12A462C
S3150000227021463846FFF7D7FF00263046F2BD80B527
S315000022800C3001F00111FFF79DFF002002BD000098
S31500002290FFFFFFFF38B504460D4604F046F808B9BF
S315000022A0022032BDA9B22046BDE8344000F05FBA34
S315000022B038B50446154689B2FFF7ECFF010005D193
S315000022C029462046BDE8344004F052B832BD0C30F1
S315000022D004F043B970B500F00AF8010006D13246A1
S315000022E029462046BDE8704004F08AB870BD044611
S315000022F015461E4689B2CDE770B5FFF7F8FF010017
S3150000230006D1324629462046BDE8704004F039B869
S3150000231070BD7CB50D466946044600F02DF89DF863
S3150000232000102A46204604F077FE04F10C0601460A
S31500002330304604F055FA76BD30B583B0694604469A
S3150000234000F01AF804F10C05284604F07FFA02465C
S315000023509DF80010204604F0C7FE3EBD38B50C4679
S3150000236000F10C050021284604F03AFA21462846D9
S31500002370BDE8344004F027BA0C3004F061BA0C30E2
S3150000238003F038BE734840687047F8B50446714F8D
S3150000239071487E680025044201D00220F2BD24EA7D
S315000023A00600C0037C6007D50021002000F03EF83F
S315000023B00021002000F05AF8786800F4804006F406
S315000023C08041884205D0A00B00F0010000F0B5F86E
S315000023D005462846F2BD38B55E4CA578E0786168BA
S315000023E0C9031CD405F0010100F00102114316D007
S315000023F0E16841B1000706D5E16808208847E07822
S3150000240000F0F700E070A06868B128070BD5A16856
S3150000241008208847A07800F0F700A07003E06078F5
S3150000242008B100206070BDE831408BE02DE9F04135
S3150000243004460D4600F06EFB464F8046387801266E
S3150000244098B1BE78200009D1002E1CBFB8680028BC
S3150000245004D0700602D5B96840208847BD60A64200
S315000024601CBFBC70FFF7B7FF00261EE02DE9F04148
S3150000247004460D4600F04EFB364F8046387801265E
S3150000248098B1FE78200009D1002E1CBFF8680028FC
S3150000249004D0700602D5F96840208847FD60A64240
S315000024A01CBFFC70FFF797FF0026404600F06FFB4D
S315000024B03046BDE8F08127494A680978002029B1ED
S315000024C0510303D40120110548BF03207047214959
S315000024D00A780020002A1FBF012049681F4A1142BE
S315000024E018BF0320704738B51A4D2978884204462C
S315000024F01ED020000ED00121194801F051F91120FB
S3150000250004F053FE18B9092004F04FFE50B104F050
S315000025106EFE07E000210020FFF7A8FF0021002043
S31500002520FFF784FF2C702046FEF773FE00F00AF8D2
S31500002530002032BD07480078704700B1022070477E
S31500002540704700BF03480178002141700020FEF764
S315000025503CBA0000C0610020FFFC0FF8000808002C
S315000025600025080070B50D4682B00446287858B993
S315000025700021204604F0BAF90021204604F014FA9E
S315000025800021204604F018FA2878002814BF0420F9
S31500002590287900F027F814BF287968798DF80100AA
S315000025A0204600F0EEF906001AD12878002814BF5C
S315000025B00220A87900F016F814BFA879E8798DF8FA
S315000025C00100204600F0BBF9060009D1287838B191
S315000025D06988204604F09AF90121204604F086F91C
S315000025E0304676BD8DF80000694628780028704789
S315000025F00C3004F0D9B90C3004F0E8B962B38B079B
S3150000260008D0521E11F8013B00F8013B00F024806F
S315000026108B07F6D1830740F0208000BF103A07D31E
S3150000262030B4B1E83810103AA0E83810F9D230BC0E
S31500002630530724BFB1E80810A0E8081044BF51F8BA
S31500002640043B40F8043BD20724BF31F8022B20F8A4
S31500002650022B44BF0B7803707047083A07D3B1E8E2
S315000026600810083A40F8043B40F804CBF7D2530769
S31500002670E4E700000120704710B5044603F0E3FCD0
S3150000268008B1002010BD204610BD70B50D000446EF
S3150000269014BF012600261F21304604F0F1FD00205C
S315000026A0606225621F21304604F0EAFD4FF6FF7690
S315000026B0002001E0401CC0B2E968884209D2A9683E
S315000026C0182212FB00F21144C989B142F2DA0E0057
S315000026D0F0D13146204600F04AF8304670BD7047CA
S315000026E010B5044603F067FDA06A01008C4908BFD7
S315000026F08C48886010BD38B500F10C050C4628469C
S31500002700FFF7B8FF28B103F0DBFD012801D0022056
S3150000271032BD21462846BDE8344003F09EBD10B5C3
S315000027200C4603F0AFFD1CB103F0CAFD0128FBD136
S3150000273010BD03F0C5BDF0B504467B48066883B0FE
S315000027400D466946204604F07BF8B5F912200127AC
S3150000275047F6FF702479824207D09DF80010304674
S3150000276004F05AFCA04238BF00273846FEBD2DE9CA
S31500002770F04F85B04FF000098DF801900446684F80
S315000027808DF800900D463868D7F804A00290CDF871
S3150000279004A0204600F0C1F88046266AD4F824B08A
S315000027A000F0EBF8002818BFD34505D1BBF1000FA8
S315000027B002D0A8B240454BD0002E1CBFB0680028FE
S315000027C001D0F06808B903209CE0CA4601E00AF18E
S315000027D0010AF068824518D2B068182101FB0AF197
S315000027E00144A8B2CA89904222BF088AAAB290427E
S315000027F0EDD301208DF800008B462046FFF79BFFA6
S315000028000028E4D001208DF8010003A9204604F039
S3150000281017F8204604F01AF882469DF80100C0B168
S31500002820217900F073F8386860B3B04223D17A6832
S315000028300AB35A451FD1A9B2884506D000232046BF
S3150000284004F006F85FEA000912D1C4F824B06580E6
S3150000285057E09DF8000048B1BBF912209DF80C1016
S31500002860A4F10C0004F0D8FB0146DAE7012049E0A8
S3150000287000F04BF83FE0016821B13268914208BF91
S31500002880416800D0316800F045F881465FEA0900EA
S3150000289004D1DBF8001000F03DF881465FEA09003C
S315000028A00FD100F06AF810B13E60C7F804B0C4F862
S315000028B024B0658001235A46A9B2204603F0C8FF1A
S315000028C081465FEA090005D1BA685946A4F10C00B1
S315000028D0904716E000F051F898B1029838600198D8
S315000028E07860386808B100F014F800F00EF87868DF
S315000028F038B100F00EF87A6800234146204603F00E
S31500002900A7FF484605B0BDE8F08F5146204603F0C4
S3150000291087BF0168204604F057BA40887047000018
S31500002920105F0020DF260000247A002001281CBF4B
S315000029300428022801D1012070470020704738B5CD
S3150000294000F03CF840B16878FFF7F0FF20B1287836
S3150000295069780843400701D5012032BD00F00DF823
S3150000296028B103F0ADFC400701D5022032BD29464F
S315000029702046BDE8344003F0F7BE20467AE60C3028
S31500002980DDE738B500F01AF838B16878FFF7CEFF02
S3150000299000281CBF6878042801D1012032BDFFF74A
S315000029A0ECFF28B103F08CFC800701D5022032BD74
S315000029B029462046BDE8344003F0F4BE0D460446E1
S315000029C02878B3E70C30DCE730B583B00C30DDE9AE
S315000029D00645CDE9004503F0BCFB3EBD0C3004F0D6
S315000029E0D5B900000020704738B51446FEF742FA04
S315000029F005466CB128000BD00A48007818B10A4980
S31500002A000120087004E000220021284600F0F7F8B3
S31500002A10284632BD704770477047044908707047B2
S31500002A20000000005661002057610020DA7D00207A
S31500002A30012070470C3004F0F4B80846114604F043
S31500002A405EB80846114604F07DB870B50C461546CA
S31500002A501E460C30FFF7ECFF38B1049B3246294680
S31500002A602046BDE8704003F0AFBB70BD04F075BCF6
S31500002A7010B504460521112000F0D6FF00220021E2
S31500002A80022001F0ADF81E491E480A6802400A609D
S31500002A900B681D4A02EAC42213430B604B681840B8
S31500002AA0486048681043486001220121022001F075
S31500002AB097F8BDE810400421112000F0B5BF134877
S31500002AC000680003C00D704770B5054610480C46F7
S31500002AD082B001884FF6FF76ADF8006002237F22B0
S31500002AE0684604F0C5FCBDF80000B04205D0288059
S31500002AF0BDF800002080012076BD002076BD0000D4
S31500002B002C400E40FF07F0FF00F80F0030400E404B
S31500002B1062B60300EFF31180602181F311887047DC
S31500002B2080B504F05BFD04F066FD80B202BD80B5A1
S31500002B3004F054FD04F05FFDFA21B0FBF1F080B221
S31500002B4002BD80B504F04AFDBDE8044004F053BD63
S31500002B5080B504F0AAFB074800214160001D04F07F
S31500002B60D3FC20B139210FF21400FDF7D9FD002066
S31500002B7002BD00001075002000F008B87379737468
S31500002B80656D2D74696D65722E630000704780F364
S31500002B901188704738B504466048614D002912BF58
S31500002BA000210178491C01700120012104F020FE5A
S31500002BB02878411C89B2032004F01AFE200003D0B5
S31500002BC0FFF7E0FB002808D5FFF7DCFB40054CBF0C
S31500002BD0032001200021FFF729FC524844702846B3
S31500002BE0BDE8384001224FF47A71FFF7FDBE80B58B
S31500002BF0FEF7BCFABDE80240312004F04BBF38B501
S31500002C000446402C154606D1FFF7BCFB00F0802099
S31500002C10B0F1004F03D000210020FFF707FC002C85
S31500002C203AD0402C24D0882C18BF892C38D08C2C34
S31500002C3038D08D2C2DD08F2C39D13B4800780428E4
S31500002C400FD155B13949022008704CF25032BDE817
S31500002C5038403749002004F0EDBFFEF787FA3120EF
S31500002C6021E0FEF783FA002D0CBF312000201AE088
S31500002C70FEF77CFA05F063F828482E4900780978B3
S31500002C80884204D2BDE834400021012082E740207A
S31500002C9009E0FFF7BFFE03E0FEF768FA002002E056
S31500002CA0FEF764FA8D20BDE8324004F0F3BEBDE8BD
S31500002CB03440B42145E01D480078022800D0704712
S31500002CC080B51D480078012807D0032810D11B487D
S31500002CD00078022818BF7C280AD11549002004F084
S31500002CE0E8FFFEF743FABDE80240002004F0D2BE3A
S31500002CF001BD38B5FFF70EFF05460C4800780024E5
S31500002D0010B9FDF71BFE04462846FFF740FF1CB12D
S31500002D10BDE8314000F046BC31BD0000D47D002046
S31500002D200A7D0020885E0020F25F0020C87D00201A
S31500002D30EF2B0000F75F0020D57D0020D67D002018
S31500002D40E9210FF20800FDF7EBBC00006D61632D71
S31500002D507068792E63000000890001EB401000F1D5
S31500002D6084400260704730B54C4887B00068040E56
S31500002D70684604F0E7FF8F2C10DA4948494C016891
S31500002D8041F0040202604FF05013002230255543F3
S31500002D90521C6351062AF9D3016001E0902C06DA31
S31500002DA041480168C909C90141F0200101609DF847
S31500002DB00100012804D13D48016841F00401016089
S31500002DC000220D213A48FFF7C7FF3A490120086063
S31500002DD003AC04F0D1FF04F0BAFB05F038F90FF2AA
S31500002DE0D800D0E90023CDE9012301208DF80700A2
S31500002DF001A805F0B9F905F021FCFFF7A9FE0FF2CD
S31500002E00C0000FC884E80F0008208DF8180003A83A
S31500002E1005F020FC07B030BD40F20160FFF7D2B8E4
S31500002E2080B500210020FFF721FBBDE80140FFF738
S31500002E3087BBFFF786BB002818BF00F0F9BB00F080
S31500002E40F8BB80B505F055FC01460FF284000C294D
S31500002E5038BF00EB810002BD10B505F04AFC044600
S31500002E6005F04BFCC0B208B9012C07D1072C11D8CC
S31500002E70DFE804F004100608080A0C0E002010BD56
S31500002E80092010BD022010BD032010BD0B2010BD6F
S31500002E90062010BD44F0800010BD0000FC81E00F4C
S31500002EA0B0400E4000A000402C400E4064310E4061
S31500002EB054300E4010300E400000000000000000AC
S31500002EC0C4860300BC860300CC8603000000000015
S31500002ED0554E4B004649420042544C00455854005A
S31500002EE0505752005744470020535700435253004F
S31500002EF04653480042414400464C540042524F005B
S31500002F000C3003F08EBB38B50D46044689B2FFF788
S31500002F102EFC010005D1A9B22046BDE8344003F0DD
S31500002F202CBB32BD70B50C4684B000F10C05237E77
S31500002F30627EA17E284605F05CFC684604F10C0121
S31500002F400C22FFF75BFB6946284603F0FCFF211DB8
S31500002F502846FFF707FB060003D1284605F080FC4C
S31500002F600646300005D10FF21C11284603F0DEFF9D
S31500002F700646300003D1284605F0E7FB06462168E1
S31500002F80284600F006F8304604B070BD0C3005F057
S31500002F90D5BB70B58AB004460D4668460FF2C0012F
S31500002FA02422FFF73BFB05B96D46002601E0010030
S31500002FB005D135F81610F2B2204605F0E6FB010001
S31500002FC006D105EB4600F2B2C188204605F0E3FBC8
S31500002FD0010007D105EBC60000F10C01F2B2204654
S31500002FE005F0EAFB761C032EE1DB0AB070BD032A6E
S31500002FF0BCBF0C3005F0C9BB01207047032ABCBF1B
S315000030000C3005F0C8BB01207047032ABCBF0C304A
S3150000301005F0D2BB0120704738B500F015F828B18D
S3150000302021462846BDE8344005F0D6BB022032BD15
S3150000303038B500F009F828B121462846BDE83440E5
S3150000304005F0C0BB022032BD00F10C050C46284637
S3150000305005F072BB0C3005F0DBBB084602F095BFED
S31500003060FFFFFFFFFFFFFFFFFFFFFFFF0000000066
S31500003070000000000000000000000000000000004A
S3150000308000000000000002080000000010B5144C0B
S31500003090207858B91348018808237F22201D00F0A4
S315000030A069F8201D00F011F80120207010BD10B540
S315000030B00B4C01460822201D02F054FC201D00F096
S315000030C004F80120207010BD074880B5014608228B
S315000030D0064802F047FCBDE80140FEF7BFB9000014
S315000030E08879002064B603008C790020947900204A
S315000030F038B50C4611461A467F2908BF002141F211
S31500003100F0139C4218D155490B6849680024D5B282
S315000031107DB30355641C1B0A521EE4B2042CF6D37D
S31500003120E4B2082C25D2D3B2002B1FBF0155090AE1
S31500003130521E641CF4D131BD04F47045C4F30B0374
S31500003140B5F5805F11FB02F108BF43F07E630BD03B
S31500003150B5F5005F1CBF04F47044B4F5405F08D1B8
S3150000316043F07C6343F40113C918BDE8384002F00C
S31500003170F9BB31BD70B51E00044615461CD04BF296
S315000031803460814212D1092E28BF082633467F2299
S3150000319041F202012046FFF7ABFF32460FF2D8019B
S315000031A0204602F048FC38B941F2F01133462A466F
S315000031B02046BDE870409BE770BD2DE9F843074601
S315000031C00024F807884615466FF00F060FF29C0993
S315000031D002D5652100F046F8E80702D5662100F021
S315000031E041F807F47041B1F5805FC7F30B000CD1CD
S315000031F040F07E64B4F17E6F264604D32819401E43
S315000032001749884210D36B210CE0B1F5005F18BF57
S31500003210B1F5405F05D140F07C6444F401142646C4
S3150000322002E0722100F01EF8002706E0F05DFF289C
S3150000323002D07C2100F016F87F1CAF42F6D36A0854
S315000032404146204605F06CFB28B14846BDE8F443EC
S315000032508521FDF765BABDE8F1830000F081E00F36
S315000032600008E00F4846FDF75BBA00006D66672D63
S31500003270746F6B656E2E6300FFFFFFFFFFFFFFFF9E
S31500003280084603F090BE000070B5044693480D460C
S315000032900178164619B14188491C418070BD204607
S315000032A005F06BFB80B1FEF7D5F838B1A078002E9B
S315000032B014BF40F0010000F0FE00A0702946204631
S315000032C0BDE870402E2200E070BD70B504460D4684
S315000032D01646601C00F04CFF10F0070F1ABF41F6AF
S315000032E04901884200260121002004F081FA207855
S315000032F0411C89B2022004F07BFA32462946204658
S3150000330001F060FD18B1BDE8704005F02DBE7348B0
S315000033108188491C818070BD2DE9F047A4B001F079
S315000033209CFD6E4D82466888002600B16E80A98895
S31500003330080003D00D2004F05BFAAE805FEA0A00B5
S3150000334040D001F08CFB070018BF3E78781C00F0D7
S315000033500FFF10F0070F1BBF41F6490188424FF0DF
S3150000336000084FF02E08504601F091FB3844C8F192
S3150000337000010844A0F10801082201A802F0F2FAAF
S3150000338001ACE078FDF7A3FC3146FDF7A1FC8046D1
S31500003390534894F902900078A8B1A868002811D083
S315000033A003A8802106F0B2FA00200090731CDBB25D
S315000033B00022514603A801F06FFDAB684A4641461C
S315000033C003A8984786E0504606F0AEFB0028F9D0E1
S315000033D00521504601F0A8FD06460320FEF784FCB1
S315000033E0404C414906F007002070FF20087087F81E
S315000033F0018087F802909DF80400F870504606F0A8
S3150000340066FF0328504602D108F0A8F862E006F0ED
S315000034104EFF00F00500042807D02078032804D1C9
S31500003420504604F077FB002854D105F0E2FD18B1B0
S3150000343005F0DFFD012802D1207800284AD1EA688C
S31500003440100004D0002150469047002842D1274D55
S315000034502878032818BF042805D0022821D124483B
S315000034600078C0071DD405F0C4FD032819D15046C5
S3150000347006F0E5FFB0F5004F13D1504607F002F80D
S315000034801C49098881420CD0504606F010FF0007FF
S3150000349007D4504606F00BFF40061BD520780128BE
S315000034A018D12878042803D1F00648BF04F014FA8E
S315000034B0207820B101280AD0032804D00AE050461B
S315000034C007F0F6FB06E0504608F058FD02E05046CD
S315000034D008F0A2FD24B0BDE8F0870000CC790020FA
S315000034E056610020D57D0020D67D0020AE790020D3
S315000034F0B2790020865D0020F8B5274D2E680400BD
S3150000350001D1FF20F2BDFFF705FB244F29683A7869
S3150000351021F8124036F8021BA142FBD1FFF737FB18
S3150000352029683A78B01E401A4010C1B2914208BFCD
S31500003530FF20C0B2F2BD2DE9F843194C174D26689D
S315000035408146287806EBC007FFF7E4FA8046082292
S315000035504946384602F006FAF88800E00836F1884F
S31500003560814202BF31883A889142F7D171887A88C0
S31500003570914202BFB188BA889142EFD14046FFF727
S3150000358006FB20682A78301AC010C1B2914208BFE3
S31500003590FF20C0B2BDE8F2838C5A0020EA5F00200B
S315000035A0905A0020FDF793BA70B5044643380FF2DF
S315000035B0880508D0401E012809D9801E01280ED989
S315000035C0C01F31D02AE0BDE870400AF090BA0AF078
S315000035D066FA20B10AF08BFA0028FBD170BD134EB3
S315000035E0307808BB0120307000200AF0F9FA442C2C
S315000035F011D00CD3462C05D00DD3472C07D140F65D
S31500003600010001E040F60200FEF7DCFC03E0742155
S315000036102846FDF785F80020307070BD2846BDE8C5
S3150000362070408621FDF77CB870BD0000BA7D002091
S315000036307047704700000000656D6265722D62611B
S3150000364073652D636F6E66696775726174696F6EF7
S315000036502E6300000AF00CBB890001EB401000F15C
S31500003660844002607047890001EB401000F18440FD
S31500003670006870470122DFF8981610B5884232BFFD
S315000036800022DFF89016884201D2144600E0022498
S315000036901021DFF88406FFF7DFFFDFF88C070168EB
S315000036A021F0807141EA0461016010BD10B5DFF8B8
S315000036B06C16CA6B02B1012241F67133CB63DFF897
S315000036C060460B6803F04073A04238BF002304D362
S315000036D0DFF85847A04238BF0123086820F0407041
S315000036E040EA03600860D2B20AB10020C86310BD88
S315000036F080B50AF002FBBDE804400021D6E7D5E715
S31500003700C01C0F2801D2000770474FF07040704769
S315000037100000000038B50446002500F02FF9DFF858
S31500003720FC26DFF89016944208D0DFF8F42694427F
S3150000373006D0DFF8F026944204D006E0086802E0DE
S31500003740486800E0886800F00700401E03281BD880
S31500003750DFE800F002050C080AF011FB04E00AF0AD
S3150000376014FB01E00AF00EFB05460DE00AF0B8FA7C
S31500003770DFF8B4160968090E01F001010122491C9F
S3150000378002FA01F1B0FBF1F5284632BDDFF8A016CA
S315000037904A68D20702D40A680242FCD17047000088
S315000037A070B5020A0C4602F00F020021521E092AC9
S315000037B0DFF8885614D8DFE802F00514131307164D
S315000037C019131C20DFF85055C0F3043611B1084612
S315000037D0FFF7DCFF224631462846BDE870403BE74E
S315000037E070BD1035F0E730350121EDE73835102191
S315000037F0EAE740354FF48031E6E7DFF84456E3E781
S3150000380070B5DFF83016DFF814260E68DFF81016EC
S31500003810DFF81446012510F478105DD0B0F5003FAE
S315000038202AD0B0F5802F21D0B0F5002F54D0B0F5B6
S31500003830202F27D0B0F5402F46D0B0F5602F66D0A8
S31500003840B0F5901F3BD0B0F5A01F24D0B0F5B01F47
S315000038502AD0B0F5D01F1CD0B0F5E01F22D0B0F5AD
S31500003860001F2CD0B0F5381F39D04FE00AF047FAC8
S31500003870E168C1F308210AE00AF041FAA168C1F340
S31500003880082104E00AF03BFA6169C1F30421491CEE
S3150000389012E0104615E01046FFF73CFF216A01F0E2
S315000038A00F0107E008460CE00846FFF733FFA16A60
S315000038B001F0030105FA01F1B0FBF1F627E0DFF8AC
S315000038C06405FFF727FF1FE0DFF8780500F056F8DC
S315000038D007281CD0092819D10AF011FA14E0DFF8DC
S315000038E0680500F04BF804280CD007280FD00828EC
S315000038F00CD10AF004FA2168C1F30421491C01FB2A
S3150000390000F604E00AF016FA064600E00026304605
S3150000391070BD0000030903F00F0301225B1E072B95
S31500003920DFF8041528D8DFE803F004060A0E1014A1
S315000039301C27086800E04869C0F30420704708683F
S31500003940C0F300607047C86800E08868C0F30820CC
S315000039507047DFF8F83498420ED1086A00F00F007D
S3150000396006E0DFF8EC34984206D1886A00F00300DE
S3150000397002FA00F0401E704700207047014601F031
S315000039800F010120491E0729DFF8CC2449D8DFE8BA
S3150000399001F0040F1348202E4836506A00F0070045
S315000039A002283AD002D3042804D01CD3052070473D
S315000039B011690FE002207047516901F00701491EA5
S315000039C003292FD8DFE801F00F020311F2E70620E2
S315000039D07047916901F00701012904D00229E9D055
S315000039E0042902D07047032070470A2070471168E7
S315000039F011F001010FD0012914D109207047DFF819
S31500003A005C14096801F03001102904D0202904D083
S31500003A10302904D0704707207047042070470820DB
S31500003A20704700207047000070B500F00F000324B7
S31500003A300325401E0728DFF820640FD8DFE800F0D2
S31500003A40042E347C31607C6A0229DFF8C40206D079
S31500003A5003291AD004291AD005291DD070BD0424C3
S31500003A60002501220121284600F0BAF8FFF740FEA2
S31500003A707460DFF8E003FFF7C3FEFFF7FBFD0AF013
S31500003A802FF9BDE87040002139E60125E9E7022457
S31500003A900225FFF7EFFDE4E70124FAE706F110043B
S31500003AA004E006F1180401E006F11404012908D027
S31500003AB0022909D003290ED0062913D00A291DD0C0
S31500003AC070BD0020206070BD01220121002000F0A1
S31500003AD087F80220F6E701220121012000F080F894
S31500003AE00120EFE70AF0FCF8FFF7C4FD01220021F0
S31500003AF0DFF84803FFF7B0FD0320E3E70420E1E722
S31500003B00072902D0092902D070BD002000E001205B
S31500003B10306070BD012906D0042915D007290CD0C4
S31500003B20082918D070BD0020DFF830130A6822F08B
S31500003B30300242EA0010086070BD01220121042013
S31500003B4000F04EF80120EFE701220121022000F0EB
S31500003B5047F80220E8E70320E6E770B500F03DF8F5
S31500003B6001220021022000F03BF8217CDFF8F4520C
S31500003B7000200229296808BF0120490840EA4100BF
S31500003B802860082122782846FFF766FD6868E17AF2
S31500003B90C00841EAC0006860617AA08841EAC02096
S31500003BA0A860EE68207AFFF7ABFDE28806F07F6139
S31500003BB041EAC221A27A1143227A41EAC21108439C
S31500003BC0E860A17B607B090141EA0030E17B0843A4
S31500003BD0217B40EA0140286170BD04461120CDE6F4
S31500003BE02DE9F84F04288246904671D8DFE800F0A8
S31500003BF04C473D03420001260220012700240029EC
S31500003C00DFF83492974D5ED0BAF1020F02BF2868F2
S31500003C10C0F3011000284FF0000B0AD12868C00736
S31500003C204FF0010B05D5286820F0300040F0100059
S31500003C302860EE6300F04EF80028FBD0B8F1000FC4
S31500003C4046D0394600F047F80028FAD0BAF1020FFC
S31500003C503ED1BBF1000F3BD02868C0071BD501221F
S31500003C602021022000F0C9F819E0042608200327C5
S31500003C700224C4E71026202005270424BFE7402697
S31500003C80802007270624BAE74FF480764FF40070A9
S31500003C9009270824B3E70021022000F08DF802204E
S31500003CA000F01CF80446012200210220FFF798FFCD
S31500003CB02146022000F036F8EE63394600F00BF894
S31500003CC00028FAD004E0E86300F004F80028FBD1ED
S31500003CD0BDE8F18F21464846FFF7C5BC401E0328C4
S31500003CE05F4912D8DFE800F0020C06080869C0F345
S31500003CF008007047086800E0886800F07F00704799
S31500003D0059480068C0F30A00704700207047000059
S31500003D100148E8010190D00300400E4004000E4027
S31500003D2041787D0170B5401E0D46032805F07F01E0
S31500003D304B4C3F4E3DD8DFE800F0022A101DC5F37C
S31500003D4008051A213046FFF78EFC0028F9D12069B4
S31500003D50400A45EA4020206170BD0D4618213046D4
S31500003D60FFF781FC0028F9D12068C00945EAC01098
S31500003D70206070BD0D4619213046FFF774FC0028FF
S31500003D80F9D1A068C00945EAC010A06070BD2A48F4
S31500003D900068606920F0300040F010006061C5F3F3
S31500003DA0C310FFF7ADFC216A304A1140294308438E
S31500003DB0206270BD80400E402A480268C2F301129C
S31500003DC0002A18BF002907D0202902D0302903D0A5
S31500003DD005E04FF4000103E04FF4400100E0244900
S31500003DE0C26E0A408A42FBD1490204D5C06F800ADE
S31500003DF000F0010070470120704710B502280AD173
S31500003E000B0004D01B4B4FF480645C64196012B144
S31500003E10BDE81040D0E7012010BD000002001A00E6
S31500003E2003001C000500200000410E40015A6202FA
S31500003E3040410E40545A002090400E40B0400E4083
S31500003E4050410E4006000C0098002E00600614003B
S31500003E50700716000005080070400E405C410E40D9
S31500003E6010400E4024400E409C400E4000F8FF0FCC
S31500003E70FF03E10764400E4010B5214B1C6890FA21
S31500003E80A0F2B2FA82F224EA0000914008431860D8
S31500003E9010BD1C4901200860704730B51A480FF262
S31500003EA0740301680020002203EBC204174D646806
S31500003EB02D686D070FD453F83250B5F5007F18BF43
S31500003EC0B5F5806F05D0B5F5006F18BFB5F5803F25
S31500003ED001D144F480740E4D2D68ED0553F832502F
S31500003EE048BF24F01C04294202D0214208BF2843BF
S31500003EF0521C092AD8D3C10348BF20F01C0030BD8C
S31500003F0000500E4008500E4004500E40E841E00FAD
S31500003F1088300E4001000000000000000400000090
S31500003F200100000008000000010000001000000071
S31500003F300100000000010000010000000008000070
S31500003F401D000000000200001D000000000400002B
S31500003F501D000000000001001D0000000168C907E7
S31500003F6007D58168890704D48168C907FCD4012173
S31500003F704160704710B5012169486A4CFFF710FC93
S31500003F80694901200860002009F032FF012304225C
S31500003F900221052009F06EFF00F00FF801202070C5
S31500003FA00AF05CF801234022211D0FF2B4100AF03A
S31500003FB023F85E490860C00F10BD10B5012201212B
S31500003FC00420FFF70DFE5A485A4C016841F00101E2
S31500003FD001600022C16841F08071C160002356492A
S31500003FE05648086056480260564A1360022323600A
S31500003FF01523554C236000230364544B0B65544929
S3150000400011604FF48071534A1160016841F4807168
S31500004010016010BD4648006800B10120C0B270477B
S31500004020D12202704170090A81704B490A78C27028
S31500004030501C0870042070472DE9F84F80464D1D2E
S31500004040FEF76EFD002782464FF6FF7B434C15E0D8
S3150000405008EB0700594610F8026C30460AF00EF8D5
S3150000406083464F4637480068C00707D5344800687E
S31500004070C00503D520680028FCD02670FFF7CAFFCC
S3150000408040B3F8B2E9B2884224D2FEF749FDA0EB6C
S315000040900A0080B2B0F5FA7F22DCF8B210B95B26CE
S315000040A00127DFE707F10109FFB2012F08BF6E1FE5
S315000040B0D7D0EDB2E81E874208BF5E46D1D0A81E13
S315000040C0874208BF4FEA1B26CBD0681E8742BFD166
S315000040D05D26C6E7FFB2EDB2AF4208BF002000D0B2
S315000040E00120BDE8F28F10B50C460246217800206B
S315000040F00529A4BF1046FFF79FFF0421217010BDBC
S3150000410000B50A48006891B04022694609F05FFF91
S3150000411020B1C2B269461220FDF783FE11B000BD80
S3150000412000250800CC72002010881442C05B0020D5
S31500004130F0ED00E0F00004E0B00F00E055CEACC5B5
S31500004140000E00E0800E00E0100004E0FF030040D7
S315000041500D000100040304E0BB7D0020200000E008
S3150000416073696C6162737675617274646F776E00E1
S315000041704178007801E00178407800EB012080B2B8
S3150000418070470170090A417070470A0A027041704F
S31500004190704710B50023040014BF1C46C3F1030486
S315000041A0E4B25B1C0A55120A042BF4DB10BD30B5D1
S315000041B00024050014BF2546C4F10505EDB2641CB4
S315000041C04A55120A42EA03621B0A062CF1DB30BD8D
S315000041D030B54A788B78CC78097818B120461D46D8
S315000041E00C4602E0154608461A4645EA002044EA0F
S315000041F0022141EA004030BD00B583B020B106225D
S31500004200684600F02AF803E00622684601F0AAFB99
S315000042109DF800209DF8010040EA02219DF8020069
S3150000422002069DF8030042EA00429DF8040042EAB5
S3150000423000229DF80500104303B000BD10B5002311
S3150000424000E05B1CDCB28C4205D210F8014B9442B4
S31500004250F7D0002010BD012010BD10B5002304E0EA
S31500004260541EE41A0C5DC4545B1C9342F8DB10BD6B
S3150000427010B5002480B14FF6FF7202E0944206D0DA
S31500004280641CA4B2035D002BF8D1944204D17921B9
S315000042900FF2F400FCF744FA204610BD10F8012B8B
S315000042A011F8013B0AB19A42F8D0D01A40B27047D1
S315000042B030B5994228BF1946002303E00833401C55
S315000042C0521C9BB203F10804A14203DB0478157863
S315000042D0AC42F3D08B420CDA007812785040C043DF
S315000042E08024C0B201E064085B1C8B4201DA044200
S315000042F0F9D198B230BDF8B555052D0E02F0070775
S3150000430004460E462A4601F02DFB47B1FF20615DAB
S31500004310725DF840014022EA000008436055F1BD95
S3150000432000210FF27802002805E000F00F03D35CAD
S315000043305918C9B20009F8D1084670476128A8BFC4
S31500004340572107DA4128A8BF372103DA3A28B4BF34
S3150000435030210021401AC0B270474108400021F0C8
S31500004360AA3120F0553008438108800021F0CC3175
S3150000437020F0333008430109000121F0F03120F02C
S315000043800F30084370470000627974652D757469B3
S315000043906C69746965732E630000000000010102F8
S315000043A0010202030102020302030304704710B56F
S315000043B0DFF8D44AFDF7A4FE6061FDF79DFEA0611B
S315000043C06069E06118B100F007F8652803DABDE816
S315000043D010409D21A2E010BD10B5DFF8AC4AA069DF
S315000043E0E169884202D2AF2100F0F2FBA069E169DF
S315000043F0401A4FF6FE71084010BDDFF88C1A4A6964
S31500004400904203D3C969884200F035BD0020704749
S31500004410002818BFFFF7F1BF0120704730B1DFF861
S31500004420681A4969401A4010401C80B27047010062
S3150000443001D100207047DFF8501A496901EB4000AE
S31500004440801E70474088C0F30C00C01C0004800C1E
S315000044504000001D80B2704710B50446FFF7F2FF1A
S3150000446004EB4000DFF8201A4FF6FF7300E0801CD3
S31500004470CA69904202D202889A42F8D010BDDFF88B
S315000044800C1A08607047DFF8041A0FF284000860FF
S3150000449070472DE9F843DFF8F05980462889A0B324
S315000044A0B8F80200000430D4DFF8E0490FF26001EA
S315000044B02068DFF8DC9909F0F5FD20B94FF4BA71F0
S315000044C04846FCF72DF9002701E07F1CBFB228897A
S315000044D0874204DB4FF4BB714846FCF721F9286A92
S315000044E0216800EBC706306808B9316003E009F0BF
S315000044F0D9FD0028E9D1B088401CB0804046FFF7BE
S31500004500A1FFF18801EB4000F080BDE8F1830000D7
S31500004510756E636C61696D65640000000FF680302E
S31500004520FCF7FEB870B50446DFF85C098078012810
S315000045301AD12088FFF77BFF04002FD002252646DC
S315000045403046FFF7A6FF708840F40040708036F8CA
S315000045501500FFF76CFF060002D070880004EFD547
S315000045606D1C042D1ADAEAE7022817D1FEF7D2FAF3
S3150000457005462088FFF75BFF06000AD07088800496
S3150000458003D540F2392100F023FB3088C0F30E003A
S3150000459020802846BDE87040FEF7F9BA70BD00B528
S315000045A0ADF5806DADB04FF49662694600F073F8D4
S315000045B00DF5806D2DB000BD2DE9F8430746884600
S315000045C0FFF740FF45007888C0F30D00788080042F
S315000045D022D5FEF79FFA04463846FFF71FFF8146AD
S315000045E04046FFF71BFF0646AAB23946404601F091
S315000045F0B9F90020DFF8901806E001EB4002938934
S315000046004B4508BF9681401C0A789042F5DB204650
S31500004610BDE8F243FEF7BBBAAAB239464046BDE84A
S31500004620F84301F09FB910B50C4601E0FFF714FFFF
S31500004630A04202D241880904F8D510BD70B5DFF852
S3150000464048580446A878012804BF686A00281DD186
S31500004650204609F04EFD022818DB0021204609F00D
S3150000466058FD0DE0012100F0A0FA78B93046FFF7B9
S31500004670DEFE0088000409D43146204609F078FDA4
S3150000468006463000EED16C62012070BD2046FFF771
S3150000469049FF002070BD2DE9F74FDFF8EC470020F9
S315000046A0E080606292B0FEF735FA0121A1704FF00A
S315000046B0000AA188ADF802100021A180E1690191EC
S315000046C0FEF765FA2089C200206A92B2002101F045
S315000046D0ABF90DF10200FFF725FFFEF71BFA217873
S315000046E062785518FEF753FAEDB206E004EB460081
S315000046F00C30FFF717FF06F1010A5FFA8AF6AE42A1
S31500004700F4DB129848B1002501E080476D1C129831
S31500004710EDB250F825000100F7D1D4F814904FF00F
S31500004720000B01250DF1080A0198814502D3BBF162
S31500004730000F37D0BBF1000F06D0ABF101005FFAD6
S3150000474080FB5AF82B8004E04846FFF785FEC846F2
S315000047508146B8F8020000F44041B1F5004FE3D1BC
S3150000476040F48040A8F80200022638F81600FFF749
S315000047705EFE070012D0788801040FD440F4004092
S3150000478078803846FFF785FEBBF1100FBDBF4AF8AB
S315000047902B700BF101005FFA80FB0025761C042EBE
S315000047A0E3DBC1E7002DB8D0656A55B12888FFF76D
S315000047B03EFE6888000447BF002060622846FFF777
S315000047C0B1FE0020ADF800008246606A0025A0B365
S315000047D00088002100F0E9F9ADF80000002100F0A2
S315000047E0E4F90646BDF8000000F051F905463046EA
S315000047F000F04DF98246BDF8500050451ADB3000F6
S3150000480018D000F044F90746304600F028F9014672
S3150000481013983A4601F0A6F83046FFF708FE18B19D
S315000048204188C1F30D0141800022606A314609F0DA
S31500004830C9FC02E00020ADF800006669B346B04648
S315000048400BE03088000404D5D6F80E0008B109F054
S31500004850D9FD3046FFF700FE06460198864223D270
S315000048603046FFF7EFFD81463046FFF7D7FDBDF82E
S315000048700010884206D10AEB0500C01C80104000DB
S3150000488000F1040970880004DBD55846FFF7C6FD21
S31500004890318801F40041084330801FFA89F00BEBA0
S315000048A0400B06EB4008D4E70220A0700DF1020091
S315000048B0FFF738FE6846FFF735FE129860B14FF0F5
S315000048C0000902E0804709F1010912985FFA89F9A7
S315000048D050F829000100F5D16769B94611E00226B2
S315000048E039F81600FFF7A3FD20B10088C0F30E00CB
S315000048F029F81600761C042EF2DB4846FFF7ACFDBD
S315000049008146C145EBD30BE00746FFF7A5FD4146BF
S31500004910FFF789FE4845F7D3019881452BD13746E5
S31500004920474549D23846FFF797FD002F0646F6D091
S3150000493078880004F3D500F088F8B84204D1788866
S31500004940C0F30D007880EAE704D201463846FFF747
S3150000495033FEE4E7019707E03046FFF77DFD414669
S31500004960FFF761FE37460646464504D2308800F01A
S315000049706DF88642F0D337B100F067F801001CBF2E
S315000049803846FFF719FE0198B946C3E73846FFF7E0
S3150000499059FD06465846FFF741FD8146720092B220
S315000049A03946584600F0DEFF002249460DF1020066
S315000049B009F0B7FB0BEB460BFEF7ACF8064617E023
S315000049C021784018401EC0B204EB400000218789C0
S315000049D08181380009D0FFF72AFD00F037FA00225E
S315000049E039460DF1020009F09CFB6078401E6070AC
S315000049F060780100E4D10021201D09F0C3FBFFF718
S31500004A0016FD070006D1BDF80200A080C4F81CB050
S31500004A100020A0703046FEF7BAF8002FB6D1BDF8D8
S31500004A20000078B10446FFF702FD07001CBF0AEB41
S31500004A3005007880204600F012F813995246284463
S31500004A4000F090FF15B0BDE8F08F3888C0F30E0077
S31500004A50EDE480B5FFF7EBFCBDE80240D8E410B505
S31500004A60040012D0FFF7F5FF18B940F2394100F003
S31500004A70AFF82046FFF7DBFC38B10188090402D500
S31500004A80D0F80A0010BD083010BD002010BD10B5CA
S31500004A90010013D0FFF7CBFC0446FFF7B9FC18B9A9
S31500004AA040F2534100F094F844B12088000401D547
S31500004AB0208910BD6088C0F30C0010BD002010BD19
S31500004AC02DE9F04104460D46FFF7B1FC060040D043
S31500004AD0FFF79EFC0FF2C85718B940F2664100F086
S31500004AE0A0F82046FFF7D3FF80463046FFF7B4FC18
S31500004AF0454504462DD003DB40F26E4100F091F8A7
S31500004B003088000448BF358123D475803046FFF7CE
S31500004B1099FC06EB4005FDF7FDFFDFF86C13CA694B
S31500004B20661B944204BFCD610026FEF730F8B6B28C
S31500004B30082E06DA32462846BDE8F041FF2100F08D
S31500004B4073BF08220021284600F06EFFA6F1080078
S31500004B506880BDE8F081F8B507460C46FFF767FCAC
S31500004B6006463846FFF793FF051B8442ADB21BD0BD
S31500004B7003DB4FF4936100F02BF8AEB130880004EC
S31500004B8006D5D6F80A0034812844C6F80A00F1BDD5
S31500004B903846FFF764FF2246411900F0E3FE21463E
S31500004BA03846BDE8F4408BE7F1BD38B50C46FFF753
S31500004BB03EFC05000AD0FFF72BFC18B940F2AB41CA
S31500004BC000F006F805EB4400808832BD002032BDB7
S31500004BD00FF2CC40FBF7A4BDF8B50C461546FFF71F
S31500004BE026FC06000FF2B84714D0FFF711FC18B9DF
S31500004BF040F2B64100F015F82846FFF718FCFFF71B
S31500004C0007FC18B940F2B74100F00BF806EB440078
S31500004C108580F1BD3846BDE8F44040F2BA41FBF765
S31500004C207FBD3846FBF77CBD70B504460D460026B1
S31500004C3008E0FFF72CFF294686192046FFF7B5FF47
S31500004C40B6B204462000F4D1304670BD38B5C01C5B
S31500004C508D4C80104500A06AADB218B140F2CF412C
S31500004C60FFF7B6FFA069E169411AC903B5EB114F19
S31500004C7005DA690049420844A062012032BD0020DD
S31500004C8032BD81490020886270472DE9F84F0446FD
S31500004C90E01C80107C4D40000027001DAE690FF21D
S31500004CA0004AB4F5005F88461FFA80F904DB40F23B
S31500004CB0E6415046FBF734FDFDF72CFF8346E869D5
S31500004CC0A96A09B9301A03E05FEA080202D0081A95
S31500004CD0461008E0701A4610B0B220B940F20C51E6
S31500004CE05046FBF71DFDB6B24E4515DBEF6907EBE7
S31500004CF04900E861A86A28B1B8F1000F04BF00EBCB
S31500004D004900A86200207C80B880F880388004F1D1
S31500004D1008016889081868815846FDF738FF1FB9E9
S31500004D2001211F2002F064FD3846BDE8F24FFFF76F
S31500004D3075BBF8B504460D46164600210A20FFF756
S31500004D40A4FF0746FFF773FB48B10681C0F80A4087
S31500004D50018841F400410180C0F80E503846F2BD8A
S31500004D6070B504460D4611462846FFF78EFF0646E7
S31500004D703CB1300005D0FFF772FE2A46214600F00E
S31500004D80F1FD304670BDF8B504460D46164615E0F1
S31500004D902846FFF77CFEB7B2874288BF07462846FB
S31500004DA0FFF75DFE01463A46204600F0DBFD012195
S31500004DB02846FFF7FAFE3C440546F61BB0B200282B
S31500004DC0E6D1F1BD2DE9F84381460E461446FDF7BE
S31500004DD0A1FE2D4D8046287801002BD0401E28705C
S31500004DE0C0B205EB4000A9788789F9B981813846B8
S31500004DF0FFF71DFB00F02AF83846FFF730FE324673
S31500004E00494600F0AFFD3846FFF729FE224600214D
S31500004E10304400F009FE00223946281D09F081F9C8
S31500004E204046FDF7B4FE0120BDE8F2836878401CD9
S31500004E306870E1E7A019012180B2FFF726FF07009D
S31500004E40DAD14046FDF7A3FE0020EDE720B1418808
S31500004E504DF6FF7211404180704738B5FDF75AFE96
S31500004E60044600210B4809F08DF905462046FDF75A
S31500004E708EFE284632BD8041C00F70470249002091
S31500004E808880704700000000247600207C5D0020AA
S31500004E90A0500000287600202DE9F04104468846FF
S31500004EA017461E464046FFF7DAFDC5194046FFF78E
S31500004EB0EEFDB919884203DA40F2B151FFF788FED8
S31500004EC0300013D00698010003D132462946204609
S31500004ED004E0012832462146284603D1BDE8F041C8
S31500004EE000F040BDBDE8F04100F07FBDBDE8F081B7
S31500004EF010B50C46FFF7B3FD00B1005D10BD38B527
S31500004F000C461546FFF7ABFD00B1055531BD38B56A
S31500004F100446FFF7BCFD05462046FFF7A0FD2946DF
S31500004F20BDE8384000221BE770B50D46691C0446F3
S31500004F30C9B2FFF7DDFF060229462046FFF7D8FF74
S31500004F40301880B270BD00B583B002238DF80420FE
S31500004F50120A8DF80520012200920A46014601A890
S31500004F60FFF79AFF07BD10B50446FFF746FA10B1E2
S31500004F70A4F108000CE010BD10B5FFF758FA0400C4
S31500004F8004D0FFF75FFA04EB400001E0002010BDFB
S31500004F90BDE81040FFF742BAF8B504460D46FFF7E4
S31500004FA046FA060016D07088C0F30C072846FFF7AD
S31500004FB03EFA07F00101CF19FFF744FA07EB400765
S31500004FC02046FFF7D9FFA84203D040F26E61FFF7F3
S31500004FD0FFFD7780F1BD2DE9F0410C46FFF727FA7A
S31500004FE005002DD06888C0F30C0606F00100801974
S31500004FF0001B04F00101471AE01C20F003002844BE
S3150000500000F108082846FFF703FABFB208B1A64226
S3150000501003D240F28A61FFF7DBFDB44210D0092FBC
S315000050200EDB6C8008220021404600F0FDFCA7F153
S315000050300800A8F802004046BDE8F041FFF7EEB9C7
S315000050400020BDE8F08170B5044682B02068FFF705
S315000050508AFFADF8000000B3FFF7E9F905001CD0A0
S3150000506000880FF23C06000404D540F2A5613046E4
S31500005070FBF756FB6846FFF755FABDF80000FFF749
S31500005080D6F90546FFF7C4F920B940F2AB613046C0
S31500005090FBF746FB05F10800206073BD0000000029
S315000050A06275666665722D6D616E6167656D656EAA
S315000050B0742E6300012100F01F029140DFF8C8271B
S315000050C005E0012100F01F029140DFF8C0274009EA
S315000050D042F820107047012100F01F029140DFF8CE
S315000050E0B027F4E710B5012818BF2028DFF8A44739
S315000050F005D04FF4BD710FF66400FBF711FB204697
S3150000510010BD426892884089401A824201DA012025
S315000051107047002070473EB5012818BF202834D1BB
S31500005120012818BF202830D1FFF7DCFF0446FDF721
S31500005130F1FC0546A06901AB6A4602A90AF0EBF844
S3150000514000992289206889B200F024F82846FDF7E4
S315000051501EFDA0690AF057F9012816D12168208999
S315000051608988401A218A88420FDBA06990F831109D
S31500005170022903D10AF0CDF8022804DAA06990F8D2
S315000051803100012801D100F001F837BDA0690021E6
S315000051900AF011B970B504460D461646FDF7BAFC7D
S315000051A0E188A9420CD22288521A521992FBF6F3D0
S315000051B006FB13222280A288AA18511AA180E58034
S315000051C0BDE87040FDF7E3BCF8B5012818BF2028FC
S315000051D00C46154616D1FFF785FF0646307B10B103
S315000051E001207073F1BD707B18B13046BDE8F24006
S315000051F0B2E00FF2CD1700F006F818B100F003F890
S315000052000028FBD1F1BDB0693B462A4621460AF08B
S31500005210DEB970B505460E46FFF764FF012D18BFCF
S31500005220202D044640D1A069016890F83200E8B903
S315000052300420886400F031F9A0690068C16C002E72
S3150000524007D041F00401C1640B20FFF733FF0521AD
S3150000525006E021F00401C1640B20FFF732FF0021B4
S31500005260A0690068BDE870400AF040BA04204863AF
S3150000527000F013F9A0690068816B002E07D041F099
S31500005280040181630B20FFF715FF052106E021F0DD
S31500005290040181630B20FFF714FF0021A069006859
S315000052A0BDE870400AF0A7BA70BD38B50446DFF80D
S315000052B0E805814230D0DFF8DC55A869A0422BD141
S315000052C02A89286899B2FFF765FF29680020C880F7
S315000052D002E0284600F021F820460AF01AF80328D2
S315000052E01ADA2A68E889698A93884143002B89B2C9
S315000052F0EFD05388128840188342B8BF914205DB2D
S315000053009A42E6D28342A8BF9142E2DA2046BDE83D
S31500005310344001210AF04FB831BD38B50446DFF8F4
S315000053207C35E089658A216802466843084400F1B5
S315000053300801A0690AF003F9A06909F0EAFF02284A
S3150000534001DBFFF723FF608AA18A401C90FBF1F284
S3150000535001FB1200608231BDFEB50446207B68BBAE
S3150000536060680FF25D074188084400F10805A069EE
S315000053706B4601AA02A909F0EEFF60688188009ACF
S31500005380891A019A8E1A4188008888420ED260894D
S31500005390421AA0693B4629460AF019F970B96068B5
S315000053A061894288711A561800F10805A0693B46C2
S315000053B0F2B229460AF00BF900B96073F7BD000096
S315000053C070B5DFF8D054A96981421C4615D16868CA
S315000053D08188A14238BF8488FDF79CFB69686B8988
S315000053E04A88A4B2A21892FBF3F603FB16224A805F
S315000053F069688A88121B8A80E2E670BD38B50D4658
S31500005400FFF770FE112D044609D1A069002109F0AD
S31500005410E3FF002020732046BDE832409CE7132DB1
S3150000542006D1A069012109F0D7FF0120207331BD03
S31500005430206801880844057220680188228900F0E6
S3150000544043F901808188491C8180A06909F0DBFF4E
S31500005450226821899288891A89B220B9E2898A420A
S31500005460A8BF012105DA012808D1208A814205DB7F
S315000054700021A069BDE8344009F09DBF31BD80B56B
S31500005480DFF81C040169090606D50AF0A1F9BDE892
S31500005490044001460120B1E701BD0B201BE6F8B52B
S315000054A00C461546FFF71EFE0646EAB230688088AF
S315000054B03189891A884201DB0120F2BD00270DE0FF
S315000054C0FDF728FB31680B8814F8012B19447F1C63
S315000054D00A7231680A88338900F047F9AF42EFD380
S315000054E00020F2BDF8B5012818BF202804460D4655
S315000054F03AD100F023FA10B9204600F06CF82046A5
S31500005500FFF7F0FD06462046FFF7ECFD012C18BF1D
S31500005510202C29D1DFF88C13016001F1480242608A
S31500005520402202818022012C18BF202C428150D1BA
S31500005530012C16BF202C01F1D0000020012C18BF31
S31500005540202CB06110D1DFF86003A98CA8618030EF
S31500005550E861F181EA8C32828A4207D21C21304608
S3150000556004F0D4F90220F2BD0120F2BDB06990F832
S315000055703130012B0CD0338993FBF1F701FB173344
S31500005580002B02BF92FBF1F301FB13210029E5D1A9
S31500005590294609F0F9FCE8B9B069017F007E0123CC
S315000055A0022208F067FC287C012807D10121204649
S315000055B0FFF72FFEB069FFF7EAFD0AE000207082D0
S315000055C0F189308990FBF1F0B08200F0B4F900F077
S315000055D0B2F90020F2BD58B5012818BF20280446AC
S315000055E012D100F0ABF9F0B9204600F083F920465D
S315000055F0FFF778FD012C18BF202C06460FD1B069A5
