S01600007468726561642D746573742D6170702E7333370B
S31508000000C05D002039ED020881E1020885E1020899
S31508000010A70B0000000000000000FFFF54000008C6
S31508000020040D0300000000000000000000000000AE
S3150800003000000000000000000000000000000000B2
S31508000040000000000000000000000000540000004E
S3150800005000000000C05D002039ED020881E10208B9
S3150800006085E10208A70A0A0100010008040D03AC8D
S3150800007000255400000000000000000000000000F9
S315080000800000000000000000000000000000000062
S31508000090000000000000000000000000FFFFFFFF56
S315080000A0FFFFFFFFFFFFFFFF00E00708000000005B
S315080000B000000000FFFFFFFFFFFFFFFFFF0000003B
S315080000C00000000000000000000000000000000022
S315080000D000000000F07F002000000000EC7F0020F8
S315080000E0EC7F0020C05D0020442F030898F7020823
S315080000F0E84E0020401F002000000808008000206D
S31508000100C05D002039ED020881E1020885E1020898
S315080001108DE1020889E1020891E1020808E2020875
S3150800012008E2020808E2020808E2020808E20208F1
S3150800013095E1020808E2020808E20208AF0C000886
S315080001404BE1020808E20208C755000808E202085F
S315080001507D7700084F59000808E2020808E20208FD
S315080001600D3E0008FB1B00088F160008A5010008B5
S3150800017008E20208D75400081F55000815E60208C9
S31508000180CB29010808E2020808E2020879E4020815
S31508000190012100F01F029140314A400942F820101F
S315080001A07047000070B52F4C2F4D607829684907B5
S315080001B027D5032825D2A18804EB40029181012185
S315080001C0A27801FA00F01043A070284A2078002887
S315080001D012D0002320FA03F6F60708D59940637073
S315080001E04840207004EB4300808A106009E05B1CDD
S315080001F0DBB2032BEED304E0106000F091F8032085
S3150800020060704FF6FF702860BFF35F8F70BD80B5D2
S315080002101448002101700022032141700021C17099
S315080002200521018100218170001D10490A604A607C
S315080002304FF400428A601022CA6048610120886132
S315080002400320C8600421084801644FF6FF71016065
S315080002500B20FFF79DFFBDE8014000F09FB80000A6
S3150800026000E100E0C866002010A8004004E0004055
S3150800027000F001BC2248012181604EF6BE21416092
S315080002800121016070471F49012008607047A528B1
S3150800029005D11B484DF6AD614160022101607047EA
S315080002A01748006810F0010018BF0120704780B594
S315080002B01549164A102008601549164800780300A3
S315080002C00BD003280CBF00200120106040F6510017
S315080002D00860002000F048FE06E0022010604FF497
S315080002E00060086000F08BFB0B48072101600021C5
S315080002F00164102009490860002002BD00000000C2
S31508000300006000400860004080E100E0080000400E
S315080003100C600040AC7F002014A0004000E100E023
S3150800032070477047DFF8F43433F810001040C840BF
S31508000330704730B50FF2A454DFF8E43434F81040AF
S315080003409C601140DFF8D44434F810509543294393
S31508000350D96002221A6000221A6024F81010586820
S315080003600028FCD130BDDFF8BC24DFF8BC041278C5
S31508000370DFF8B8140AB149780EE0895611F1090F69
S31508000380B8BF302108DBC16D39B1C26D40F24A31C0
S31508000390B1FBF2F189B2C91E01607047E0B5DFF81A
S315080003A0900401880A2300F065F8BDF806104FF698
S315080003B0FF720D20FFF7BDFF07BDF8B50546B5F579
S315080003C0004FDFF868441AD1DFF868040188022371
S315080003D000F050F8BDF80000000AFF2801D001001F
S315080003E000D118206070BDF800000006C00E102865
S315080003F01CBF001D00F09FF9BDF80000C543DFF8DB
S315080004002464707808B1002005E0A089ADB2684080
S31508000410C00701D501207070DFF81C04A58105F01E
S315080004200104016841F4004101604FF440520FF2A3
S31508000430D04000EB4400C5F340074078010389B279
S315080004400220FFF776FF204600F0CEFD4022B901D4
S3150800045000F00EFA2D06A80E00F0010038433070A1
S31508000460FFF781FF707818B1FFF798FF00207070CA
S315080004700020F2BD7F22684600F03ABE2DE9F04F13
S31508000480DFF8BC43DFF8B473207887B00423049000
S315080004900D210B38C0B203906846039A00F0DAFEC5
S315080004A09DF800008DF80A009DF801008DF80900F6
S315080004B09DF802008DF808009DF803008DF80500E8
S315080004C0DFF880030078012806BF607880F0010510
S315080004D0012501F0DDF982469DF9020003990AF12A
S315080004E00A06AAF10A09B042B6BF81454FF00108CB
S315080004F04FF0000801208840ADF806009DF801007D
S31508000500000604D47888BDF80610084201D04FF0DA
S31508000510010801F055FA9DF8030000060AD4B888C8
S31508000520BDF80610084205D19DF90000B042B8BFD3
S31508000530814502DB4FF0010901E04FF0000948EA66
S31508000540050059EA000000F0A680DFF8FCB2BF49B2
S31508000550DBF80000BE4E400800F001008DF80400EC
S31508000560BC48006800F4E06005904FF4E06008605D
S31508000570002001F0DDFD00F003FCADB1607858B154
S31508000580DBF80000AF4940084000CBF80000012026
S31508000590087000F0DAFC07E0306840F4005030607C
S315080005A0306820F480503060A6480078012812D1BF
S315080005B061780D4203D101F0F3FD01F016FFDBF877
S315080005C00000A04940F00100CBF8000000200870A8
S315080005D0642000F0BAFC607880F00100054203D080
S315080005E00498C0B201F09FFF607838B1306820F4F3
S315080005F080503060306840F400503060BDF8060026
S31508000600C543B8F1000F08D002F078F88DF801005C
S315080006108DF802A0788828407880B9F1000F08D0B4
S3150800062002F019F98DF803008DF800A0B888284063
S31508000630B8809DF900009DF90A10884202BF9DF80E
S3150800064001009DF8091088420BD19DF902009DF919
S315080006500810884202BF9DF803009DF805108842DD
S3150800066006D0039904236A46C9B20D2000F002FE9B
S3150800067005987849086000F033FE9DF8040001F0FB
S3150800068057FD02F008FA607828B148F260703060C9
S31508000690642000F05AFC9DF8010001F09BFF9DF8CC
S315080006A0030002F0D3F807B0BDE8F08F80B501F07B
S315080006B0E2F8BDE80140E1E601F0DDB870B50646AE
S315080006C001F098FC0546A6F10B001028A6F10B04CC
S315080006D001D38A2070BD60488168090702D4006882
S315080006E0C00701D58C2070BD554806705B48016867
S315080006F00C290FD00FF27C11594A92F90020A4B2A6
S3150800070031F824105118C161FFF7B8FE012D08BF52
S3150800071001F010FC002070BD10B5044601F0ABF8DE
S315080007202046BDE81040C9E74548007870473F486D
S3150800073090F9000070472DE9F0410446202514F190
S315080007402B0F86B049DB474801881423FFF792FE32
S31508000750BDF810004FF6FF71884203D0400448BF29
S31508000760012607D43F2200211020FFF7DBFD0026D3
S3150800077080F0200504F12B022F2A2C483A491AD278
S3150800078013220FF2301300E0521ED2B213F9127080
S31508000790BC42F9DB03EB4204032764780C600024AF
S315080007A013F81210017000218846C6B1BDF8101062
S315080007B04FF6BF7228E0092C0FDA025D0A60047052
S315080007C014232A480188FFF755FE4FF4C0514FF409
S315080007D080744FF080082827E7E78B2019E04FF44C
S315080007E0605200F045F84FF4E062214600F040F808
S315080007F08022414600F03CF8781980B24028A8BF0C
S315080008003F203F2280F0200100F032F8FFF7ABFDD1
S31508000810002006B0BDE8F081000000002078002026
S31508000820E8100040B67F002064100040C05E00203B
S315080008308C2B0308982B03081C100040CE7D002043
S3150800084049610020346100208020004080E100E0FA
S31508000850D010004000E100E060200040AC100040ED
S31508000860B57F0020882B0308C01000408A2B030898
S315080008700B205EE5AA21290055232900002528001A
S31508000880AA26270055282700002A2600AA2B260074
S31508000890552D2500002F2400AA30240055322300A8
S315080008A000342200AA3522005537210000392000DD
S315080008B0AA3A2000D500E601EC02EF03F204F4059B
S315080008C0F506F707F808F909FA0AFB0BFC0DFD0F00
S315080008D0FE11FF1300160119021C031F1000110058
S315080008E02000300040004100500060007000800089
S315080008F09000A000B000C000D000E000F0000000AA
S3150800090000000103DFF8E0145120086070472DE964
S31508000910F041DFF8D8640546F0780428B4BF3027DC
S3150800092060274FF4F070B0FBF7F41E2D24B201DBFC
S31508000930281B04D5A8B2BDE8F04100F006BB02F0BA
S31508000940E5F800F028F870700721DFF8A404DFF84E
S31508000950A42400F047F8291B09B27943C91C890861
S31508000960491EDFF89454DFF8807441602E6800F061
S31508000970B0F83C68386820F04000386002F0CCF8DF
S315080009803C602E6002F0CCF800F0F6F94046BDE86F
S31508000990F04102F0CDB88046012080F310887047F8
S315080009A038B5DFF84814C9780429B4BF3024602460
S315080009B04FF4F071B1FBF4F1451A1E2D04DAA121AA
S315080009C00FF2884002F0BAF8DFF82404DFF824248E
S315080009D0072100F007F805FB04F1C91C8908491E20
S315080009E0416031BD01600021416081604FF00071B6
S315080009F011607047DFF8F42301215170D0E72DE923
S31508000A00F041DFF8F863DFF8F84300253560256024
S31508000A104FF4A040606041F29A084046FFF777FF1E
S31508000A20706844F69041081A00B24FF4487190FB7A
S31508000A30F1F000B20828A8BF072004DA10F1080F61
S31508000A40B8BF6FF00700206008274046FFF75FFF32
S31508000A504046FFF75CFF706845197F1EF8D1281DD0
S31508000A60C00808BF0120DFF89C13B1FBF0F080B284
S31508000A706060BDE8F08138B5DFF88C5301206FF06F
S31508000A800F04A8602C608020FFF741FFE868FF2864
S31508000A9002D8641C102CF5DB31BD70B5DFF86C0389
S31508000AA0DFF85453016841F00101016001214160FA
S31508000AB002F02CF82E68044600F00BF8CA495120BB
S31508000AC008602E6002F02CF82046BDE8704002F05F
S31508000AD02FB8286840084000286002F021B810B5F1
S31508000AE0C24C0120207000202071C948816901F09C
S31508000AF00301032907D10020A070042000F060F844
S31508000B000120207110BD0F210160022181610120A1
S31508000B10E0706420BDE810406CE72DE9F041BD4C5B
S31508000B20BB4EA088B14F4FF6FF78404540F2DC55E2
S31508000B301CD1B948018802237F22201D00F0D8FA6B
S31508000B40A088404504BF0220A080B069800703D46E
S31508000B50B06940F00200B0610120B870A08830602A
S31508000B602846FFF747FF2846BDE8F081B269920795
S31508000B70EED5BA78002AF6D1B268B36812F0010247
S31508000B8003D10F2809D2401C06E09B0705D5237818
S31508000B901BB1032801DB4044A080A08822700228EC
S31508000BA0BCBF0220A0803068A1888842D4D1B06931
S31508000BB000F00300032818BFFFF76FFF0020D3E7F4
S31508000BC02DE9F047804695480178002569B9C0782F
S31508000BD0072818BF09280DD0032818BF112809D0DF
S31508000BE013281CBF15280B2804D08D48016841F42A
S31508000BF08071016001F08AFF8146FFF7CDFE40460D
S31508000C00FFF78BFF08B9012515E07B4F764E3C6848
S31508000C10386840084000386001F082FFD6F800A026
S31508000C20306820F04000306001F076FFC6F800A07A
S31508000C303C6001F075FF00F09FF8484601F078FF28
S31508000C402800D7D0BDE8F0870220B9E76848694A86
S31508000C50002141608160016821F0020101600021E4
S31508000C60624841704FF000711160817809B1002126
S31508000C708170C178012914D16A4901220A606A4A39
S31508000C801268D20748BF03210FD40222C270086C2B
S31508000C9040F001000864042064490860644908605B
S31508000CA07047C178042901D10521C17070474F48A2
S31508000CB04078002818BFFFF7C9BF00F076BF2DE9B6
S31508000CC0F8434A4C207908B354E001F01FFF054663
S31508000CD0FFF762FEE078032813D0474EDFF8088155
S31508000CE000F0ACF8D8F80090D8F8000020F04000E2
S31508000CF0C8F8000001F010FFC8F80090376001F04E
S31508000D000FFF00F039F8284601F012FFE0780328B3
S31508000D10DBD1404E3E4DB08828604FF6FF7770888D
S31508000D20B8420CD14348018802237F22B01C00F048
S31508000D30DFF97088B84202D16420708001E07088BB
S31508000D4078B170883C494A6D42F001024A650A68E2
S31508000D50AB68DB07FBD50B689B1AC3F31303834207
S31508000D60F6D3FFF79AFE0420E0704FF4C870BDE88A
S31508000D70F2433FE6BDE8F183002080F31088704710
S31508000D802DE9F843194C2179207881F001010842B0
S31508000D901DD124E001F0BAFEFFF7FDFDE078052835
S31508000DA010D0154E104D00F049F8D5F80090286877
S31508000DB020F04000286001F0AFFEC5F800903760CB
S31508000DC001F0AEFEFFF7D8FF404601F0B1FEE0782D
S31508000DD00528DFD10020A0700520FFF7F1FE0020CE
S31508000DE02070BDE8F183000000800040BA7F002033
S31508000DF010E000E004ED00E094ED00E01040004053
S31508000E000C0000400060E316084000401C4000400B
S31508000E1004400040126100209C2B0308960708082E
S31508000E203840004018A000400C40004080E200E036
S31508000E3000E100E0A02B030838200040376830683E
S31508000E4040084000306001F06BBE0000636C6F63C1
S31508000E506B732E630000000010B5002001F021FE20
S31508000E60594C40F68C2188422068B4BF40F00800EF
S31508000E7020F00800206010BD10B5044653480188CC
S31508000E8082B000F05DF89DF800109DF80100FF297A
S31508000E9002BFFF280420002122004D4A136818BF0C
S31508000EA0801C23F46073C0B20828A8BF072043EA51
S31508000EB0C010106008291068A8BF0721C00841EAB9
S31508000EC0C00010604348047013BD434800B501884C
S31508000ED083B000F035F8BDF800004FF6FF71884280
S31508000EE00EBF4FF4E1600A2190FBF1F0ADF8000067
S31508000EF03848007808B33548018802237F2201A8BC
S31508000F0000F0F6F89DF80500BDF80030FF2808BF88
S31508000F100420811CC9B20829A8BF0721C1F12F02E4
S31508000F2002EBD272C0F12F00521000FB0320C1F170
S31508000F302F01B0FBF1F0ADF80000BDF800000EBDC2
S31508000F4002237F22684600F0D3B824490A6803289A
S31508000F5009D34B6D43F001034B650B689B1AC3F32A
S31508000F6013038342F9D3704710B5040004D110BDAA
S31508000F704FF47A70FFF7E9FF2046441E80B2002836
S31508000F80F6D110BD20B1012807D0032818D019E0E2
S31508000F90134801B11721016012E049B1480800F170
S31508000FA0B77000F55850B0FBF1F0B0F1011F01D34E
S31508000FB0202070470B4900F001024A60400808608B
S31508000FC0002070472120704700BC00408E2B030884
S31508000FD018000040B87F0020902B030838200040F6
S31508000FE0100004E068C80040F0B5044689B0002047
S31508000FF0FFF742FF294801880A237F22684600F046
S3150800100077F8BDF802004FF6FF75A84205D14FF4F0
S3150800101081710FF2940001F091FD00260FF2A007EE
S3150800102001E02A4616B94FF47C4203E0022E08BFB7
S315080010304EF23F023DF81610B85DFFF77AF9761CB6
S31508001040052EEED3012C03D114237F22144802E087
S3150800105014237F22134801880FF26C0703A800F0B7
S3150800106047F800262A4608E02A46012E08BF4FF60A
S31508001070C07202D0082E08BF002203A830F8161046
S31508001080B85DFFF756F9761C0A2EEDD3012C04BF7E
S315080010900120FFF7F1FE09B0F0BD00008C2B030814
S315080010A08A2B0308882B0308616E616C6F67756568
S315080010B02D63656C6C2D626961732E6300000000F8
S315080010C000100C0D0E000000010203040708090AAF
S315080010D00B0F000038B514467F2C08BF0024314D8D
S315080010E029431A4604FB0311BDE8384001F028BE1F
S315080010F070B51E00044615461CD04BF2346081427A
S3150800110012D1092E28BF082633467F2240F612013F
S315080011102046FFF7DFFF32460FF2A801204601F00E
S3150800112078FE38B940F2A27133462A462046BDE811
S315080011307040CFE770BD2DE9F0410C4619490FF212
S31508001140780841EA0006C007154602D56C2100F06A
S315080011502FF8E80702D56D2100F02AF812488642D2
S3150800116004D3A819401E1149884202D36E2100F003
S315080011701FF8002706E0F05DFF2802D0752100F071
S3150800118017F87F1CAF42F6D36A082146304601F0AD
S315080011909EFE28B14046BDE8F0417B2101F0CEBC59
S315080011A0BDE8F081000008080008080800100808D3
S315080011B0404601F0C3BC00006D66672D746F6B6511
S315080011C06E2E6300FFFFFFFFFFFFFFFF30B50FF234
S315080011D00411DFF8F8500A6883B001A800240260F9
S315080011E001202870002001F0B7FE30B1002001F080
S315080011F0B3FE10B12C7049203EBDDFF8D40001883B
S3150800120002237F220DF1020000F024F802237F2238
S315080012100021684600F01EF8002001A9BDF802204A
S3150800122031F81010914208BF0124401C0228F4D35B
S31508001230BDF8000024B1B0F57F7F07D100203EBD80
S31508001240B0F57F7F14BF0420062000E007200021A8
S3150800125029703EBD10B5FF2907DC1C4C247844B123
S31508001260BDE81040C9B202F02FB9BDE81040FFF73B
S315080012703FBF10BD2DE9F0410546FF2D0E46174626
S3150800128098460FF2540012DC104C2178A1B161780F
S3150800129011B1BF2101F052FC01206070434632466D
S315080012A03946E8B202F07DFA0020607004E0BDE835
S315080012B0F041CA2101F042BCBDE8F0810349097832
S315080012C0002918BF02F079BB70470000AD7F0020E7
S315080012D0942B0308FE01FD02746F6B656E2E630086
S315080012E010B5DFF878461020206301F00FFCDFF810
S315080012F070160A6842F001020A6001F019FCDFF86C
S315080013006406606020608A30616889316160012105
S315080013102163E060A060DFF85016E0688930E0607D
S31508001320022020634FF6FF70086010BDDFF83C0608
S3150800133045F26401C1601E21416250210162C82143
S31508001340C1618165F021C16545F690014166882134
S3150800135081660621C16644F2066101604FF6FF7197
S315080013604160DFF80C06007838B1DFF8080648F265
S31508001370607101604FF4C1514160DFF8FC050168F6
S3150800138041F0040101600020DFF8F015487070474D
S31508001390DFF8D4050068C00700D408E07047DFF816
S315080013A0C805006810F0190F00D100E07047002149
S315080013B0002002F056BC2DE9F04F804683B0DFF8D6
S315080013C0C015012002F0FBFC8A21DFF8980501FB15
S315080013D008F14518681C4178007800EB0120DFF811
S315080013E0A41509781FFA80F9DFF89C05017000EB4F
S315080013F0080A00208AF802005FEA896003D5DFF848
S315080014008C45606E000640F1A080002609F00707AB
S31508001410032F18BF012F70D109F4406009F4404129
S31508001420B0F5806F1CBFB1F5804F002965D0042246
S31508001430B0F5006F08BF082203D0B0F5406F08BFAB
S315080014400E225FEA49605CBF921CD2B2B1F5004F2A
S315080014500CBF901C02F10800C0B200900098401C16
S3150800146000EBD070C005000E01905FEA0800019BF2
S3150800147014BF6068206898423FD3A818B1F5404F5A
S31508001480DFF80CB502D102F01CFD06E04078A95C35
S3150800149001EB002080B202F0F5FC0146FF290FD0CF
S315080014A0012F03D102F024FE06460CE0DBF800000B
S315080014B030F811004FF45671084204D0012602E0B4
S315080014C0032F08BF0126C6B15FEA097015D45FEA83
S315080014D00800019914BF60682068491C884207D231
S315080014E0E0685FEA080114BF022101210842EED133
S315080014F00098285C042818BF0026E06D000900F053
S31508001500010086428AF802001FD0002EA26C4FF412
S3150800151000604FF480610BD0B8F1000F08BF084691
S31508001520024212D0606C40F00100606401200AE0BB
S31508001530B8F1000F08BF0846024206D0606C4008A2
S315080015404000606400208AF80200BDE8F78F2DE9A4
S31508001550F84F0446DFF83454DFF82C6420000CBF3B
S3150800156028686868C1B2052905DAFFF711FF7068AF
S31508001570401C706089E040008DF800008A2000FB5E
S3150800158004FBDFF8E0839DF8000008EB0B094844EC
S3150800159010F8081D427802EB01211FFA81FA8178BA
S315080015A066318170317819B9DFF8D8130978317046
S315080015B03178DFF8B4730170002131704170386CEE
S315080015C020F4805038642000686E02D1786840059F
S315080015D004D4012C23D17868000520D5FFF7D8FE5E
S315080015E0DFF8B003017891B1002101701AF4E45FC5
S315080015F0DFF8A403016802D00022402005E099F82C
S315080016000100000900F001028F2003F0AAF920006A
S315080016100CBF4FF480604FF40060786030E01AF435
S31508001620E45F2BD100F081FD10B15FEA4A4025D571
S3150800163018F80B00802821DA386C99F80110890609
S3150800164026440ED5696E09060FD4A96CC9060CD4B2
S31508001650396822000CBF80224FF48072084010427D
S3150800166003D1FFF795FE0020B070B2789DF8001000
S31508001670484603F023FA0020B07001E0FFF788FE21
S31508001680002C0CBF012002202861BDE8F18F2DE94E
S31508001690F84FB54CBD4E2068216CDFF800B3DFF873
S315080016A0F482DFF8FC92DFF8D8A201EA000538E0F8
S315080016B061B18A22AB49504308444078C00605D434
S315080016C0B548016800228F2003F04BF9280608D593
S315080016D00FB9FFF75DFE03F0A0F9802025F080051D
S315080016E02060E80509D50FB9FFF752FE03F095F912
S315080016F04FF4807025F480752060680407D50FB90B
S31508001700FFF746FE4FF4804025F480452060280404
S3150800171007D50FB9FFF73CFE4FF4004025F4004506
S315080017202060002D73D00027280706D50020FFF774
S3150800173042FE082025F008052060E80606D50120A7
S31508001740FFF739FE102025F01005206005F060002F
S31508001750602803D1B06CC0050AD401E0A80605D5F7
S315080017602020206025F02005002006E0680606D522
S315080017704020206025F040050120FFF7E8FEE80438
S3150800178004D54FF4805025F480552060E8079DD590
S31508001790012020606D0802F0A1FA6D0078B14FF4BF
S315080017A048725146012002F0ADFA02F0E5F940050B
S315080017B04CBF03200120002102F053FA012799F8B3
S315080017C0010008B100F0FAF899F80000002806D0E0
S315080017D000F01AFC012807D198F8000000283FF409
S315080017E075AF9BF8000004287FF470AFF0684008D6
S315080017F000F00100002814BF7168316811B921682A
S31508001800C904F7D5002814BF7168316850E700206D
S315080018102060BDE8F18F634800687047F0B506465A
S315080018200D4689B00021032001F0DEF804AC08E07B
S3150800183034F811205040491C08293080F8DB6D1E09
S31508001840B61CE8B290B1002701F0E9F824F81700B1
S3150800185001F0E5F8694621F817007F1C082FF3DB2D
S3150800186004A803F0CFFA00200021E5E701F013F9F8
S31508001870012009B0F0BD0321022001F0B5B84FF6EA
S31508001880FF71081A292190FBF1F03A3040B27047EF
S3150800189038B501F0C4F8FFF7F2FF434D044628783F
S315080018A0B0B90321032001F09FF8404801880223BC
S315080018B07F226846FFF71CFC01F0B1F8BDF800105E
S315080018C0401880B2FFF7DBFF1538687001202870D2
S315080018D001F0E1F86878201A40B232BD80B50321DC
S315080018E0022001F081F8BDE80140D1E770B5304823
S315080018F00078002490B9FFF7F1FF204E054670786E
S3150800190048B13078401B40B203F082FA0B2805DB59
S315080019103570012402E0012035707070204670BDD4
S3150800192024480078704723490B78984200D17047BD
S3150800193080B5087040B12049002008600848016851
S3150800194021F08001016001BD00F026FC00F0FCFBDF
S3150800195000F0AEFBBDE8024000F092BB002000405C
S3150800196084200040D87D002000A000404C10004094
S315080019704A610020D010004080200040C47F00202B
S315080019809F130008496100205C7800202020004051
S31508001990685E0020187D0020207D0020336100202D
S315080019A0C07F002038200040C27F0020922B030809
S315080019B034610020C67F00205410004070470000A4
S315080019C010B50D48018884B00A237F226846FFF7C0
S315080019D08FFBBDF800004FF6FF74A04204D14F21DB
S315080019E00FF2180001F0AAF8BDF8001022460020F0
S315080019F0FEF79FFC1FBD00008C2B0308616E616C0F
S31508001A006F6775652D66696C7465722E63000000D4
S31508001A10DFF8A407007848B1DFF8A00701790129A3
S31508001A2004BF4079042801D101207047002070477F
S31508001A30010644BF4FF6F83101EAC0007047491C59
S31508001A40800189B2B0FBF1F080B2FF288CBF00207C
S31508001A50C0F1FF00C0B2704738B5DFF86807C17833
S31508001A6009B1002032BDDFF86847617871B1E178C5
S31508001A70007945182079ADB28542A8BF054603F01E
S31508001A80E0F90121A940491E084000E000206179DB
S31508001A900818C0B232BD2DE9F0470446C00705D57F
S31508001AA040F29B110FF2A87001F048F8DFF82457AE
S31508001AB0286DC00748BF8C2075D4DFF80807DFF803
S31508001AC0107700210170417829B9397819B1A96FC1
S31508001AD041F0010102E0A96F49084900A967DFF84A
S31508001AE0DC867A7898F80610DFF8EC96DFF8EC666C
S31508001AF092B1002202710129286D40F00400286580
S31508001B0006D14FF6FF7030604FF40070C9F8000038
S31508001B10FFF7A2FF82460CE0286D20F00400012999
S31508001B2028654FF0000A04D100F031FA6420FFF767
S31508001B300CFAA86F20F00800A8671420E864C5F816
S31508001B4048A0787838B198F80600002801BFA86C34
S31508001B5000280120A864B8790028286D14BF40F031
S31508001B60080020F008002865FFF752FF18B1306C0E
S31508001B7040F008003064202028626C602C60686899
S31508001B80DFF85C167F306860042028624FF4E06056
S31508001B900860DFF850160968C9F80000286D40F09B
S31508001BA0010028650020BDE8F087DFF83C06002123
S31508001BB041608160016821F0020101604FF0007008
S31508001BC0DFF8281608600120DFF824160870704729
S31508001BD0332800D2704710B5B0F5002F0CD2DFF8C5
S31508001BE0104600212170FEF7DBFE02E0012003F01B
S31508001BF043F920780028F9D010BD2DE9F84FDFF811
S31508001C00DC85DFF8C055D8F80000D8F84010DFF8B2
S31508001C10C47501EA0004A4B2C8F800406878002830
S31508001C2040F0D380E007DFF8CC65DFF8A4954CD503
S31508001C30D7F800A0386C796C41EA0041A96099F898
S31508001C40000000283DD09AF80100800639D5012009
S31508001C502870FFF7DDFEC0B31920FFF776F9DFF825
S31508001C6098B54FF44040CBF82800DBF80000009008
S31508001C70F06E40F40050F066F06E40F48050F06666
S31508001C809AF80010A8684901B83101EB000AFFF775
S31508001C90C2FDAAEB0000C0F31300FFF799FFF06E30
S31508001CA040084000F066F06EBDF800100843F06684
S31508001CB00020CBF8280048F26070F066E8883060AB
S31508001CC003E00022002002F04CFE20060ED52878FC
S31508001CD030B1002028700022A968402002F041FE99
S31508001CE0D8F83C0020F48050C8F83C00600608D5B7
S31508001CF0687830B9FFF78FFD01460022892002F087
S31508001D0030FEE00652D5DFF8B4A4DFF8CCB49AF872
S31508001D100400012804BF9AF8061001291FD100F013
S31508001D2064FB386F40F001003867002400208AF809
S31508001D300600FFF7D5FA0A20FFF707F94FF6FF70F6
S31508001D40C8F800004FF4E060CBF800000920B86638
S31508001D500120B864B86F40F00800B86718E0297920
S31508001D60491C2971C9B299F80220914215D2012855
S31508001D7008BF00F0DFF8B86F20F00800B867142035
S31508001D80B866FFF769FEB8644FF40070CBF8000038
S31508001D90386D40F00100386508E0687830B9FFF71B
S31508001DA03AFD014600228D2002F0DBFD20070CD506
S31508001DB0FFF72EFE48B13068E88001203060D8F879
S31508001DC0400020F00800C8F84000A0060AD52020E8
S31508001DD03862687830B9FFF71EFD01460022882070
S31508001DE002F0BFFD687820B114F4407F04BF0120DB
S31508001DF0A870BDE8F18FDFF8C8130028086814BF7B
S31508001E0040F4404020F440400860704770B582B006
S31508001E100546FEF751FCDFF8EC03DFF8AC43DFF8C4
S31508001E209C63002101601521E160092101651F21DC
S31508001E30416001210166DFF8C8030088FEF7BDFA94
S31508001E40FFF774FA03F0D0FA00F035F9308900F09C
S31508001E505FF9708900F064F900F058FE616841F096
S31508001E604001616000F064FE707800F0F5F8B07823
S31508001E7000F006F9DFF89003007800F033F9DFF890
S31508001E808C0390F90000FEF756FC307800F050F904
S31508001E9096F9030000F058F9DFF8740300F076F9B4
S31508001EA0BDF80000DFF86C13C0054CBF0020BDF874
S31508001EB000000870DFF860030078FEF7FFFB28B122
S31508001EC040F2F2310FF2883000F038FE012D07D1CA
S31508001ED02068C00704D500F02DF8002000F060F94E
S31508001EE085B92068C0070DD4012000F059F900F023
S31508001EF07CFA206840F001002060C820FFF725F82A
S31508001F000020B071F120DFF8D452286440F2F910AD
S31508001F10E86301F0E3FEFFF76EFFFFF7E1F92068DB
S31508001F20C00704D54FF6FF70286000F05EF8FEF78C
S31508001F3027FF73BD70B5DFF8E452DFF880422E68DC
S31508001F40A079012822D000F0E1FDB6B2DFF8902290
S31508001F502E604FF4E0611160DFF8A0120A6A520899
S31508001F6052000A620A68520852000A600A6842F079
S31508001F7002020A604A6A42F001024A620121A1711C
S31508001F8000F0D6FDBDE8704000F00FBA70BD70B520
S31508001F90DFF82842A07938B300F027FA00F0B6FD3A
S31508001FA00546DFF87C12894E01200860306D40F046
S31508001FB0010030650020A071FFF792F920203060FB
S31508001FC0306B40F002003063F06D40F00800F065B9
S31508001FD0284600F0ADFD0A20FEF7B7FF7F494FF609
S31508001FE0FF70086000F001F870BD4FF4E0607A49B0
S31508001FF008607047714880797047704800790128F1
S3150800200008BFFFF797BF70476C480079704780B5DF
S31508002010022801DB012002BD6849087189798842D6
S315080020200BD028B9012000F0BBF8FFF7B0FF04E099
S31508002030FFF780FF002000F0B3F8002002BD7948C2
S315080020400068800200149A3801B211F1800FB8BFF7
S315080020506FF07F0040B2704710B5044600F056FD99
S3150800206071490A68002C04D042F012020A60012164
S3150800207003E022F012020A600021504A517040E043
S3150800208038B5054600F042FD0446FFF749FC40B95D
S3150800209065482900016814BF41F0800121F08001DC
S315080020A00160464885702046BDE8324000F040BDD4
S315080020B04248807870475D494A780B785C4803EB5C
S315080020C0022202608B78CA7803EB022242600B79FF
S315080020D04A7903EB02228260CA79897901EB0221E7
S315080020E0C160704710B5044600F010FD4E49220045
S315080020F00A6814BF42F0200222F020020A60424910
S315080021000C70BDE8104000F013BD2C4800897047DC
S315080021102A49088147490860704728484089704716
S315080021202649488144490860704744480078704702
S31508002130254902000A6814BF42F0020222F0020290
S315080021400A601E490870704738B504467F2C0AD1C4
S315080021503B4800F01BF8BDF80000C00554BFBDF8A9
S3150800216000406FF04A0400F0D1FC0546FFF7D8FBA3
S3150800217030B964B204F19A0080053249000C08604F
S315080021800E48C470284600F0D3FC31BD01880223EE
S315080021907F226846FEF7ACBF084890F903007047EF
S315080021A006498979012906D127490B7898421CBF27
S315080021B0087000F05DB97047DB7F00202E610020B3
S315080021C040A00040187D00208020004030200040BC
S315080021D0D45E00201020004000E100E004A000408A
S315080021E080E100E0A820004010E000E004ED00E0F7
S315080021F0DC7F002064100040E410004060200040AE
S31508002200CC5E00205C100040DA7F0020C05E002013
S315080022109E2B0308B57F0020496100201C10004052
S31508002220281000400C10004084200040007D00204B
S315080022309820004094200040902000404E610020E5
S31508002240A22B030854100040DD7F002070470000D1
S315080022507068792D636F6D6D6F6E2E6300000000D8
S3150800226038B50120FEF759FC0020FEF705FE6D4C37
S31508002270206840F008002060FDF7FCFFFEF7ECFD43
S3150800228069496A480A78C2604B78694AD360694BDB
S315080022908D78DD608D880560CD8845600889106079
S315080022A04889506088891860C889586000F07DF8A8
S315080022B0206820F010002060FDF7A9FF03F0C6F89B
S315080022C0FEF7C2FCFDF7D4FFBDE83140FDF7EFBFCE
S315080022D040F2016003F056B98A68037802F00F02EB
S315080022E003F0F0031A438A604378514AD360514B8E
S315080022F08478DC60C4880C6001891160418951606A
S3150800230081891960C0895860704710B5FEF7E7FBE8
S31508002310FEF7A2FD49494448FFF7DEFF00F045F8FD
S3150800232000F006F8FEF7CBFCBDE8104003F003BB4F
S315080023303C48016821F010010160FDF768BFF0B55F
S315080023400F249D0004FA05F51668284212D00025C8
S3150800235005EB830720FA07F7FF0708D5AF0004FA4D
S3150800236007F731F813C0BE4307EA0C073E436D1C56
S31508002370042DEDD31660F0BDF0B5FF25DE00B5409F
S31508002380146828420FD0002505EBC30620FA06F785
S31508002390FE0705D50126AE40CF5CB4433E40344324
S315080023A06D1C082DF0D31460F0BD2DE9F84300210B
S315080023B0002001F056FC01F097FC214C206890B1F2
S315080023C000271D4DDFF8648000F03CF87F1C032FC2
S315080023D0FAD30027002600F03DF800F042F87F1CEB
S315080023E0761C032EF7D3BDE8F1832DE9F84301F0F7
S315080023F07CFC134C206890B100270B4DDFF82C802D
S3150800240000F020F87F1C032FFAD30027002600F0DF
S3150800241021F800F026F87F1C761C032EF7D3BDE8BA
S31508002420F183000000BC0040005E002000B00040C0
S3150800243000B2004000B40040105E002004B0004026
S315080024406C67002008EB472000F10C0220683B4629
S31508002450294691E708EB46292068FBB24A46291D1A
S315080024606DE77F1C2068FBB209F10402291D66E7A7
S31508002470002818BF03F0F2BA03F0F1BA80B503F0EA
S315080024803FFB01460FF250000B2938BF00EB8100D5
S3150800249002BD000010B503F033FB044603F034FB1D
S315080024A0C0B208B9012C07D1072C11D8DFE804F00F
S315080024B004100608080A0C0E002010BD092010BDDD
S315080024C0022010BD032010BD0B2010BD062010BD34
S315080024D044F0800010BD0000554E4B0046494200AE
S315080024E042544C0045585400505752005744470030
S315080024F02053570043525300465348004241440074
S31508002500464C54002A490A68520852000A600A686A
S31508002510104308604FF4004126480160002101601D
S315080025206420FEF712BD2DE9F047234D204FD5F85C
S315080025300090224C8046286840F40040286038689D
S3150800254020F480503860207868B162781C48A178F9
S3150800255000EB820200EB880012F82A2C10F82A0CED
S31508002560891A461802E0012020262070B0B2FFF72B
S31508002570C9FF0FF2500A02E0B0B2FFF7C3FF386B8B
S31508002580042805D0386B400754BF761E761CF3E73F
S31508002590F86A38B184F80180A6701FFA89F02860B5
S315080025A0BDE8F0874FF49071504600F0C7FAE6E7A9
S315080025B0D0100040181000401C100040E97F002091
S315080025C074080008616E616C6F6775652D76636FB8
S315080025D02E63000081014FF4FE5289B20C20FDF7EC
S315080025E0A8BE2DE9F84F8B4CDFF82CB2A5682068F9
S315080025F01FFA80FA00F04FFA0127B020ADB2002684
S315080026004FF00A08B946206308E016F1190FB8BF5B
S315080026104FF00A08464436B27019A060DBF800008D
S31508002620000702D559EA070028D00120FEF78DFCDD
S31508002630B9F1000F11D0AAF10300874202DAFF1C94
S31508002640BFB213E00AF5004020600621092000F019
S31508002650CBF957464FF000090BE0DBF800000007FE
S3150800266007D5042FA6BFFF1EBFB2002707F50040F7
S3150800267020601A2EC9DB6FF00908CBE7A560C4F8FD
S3150800268000A00820CBF800006448006880B2BDE8C6
S31508002690F28F80B55E4B62491B784FF0FF326BB103
S315080026A0002819BF4A605F48486041F21110086067
S315080026B05D4841880088BDE8044092E7002819BFB4
S315080026C04A600A604860086000F0E5F9BDE8044021
S315080026D00621092000F0D9B938B50120FFF7D9FF3E
S315080026E004460020FFF7D5FF05460120FFF7D1FF76
S315080026F04042001B00EB450000B232BD2DE9F04F09
S315080027004A4C4B4D424F83B0A06AADF802004FF0D9
S3150800271000082068ADF80000D5F800B0387858B140
S315080027204FF6FF7200210820FDF7FCFD8046C02207
S31508002730C0210820FDF7FDFD3E48DFF8FC90007833
S3150800274018B148F26070C9F800007888364E40F42F
S31508002750404040F04C00C9F83C000220A06201202D
S31508002760206040F24C40FEF7F0FB0120E86028604C
S315080027700020308040207080387800B12020FFF794
S3150800278029FFFFF7A9FF8246402030807F2070800E
S31508002790FFF720FFFFF7A0FF00F050F8FE2148439F
S315080027A00190AAEB060A387848B1304602F030FBA9
S315080027B000F044F8019980B201EB861103E000F0BD
S315080027C03EF8019980B2B1FBF0F080B2401CC60316
S315080027D01FFA8BF028600020E86002202060BDF810
S315080027E000002060BDF80200A0620020C9F83C0085
S315080027F0387828B14FF6FF7241460820FDF799FD53
S3150800280040F24C40FEF7A1FB300CBDE8FE8F0000FD
S315080028103A610020C010004018A000400070004037
S3150800282038100040EEEEFFFF947F00206020004045
S31508002830281000404A610020D01000400646504645
S3150800284002F0E6BA41003F2289B201E001463F2282
S315080028500220FDF76EBD2DE9F04F564C564D95B04A
S31508002860E06CADF810004FF6FF782068ADF80E0062
S315080028704246E86AADF80C0000210120FDF752FD3A
S31508002880ADF80A00424600210B20FDF74BFDADF8D6
S31508002890080000264FF4004020600DF1140B0020BC
S315080028A02861686148F2020000F088F84CF68C301E
S315080028B0E0644FF4805248F2F000E86211460120C5
S315080028C0FDF737FD424600210B20FDF732FD0621B4
S315080028D0062000F0DAF8019000F082F800904CF635
S315080028E09C30E0640020FFF7ADFF0621062000F0CB
S315080028F07BF8B0B2FFF7A6FF0621062000F074F8B1
S3150800290000F08DF82BF81600761C202EF1DB00F06F
S3150800291086F81020FFF796FF00F062F80099019AF2
S31508002920401ABBF820108E1A404306FB06094FF0E2
S31508002930100A112700F04EF800F052F800F043F89C
S3150800294005DB1FFA87FA7F1C202F8146F2DBBAF1D6
S31508002950100F0ED10F2700F03DF800F041F800F0F7
S3150800296032F806DB1FFA87FA7F1E3FB2002F814630
S31508002970F1D5BDF81000E0644246BDF80E002060AF
S31508002980BDF80C00E8620120BDF80A10FDF7D1FC7D
S31508002990BDF8081042460B20FDF7CBFC0120286144
S315080029A0002000F00BF84FEA4A00C0B215B0BDE8A7
S315080029B0F08F0000C010004018100040286040F258
S315080029C04C40FEF7C2BA0099401A404306FB06007F
S315080029D0484570473BF817000199461AB8B231E7DF
S315080029E00621072000F051B870B505460E4603F0DB
S315080029F0A1F83F4C206C20F00800206403F09CF8F6
S31508002A0000F084F8E90141F001013A4A41EA063149
S31508002A10116008212160BDE8704000F089B82DE9F1
S31508002A20F041354C354D324E25E003F083F83449F4
S31508002A3004200860306C40F0080030642F6828686D
S31508002A4040084000286000F06BF8D4F80080206841
S31508002A5020F04000206000F05FF8C4F800802F6086
S31508002A6000F05EF8306C274920F008003064042036
S31508002A70086003F061F830680007D6D50820306092
S31508002A802148006880B2BDE8F08180B5FFF7ACFF49
S31508002A90BDE80140C3E717480168490849000160D5
S31508002AA07047F8B50746FEF710FA0446394603207C
S31508002AB0FFF7EBFF054639460120FFF7E6FF064616
S31508002AC0FDF72FFC39460020FFF7DFFF0746FDF725
S31508002AD027FC08480168490849000160781B00047A
S31508002AE0711BB0FBF1F060434000000CF2BD000022
S31508002AF018A00040047000400080004094ED00E0FB
S31508002B0000E100E080E200E000700040EFF3118091
S31508002B10602181F31188704700BF30BF00BF70473E
S31508002B20BFF35F8FBFF34F8FBFF36F8F7047000000
S31508002B3080F311887047000042DE704738B50446B6
S31508002B400D46FDF7A0FBFFF7E1FF2946204602F0F8
S31508002B50F7FF2B4622460FF2D411012003F054FA50
S31508002B6029462046BDE83440E6E767482DE9F047A0
S31508002B70664D01682E1D4FF420687165016AB165BE
S31508002B8063490968F165416A3166816A7166C16A95
S31508002B90B166016BF166806B306796F834004007C2
S31508002BA04CBFF46BB46B02F080FD0022F2648442E1
S31508002BB0584A014624BFA2F1200AA2452746316594
S31508002BC005F18C03DFF850C1DFF850E118D3A0698E
S31508002BD03064E4697464746DC4F30804062C13D174
S31508002BE0704511D360450FD200884DF64264A04265
S31508002BF00AD13068586040F201787068986003E03E
S31508002C0000273764776407464548814202D2014661
S31508002C1000E0091D0846904203D20C68B4F1CD3F86
S31508002C20F7D04049081AB0640021002005EB80045B
S31508002C30401C0628A167F9D3002003E0C0B205EBC3
S31508002C408004A167974222D252F8041D7145F9D330
S31508002C506145F7D2CC07F5D5002405EB8409D9F8E8
S31508002C607890894502D0641C062CF6D3062CE9D147
S31508002C70002814BF401E0520E0E7716F002405EB0D
S31508002C808402641CD76F9767052CF8D31960014630
S31508002C90481EC9B20029F0D1706DC0F30800022899
S31508002CA00AD0032815D0042816D0052817D00628D8
S31508002CB018D00C281CD01EE01B480168890748BF9D
S31508002CC040F602181CD40068C00719D540F202580D
S31508002CD016E040F6012813E040F6022810E040F618
S31508002CE003280DE0B8F5206F0AD140F6042807E05E
S31508002CF040F6052804E018B1242838BF40F607280E
S31508002D004046BDE8F087000004ED00E00000002022
S31508002D1000E300E0C05D002098F702089001000873
S31508002D2098000020C05D00201CA000400D0A5B41F1
S31508002D3053534552543A25703A25645D0D0A0000EE
S31508002D40814233D210441144401E491E10E011F846
S31508002D50013900F80139121F11F8013900F8013953
S31508002D6011F8013900F8013911F8013900F801396B
S31508002D7092B2042AEBDA93B2002B1EBF11F801397E
S31508002D8000F80139521EF6D1704711F8013B00F8D8
S31508002D90013B121F11F8013B00F8013B11F8013BFA
S31508002DA000F8013B11F8013B00F8013B92B2042AF6
S31508002DB0EBDA93B2002B1EBF11F8013B00F8013B7A
S31508002DC0521EF6D1704710E011F8013B00F8013B9E
S31508002DD0121F11F8013B00F8013B11F8013B00F8FE
S31508002DE0013B11F8013B00F8013B92B2042AEBDAE9
S31508002DF093B2002B1EBF11F8013B00F8013B521E8F
S31508002E00F6D17047130003D00A46194603F03CB9B9
S31508002E10704710B500E0521E93B223B100F005F8D2
S31508002E20F9D0181B10BD002010BD10F8013B11F891
S31508002E30014BA342704700004148018A40F6A77239
S31508002E40914202BF408A4FF47F41084203D10228CB
S31508002E5001DB01207047002070472DE9F84F8246B4
S31508002E608846384DDFF8D4B0FFF750FE2F68044681
S31508002E702868400840002860FFF752FE01208BF8BA
S31508002E800000FFF7D9FF28B94FF483710FF2B80095
S31508002E90FFF754FE2A48D0F8289041464AF4807035
S31508002EA0C84706462F60FFF73BFE2046FFF740FE61
S31508002EB000208BF800000FF298040EB1A05D04E024
S31508002EC041464AF40070C847205CBDE8F28F2DE9F8
S31508002ED0F84F804689464FEA420A1A4EFFF716FE11
S31508002EE0376805463068400840003060FFF718FE2E
S31508002EF0FFF7A2FF28B94FF4A4710FF24C00FFF7B1
S31508002F001DFE0F48D0F824B00023524649464046D5
S31508002F10D84704463760FFF703FE2846FFF708FE42
S31508002F200FF22C050CB1285D05E0534600224946F0
S31508002F304046D847285CBDE8F28F0000BF7F0020D6
S31508002F400000080894ED00E0666C6173682E630063
S31508002F50000202024B4B46477FB504460F22FF216B
S31508002F606846FFF74FFF1A4E6422FF213046FFF7E7
S31508002F7049FF0F25002017490A5C012A1CBF26F8BD
S31508002F8010505519401C0F28F6DB0FF24C054FF46C
S31508002F90E04000F0DCF818B19D212846FFF7CEFD89
S31508002FA04FF4804000F0D3F818B19F212846FFF768
S31508002FB0C5FD4FF4805000F0CAF818B1A121284683
S31508002FC0FFF7BCFD6946204600F0EFF804B070BD77
S31508002FD008670020C8FC020873696D2D6565707264
S31508002FE06F6D2E630000000010B5DFF8944ADFF815
S31508002FF0143B2488001B06E010B5DFF80C4BDFF8FD
S31508003000043B24681B1B03EB4000002304E030F854
S31508003010134021F813405B1C9342F8DB002010BDD7
S315080030202DE9F04182B004460D4616460027DFF822
S31508003030D48A01E0BF1CFFB2B74217DAE819E95D86
S315080030404078DFF8C83A1B8801EB0020ADF800008D
S31508003050012207EBD77004EB6000C01A00F09CFB56
S315080030600100E7D002F0B6FC002000E00120BDE830
S31508003070F681F8B504460F46154600260DE000F021
S3150800308019F8BDF8000004EB4601000A48707F1CD9
S31508003090BDF8000004F81600761CB6EB550FEEDBFB
S315080030A0E80706D500F006F8BDF80000611901F832
S315080030B0010CF1BD01226946B8B295E7DFF8C029CF
S315080030C0DFF8401A1288801A01EB40010220FFF748
S315080030D0C4BEDFF83C1ADFF83C2A095C125CDFF84C
S315080030E0383A185C10B102F5997292B241EAC210E8
S315080030F080B27047DFF8183ADFF8202A1B5C012BEC
S315080031001CBF32F81000081802EB4000704738B5AB
S315080031100C46DFF80C1A0D782A462146FFF764FF9D
S31508003120208801001CBF4FF6FF7188420BD0012092
S3150800313000E0401CC1B2A94207D2C0B234F8101050
S3150800314022889142F5D0002032BD012032BDF0B56B
S31508003150DFF8B41987B008600C2269460020FFF72B
S315080031604BFFBDF81600BDF80C200346040A0120E3
S3150800317000254FF6FF763DF81570BDF80010B942E8
S3150800318003D1B74218BF002F00D100206D1C062DB1
S31508003190F1DBB21A914218BF0020DBB2C4F1FF017D
S315080031A08B4218BF002007B0F0BD2DE9F24F044648
S315080031B0DFF870690020307070809CB0DFF868090D
S315080031C00088ADF8020007A9FFF7A1FF8346012092
S315080031D0707009A9DFF854090588DFF85409B0F8B2
S315080031E00080DFF89C080788BDF802A03846FFF77C
S315080031F08EFFB8B1BBF1000F3DD0BDF81C10BDF86D
S3150800320024004FF6FE72914202D1012804D10CE047
S31508003210012908BF90422ED00846BDF824108842DE
S3150800322029D202E0BBF1000F24D00020707002976B
S3150800323050460695CDF810800122DFF8E41891F87B
S3150800324000804044ADF806006946BDF80600FFF761
S31508003250CBFEDFF8E008008805904FF6FF79BDF849
S315080032600000000B404518BF0F2801D1200021D0CF
S31508003270002516E0012470780028D8D03846CDF805
S3150800328008A0CDF818800495D6E7059805FB00F444
S31508003290E01900F05DFCBDF80200201800F058FCAB
S315080032A06D1C4545F1DB012030704D2002F092FB84
S315080032B00025F7E0BDF80650012201A92846FFF7C8
S315080032C093FEBDF80400C04300F0FF00ADF804000B
S315080032D06F1CDFF864080588BDF80400A84218BF0B
S315080032E001244FF0000A20E0401CC1B2A94218D2BE
S315080032F0C0B2DFF84818BDF80E20834631F81B1017
S315080033009142F1D1FFF7E5FE4FF680710840BDF80E
S315080033100C104FF680721140884204BF1C9800F8C2
S315080033200BA00AF101001FFA80FABDF804008245D5
S3150800333007DA022203A9B8B2FFF756FEBF1C00201F
S31508003340D3E7002001E0401C80B2A84217DA1C9996
S31508003350095C8142F7D0012411E02AF81070BDF803
S31508003360060000EB4300401C00F0DBFABDF8020043
S31508003370C0F3C710401C00EBD07007EB6007049839
S31508003380DFF898A7BFB287420EDA00F099F8BDF8C1
S315080033900000484508D0030A00F07F01BDF8040084
S315080033A07F1C834202DB012400252DE0002000E07B
S315080033B0401CA842D3DA1C9A125C9A42F8D1C0B2D1
S315080033C0FF28CCD0DFF84827125C7F290CBF4FF0C6
S315080033D0000C8C4694450BDABDF800C0DFF838E7D8
S315080033E01EF800E04FEA0C6C4FEADC7CF44501D08D
S315080033F00124B4E7012AB0D07F293AF8100008BFA3
S3150800340000210818A9E76D1CDFF8340700888542F3
S3150800341004DA3AF815004845F5D10124778004986E
S31508003420BFB2874207DA00F04BF8BDF800007F1CF0
S315080034304845F4D039E7002CFCD1029801220BA9A3
S3150800344080B2FFF7D1FDBDF82C0048450DD105E047
S31508003450401C80B2202813DB2034A4B20699029AB5
S31508003460891A8C4205DB0120307000201DB0BDE8AA
S31508003470F08FA51820220BA9A8B2FFF7B5FD0020EA
S315080034800BA931F810104945E2D0A8B2FFF716FE8D
S31508003490203CA4B2E0E70298059905FB010000F07C
S315080034A057FB6D1C4545F6DB01203070494600F098
S315080034B046F818B100F035F90028D6D10120D5E72D
S315080034C00122694638468FE52DE9F0420F46DFF8B6
S315080034D06816DFF8405609888F420446164699460C
S315080034E00CD2DFF82C16C95D30467F2808BF0020AD
S315080034F0884203DAE95D894500D11CB940F2D54115
S3150800350000F00BFA31463846FFF7F4FD0188DFF87C
S315080035100806C05D60B1384600F035FAE95D012954
S3150800352008BF207009D0022914BF2060208004E05B
S315080035304A462046BDE8F0429BE5BDE8F0822DE903
S31508003540F34FDFF83C05DFF8D8150488DFF8D40513
S315080035500978407883B000281ABFDFF8CC050088C0
S3150800356020460D18DFF8D0050088ADF80800ADB282
S31508003570C04300F0FF0000EB013000F55060ADF8E5
S3150800358002002B1BDFF87C0501220DF1020100F079
S31508003590E3FA6E1C0100B6B23AD10025DFF89C7535
S315080035A013E0E8B2FFF795FDADF80400331B37F8D2
S315080035B01500ADF806000222DFF8480500F0CBFA40
S315080035C0010025D1B61CB6B26D1CBDF808008542AF
S315080035D0E7DB002500E06D1CBDF80800854280F297
S315080035E09B80DFF83405405D8DF80A004FF0000A2D
S315080035F01BE001220DF102011FFA89F0FFF7F4FC26
S31508003600BB19DFF8000500F092F9010009F101097C
S315080036107AD17F1CFFB2B7EB1B6FEADBDFF8240514
S31508003620405D8619B6B20AF1010ADFF8E404475D7F
S315080036305FFA8AF0B842CED25FFA8AF1E8B2FFF7AB
S3150800364059FD80469DF80A00B8F80090C00140EA86
S315080036500520ADF80000012FBDF800000EBF40F0B0
S315080036607F005FFA8AFA4AEA0000ADF80000311BCB
S31508003670DFF8900400EB41004FF6FF71771C89458F
S315080036801EBFBDF80010BDF810209142BFB219D177
S315080036909DF80C100029C6D001226946FFF717FCD1
S315080036A001003E4630D1DFF86C04A8F80060425DA0
S315080036B0DFF8940450F825103046FFF7B1FC0028CF
S315080036C0ACD124E0DFF84C14495D491C01EBD171FB
S315080036D04FEAC15B01226946FFF7F9FB01003E4646
S315080036E012D1A8F800609DF80A0098B14946E8B2D8
S315080036F000F049F90190331BDFF808044FEA1B6212
S3150800370000F029FA010089D002F064F9002005B01A
S31508003710BDE8F08F00277DE7DFF808044680012022
S31508003720F5E7DFF804042DE9F0410688DFF85003D1
S31508003730DFF8F05304886878DFF8C883002882B079
S3150800374012BF20463046264601226946FFF74CFC42
S31508003750BDF8000001280CBF4FF6FE70401EADF8FC
S315080037600000DFF8BC0307783846471E58B1BFB2D9
S31508003770B819001B012200F00FF80100F4D002F07E
S3150800378029F9002006E0687880F0010068700020BA
S3150800379028700120BDE8F681694608EB4000FFF76E
S315080037A096BB2DE9FE4F0D46DFF88C130988884233
S315080037B0044617461E464FF000094FF001080ED280
S315080037C0DFF84C13095D38467F2808BF0020884279
S315080037D005DADFF84013095D8E4200D11DB940F2C3
S315080037E0F95100F09AF839462046FFF783FC019014
S315080037F0CC4F787820B1CD48B0F800A0A04803E0B7
S31508003800CB48B0F800A0C8483978008849B9798803
S31508003810081ACE4909888842B4BF4320442002F0DA
S31508003820D9F801980188BC48005DF8B1204600F037
S31508003830AAF8012E08BF297803D0022E0CBF2988C2
S315080038402968814267D001980088401E00F069F80F
S31508003850BC48065D7888AAF10101891B814201DB13
S31508003860002837D1387868BB452046E00291CB4618
S3150800387022E002980BEBDB7300EB630000F002F921
S3150800388005EB0B0015F80B10407801EB0020711EB4
S315080038908B4580B207D1BDF8001001F0FF0100F09A
S315080038A0FF00ADF80010BDF8001088420BF10200C9
S315080038B018BFC8465FFA80FBB345DADBB8F1000FDC
S315080038C0C1D028E0BDF802100020FFF738FE10B37B
S315080038D04FF0010978888F49401C788080B20A5DCC
S315080038E02946FFF79DFBB0B1654C7B88248885483F
S315080038F05B1E00F01CF8010002D002F06BF80AE02B
S31508003900B9F1000F02D0FFF70CFF20B101997888B2
S31508003910088030187880BDE8F78F0FF24420FFF74B
S315080039200DB901220DF1020180B2FFF75DBB1B1B29
S3150800393001220DF1020100EB4300FFF7C8BA70B58A
S3150800394082B004460025192601226946A0B2FFF76F
S315080039504BFBBDF80000641C48B14FF47F41401A88
S3150800396002D0FF3806D007E0681C40B276BDAD1C11
S31508003970761EE9D168B276BDBDF80000C0B200B9BE
S315080039806D1CE843F1E738B50C4600210091614902
S315080039900D5C2A4621466846FFF76BFB681C00EB60
S315080039A0D07004EB600080B2FFF7C9FF002848BF5B
S315080039B0C043009940B2401832BDF0B55E49098847
S315080039C00446564883B0254630F815608C4202D224
S315080039D05148405D18B940F23D71FFF79EFF4D48CA
S315080039E0455D681C00EBD07006EB6007B8B2FFF7C0
S315080039F0A6FF322814D2BFB2C10707EB6000204FDA
S31508003A00404B3F884CBF00214FF47F41ADF804106E
S31508003A10C01B012201A903EB4000FFF758FA60B169
S31508003A2031462046FFF7AFFF00902B46401C00901A
S31508003A307F2269462046FFF7B4FEF7BD70B53948C0
S31508003A40017882B00024C1B94078002814BF3648EE
S31508003A500B480588324806780BE0F6B2701900F074
S31508003A6011F8BDF8000000281EBF4FF6FF71884206
S31508003A70641C3046461E0028EFD1E0B276BD000031
S31508003A80200003080122694680B2FFF7ADBAF8B5EF
S31508003A90244C20780027002832D11C4805886078F5
S31508003AA000281ABF204806882E461D48077838463B
S31508003AB0471E02281DDBFFB2B819FFF7E3FFBDF862
S31508003AC000000028F3D01B48008807FB006000F0C0
S31508003AD03FF80020ADF80000BB190A485B1B01221D
S31508003AE0694600F039F8010018BF01F073FF38463F
S31508003AF0F2BD3046FFF7E2FAF8B208B901202070A5
S31508003B00F8B2F2BD00E00708587800202000030844
S31508003B10C8FC0208B8FC0208A8FC020808670020CE
S31508003B201C000308D47D0020240003082200030893
S31508003B30260003081E0003082A00030888FC02085A
S31508003B402C00030830000308E0FF020828000308D9
S31508003B5080B2FFF7B3BA01A900EB4300FFF7B7B984
S31508003B6073696D2D656570726F6D2D696E746572FA
S31508003B706E616C2E63000000604840687047F8B5B7
S31508003B805E4F7D68044600265D48044214BF02263F
S31508003B907C6024EA0500C00307D50021002000F058
S31508003BA040F80021002000F05CF830000CD178685D
S31508003BB000F4804005F48041884205D0A00B00F04F
S31508003BC0010000F08EF806463046F2BD38B54B4C7B
S31508003BD0A578E0786168C9031CD405F0010100F0F6
S31508003BE00102114316D0E16841B1000706D5E16824
S31508003BF008208847E07800F0F700E070A06868B110
S31508003C0028070BD5A16808208847A07800F0F70098
S31508003C10A07003E0607808B100206070BDE831400C
S31508003C2064E02DE9F04104460D46FEF76FFF334F79
S31508003C3080463878012698B1BE78200009D1002E32
S31508003C401CBFB868002804D0700602D5B9684020A1
S31508003C508847BD60A6421CBFBC70FFF7B7FF0026A9
S31508003C601EE02DE9F04104460D46FEF74FFF234FAF
S31508003C7080463878012698B1FE78200009D1002EB2
S31508003C801CBFF868002804D0700602D5F9684020E1
S31508003C908847FD60A6421CBFFC70FFF797FF002609
S31508003CA04046FEF745FF3046BDE8F08138B5134D6E
S31508003CB02978884204460FD0200007D10021002029
S31508003CC0FFF7CFFF00210020FFF7ABFF2C7020463F
S31508003CD0FEF791F800F00AF8002032BD0748007890
S31508003CE0704700B102207047704700BF034801784B
S31508003CF0002141700020FDF716BE00007067002005
S31508003D00FFFC0FF82DE9F84305460E463000144629
S31508003D1005D1FDF780FD2018C0F313004DE02F46AE
S31508003D20022F0FF2501803DB40214046FEF706FF2C
S31508003D30102C05D22846B047BDE8F143FDF76BBD08
S31508003D40DFF8209159F8270018B148214046FEF7B8
S31508003D50F5FEB4F5002F03D349214046FEF7EEFEE3
S31508003D6049F82760404F414E95B9FEF7CFFE054604
S31508003D70FDF751FD2418A0B27860200C38600220A7
S31508003D8030602846FEF7D4FE306C40F0020011E0A1
S31508003D90FEF7BCFE0546FDF73EFD2418A0B2F86006
S31508003DA0200CB860042030602846FEF7C1FE306C4F
S31508003DB040F004003064C4F31300BDE8F28370B524
S31508003DC004462646022E0D4604DB66210FF2A400A1
S31508003DD0FEF7B4FEFEF79AFE224951F82620AA42BB
S31508003DE010D1002241F82620002C20490A6C04D163
S31508003DF022F002020A64022203E022F004020A64A4
S31508003E0004220A60BDE87040FEF792BE70B5174CF2
S31508003E10144E2068216C01EA0005ADB2A80709D541
S31508003E20206C20F0020020643168080002D00020CF
S31508003E303060884768070AD5206C20F004002064A3
S31508003E407168080003D0002070600120884725604B
S31508003E5070BD02F0DBB9010008BF01200201044968
S31508003E6000204FE78C7D00204020004008A000403D
S31508003E70533E000873796D626F6C2D74696D6572B7
S31508003E802E630000F8B5274D2E68040001D1FF20E7
S31508003E90F2BDFEF73BFE244F29683A7821F8124016
S31508003EA036F8021BA142FBD1FEF742FE29683A7892
S31508003EB0B01E401A4010C1B2914208BFFF20C0B2DE
S31508003EC0F2BD2DE9F843194C174D26688146287826
S31508003ED006EBC007FEF71AFE804608224946384612
S31508003EE0FEF72EFFF88800E00836F188814202BF07
S31508003EF031883A889142F7D171887A88914202BF0F
S31508003F00B188BA889142EFD14046FEF711FE206883
S31508003F102A78301AC010C1B2914208BFFF20C0B239
S31508003F20BDE8F2836C5E002041610020705E0020CF
S31508003F3038B502F0D4FAFEF7E9FDDFF87849054608
S31508003F4020784200DFF870090068FF21FEF75AFF63
S31508003F502078C200DFF8640900F035F820784200BE
S31508003F60DFF85C0900F02FF82846FEF7E1FD207817
S31508003F708200DFF8500900F026F820788200DFF882
S31508003F80480900F020F8DFF84409227800F01BF809
S31508003F9020788200DFF8380900F015F820788200CA
S31508003FA0DFF8300900F00FF820784200DFF828091A
S31508003FB000F009F8DFF82419002008800120DFF84E
S31508003FC02019088031BD00680021FEF71BBF2DE9C6
S31508003FD0FF47DFF810090078C00756D50024DFF838
S31508003FE0F458DFF8D868DFF8D078DFF8C88848E0F2
S31508003FF00E2322460E216846FDF72CF9684602F084
S31508004000C8FA5FEA000A3AD0FEF780FD814602F058
S31508004010FEFECAF309010843396821F8140008228C
S3150800402030680DF1020100EBC400FEF789FE9DF829
S315080040300000DFF88C180968C20605D531F8142087
S3150800404042F0010221F81420020705D531F81420A0
S3150800405042F0040221F81420400705D531F814006F
S3150800406040F4005021F814004846FEF761FD0DF1B2
S315080040700A01002002F0BAFA296841F82400641CF3
S31508004080E4B298F800008442B2DBBDE8FF8770B559
S31508004090DFF82C4824680022002302E024F8135095
S315080040A05B1CDFF810582D78AB4209DA34F8135048
S315080040B06E07F5D501220E0014BF05438543EDE7CB
S315080040C0104670BD002100E0491CDFF8E8371B7870
S315080040D0CAB29A420AD2DFF8E8271268C9B232F899
S315080040E0112002408242EFD101207047002070471C
S315080040F0002070472DE9F84307460C46DFF8BC5701
S31508004100DFF8BC67DFF8B097DFF8A88709E0D9F8C9
S31508004110000030F817004FF6FF71884215D07F1C53
S31508004120FFB298F80000874211DA002CEFD0306809
S3150800413010F81700C007F2D5286800EBC701082257
S315080041402046FEF766FE0028E9D1384600E0FF2043
S31508004150BDE8F283002000210AE0DFF86427126830
S31508004160C9B212F81120D20744BF401CC0B2491C7C
S31508004170DFF840371B78CAB29A42EED3704700215F
S3150800418000E0491CDFF82C371B78CAB29A4209D2DC
S31508004190DFF824271268C9B232F811208242F0D11A
S315080041A001207047002070472DE9F84304468846E9
S315080041B0914600F080FA05462E46FF2E04D10021CE
S315080041C000F07AFA054612E00899B1B1002002F02B
S315080041D00DFADFF8F01600F020F80ED30999002042
S315080041E002F004FADFF8E01600F017F805D3FF2D01
S315080041F003D02046FFF7C3FF08B1FF200BE007B93D
S315080042001E2700974B4642462146284600F00BF8E3
S3150800421000B9FF252846BDE8F283096851F826103B
S31508004220401C884270472DE9F44F84B08046DDF87B
S315080042303890B9F1000F8A461D4604D1F1210FF2D4
S31508004240A860FEF77BFC0124A80748BF44F20104D6
S31508004250280758BF44F00404E80758BF44F0800410
S31508004260680748BF44F400544FF6FE704546DFF829
S315080042704876824501BF386830F815A04FF6FF70BA
S31508004280824516D102F0C3FDDFF854160A88C2F338
S31508004290090300F47C4040EA030A501C80B2B0F5DA
S315080042A0006FA8BF012008805046FFF768FF002866
S315080042B0E8D1FEF72BFCDFF80466049983463068DC
S315080042C0082200EBC500FEF73BFD386820F815A06C
S315080042D0DFF8EC05DFF8FCA5006820F8154058461D
S315080042E0FEF726FCDAF8000040F82590404600F074
S315080042F03CF8404602F0DFF8386830F81500C0F39D
S315080043000901684602F04FF99DF8000040F01000D8
S315080043108DF80000600705D59DF8000040F00800FC
S315080043208DF80000A00405D59DF8000040F00400B3
S315080043308DF800000822306800EBC5010DF1020077
S31508004340FEF7FEFCDAF8000050F825200DF10A0108
S31508004350002002F02CF90E236A4641460E20FCF78F
S3150800436089FF012005B0BDE8F08F10B50446FF2C83
S3150800437007D003F0F8F9DFF860150968800A21F814
S31508004380140010BD10B50446FF2C0AD003F0EBF953
S31508004390DFF84415096831F81410C1EB902080B293
S315080043A010BD002010BD2DE9F14F0C46DFF82CA5F5
S315080043B000215046002703F008FAB84614E01022F8
S315080043C029462046FEF725FD38B94846FFF7DAFFA5
S315080043D00FB1404501D280465F461035B542EED34F
S315080043E05946504603F020FA83465FEA0B0014D07C
S315080043F0584603F0B8FE0546584603F0CCFE2E187C
S31508004400002DF5D015F8019B9DF80010894501D1BE
S31508004410584603E0002CE3D0E0E73846BDE8F28FC3
S315080044202DE9F04F804613204FF0000B95B0187019
S31508004430894683F801B09F1C924603AC4D46002678
S31508004440009707E0082204F1090101A8FEF778FCA5
S315080044504FF0010B287801064CBF0921112109EB01
S315080044600A0269188A422CD3010606D41122294663
S315080044702046FEF765FC113511E0611C00F00F00BF
S3150800448004F009FA402818BF0935E3D128782070C6
S315080044900822691C04F10900FEF752FC0935601C64
S315080044A004F036FA0028CDD1F6B2032ED2DA601C13
S315080044B005F0ECF910B96078FF28CBD11134761CD9
S315080044C0C8E75FEA0B0018BF761C3001441C0021C0
S315080044D04046E4B2FFF767FF012C8246DFF8FC533B
S315080044E005D15FEA0A0012D000F060F80FE05FEA33
S315080044F00A0005D003F04FFEA04212DA00F056F883
S315080045000021204603F045FF5FEA000A03D138463A
S3150800451015B0BDE8F08F00225146284603F05DF934
S3150800452008E0504603F037FE844203DA2146504637
S3150800453003F04AFE504603F016FE8146BBF1000F13
S3150800454009F8018B03AC16D0484604F0D5F90822C1
S3150800455001A909F10800FEF7F3FB09F11009761E17
S3150800456009E01022611C3846FEF7EAFB1037761E72
S31508004570113409F11009F0B290B11022611C4846B5
S31508004580FEF7DEFB207807F8010B20780006E8D551
S31508004590082204F109013846FEF7D2FB0837E6E798
S315080045A000980099381A01F8010CB0E70022514624
S315080045B0284603F063B938B50024BE4D02E000F082
S315080045C006F8641C2978E0B28842F8D331BD1FB5D5
S315080045D004460021684601F0E6FF082200210DF195
S315080045E00200FEF70FFC042200210DF10A00FEF777
S315080045F009FC0E236A4621460E20FCF73BFE1FBD2A
S315080046002DE9F041AC4EAE4F04463068254630F8E9
S31508004610150006F0FBF8386830F81500400404D594
S31508004620204600F03AF806F01CFCFEF76FFA8046C2
S31508004630A24800680822002100EBC500FEF7E2FB4D
S315080046403968002021F815004FF6FF70316821F807
S3150800465015004046FEF76CFA9A4909684FF0FF3094
S3150800466041F825009849096841F82500002098492D
S31508004670096841F825009849096821F815000021BC
S315080046802046FFF790FE010003D00022934803F06E
S31508004690F5F82046BDE8F04199E78949096811F817
S315080046A01010C90704D58449096831F81000704705
S315080046B04FF6FF7070471F4600201BE580B5FFF7D1
S315080046C0E1FBFF2804D000F010F80006800E11E088
S315080046D0002002BD80B5FFF7D5FBFF2803D000F008
S315080046E004F8800B06E0002002BD7549096831F818
S315080046F01000704700F0010002BD80B5FFF7C2FB4D
S31508004700FF2804D06D49096801EBC00002BD0020EE
S3150800471002BD70B50022674901E0521CD2B20B787F
S315080047209A4213DA664B1D6835F81260B307F4D55A
S31508004730664B1B689C56241A14F1400FBDBF4FF6F2
S31508004740FD73334025F812309C54E6E770BDF8B582
S315080047505B4F15463A68064612F816200C4692072D
S3150800476018465A4903D40B686FF07E029A550968B1
S31508004770314406F0C3FD70B1386830F8161041F0C0
S31508004780020120F816104F48006840F826404E48A7
S31508004790006840F82650F1BD00200FE04849096836
S315080047A011F81010890708D5464A1268002142F800
S315080047B02010454A126842F82010401C3D490978E5
S315080047C08842EBDB7047F8B504461546FFF773FFDA
S315080047D00646FF2E22D03A48006810F816008007D1
S315080047E01CD5684606F084FD28B940F2A2210FF2CE
S315080047F0F800FEF7A3F93548006800998257511862
S315080048000091012F0CBF30492E49096801EB860734
S315080048100099A94204D13868844208D20020F2BD22
S31508004820FCD28119284606F069FD0028F6D0601CDE
S3150800483038600120F2BD3EB5054606F0EDFE204C77
S3150800484080B101A905F1080006F07DFE01A9002046
S31508004850FFF750FC0146FF2904D0226812F8111010
S31508004860890725D42946FF20FFF79DFD010004D0BE
S3150800487003F079FC08B100783EBD284606F0CCFE68
S3150800488018B9284604F044F888B1694605F10800C5
S3150800489006F02DFE58B1BDF80000FFF7F3FA014601
S315080048A0FF2904D0226812F81110890700D4FF20C6
S315080048B03EBD0000416100206C5E0020705E002055
S315080048C0685E00207C5E0020805E0020845E0020FA
S315080048D0745E0020785E0020885E0020EC7E002052
S315080048E018610020767800206368696C642D64611D
S315080048F074612E630000000038B504466048614DB7
S31508004900002912BF00210178491C017001200121EC
S3150800491007F010F82878411C89B2032007F00AF836
S31508004920200003D0FFF728F9002808D5FFF724F957
S3150800493040054CBF032001200021FFF772F95248B9
S3150800494044702846BDE8384001224FF4806107F0DC
S315080049502FB880B5FDF751FBBDE80240312007F0BE
S3150800496057B938B50446402C154606D1FFF704F961
S3150800497000F08020B0F1004F03D000210020FFF79F
S3150800498050F9002C3AD0402C24D0882C18BF892CFA
S3150800499038D08C2C38D08D2C2DD08F2C39D13B4843
S315080049A0007804280FD155B13949022008704CF215
S315080049B05032BDE8384037490020FFF7A3B9FDF764
S315080049C01CFB312021E0FDF718FB002D0CBF312020
S315080049D000201AE0FDF711FB07F0DFF928482E49F9
S315080049E000780978884204D2BDE8344000210120C5
S315080049F082E7402009E006F0F1FF03E0FDF7FDFA43
S31508004A00002002E0FDF7F9FA8D20BDE8324007F0F4
S31508004A10FFB8BDE83440B42145E01D4800780228B7
S31508004A2000D0704780B51D480078012807D00328B4
S31508004A3010D11B480078022818BF7C280AD11549CE
S31508004A400020FFF7BCF9FDF7D8FABDE802400020C0
S31508004A5007F0DEB801BD38B5FEF758F805460C482C
S31508004A600078002410B9FCF741FF04462846FEF7F3
S31508004A705FF81CB1BDE8314000F0AABF31BD0000A7
S31508004A80E37F0020F67E0020D45E002033610020FC
S31508004A90D47F0020534900084F610020E47F00209E
S31508004AA0E57F0020E9210FF20800FEF747B800006D
S31508004AB06D61632D7068792E6300000070B5044639
S31508004AC093480D460178164619B14188491C41801C
S31508004AD070BD204607F068F980B1FDF7E9FA38B1EC
S31508004AE0A078002E14BF40F0010000F0FE00A07070
S31508004AF029462046BDE870402E2200E070BD70B5FC
S31508004B0004460D461646601C01F040FD10F0070FDE
S31508004B101ABF41F64901884200260121002006F005
S31508004B2009FF2078411C89B2022006F003FF3246AD
S31508004B302946204603F0CAFC18B1BDE8704002F0C9
S31508004B404FB973488188491C818070BD2DE9F047AB
S31508004B50A4B003F006FD6E4D82466888002600B1B3
S31508004B606E80A988080003D00D2006F0E3FEAE800B
S31508004B705FEA0A0040D003F0F6FA070018BF3E784D
S31508004B80781C01F003FD10F0070F1BBF41F6490121
S31508004B9088424FF000084FF02E08504603F0FBFA03
S31508004BA03844C8F100010844A0F10801082201A808
S31508004BB0FEF7C6F801ACE078FCF73AFF3146FCF799
S31508004BC03EFF8046534894F902900078A8B1A86839
S31508004BD0002811D003A8802107F0EAF800200090E9
S31508004BE0731CDBB20022514603A803F0D9FCAB685C
S31508004BF04A46414603A8984786E0504607F0E6F934
S31508004C000028F9D00521504603F012FD0646032078
S31508004C1000F0CAFF404C414906F007002070FF200B
S31508004C20087087F8018087F802909DF80400F870EC
S31508004C30504607F09EFD0328504602D108F0E0FED4
S31508004C4062E007F086FD00F00500042807D020780A
S31508004C50032804D1504607F01BF8002854D102F067
S31508004C600BF918B102F008F9012802D120780028BA
S31508004C704AD1EA68100004D000215046904700281F
S31508004C8042D1274D2878032818BF042805D00228C2
S31508004C9021D124480078C0071DD402F0EDF8032876
S31508004CA019D1504607F01DFEB0F5004F13D15046F6
S31508004CB007F03AFE1C49098881420CD0504607F095
S31508004CC048FD000707D4504607F043FD40061BD5AC
S31508004CD02078012818D12878042803D1F00648BF7F
S31508004CE006F0B8FE207820B101280AD0032804D09F
S31508004CF00AE0504608F02EFA06E0504609F090FB06
S31508004D0002E0504609F0DAFB24B0BDE8F08700005F
S31508004D10247D0020197D0020E47F0020E57F002007
S31508004D207278002076780020525F00202F4948606C
S31508004D3000200870704710B52C4C2278616800F086
S31508004D4003F80120207010BD2DE9F04104462848DB
S31508004D500068C0050D46904604D071210FF2A800E0
S31508004D60FDF7ECFE234F244E3868002818BFB8F12B
S31508004D70000F02D03068854203D0284600F028F894
S31508004D8035608020386006211C480160072139609B
S31508004D9001688907FCD5216809BAB962616809BA48
S31508004DA0B962A16809BAB962E16809BAB962016863
S31508004DB04907FCD5386B00BA2060386B00BA6060CA
S31508004DC0386B00BAA060386B00BAE060BDE8F081C5
S31508004DD002680B4912BACA60426812BA8A608268C7
S31508004DE012BA4A60C06800BA086070477C7D002025
S31508004DF004ED00E000300040847D002010A0004053
S31508004E003830004000229FE76165732E630000007A
S31508004E10002848BF4042704701468AB20AB94BF695
S31508004E20EF610F4A000C08BF4FF6CE201180508064
S31508004E3070470288130448BF4A4051000180104653
S31508004E40704738B5064C62212046FFF7F2FF054643
S31508004E5041F20B01A01CFFF7ECFF684032BD0000D1
S31508004E600C610020012100F01F029140DFF828257F
S31508004E70400942F8201070472DE9F04FDFF8204529
S31508004E8091B061681091072808BF032006D008284A
S31508004E9008BF022002D0052808BF0420DFF8045501
S31508004EA029686A6841EA0221AA6841EA0241009132
S31508004EB06968490703D5E16941F00201E16129689A
S31508004EC0490703D5E16941F00401E1610099EA69FE
S31508004ED0D140C90703D5E16941F00801E161401EE7
S31508004EE0DFF8B864DFF8C07400210328316000F2E7
S31508004EF04682DFE810F01C0206001B000400616011
S31508004F0014E0386CC00703D5E06940F04000E06162
S31508004F10386C400703D5E06940F02000E061386C42
S31508004F20800703D5E06940F01000E061FDF7EEFD6B
S31508004F30FBF7B6F98DF83C000120DFF87014DFF8AE
S31508004F4070A4C1F50041090B00FA01F1491ECAF81F
S31508004F5038104FF00009090A07D1DFF85814097804
S31508004F6019B1616C41F020016164396CDFF848843D
S31508004F70DFF848240E91796C0D91D8F84C100C91F5
S31508004F80D8F850100B91D8F854100A91D8F8581040
S31508004F900991DAF800100891DAF804100791DAF89E
S31508004FA014100691DAF824100591DAF834100491F1
S31508004FB0DFF80C1409681268039202222260DFF8EF
S31508004FC0042412688DF80420DFF8FC2312688DF893
S31508004FD00520DFF8F82312688DF806204FF0FF3217
S31508004FE06262DFF8B4231368DB040AD56B68DB0753
S31508004FF007D5E369DB0704D5336843F48073814634
S31508005000336013689B040AD56B685B0607D5E369AA
S31508005010DB0704D5336843F480438146336013685D
S315080050205B0412D5009BD5F818C023FA0CF3DB07EE
S315080050300BD5E369DB0708D53368D5F818C000FA3D
S315080050400CFC4CEA03038146336013681B0414D531
S31508005050009BD5F81CC023FA0CF3DB070DD5E369D2
S31508005060DB0702D4E3691B0707D53368D5F81CC0EC
S31508005070814600FA0CF0184330603868800707D577
S31508005080E069C00604D5F07840F0010000F080F928
S315080050903868400707D5E069800604D5F07840F0FF
S315080050A0020000F075F93868C00707D5E0694006C0
S315080050B004D5F07840F0040000F06AF91068C003DF
S315080050C007D5E069000604D5F07840F0080000F03E
S315080050D05FF900206A68D2076A6848BF4FF48050B3
S315080050E05206009AAB6948BF40F40050DA40D2072E
S315080050F0009AEB6948BF40F48040DA40D207E2697B
S3150800510048BF40F40040D20605D4E269920602D4AC
S31508005110E269520601D540F01000E269120648BF5E
S3150800512040F4803008400290A520FBF7B0F8012033
S31508005130E063E069A16B11B1616A0142FAD0616A64
S31508005140014200F0C5800020E063F07840F040009E
S31508005150F07000F0EFFC0498CAF8340007203860B5
S315080051600F20C8F800000AF0CFF91098944960603B
S315080051700E9838640D9878640C98C8F84C000B980B
S31508005180C8F850000A98C8F854000998C8F8580092
S315080051900898CAF800000798CAF804000698CAF8DA
S315080051A014000598CAF824000298086083490398F1
S315080051B008604FF0FF308649086082480068307002
S315080051C081480068707081480068B070606AE1695B
S315080051D0EA693368084001994B4000990B4001067B
S315080051E0490E01F0010143EA81230106890E01F007
S315080051F0010143EA81030106C90E01F0010101FA22
S3150800520002F200051A4300F07C5010433060FDF7A7
S315080052107DFC00F091FC002020609DF83C0008B160
S31508005220FBF728F8F07866490968C90304D5C0F37E
S31508005230C00109B120212162396C890703D5C1074C
S3150800524044BF0221F960396C490704D5C0F340010F
S3150800525009B10421F960396CC90704D5C0F3800087
S3150800526008B10120F860D8F84C00800605D53068EA
S31508005270C00544BF0C20FFF7F5FDD8F8500080069E
S3150800528005D53068400444BF0D20FFF7EBFDD8F87C
S315080052905400800607D53068A969C840C00744BFCE
S315080052A00E20FFF7DFFDD8F85800800607D53068CE
S315080052B0E969C840C00744BF0F20FFF7D3FDF0785F
S315080052C040F08000F07011B0BDE8F04F0AF056B912
S315080052D0B9F1000F7FF439AFDAF818003749DFF86B
S315080052E0F4B040084000CAF818003448806840F016
S315080052F00400886040F20721BBF80000884202BF1C
S31508005300BBF802004FF20F01884205D14CF23C303F
S31508005310ABF802004FF0010901200AF033F9B9F1A0
S31508005320000F03D04FF20F00ABF8020013E7FAF7AD
S31508005330B7FF0446A520FAF7AAFF00F0FBFB0AF020
S315080053401DF9254D254F2E6828684008400028601D
S31508005350FDF7E6FBD7F80080386820F04000386093
S31508005360FDF7DAFBC7F800802E60FDF7D9FB0CB114
S31508005370FAF780FF11B0BDE8F04F00F0DDBB11B0C1
S31508005380BDE8F04F40F259410FF25400FDF7D6BB85
S315080053904FF00109F070704700E200E080670020D6
S315080053A00400004008BC004014A0004000000000B3
S315080053B0044000409807080814A8004008ED00E0DB
S315080053C000E100E008B0004008B2004008B4004020
S315080053D080E200E00000002094ED00E0008000403C
S315080053E0736C6565702E630010B5144C207858B937
S315080053F01348018808237F22201DFBF779FE201D0C
S3150800540000F011F80120207010BD10B50B4C0146B4
S315080054100822201DFDF794FC201D00F004F8012049
S31508005420207010BD074880B5014608220648FDF7DA
S3150800543087FCBDE80140FCF73EBE0000F47C002076
S31508005440A42B0308F87C0020007D00202DE9F041FC
S31508005450454C464EDFF81881002020654FF400556C
S31508005460356002202060E560002020654FF4804703
S31508005470206D40F0600020650E2000F01BF888F8CB
S31508005480000000206065376004202060E760162071
S315080054903849086000206065606D40F0600060650E
S315080054A0162000F007F888F8010033480560076001
S315080054B0BDE8F0810E2802D0162802D009E02F4850
S315080054C000E02F480068800900F0010080F0010024
S315080054D070470020704710B52348254C4FF40051FB
S315080054E0C160022101600E20FFF7E4FF2278014621
S315080054F08A4218BF21700DD1501E8041C00F2070FE
