S00E00006E63702D7370692E7333372C
S3150000000018DC03202D3903004934000011390300A0
S31500000010A70A02020002000004180FAC00255400D3
S3150000002000000000000000000000000000000000CA
S3150000003000000000A85303000000000000000000BC
S315000000400000000000000000FFFFFFFFFFFFFFFFB2
S31500000050FFFFFFFFFFFFFFFFFFFFFFFFFFFFFFFFAA
S3150000006000E00F000000000000000000FFFFFFFF9F
S31500000070FFFFFFFF1C000000000000000000000062
S315000000800000000000000000DEFF0320DEFF03206A
S3150000009018DC0320787E03005441030040CD032082
S311000000A070170020000010000000000097
S3150000020018DC03202D39030049340000113903009E
S3150000021019390300153903001D3903002939030074
S315000002202939030029390300293903002939030034
S315000002302139030029390300293903004129000027
S31500000240BB7B0000D10C01006D1C000029390300A6
S31500000250F9080100110D0100D70C0100D90C0100AD
S31500000260D30C010079720200C374020039700000D9
S31500000270EF56000029390300293903003F05000025
S315000002802939030029390300E174020029390300E2
S3150000029029390300293903002939030029390300C4
S315000002A029390300293903002939030029390300B4
S315000002B0130D0100D50C010025730000470D010048
S315000002C029390300853D0300293903002939030034
S315000002D02939030029390300293903002939030084
S315000002E02939030029390300293903002939030074
S315000002F02939030029390300293903002939030064
S315000003002939030029390300293903006F49704A46
S3150000031001E021B1491E1369DB07FAD401B9B0E047
S31500000320506001201060106910F0060F05D04107DB
S3150000033000D5A9E0800700D5A9E000207047F0B5F8
S3150000034013460022002936D0604C614D8BB98B4292
S3150000035031D250F8046BEE605B1C08262E602646F0
S3150000036001E036B3761E2F69FF07FAD4002EEED1D0
S315000003701FE0EFF3108672B600230EE02F6907F038
S315000003801907102F08BF2F602F693F07F6D550F8C1
S31500000390047BEF605B1C10272F608B42F4D306B9F9
S315000003A062B6264601E026B1761E2869C007FAD451
S315000003B00EB96FF002021046F0BD2DE9F0479A46DD
S315000003C0444B454F1C681B683B688046002043F041
S315000003D001033B60950881460C4602E0B14404EBFC
S315000003E08604A94517D208EB89063046FFF78EFF2B
S315000003F0010014D1C6F30A00C0F500608608A5EB1B
S315000004000900B04238BF0646524631462046FFF73D
S3150000041096FF0100E2D03968490849003960BDE815
S31500000420F0872C49294A0B6809682B490B6843F069
S3150000043001030B608860012048604869400704D5C5
S3150000044008684008400008601EE04869800704D537
S31500000450086840084000086019E00220486001E092
S3150000046022B1521E4869C007FAD422B9086840086A
S315000004704000086005E00868400840000860002069
S3150000048070476FF0020070474FF0FF3070476FF013
S3150000049001007047002390E70F48016841F0010111
S315000004A0016046F21A31C1644FF4807141604169BE
S315000004B0C907FCD44FF4007141604169C907FCD4F7
S315000004C00021C1640020704700000000809698005B
S315000004D00C000E4004300E4008000E40072802D2E1
S315000004E03549085C7047FF207047072802D2334918
S315000004F0085C7047FF20704738B50446304800EB6B
S315000005008105A8780009FFF7E9FF2071A87800F0B7
S315000005100F00FFF7EAFF6071FF2814BF01200020DB
S31500000520E8702146E878A071287860706878254DD3
S31500000530A070284600F0A3F80120A86031BD10B5D0
S31500000540214984B01CC968461CC02048204A01784D
S31500000550D36814682340DB072DD503292BD2184C0A
S3150000056012691C4B04EB8104E4781CB114B2002C14
S3150000057048BF002223F811200123174A147803FAF2
S3150000058001F121431170154A117891B100211478B7
S31500000590CC40E40708D501708B40107858401070A5
S315000005A06846FFF7A9FF1FBD491CC9B20329EED350
S315000005B01FBD032101701FBD705303007853030054
S315000005C0A4E503200020004064530300ACFF032091
S315000005D038200040C8E50320ADFF03207FFE03203E
S315000005E0890001EB401000F184400260704730B58D
S315000005F0002A446BDFF834511ABF1022DFF830317D
S31500000600DFF8303123400024A84237D1DFF8280133
S3150000061051B101290CD002291ED003290CD006297C
S3150000062015D0812918D023E001680468006816E017
S3150000063001680468006802E0416844684068090C83
S3150000064001F4FE41C4F303442143000C0CE081682D
S31500000650806801F00F0107E041684468406801F4D2
S31500000660FE4104F00F04214300F0F00040EA0104CB
S3150000067004FA02F0DFF8C4101843086030BD38B53C
S3150000068004460D460220A0600022A9782046FFF706
S31500000690AEFF287969786B79020242EA016242EA82
S315000006A00342EB7842EAC302EB790BB142F0005207
S315000006B02B7A0BB142F00402AB790BB142F0020285
S315000006C06B7A0BB142F00102AB78F32806D1180021
S315000006D004D10429BCBF042060F31B6218064CBF7A
S315000006E042F0E00042EA4310206115496069084083
S315000006F0A9780A0644BF21F080010843297840EA18
S315000007004140E97A09B140F4804060610221AA7A49
S315000007102046FFF765FF2879F32804F13000BDE88D
S3150000072038400CBF01220022102159E7002000406A
S31500000730FFFF00800080FFFF1082E00F34200040A2
S31500000740F8BFE1FF42DE704738B504460D4600F0BB
S31500000750F9FB01F0A6FA01F0B1FA2946204601F0AC
S31500000760B3FA2B4622466949012001F01CFC2946B2
S315000007702046BDE83440E5E765482DE9F047654D7C
S3150000078001682E1D4FF420687165016AB1656249E2
S315000007900A68F26549683166416A7166816AB166BE
S315000007A0C16AF166016B3167806B706796F8340039
S315000007B040074CBFF46BB46B01F09DFC0022F26461
S315000007C08442564A014624BFA2F1200AA245274682
S315000007D0316505F19003DFF848C1DFF848E118D329
S315000007E0A0693064E4697464746DC4F30804062C6B
S315000007F013D1704511D360450FD200884DF642647F
S31500000800A0420AD13068586040F20178706898605A
S3150000081003E000273764776407464348814202D2E3
S31500000820014600E0091D0846904203D20C68B4F167
S31500000830CD3FF7D03D49081AB0640021002005EBF2
S315000008408004401C0628E167F9D3002003E0C0B20B
S3150000085005EB8004E167974223D252F8041D7145E7
S31500000860F9D36145F7D2CC07F5D5002405EB840909
S31500000870D9F87C90894502D0641C062CF6D3062C48
S31500000880E9D1002814BF401E0520E0E7B16F00241F
S3150000089005EB8402641CD2F88070D767052CF7D369
S315000008A019600146481EC9B20029EFD1706DC0F328
S315000008B00800032810D0042811D0052812D00628D5
S315000008C013D00C2817D0122818D1194800688007B1
S315000008D019D540F2025816E040F6012813E040F61A
S315000008E0022810E040F603280DE0B8F5206F0AD183
S315000008F040F6042807E040F6052804E018B143282E
S3150000090038BF40F607284046BDE8F087805303000D
S3150000091004ED00E00000002000E300E018DC032006
S3150000092054410300DC0400009C00002018DC032076
S315000009301C20054010B54C00014600F033FD224650
S3150000094001F017FCA04201D0002010BD012010BD0F
S3150000095080B500F027FD01F066FC00B10120C0B2B1
S3150000096002BDDFF8480A407D00B101207047DFF87C
S315000009703C2A117B01B9704780B50146106A01F027
S31500000980A8FC20B1BDE8044040F24F11CCE201BD05
S3150000099080B500F007FD01F0E5FB00F00300032839
S315000009A001D1012002BD002002BD80B5B0F5004F87
S315000009B007D100F022FEDFF89C0A00F0DCFCBDF84F
S315000009C00000DFF8241AC883002002BD2DE9F04F8D
S315000009D0440900F01F050027DFF8A08A00E07F1C0D
S315000009E098F80660F8B2B04245D2D8F80800FFB2CF
S315000009F050F827004FF0000C01E00CF1010CC67E08
S31500000A005FFA8CFEB645EAD2D0F81CE05FFA8CFCA1
S31500000A10182616FB0CF6B6449EF8086006F0070684
S31500000A20A642EAD19EF80960B542E6DB9EF801B01F
S31500000A309EF8009006EB0B0AAAEB090AAA45DCDB36
S31500000A40DFF8744A247854B1DFF86049A47B34B9DE
S31500000A50DEF80C401CB12468EC40E4070BD511B15C
S31500000A60AC1B4C440C7012B19EF8081011701BB1EF
S31500000A70C3F800E000E00020BDE8F08F400918BF91
S31500000A8040F01800704710B5DFF82049206A01F0E1
S31500000A90CAFB0246206ABDE81040002101F0DFBB18
S31500000AA00B38102834BFDFF8D80ADFF8F40A0068DC
S31500000AB070473EB568460021002200230EC0DFF8CD
S31500000AC0280901788DF80010817A0A0018BF0229DA
S31500000AD014D10079DFF8D45800F0BBF8044600F0D2
S31500000AE00EF858B1286A0122002101F03DFB00F002
S31500000AF006F818B140F2792100F06BFB37BD286A81
S31500000B006A46214601F058BB2DE9F041044604F03F
S31500000B101F001B2886B034D2002000906B460022AE
S31500000B2000212046FFF752FF07002AD02046FFF794
S31500000B30B7FF5FEA000824D0DFF87068DFF8445A90
S31500000B40F06B804515D001A84146062201F038FC1D
S31500000B50306AC6F83C8001A901F01DFC88B9306AEC
S31500000B6003A901F026FCB5F91C10306A01F0EEFB72
S31500000B7038B90098B06277620098002818BF0069FB
S31500000B8001E08A200EE0F06229798C421CBF2C71AC
S31500000B90FFF78FFF96F90D00C101306A09B201F027
S31500000BA0FFFD002006B0BDE8F081DFF8D809007926
S31500000BB07047DFF8D009B0F91C00002854BF0521A2
S31500000BC06FF0040108180A2190FBF1F040B270475B
S31500000BD00A2110FB01F0FFE7F8B500F5D77240F2E5
S31500000BE077239A4201D38B20F2BDDFF8C047DFF8A6
S31500000BF09459A26A0A23002A1EBFAE7F06F0C006D9
S31500000C00802E12D0A67B86B992F9026016FB03F7F6
S31500000C10B842B8BF16FB03F007DB92F9032012FBBC
S31500000C2003F68642B8BF12FB03F0217B61B1014691
S31500000C30206A01F08BFB18B14FF4367100F0C9FA47
S31500000C40206A01F096FB01E010FB03F0A883002068
S31500000C50F2BD38B50446FFF723FF90B1002300220A
S31500000C6000212046FFF7B2FE58B104F01F051B2DE8
S31500000C7007D22046FFF702FF18B90B2D01DB2846E5
S31500000C8032BDFF2032BD7047C0B2704710F1590F18
S31500000C9001DA0020704710F1240F01DBFF207047B6
S31500000CA05A300002362190FBF1F0C0B2704770B5A1
S31500000CB0DFF8F846DFF8B45A00202064687828B1D7
S31500000CC001F072FD012818BF032801D1002070BD74
S31500000CD0E16ADFF89C3ADFF8AC2800291FBFA66A54
S31500000CE07669002E022817D12364906900F5FA7000
S31500000CF09061E07C18B100200021642203E0E878CE
S31500000D0029794FF4A0722070A2806170A878A07033
S31500000D108020E080002030E0DFF8585A9069AE422B
S31500000D2013D1DFF8543A236400F57A709061E07CC1
S31500000D3088B90879207001228B7808799A401018B2
S31500000D4091F903201018401E0CE0236400F5FA7098
S31500000D509061E07C18B100202080642005E048788E
S31500000D6020708878607008780001A0804879A070AB
S31500000D7008890001E080C8880001A06000F043FCFB
S31500000D80E07094F90200010048BF4042C0B270BD55
S31500000D9070B50446DFF81466257896F9140008B194
S31500000DA08C2070BDFFF783FFB075DFF8C029DFF830
S31500000DB0D40741780174690101F5807181619379E5
S31500000DC0716C002BB37B1DBFAD1EEDB221F002018D
S31500000DD041F0020173B9127862B16278920609D5C0
S31500000DE06FF00102327541F00101826902F5087265
S31500000DF0826104E049084FF0FF30490030757164A4
S31500000E00032000F005F96A1C306A4FF4807392B231
S31500000E10214601F0F1FC691C884203DA40F22941BF
S31500000E2000F0D7F9002070BD00000000F8B5DFF82B
S31500000E307C5595F914100024091D04290FD8DFE804
S31500000E4001F0080E10100300FFF7A2FF040008D0FF
S31500000E50F2BD2C75286A01F08BF98D20F2BD8C202D
S31500000E60F2BD01F0E5FCE8B1286CDFF80419884210
S31500000E7018D1A87DB0B1DFF8A40A0068002811D502
S31500000E80DFF89C0AC168C1600122006800F00F000B
S31500000E9002FA00F0401E014204D100F0ECFB64208F
S31500000EA001F0C8FC01F01AFD064695F9140010F190
S31500000EB0010F1CBF95F9140010F1020F29D195F905
S31500000EC01400DFF8C0764042287501F00DFD786207
S31500000ED0296C387949B9FFF7BCFE01466A6C286A65
S31500000EE007F1100301F057F90BE0FFF7B2FE07F127
S31500000EF01001009101466A6C286AD5F840C02B465D
S31500000F00E04760B1002028758C244FF0FF307862EE
S31500000F1002E0002028758D24286A01F029F9304660
S31500000F2001F019FD2046F2BDDFF8AC0AFFF70CBC54
S31500000F302046BDE8104001F00EBDDFF84806C08B24
S31500000F4070470000F8B501F0C9FCDFF89C54044670
S31500000F50A87A012803D1204601F0FDFCF1BDDFF897
S31500000F607C1ADFF84864DFF8707A402008600122B6
S31500000F70306A012101F0F8F8DFF8641A4FF4001026
S31500000F80086069460FF2840000680090306A01F03C
S31500000F90FBFB18B140F2D74100F04AFE02208DF863
S31500000FA000006946306A01F0CCFB18B140F2D94125
S31500000FB000F03EFE306A01F0ECF80021002001F05E
S31500000FC0CDFC00F048FB0120A87296F91400001D24
S31500000FD0072810D8DFE800F0130F0707040B0B0BE8
S31500000FE001F04FFD0BE06FF00300307507E089203C
S31500000FF000F076FB03E040F2FB4100F019FE2046CC
S3150000100001F0A9FC01F0DAFDF1BD000004010000C9
S315000010102DE9F04DDFF8D0530446A87AA04282B0FD
S3150000102063D00FF2CC01DFF8BC690968DFF8A88944
S31500001030DFF87873DFF8A8A9009103284FF4001BA6
S315000010404FD8DFE800F047023E2B01F0C0FD386ABA
S31500001050694601F099FB18B14FF4A36100F04AF814
S3150000106002208DF800006946386A01F06AFB18B163
S3150000107040F21A5100F03EF86879002814BF0022A9
S315000010800222386A022101F0E7FD18B140F21F5131
S3150000109000F030F80320032CA87218D0CAF800B06C
S315000010A00220A8722879FFF7D4FD0146386A00228B
S315000010B001F082F818B140F22F5100F01BF8022C13
S315000010C013D0002C18BF032C0FD10020A872C6F82D
S315000010D000B00AE0022C08D1CAF800B00220A872BB
S315000010E003E040F2455100F005F8BDE8F38D00003D
S315000010F0040200004046FFF727BBDFF8080B807AA2
S315000011007047000010B5032804460ED8DFE800F04B
S3150000111009020909FFF716FFBDE81040002000F09C
S31500001120EEBB012000F0EBFBEAE1BDE8104040F227
S315000011306351F9E680B500F00EF804D5002101757B
S31500001140006A01F015F8A848407A012802D1BDE8E6
S315000011500140F7E601BDDFF8B00A90F91410002946
S315000011607047DFF8A00A407A704780B5032801DB94
S31500001170012002BD9C494872897A884218BFFFF750
S31500001180C1FF002002BD2DE97C4FDFF87C6A03EA2F
S31500001190010BD6E9068929EA010528EA000402EAD4
S315000011A0000A45EA0B0544EA0A044D4508BF4445D2
S315000011B00DD0CDE900230246306A0B4601F0E6FA6F
S315000011C018B140F28B5100F004F8C6E90645BDE8B7
S315000011D0738F0FF66420FFF7B7BA38B5734D044620
S315000011E0287BE8B1200018BFDFF8202A04D1A87CAC
S315000011F008B1402200E000220023DFF8100A002197
S31500001200FFF7C1FF002C14BF08220022286A08211C
S3150000121001F022FD20B1BDE8344040F2C75183E61B
S3150000122031BDF8B50446022C0FF60C2503DB4FF44E
S31500001230BE6100F0A5F85D4E307B002840F0978037
S31500001240694FB87A012803D040F2F65100F098F8B9
S31500001250002107F1300000F073FF306218B940F248
S31500001260F95100F08DF8306A052101F026F918B120
S3150000127040F2FB5100F084F8306A0FF6D01101F00D
S31500001280FDFC18B140F2FC5100F07AF8306A01F02A
S3150000129029FD18B140F2FD5100F072F84FF0FF3011
S315000012A0DFF86C2906230146FFF76DFF306A4FF021
S315000012B0011100F0E6FF18B140F2126100F060F88B
S315000012C0306A4FF48032002100F0C9FF306A0922EB
S315000012D04FF0FF3101F0C0FC18B140F2196100F087
S315000012E04FF8012030730223DFF8280900F043F895
S315000012F0BDF80000C0054CBF0020BDF800007073AB
S3150000130001F096FAFFF769FFF88BFFF74EFB01F045
S3150000131069FD00F08BF83879FFF7F6FB18B140F25B
S315000013202C6100F02DF8F87900F042F8387A00F0D8
S315000013305DF8307C00F090F8787900F0D3F800F092
S3150000134062F900F02FF9B07C00F032FBB7F91C000F
S31500001350FFF742FC388C00F093F8788C00F0AEF87A
S31500001360B87900F012F9601E8041C00FB8722046AD
S31500001370FFF7C8FEF1BD01887F22684601F0A6BDD1
S315000013802846FFF7E1B980B500F00CF8012100F01E
S3150000139016FF10F5007F02D16FF07F0002BD8005B9
S315000013A0001602BDDFF86008006A704748E50320B2
S315000013B010B50446DFF85008017B51B1611E894122
S315000013C0006AC90F01F0E0FC18B140F26761FFF74F
S315000013D000FF2000DFF82C1818BF0120C87110BDCF
S315000013E0DFF82008C0797047D4DF0320F8B504463B
S315000013F001F074FA05466348DFF80C680472377B1F
S31500001400FFF7AFFA00F0010080F00100074204D0B8
S31500001410306A84F0010101F01CFE2846BDE8F24066
S3150000142001F099BADFF8DC07007A7047DFF8D807D1
S31500001430017B01B9704780B5006ADFF8DC1700222E
S3150000144001F08FFC20B1BDE8044040F292616BE5EB
S3150000145001BD000028780300DFF8AC27117B10746B
S3150000146001B9704780B50146106A01F081FC20B1D0
S31500001470BDE8044040F29D6156E501BDF0700300F1
S315000014804049DFF884370884197B01B9704780B575
S315000014900146186A002201F05DFC20B1BDE8044057
S315000014A040F2AE6140E501BDDFF85807008C704799
S315000014B0DFF85007408C7047F4E303203149DFF82A
S315000014C048374884197B01B9704780B50146186AC8
S315000014D0002201F038FC20B1BDE8044040F2C461AE
S315000014E022E501BD27494A79824200D1704710B5ED
S315000014F08C7A4871012C02D0FFF724FD00E010BD64
S315000015002046BDE8104083E510B500F032F800F043
S315000015102BF80146206A012200F046FE20B1BDE804
S31500001520104040F2E661FFE410BD80B5FFF73AFFD8
S3150000153000F03DFE18B140F2EB61FFF74AFEBDE850
S315000015400140FFF7B6BA10B500F013F800F00CF83A
S315000015500146206A002200F027FE20B1BDE81040B7
S3150000156040F2F661E0E410BDDFF898060079FFF777
S3150000157070BBDFF89446206A0122012100F0F4BD19
S3150000158058DF0320D4DF0320CFE710B50446FFF76A
S3150000159009FF214601F063FDDFF86806847110BD7E
S315000015A05CDF032038B504467F2C0CD100F025F80B
S315000015B0DFF86806FFF7DFFEBDF800007E24C005F1
S315000015C058BFBDF8004001F089F90546FFF7C9F993
S315000015D060B960B27E2805D1DFF82C16896A09B198
S315000015E091F904007E28B8BFFFF7C1F9DFF81406A9
S315000015F00473284601F0AFF931BD4FF6FF70ADF820
S31500001600000002237047DFF8FC0590F90C007E28E5
S3150000161007D1DFF8F405806A08B97F20704790F992
S315000016200400704710B501F01DFD800411D5DFF8E8
S31500001630D4454FF0FF30A06201F014FDC0044CBF4A
S3150000164003200120002101F00FFD01F04DF9E062B9
S3150000165010BDBDE8104080B5DFF8A8054FF0FF319A
S315000016608162C162FFF794F920B9BDE80440002108
S3150000167001F0FABC01BD80B501F0F4FC4005BDE8FF
S3150000168004404CBF03200120002101F067B910B5CA
S31500001690DFF8744594F9140003280DD100F026F9FB
S315000016A0DFF860154FF0FF3048620022216BBDE87D
S315000016B01040402001F089B910BD38B50446FFF747
S315000016C0CAFFDFF8445501F020F9686314B101F050
S315000016D084F801E000206874BDE8314001F0D1B91A
S315000016E038B50446DFF81C15DFF81C554FF0FF30FF
S315000016F0486201F00AF9686395F91400012802DAD4
S31500001700BDE83140A7E7A87D08B1686BA863002053
S315000017102875286A00F02CFDA87B10B10120E8731B
S3150000172031BD2046BDE838400022002101F04DB908
S3150000173010B501F07DF878B1FFF72AF960B1DFF84E
S31500001740C4444FF0FF30E06201F0CEF8A06201F031
S315000017508DFC002101F088FCDFF8AC04807C18B118
S31500001760BDE8104000F081BA10BD0000BCE10320C6
S315000017709D210000681C0000A32100002DE9F04314
S31500001780DFF884440FF2B049206A89B005AA022125
S3150000179001F035F8050003D140F6F40100F0A3F896
S315000017A09DF81400DFF85C64BDF8168007281CBF9E
S315000017B07079002819D1B8F1060F16DB08F1080078
S315000017C08B2812D2002000904346DFF85474206A1A
S315000017D03A46294601F01BF8404503D040F60D1164
S315000017E000F081F83878000602D5FFF71BFF77E096
S315000017F001208DF80800CDF804806A46206A294643
S3150000180001F001F818B140F6241100F06CF8787870
S3150000181000F0070002281ED1FFF71DFF94F91400FF
S31500001820032808BFB8F1060F11D19DF80D0070B15D
S315000018307878000900F0010500F058F84FF0FF3005
S3150000184070622A4600218F2001F0BFF848E0F07947
S31500001850002845D105E09DF80D0010B10020FFF7E6
S3150000186016FFF0799DF80D10084203D040F64C1192
S3150000187000F039F8F07930B17878800603D5206A1F
S3150000188001F0EAFB18B1FFF7E6FE00206074387835
S31500001890401C404503D040F6661100F024F807EBE3
S315000018A0080530792870002068709DF80E00A87031
S315000018B095F90200FFF7EAF9E87008F10801FF2040
S315000018C02871C9B20098000C68710098000AA871C6
S315000018D00098E8713846627C01F0CAFB002060740B
S315000018E009B0BDE8F0834846FEF72EBF00202075FC
S315000018F0206A00F03DBC0FF24830FEF725BFDFF846
S315000019000413897A012907D1DFF818130B78984256
S315000019101CBF087001F05DB9704700000440084024
S315000019204C50084038B50446002C0D4607D400F04C
S31500001930DBFF011B89B28D428041C00F32BD002002
S3150000194032BD10B5DFF8BC42606A4FF47A71FFF71A
S31500001950E9FF60B1DFF8B00290F91400032803D163
S315000019600020FFF794FE02E08920FFF7B9FEA06A87
S315000019700A21FFF7D7FF08B1FFF76DFE01F072FBF2
S3150000198000F0FF01E06AFFF7CDFF10B1BDE810409F
S3150000199061E610BD10B540B900F020FF00F09EFFD3
S315000019A00446FFF7CEFFFFF7C3BABDE81040C8E70D
S315000019B038B5954D0446287B60B1200002D100F071
S315000019C037FF08B1402200E000220023402000211A
S315000019D0FFF7D9FBAC7431BD381C00000840084045
S315000019E018600846186008442DE9F04780461446FA
S315000019F0600688B01D4648BF002002D4200602D5E6
S31500001A000120FFF795FEA0037F4E2DD500207074B0
S31500001A106946404601F0CDF930BB9DF80800824F7B
S31500001A2002280DD1BDF8000001F05AFCFF2815D0A0
S31500001A30396831F810004FF4567108420ED113E0A0
S31500001A40032811D1684601F06AFCFF2806D03968E0
S31500001A5031F810004FF45671084205D0306A01F093
S31500001A60A5F908B901207074600410D500F0E0FEF5
S31500001A7068B1FEF78DFF50B101F088FC074601F012
S31500001A80F5FA874203D00021384601F0EDFA200727
S31500001A9044BF4046FFF772FEE00548BFFFF7C2FDB0
S31500001AA04FF41850044218BFFFF7D5FDE00244BFBB
S31500001AB00120FFF702FE600244BF0120FFF7FDFD93
S31500001AC0E00144BF0020FFF7F8FD96F914000FF27D
S31500001AD06817012869DB306ADFF8289121034FF087
S31500001AE0FF3A33D596F9141001295EDB96F91410E6
S31500001AF003295ADA00218DF8181001218DF81410E7
S31500001B0003A900F059FC0398306300F0FEFE7063F1
S31500001B10B07D08B1706BB06396F91400012804D04B
S31500001B2002280ED1032030753FE000203075306A60
S31500001B3000F01EFBC9F824A0B07BA8B9316B0022C7
S31500001B4018E040F61D0100F073F82EE014F0845FF3
S31500001B5013D00021317500F00BFB042000F03FFE8E
S31500001B60C9F824A0B07B10B10120F0731DE000225B
S31500001B7000218D2000F029FF17E0A00248BF892030
S31500001B8002D4A00103D58820FFF7AAFD0DE060006E
S31500001B9048BFFFF770FDA00007D524480068400441
S31500001BA003D40021002000F0D9FEA00744BF404620
S31500001BB0FFF76DFD002C04D5FFF74DFD4046FFF7FE
S31500001BC066FD05F002010023994211D0404600F05F
S31500001BD0C5FA022802D0032802D005E0892000E0D9
S31500001BE08D20FFF77DFD03E040F6880100F020F828
S31500001BF005F004010023994218BF01F01AFC08B051
S31500001C00BDE8F087D4DF032048E503204067006085
S31500001C100A00FA932A78030068FA03202C78030056
S31500001C2024F40320C0FF032028DF032004400840DB
S31500001C303846FEF789BD00007068792E6300000003
S31500001C406C69627261696C2E610000000000000020
S31500001C5001006003010101016400B6006400C000D8
S31500001C60000000000B0000000000704701F0ECBB14
S31500001C7080B501210C4801F0A3FC0421072002F0E5
S31500001C806FF80A480A490B4A0160042111600221D3
S31500001C9041620421084A1160816A41F002018162B1
S31500001CA001BD024802F09EB800250800002005404C
S31500001CB00108030080E200E000E100E0602080F31C
S31500001CC01188704702F064B903460A469DA10420B4
S31500001CD0FFE70CB480B502AA00F05CF801BC5DF821
S31500001CE00CFB0A0003D0034697A11120F1E77047C9
S31500001CF000B589B000F07EFF00210791069105919D
S31500001D0004910391029101910246904900910023AA
S31500001D100FF24C210120FFF7DCFF8D48C178437894
S31500001D2002780391816802918188019181780091FE
S31500001D3043200FF23821FFF7CCFF09B000BD8549DB
S31500001D40087070470EB410B5044682480078A1B0FA
S31500001D5080B102F0A7F868B180226946022000F03F
S31500001D60B5F823AB224600210FF2791002F083F971
S31500001D7000F0DCF821B010BC5DF810FB0C2200214D
S31500001D80754802F017BB744931F81020521C21F82F
S31500001D90102070472DE9F04107466E480078A2B042
S31500001DA00C469046002690B9380018BF012F0ED079
S31500001DB0042F18BF052F0AD0312F18BF332F06D096
S31500001DC0372F1EBF3B2F4FF6FF718F4275D102F0A2
S31500001DD069F8002871D0802202A9384600F076F80A
S31500001DE0002C68D007E08DF80400012201A900202C
S31500001DF000F078F8641C207801005CD0A0F1300275
S31500001E000A2A05D20A2101FB0600A0F13006F1E7F5
S31500001E10422818BF44280CD0462827D0572808D077
S31500001E20622836D0662821D06C281CD070281DD098
S31500001E30D9E7422807D158F8042B6946012002F059
S31500001E40E4FA01220DE0572858F8042B694604D11C
S31500001E50012002F0DAFA022203E0012002F0D5FAAC
S31500001E6004226946C3E758F8046BC3E758F8041B15
S31500001E70462807D10026885D00281EBF761CF6B2CC
S31500001E80FF2EF8D1F2B2002000F02CF898B9002607
S31500001E90B0E758F8047BB8B20028ABD002F033FFA5
S31500001EA00546B8B202F017FF0146EAB2002000F07C
S31500001EB019F800289ED000F039F822B0BDE8F0816C
S31500001EC0122804BF002003F022BC704710B5234C33
S31500001ED0616001462270606801F0EAFF607010BD23
S31500001EE000000000F8B515000C461C4E1CD070789A
S31500001EF0317873680F1AFFB2EDB2BD42B8BF2F46F4
S31500001F003A462146184402F0F3F970783818707092
S31500001F10ED1B3C44E8B238B17068711C02F02BF836
S31500001F200028E4D00120F2BD0020F2BD10B50B4C14
S31500001F306068611C02F01FF808B1012010BD6070D6
S31500001F4010BD0000574600006C70000068FA0320C0
S31500001F5028630300C1FF0320B0F40320BCF4032070
S31500001F60424238704242424257424200424242573F
S31500001F704442000080B50146002009B903F0F5FB94
S31500001F80C0B202BD80B50246262012B9002003F079
S31500001F90ABFCC0B202BD80B50146002009B903F012
S31500001FA019FDC0B202BD0CB438B5044604AA00F04F
S31500001FB00FF805462046FFF7EEFF284632BC5DF8CF
S31500001FC00CFB80B508461146FFF78BFE002002BDCC
S31500001FD0134680B50A460146094802F04CF8401EF1
S31500001FE08041C00F02BD38B504460D46284602F0B2
S31500001FF07BFAC2B229462046FFF7E3FF002032BD36
S31500002000C31F000010B50446FFF758FE200A00283B
S315000020103E4808BF24024FF20F0104804180BFF3FF
S315000020205F8FBFF34F8F3A483A4A016801F4E06187
S3150000203011430160BFF34F8F00BFFDE780B500205D
S3150000204000F009F830B9BDE80440E3210FF2DC00E6
S31500002050FEF77ABB01BD2DE9F0422F4C21684242C2
S315000020608D1815F01F0108D0002802D448420544F7
S3150000207003E04842284400F120052848A5F120063F
S31500002080A84224BF2648864203D3EFF30880854240
S3150000209001D300202DE000F021FC81462148006894
S315000020A010F0010718BF03F02AFD206801468D4293
S315000020B006D2A84224BFCD2100F80119F9D206E0C4
S315000020C02038002201E000F8012B8842FBD325606E
S315000020D0304603F01BFDE22001E006F8010BAE429C
S315000020E0FBD30FB103F0E8FC484600F034FC20684F
S315000020F02038BDE8F0820848006870470648006846
S315000021002038704708487047000000000000002093
S315000021100CED00E00400FA0528E1032040CD032081
S315000021207017002094ED00E0000000206D696372D6
S315000021306F2D696E7465726E616C2E63000000000F
S3150000214038B50446064804600D46204600F0AAF954
S3150000215029462046BDE8344000F070B9012070479A
S3150000216058FA032000F0C7B90846114600F0B9B97D
S3150000217070470846114603F0DDBC10B50C46114603
S315000021801A4603462046BDE8104004F022B904F082
S3150000219054B904F057B90C3000F08CB80C3000F08C
S315000021A09BB80C3000F0AAB80C3000F0B4B880B57B
S315000021B004F0F2F9002002BD0C3000F050BD0C30E6
S315000021C003F0B5BC0120704738B500F01BF80021BC
S315000021D02561E160BDE8324004F0D2BD38B500F0BB
S315000021E011F82169E26829400D0018BF0125114345
S315000021F0E16004F0C5FD15B10020042134BD0020C6
S31500002200002134BD04460D4604F0BDBD38B5FFF7C8
S31500002210F9FF2269E1682A4021EA0205E56004F037
S31500002220AFFD284632BD8069704770B582B005465D
S315000022300C0006BF0FF25C0000682068164600908E
S3150000224006B9EE6831462846FFF7E0FF3246694692
S31500002250284604F00BF90CB10098206073BDF8B560
S3150000226000F10C070C4615463846FFF7ABFF022671
S3150000227028B12A4621463846FFF7D7FF00263046C2
S31500002280F2BD80B50C3001F00111FFF79DFF002073
S3150000229002BD0000FFFFFFFF38B504460D4603F000
S315000022A0CFFE08B9022032BDA9B22046BDE83440AF
S315000022B000F03FB938B50446154689B2FFF7ECFF82
S315000022C0010005D129462046BDE8344003F0DBBEB7
S315000022D032BD0C3003F0C4BF70B500F00AF801003F
S315000022E006D1324629462046BDE8704003F013BFAA
S315000022F070BD044615461E4689B2CDE770B5FFF798
S31500002300F8FF010006D1324629462046BDE8704056
S3150000231003F0C2BE70BD70B5D4B2250018BF012C43
S3150000232001D0012070BD89B200F003F906000BD17F
S315000023300121012000F0D5F814B904F034F903E0C6
S31500002340012C08BF04F036F9304670BD7CB50D4649
S315000023506946044600F02DF89DF800102A462046EE
S3150000236004F016FD04F10C060146304604F0DCF8D4
S3150000237076BD30B583B06946044600F01AF804F11C
S315000023800C05284604F006F902469DF80010204682
S3150000239004F066FD3EBD38B50C4600F10C05002183
S315000023A0284604F0C1F821462846BDE8344004F02A
S315000023B0AEB80C3004F0E8B80C3003F0A5BC000051
S315000023C062B38B0708D0521E11F8013B00F8013B9F
S315000023D000F024808B07F6D1830740F0208000BFF1
S315000023E0103A07D330B4B1E83810103AA0E83810E4
S315000023F0F9D230BC530724BFB1E80810A0E8081092
S3150000240044BF51F8043B40F8043BD20724BF31F8DF
S31500002410022B20F8022B44BF0B7803707047083A52
S3150000242007D3B1E80810083A40F8043B40F804CB5B
S31500002430F7D25307E4E700000120704710B50446C1
S3150000244003F096FC08B1002010BD204610BD70B503
S315000024500D00044614BF012600261F21304604F055
S3150000246053FD0020606225621F21304604F04CFDBA
S315000024704FF6FF76002001E0401CC0B2E9688842B2
S3150000248009D2A968182212FB00F21144C989B14287
S31500002490F2DA0E00F0D13146204600F04AF8304616
S315000024A070BD704710B5044603F019FDA06A01001F
S315000024B08C4908BF8C48886010BD38B500F10C0502
S315000024C00C462846FFF7B8FF28B103F084FD012823
S315000024D001D0022032BD21462846BDE8344003F033
S315000024E050BD10B50C4603F061FD1CB103F073FD41
S315000024F00128FBD110BD03F06EBDF0B504467B4844
S31500002500066883B00D466946204604F03DF8B5F9E5
S315000025101220012747F6FF702479824207D09DF8E2
S315000025200010304604F034FCA04238BF002738467D
S31500002530FEBD2DE9F04F85B04FF000098DF80190F2
S315000025400446684F8DF800900D463868D7F804A009
S315000025500290CDF804A0204600F0C1F88046266A15
S31500002560D4F824B000F0EBF8002818BFD34505D105
S31500002570BBF1000F02D0A8B240454BD0002E1CBFC5
S31500002580B068002801D0F06808B903209CE0CA466C
S3150000259001E00AF1010AF068824518D2B0681821F4
S315000025A001FB0AF10144A8B2CA89904222BF088AF7
S315000025B0AAB29042EDD301208DF800008B4620464A
S315000025C0FFF79BFF0028E4D001208DF8010003A946
S315000025D0204603F0D9FF204603F0DCFF82469DF833
S315000025E00100C0B1217900F073F8386860B3B042D9
S315000025F023D17A680AB35A451FD1A9B2884506D0B5
S315000026000023204603F0DDFF5FEA000912D1C4F87B
S3150000261024B0658057E09DF8000048B1BBF9122050
S315000026209DF80C10A4F10C0004F0B2FB0146DAE7A9
S31500002630012049E000F04BF83FE0016821B1326823
S31500002640914208BF416800D0316800F045F88146E4
S315000026505FEA090004D1DBF8001000F03DF881467E
S315000026605FEA09000FD100F06AF810B13E60C7F8C2
S3150000267004B0C4F824B0658001235A46A9B22046A6
S3150000268003F09FFF81465FEA090005D1BA68594603
S31500002690A4F10C00904716E000F051F898B10298AA
S315000026A0386001987860386808B100F014F800F0D6
S315000026B00EF8786838B100F00EF87A6800234146C3
S315000026C0204603F07EFF484605B0BDE8F08F514630
S315000026D0204603F049BF0168204604F03FBA40880F
S315000026E0704700002CE20320A324000058FA0320C0
S315000026F001281CBF0428022801D1012070470020B0
S31500002700704738B500F03CF840B16878FFF7F0FF45
S3150000271020B1287869780843400701D5012032BDE9
S3150000272000F00DF828B103F056FC400701D5022051
S3150000273032BD29462046BDE8344003F0B6BE2046E9
S315000027407AE60C30DDE738B500F01AF838B168786B
S31500002750FFF7CEFF00281CBF6878042801D10120AE
S3150000276032BDFFF7ECFF28B103F035FC800701D539
S31500002770022032BD29462046BDE8344003F0B6BEED
S315000027800D4604462878B3E70C30DCE730B583B055
S315000027900C30DDE90645CDE9004503F06EFB3EBD94
S315000027A00C3004F0BDB900000020704738B514465F
S315000027B0FEF73CFB05466CB128000BD00A480078B2
S315000027C018B10A490120087004E0002200212846B9
S315000027D000F0FBF8284632BD704770477047044941
S315000027E0087070470000000056E5032057E50320F7
S315000027F0C7FF0320012070470C3004F0DAB8084602
S31500002800114604F047B80846114604F063B870B59F
S315000028100C4615461E460C30FFF7ECFF38B1049BFC
S31500002820324629462046BDE8704003F061BB70BDC4
S315000028300020704704F0D6BB10B5044605211120D0
S3150000284001F02CF800220021022001F049F91E496E
S315000028501E480A6802400A600B681D4A02EAC42242
S3150000286013430B604B681840486048681043486043
S3150000287001220121022001F033F9BDE810400421B4
S31500002880112001F00BB8134800680003C00D704713
S3150000289070B5054610480C4682B001884FF6FF76A3
S315000028A0ADF8006002237F22684604F02CFCBDF8D8
S315000028B00000B04205D02880BDF80000208001202D
S315000028C076BD002076BD00002C400E40FF07F0FFCD
S315000028D000F80F0030400E4030780300EFF311800F
S315000028E0602181F31188704780B504F0FCFC04F088
S315000028F007FD80B202BD80B504F0F5FC04F000FDD2
S31500002900FA21B0FBF1F080B202BD80B504F0EBFC19
S31500002910BDE8044004F0F4BC80B504F00AFB0748A7
S3150000292000214160001D04F03BFC20B139210FF26B
S315000029301400FDF709FF002002BD0000C4F40320C7
S3150000294000F008B873797374656D2D74696D6572DE
S315000029502E630000704780F311887047012070478E
S3150000296038B504466048614D002912BF0021017840
S31500002970491C01700120012104F001FE2878411C48
S3150000298089B2032004F0FBFD200003D000F06AFBAF
S31500002990002808D500F066FB40054CBF0320012047
S315000029A00021FFF7DBFF524844702846BDE8384057
S315000029B001224FF47A71FFF7F9BE80B5FEF7BAFB34
S315000029C0BDE80240312004F035BF38B50446402C3E
S315000029D0154606D100F046FB00F08020B0F1004F0E
S315000029E003D000210020FFF7B9FF002C3AD0402C7D
S315000029F024D0882C18BF892C38D08C2C38D08D2C1C
S31500002A002DD08F2C39D13B48007804280FD155B1F1
S31500002A103949022008704CF25032BDE83840374937
S31500002A20002004F0D7BFFEF785FB312021E0FEF73A
S31500002A3081FB002D0CBF312000201AE0FEF77AFB47
S31500002A4005F04DF828482E4900780978884204D2C6
S31500002A50BDE834400021012082E7402009E0FFF76D
S31500002A60BBFE03E0FEF766FB002002E0FEF762FB1A
S31500002A708D20BDE8324004F0DDBEBDE83440B4210F
S31500002A8045E01D480078022800D0704780B51D48F3
S31500002A900078012807D0032810D11B4800780228A7
S31500002AA018BF7C280AD11549002004F0D2FFFEF792
S31500002AB041FBBDE80240002004F0BCBE01BD38B5B4
S31500002AC0FFF70CFF05460C480078002410B9FDF707
S31500002AD03FFF04462846FFF73EFF1CB1BDE83140E4
S31500002AE000F0A7BC31BD0000C8FF032010FF032083
S31500002AF0BCE10320F3E30320DAFF0320BB29000037
S31500002B00F7E30320D1FF0320D2FF0320E9210FF2D0
S31500002B100800FDF719BE00006D61632D7068792EFF
S31500002B206300000010B54448444986B00068000EB2
S31500002B3009D14AF6E850C862486B40F00400486381
S31500002B400020C86201E0022803D2086840F4005061
S31500002B50086002AC3A48016821F4401141F488113A
S31500002B6001603848016841F48071016001203649EE
S31500002B70086004F0B7FF04F046FB05F0A0F8334800
S31500002B80D0E90023CDE9002301208DF80300684633
S31500002B9005F054F905F0DCFBFFF7BEFE2C480FC824
S31500002BA084E80F0008208DF8140002A805F0DCFB6D
S31500002BB006B010BD40F20160FFF724BA80B50021CF
S31500002BC0002000F051FABDE8014005F0DBBB05F03E
S31500002BD0DABB002818BF05F028BD05F027BD80B573
S31500002BE005F01DFE01461B480C2938BF00EB81008D
S31500002BF002BD000010B505F012FE044605F013FEF6
S31500002C00C0B208B9012C07D1072C11D8DFE804F0AF
S31500002C1004100608080A0C0E002010BD092010BD7D
S31500002C20022010BD032010BD0B2010BD062010BDD4
S31500002C3044F0800010BD0000FC81E00F64310E40BE
S31500002C4020400E4000000E4010300E40D4630300BA
S31500002C508C6403009C6403000C3003F064BB38B53D
S31500002C600D46044689B2FFF764FC010005D1A9B2FE
S31500002C702046BDE8344003F003BB32BD70B50C46B8
S31500002C8084B000F10C05237E627EA17E284605F005
S31500002C9038FE684604F10C010C22FFF791FB6946E9
S31500002CA0284604F00DF8211D284600F08CF9060090
S31500002CB003D1284605F05CFE0646300005D10FF22A
S31500002CC01C11284603F0EFFF0646300003D12846C4
S31500002CD005F0C3FD06462168284600F006F8304692
S31500002CE004B070BD0C3005F0B1BD70B58AB00446B5
S31500002CF00D4668460FF2C0012422FFF771FB05B9A5
S31500002D006D46002601E0010005D135F81610F2B235
S31500002D10204605F0C2FD010006D105EB4600F2B2E1
S31500002D20C188204605F0BFFD010007D105EBC600AE
S31500002D3000F10C01F2B2204605F0C6FD761C032E0A
S31500002D40E1DB0AB070BD032ABCBF0C3005F0A5BD9F
S31500002D5001207047032ABCBF0C3005F0A4BD01203A
S31500002D607047032ABCBF0C3005F0AEBD012070478A
S31500002D7038B500F015F828B121462846BDE834409C
S31500002D8005F0B2BD022032BD38B500F009F828B111
S31500002D9021462846BDE8344005F09CBD022032BDE0
S31500002DA000F10C050C46284605F04EBD0C3005F02A
S31500002DB0B7BD084602F073BFFFFFFFFFFFFFFFFF2F
S31500002DC0FFFFFFFF00000000000000000000000001
S31500002DD000000000000000000000000000000208E3
S31500002DE00000000010B5144C207858B9134801882B
S31500002DF008237F22201D00F069F8201D00F011F83D
S31500002E000120207010BD10B50B4C01460822201D74
S31500002E1001F06EFA201D00F004F80120207010BDAC
S31500002E20074880B501460822064801F061FABDE868
S31500002E300140FEF7FBBA00005CFA0320327803007B
S31500002E4060FA032068FA032038B50C4611461A4684
S31500002E507F2908BF002141F2F0139C4218D1544942
S31500002E600B6849680024D5B27DB30355641C1B0A60
S31500002E70521EE4B2042CF6D3E4B2082C25D2D3B207
S31500002E80002B1FBF0155090A521E641CF4D131BD27
S31500002E9004F47045C4F30B03B5F5805F11FB02F132
S31500002EA008BF43F07E630BD0B5F5005F1CBF04F48A
S31500002EB07044B4F5405F08D143F07C6343F40113DA
S31500002EC0C918BDE8384001F013BA31BD70B51E000F
S31500002ED0044615461BD04BF23460814211D1092EAF
S31500002EE028BF082633467F2241F202012046FFF71B
S31500002EF0ABFF32462F49204601F063FA38B941F25A
S31500002F00F01133462A462046BDE870409CE770BD66
S31500002F102DE9F84307460024F807884615466FF062
S31500002F200F06DFF8949002D5652100F049F8E8070E
S31500002F3002D5662100F044F807F47041B1F5805FD0
S31500002F40C7F30B000CD140F07E64B4F17E6F2646C9
S31500002F5004D32819401E1949884210D36B210CE06E
S31500002F60B1F5005F18BFB1F5405F05D140F07C6454
S31500002F7044F40114264602E0722100F021F80027ED
S31500002F8006E0F05DFF2802D07C2100F019F87F1CD6
S31500002F90AF42F6D36A084146204605F049FD28B1FE
S31500002FA04846BDE8F4438521FDF7CEBBBDE8F18375
S31500002FB0F081E00FCC630300C06303000008E00F5C
S31500002FC04846FDF7C1BB70B50D4682B00446287869
S31500002FD058B90021204603F03FFB0021204603F0AC
S31500002FE09BFB0021204603F09FFB2878002814BF96
S31500002FF00420287900F027F814BF287968798DF81D
S3150000300001002046FFF79FFB06001AD1287800280A
S3150000301014BF0220A87900F016F814BFA879E87941
S315000030208DF801002046FFF76CFB060009D12878D1
S3150000303038B16988204603F01FFB0121204603F0C2
S315000030400BFB304676BD8DF80000694628780028CF
S3150000305070470C3003F060BB0C3003F06FBB0846C2
S3150000306003F05EBE002070470120704700207047C5
S3150000307070B5044693480D460178164619B1418845
S31500003080491C418070BD204605F0FFFC80B1FEF76B
S31500003090C9F938B1A078002E14BF40F0010000F045
S315000030A0FE00A07029462046BDE870402E2200E0B2
S315000030B070BD70B504460D461646601C01F094F9C5
S315000030C010F0070F1ABF41F6490188420026012178
S315000030D0002004F054FA2078411C89B2022004F042
S315000030E04EFA32462946204601F0A8FF18B1BDE83F
S315000030F0704005F0E7BF73488188491C818070BD28
S315000031002DE9F047A4B001F0E4FF6E4D82466888D1
S31500003110002600B16E80A988080003D00D2004F0B7
S315000031202EFAAE805FEA0A0040D001F0D4FD070017
S3150000313018BF3E78781C01F057F910F0070F1BBF37
S3150000314041F6490188424FF000084FF02E085046DC
S3150000315001F0D9FD3844C8F100010844A0F1080186
S31500003160082201A801F0C4F801ACE078FDF78BFD58
S315000031703146FDF789FD8046534894F90290007860
S31500003180A8B1A868002811D003A8802106F088FC01
S3150000319000200090731CDBB20022514603A801F008
S315000031A0B9FFAB684A46414603A8984786E05046B1
S315000031B006F084FD0028F9D00521504601F0F2FF03
S315000031C006460320FEF7DFFD404C414906F00700A6
S315000031D02070FF20087087F8018087F802909DF81C
S315000031E00400F870504607F03CF90328504602D117
S315000031F008F090FA62E007F024F900F005000428D0
S3150000320007D02078032804D1504604F053FB002849
S3150000321054D105F0A0FF18B105F09DFF012802D199
S31500003220207800284AD1EA68100004D000215046D0
S315000032309047002842D1274D2878032818BF042834
S3150000324005D0022821D124480078C0071DD405F0F6
S3150000325082FF032819D1504607F0BBF9B0F5004F9D
S3150000326013D1504607F0D8F91C49098881420CD081
S31500003270504607F0E6F8000707D4504607F0E1F895
S3150000328040061BD52078012818D12878042803D1B8
S31500003290F00648BF04F0F0F9207820B101280AD0E2
S315000032A0032804D00AE0504607F0D4FD06E0504655
S315000032B008F040FF02E0504608F08AFF24B0BDE85F
S315000032C0F087000070FA032056E50320D1FF0320A3
S315000032D0D2FF03200EF8032012F8032096E1032004
S315000032E0F8B5274D2E68040001D1FF20F2BDFFF787
S315000032F0F5FA244F29683A7821F8124036F8021B6D
S31500003300A142FBD1FFF727FB29683A78B01E401A85
S315000033104010C1B2914208BFFF20C0B2F2BD2DE9F4
S31500003320F843194C174D26688146287806EBC007E6
S31500003330FFF7D4FA804608224946384600F0D8FFFF
S31500003340F88800E00836F188814202BF31883A8861
S315000033509142F7D171887A88914202BFB188BA88C2
S315000033609142EFD14046FFF7F6FA20682A78301AE4
S31500003370C010C1B2914208BFFF20C0B2BDE8F283BF
S315000033802CDF0320ECE3032030DF0320002070470E
S3150000339070477047704770B5044643381E4D08D0D5
S315000033A0401E012809D9801E01280ED9C01F31D020
S315000033B02AE0BDE870400AF088BC0AF05EFC20B145
S315000033C00AF083FC0028FBD170BD144E307808BB90
S315000033D00120307000200AF0F1FC442C11D00CD3EF
S315000033E0462C05D00DD3472C07D140F6010001E04D
S315000033F040F60200FEF706FE03E0AF212846FDF781
S31500003400A3F90020307070BD2846BDE87040C12188
S31500003410FDF79AB970BD0000B0650300BBFF03203D
S315000034207047002070477047704770477047704775
S315000034307047FDF728BB70471CB5059C0194049C9A
S315000034400094FFF7F8FF13BD0AF026BD890001EBD3
S31500003450401000F1844002607047890001EB401083
S3150000346000F184400068704710B5DFF8604612210D
S315000034702046FFF7F2FF0028F9D12068000C00F083
S31500003480030010BD0122DFF8A01510B5884232BF37
S315000034900022DFF89815884201D2144600E0022483
S315000034A01021DFF88C05FFF7D1FFDFF8240601684D
S315000034B021F0807141EA0461016010BDF0B5DFF8CA
S315000034C07425D36B03B1012341F67134D463DFF85D
S315000034D004561468002405EBC406CFB23679BE4202
S315000034E003D155F83460864202D2641C052CF2D30F
S315000034F0052C0EBF032005EBC4004079116821F0AE
S31500003500407141EA00601060DBB20BB10020D0636D
S31500003510F0BD80B50AF005FDBDE804400021CDE709
S31500003520CCE7C01C0F2801D2000770474FF070404F
S315000035307047000038B50446002500F059F9DFF859
S315000035407825DFF8FC14944208D0DFF87025944201
S3150000355006D0DFF86C25944204D006E0086802E045
S31500003560486800E0886800F00700401E03281BD862
S31500003570DFE800F002050C080AF004FD04E00AF09A
S3150000358007FD01E00AF001FD05460DE00AF0BCFC6E
S31500003590DFF83C150968090E01F001010122491CFA
S315000035A002FA01F1B0FBF1F5284632BDDFF8281525
S315000035B04A68D20702D40A680242FCD1704700006A
S315000035C070B5020A0C4602F00F020021521E092AAB
S315000035D0DFF8D05614D8DFE802F0051413130716E7
S315000035E019131C20DFF84854C0F3043611B10846FD
S315000035F0FFF7DCFF224631462846BDE8704025E746
S3150000360070BD1035F0E730350121EDE73835102172
S31500003610EAE740354FF48031E6E7DFF8F456E3E7B2
S3150000362070B5DFF8B814DFF890240E68DFF88C1454
S31500003630DFF89C44012510F4781075D0B0F5003FF2
S3150000364030D0B0F5802F27D0B0F5002F6CD0B0F574
S31500003650202F2DD0B0F5402F5ED0B0F5602F3FD093
S31500003660B0F5901F53D0B0F5A01F2AD0B0F5B01F0B
S3150000367039D0B0F5D01F22D0B0F5E01F31D0B0F56B
S31500003680001F44D0B0F5281F22D0B0F5301F31D02E
S31500003690B0F5381F4BD061E00AF045FCE168C1F394
S315000036A008210AE00AF03FFCA168C1F3082104E002
S315000036B00AF039FC6169C1F30421491C24E0104673
S315000036C027E01046FFF736FF216A01F00F0119E0E7
S315000036D01046FFF72FFF0646206AC0F30110C640CA
S315000036E03DE0084615E00846FFF724FFA16AC1F34E
S315000036F0011107E00846FFF71DFFA16A090A01F05C
S315000037000301091D05FA01F1B0FBF1F627E0DFF828
S31500003710B003FFF70FFF1FE0DFF8F80500F068F8C9
S3150000372007281CD0092819D10AF0FDFB14E0DFF8A0
S31500003730E80500F05DF804280CD007280FD008280B
S315000037400CD10AF0F0FB2168C1F30421491C01FBEE
S3150000375000F604E00AF002FC064600E000263046C9
S3150000376070BD0000030903F00F0301215B1E072B48
S31500003770DFF85C233AD8DFE803F004060A0E1014DB
S315000037802339106800E05069C0F3042070471068C0
S31500003790C0F300607047D06800E09068C0F308206E
S315000037A07047DFF87835984204D0DFF874359842D0
S315000037B004D01BE0106A00F00F0013E0106A09E065
S315000037C0DFF86035984204D0DFF85C35984204D0C3
S315000037D00CE0906AC0F3011004E0906A000A00F061
S315000037E00300001D01FA00F0401E704700207047DC
S315000037F0014601F00F010120491E0729DFF8302597
S3150000380049D8DFE801F0040F1348202E4836506AE5
S3150000381000F0070002283AD002D3042804D01CD3B3
S315000038200520704711690FE002207047516901F0C9
S315000038300701491E03292FD8DFE801F00F02031103
S31500003840F2E706207047916901F00701012904D0CB
S315000038500229E9D0042902D07047032070470A20C4
S315000038607047116811F001010FD0012914D1092008
S315000038707047DFF8C014096801F03001102904D040
S31500003880202904D0302904D070470720704704202F
S315000038907047082070470020704700002DE9F84364
S315000038A0804600260324B8F1110F0F46A14612D117
S315000038B0042F02D10AF052FB08E0052F0BD1DFF8E6
S315000038C07804DFF878140068884204D306001CBF29
S315000038D0002104F06AFA08F00F00401E0728DFF8FE
S315000038E050540ED8DFE800F0043D438B406F8B79CF
S315000038F0022F4D4806D0032F29D0042F2AD0052F9A
S315000039002DD07CE004244FF0000901220121484615
S3150000391000F0E6F8FFF7FDFD36B11221DFF8AC0145
S31500003920FFF79BFD0028F8D16C6000F07AF8FFF7EE
S31500003930A9FD0AF0E9FA0446FFF796FD014620467E
S31500003940FFF7EEFD002E5AD1BDE8F44374E04FF0C8
S315000039500109DAE70224A146FFF794FDD5E7012421
S31500003960FAE705F1100404E005F1180401E005F199
S315000039701404012F08D0022F09D0032F0ED0062FD2
S3150000398013D00A2F1DD03AE00020206037E0012234
S315000039900121002000F0A4F80220F6E7012201210F
S315000039A0012000F09DF80120EFE70AF0ADFAFFF7DD
S315000039B069FD01220221DFF8EC02FFF747FD032033
S315000039C0E3E70420E1E7072F02D0092F02D016E033
S315000039D0002000E00120286011E0012F06D0042F0E
S315000039E016D0072F0DD0082F19D008E00020DFF8D9
S315000039F044130A6822F0300242EA00100860BDE86B
S31500003A00F18301220121042000F06AF80120EEE78B
S31500003A1001220121022000F063F80220E7E70320DB
S31500003A20E5E7DFF80803FBE50148E8010190D0036C
S31500003A3000400E4004000E400121002004F0B5B9FC
S31500003A4080400E4070B500F03DF8012200210220B2
S31500003A5000F046F8217CDFF8F052002002292968A0
S31500003A6008BF0120490840EA410028600821227861
S31500003A702846FFF7EBFCA088617A41EAC020A860DF
S31500003A80EE68207AFFF74DFDE28806F07F6141EA95
S31500003A90C221A27A1143227A41EAC2110843E860A0
S31500003AA0A17B607B090141EA0030E17B0843217B71
S31500003AB040EA0140286170BD02001A0003001C00A4
S31500003AC0050020000446112092E6000004300E4056
S31500003AD000410E40B062030040410E4024DF032047
S31500003AE02DE9F84F04288246904673D8DFE800F0A7
S31500003AF04E493F03440001260220012700240029E5
S31500003B00DFF80892904D60D0BAF1020F02BF286824
S31500003B10C0F3011000284FF0000B0CD18B48006851
S31500003B202868C0074FF0010B05D5286820F0300043
S31500003B3040F010002860EE6300F04EF80028FBD03D
S31500003B40B8F1000F46D0394600F047F80028FAD001
S31500003B50BAF1020F3ED1BBF1000F3BD02868C00777
S31500003B601BD501222021022000F0C0F819E004260E
S31500003B70082003270224C2E7102620200527042454
S31500003B80BDE74026802007270624B8E74FF4807655
S31500003B904FF4007009270824B1E70021022000F045
S31500003BA083F8022000F01CF80446012200210220BE
S31500003BB0FFF796FF2146022000F02CF8EE63394607
S31500003BC000F00BF80028FAD004E0E86300F004F8EF
S31500003BD00028FBD1BDE8F18F21464846FFF73DBCE2
S31500003BE0401E0328564912D8DFE800F0020C0608EA
S31500003BF00869C0F308007047086800E0886800F0AC
S31500003C007F00704752480068C0F30A0070470020E2
S31500003C107047000070B5401E0D46032805F07F0171
S31500003C20474C484E3DD8DFE800F0022A101DC5F388
S31500003C3008051A213046FFF710FC0028F9D1206943
S31500003C40400A45EA4020206170BD0D4618213046E5
S31500003C50FFF703FC0028F9D12068C00945EAC01027
S31500003C60206070BD0D4619213046FFF7F6FB00288F
S31500003C70F9D1A068C00945EAC010A06070BD23480C
S31500003C800068606920F0300040F010006061C5F304
S31500003C90C310FFF746FC216A2E4A11402943084308
S31500003CA0206270BDB0400E4027480268C2F3011280
S31500003CB0002A18BF002907D0202902D0302903D0B6
S31500003CC005E04FF4000103E04FF4400100E0224913
S31500003CD0C26E0A408A42FBD1490204D5C06F800AEF
S31500003CE000F00100704701207047000010B502285F
S31500003CF00AD10B0004D0194B4FF480645C64196040
S31500003D0012B1BDE81040CFE7012010BD90400E4033
S31500003D1050410E4006000C0098002E00600614006C
S31500003D2060162A007017160070272C000025080060
S31500003D3070400E405C410E40D0DF0320012D310162
S31500003D4010400E4040410E4024400E403C300E4094
S31500003D509C400E4000F8FF0FFF33E10764400E4021
S31500003D6010B51B4B1C6890FAA0F2B2FA82F224EA54
S31500003D70000091400843186010BD164901200860F4
S31500003D80704770B51448154B01680020002203EBFC
S31500003D90C20453F832506468114E366876070DD463
S31500003DA0B5F5007F18BFB5F5806F05D0B5F5006F86
S31500003DB018BFB5F5803F01D144F48074294202D082
S31500003DC0214208BF2843521C092AE0D370BD0000D7
S31500003DD000500E4008500E4004500E40D8620300BA
S31500003DE0E841E00F0168C90707D58168890704D44F
S31500003DF08168C907FCD401214160704780B5012163
S31500003E006B48FFF7DDFB6B490120086000200AF0D4
S31500003E10F5F801230422022105200AF031F90120D8
S31500003E20FDF78DFF00F011F8FDF7A8FF62490120AC
S31500003E3008700AF019FA01234022604960480AF026
S31500003E40E1F960490860C00F02BD10B501220121E9
S31500003E500420FFF745FE5C485C4C016841F0010117
S31500003E6001600022C16841F08071C1600023584999
S31500003E705848086058480260584A13600223236075
S31500003E801523574C236000230364564B0B65564994
S31500003E9011604FF48071554A1160016841F48071D8
S31500003EA0016010BD4848006800B10120C0B27047EB
S31500003EB0D12202704170090A81704D490A78C27098
S31500003EC0501C0870042070472DE9F84F80464D1DA0
S31500003ED0FEF70AFD002782464FF6FF7B454C15E0AC
S31500003EE008EB0700594610F8026C30460AF0C8F98C
S31500003EF083464F4639480068C00707D536480068EC
S31500003F00C00503D520680028FCD02670FFF7CAFF3D
S31500003F1040B3F8B2E9B2884224D2FEF7E5FCA0EB42
S31500003F200A0080B2B0F5FA7F22DCF8B210B95B263F
S31500003F300127DFE707F10109FFB2012F08BF6E1F56
S31500003F40D7D0EDB2E81E874208BF5E46D1D0A81E84
S31500003F50874208BF4FEA1B26CBD0681E8742BFD1D7
S31500003F605D26C6E7FFB2EDB2AF4208BF002000D023
S31500003F700120BDE8F28F10B50C46024621780020DC
S31500003F800529A4BF1046FFF79FFF0421217010BD2D
S31500003F9000B50C48006891B0402269460AF01DF948
S31500003FA020B1C2B269461220FDF78AFF11B000BDEA
S31500003FB00035080010881442AFFF0320B8E803203C
S31500003FC06C56030020DF0320F0ED00E0F00004E073
S31500003FD0B00F00E055CEACC5000E00E0800E00E04C
S31500003FE0100004E0FF0300400D000100040304E09C
S31500003FF0AEFF0320200000E070B51346104402E037
S31500004000A4192C705B1EDCB24CB101F00F06090935
S31500004010451E0A2E2846B4BF30243724F0E7104444
S3150000402070BDF0B5002341B1002806D501232D212E
S31500004030B0F1004F117018BF4042002100249F4D7F
S3150000404055F82470002601E0C01B761CB842FBD24E
S31500004050F7B20FB90F0005D0DBB206F13001D1542B
S315000040605B1C0121641C092CEADBDBB23030D05426
S31500004070581CC0B2F0BD2DE9F24F804696B013A889
S315000040800190154603A89B4603AE002700248DF831
S3150000409000000BE0012405460198864205D300F096
S315000040A0DCF800284FD100F0CEF86D1C9DF800001A
S315000040B02978301A0A000BD0252903D014B906F83E
S315000040C0011BE9E7002C14BF00246D1C29780A00A7
S315000040D000F0AF80B1F1250216D00B3A092A40F262
S315000040E08980283A7DD00A3A12D0521E41D0521EFB
S315000040F05FD0083A5DD0121F3ED0D21E3CD0921E31
S3150000410057D0D21E6DD0C7E7252006F8010BC3E7AE
S31500004110DBF8000002904FF0000A0BF1040000F1FA
S31500004120040BD0F80090CA45B6D2029810F80A10CF
S3150000413002223046FFF760FF06460198864205D305
S3150000414000F08BF800287AD100F07DF8A9F1010083
S3150000415082453CBF202006F8010B0198864205D314
S3150000416000F07BF800286AD100F06DF80AF1010A28
S31500004170D9E75BF8040BC8E75BF8049B00F067F827
S3150000418000285CD100F05FF84FF0000A01E00AF168
S31500004190010A5FFA8AFA19F80A000028F7D19DF891
S315000041A0580052464946C047002848D15744FFB2F6
S315000041B072E76C290AD16A785BF8040B752A0EBF80
S315000041C000210121642A07D16D1C05E075295BF8E1
S315000041D0040B0CBF002101213246FFF722FF3618DF
S315000041E05AE75BF8041B0222C9B23046FFF704FF08
S315000041F0064651E76A780124782A18BF582AF8D16A
S315000042006D1C0024681E322904D15BF8040B0422BD
S3150000421081B2EAE734297FF43DAF5BF8049B0422C0
S315000042204FEA19413046FFF7E7FE04221FFA89F1EB
S31500004230DCE700F00CF810B9F019C0B200E000207D
S3150000424017B0BDE8F08FF719FFB203AE7047064608
S315000042509DF85800F2B203A940479DF80000361AAF
S315000042609DF85800F2B203A940472DE9F047804671
S3150000427015461E46FDF7B7FE010015D10027DFF8EB
S3150000428040A00BA40FF22C0900E07F1CB7420BDA0A
S31500004290701E8742EA5DB4BF4B46234651464046F0
S315000042A000F01EF80100F0D0BDE8F08702A117E08B
S315000042B000000000200000000D0A00005463030007
S315000042C04C6303000CB438B5044604AAFDF780FE1F
S315000042D005462046FFF7EAFF284632BC5DF80CFB90
S315000042E00CB480B502AAFDF773FE02BC5DF80CFBA8
S315000042F0814233D210441144401E491E10E011F889
S31500004300013900F80139121F11F8013900F8013995
S3150000431011F8013900F8013911F8013900F80139AD
S3150000432092B2042AEBDA93B2002B1EBF11F80139C0
S3150000433000F80139521EF6D1704711F8013B00F81A
S31500004340013B121F11F8013B00F8013B11F8013B3C
S3150000435000F8013B11F8013B00F8013B92B2042A38
S31500004360EBDA93B2002B1EBF11F8013B00F8013BBC
S31500004370521EF6D1704710E011F8013B00F8013BE0
S31500004380121F11F8013B00F8013B11F8013B00F840
S31500004390013B11F8013B00F8013B92B2042AEBDA2B
S315000043A093B2002B1EBF11F8013B00F8013B521ED1
S315000043B0F6D17047130003D00A46194609F074BFB8
S315000043C0704710B500E0521E93B223B100F005F815
S315000043D0F9D0181B10BD002010BD10F8013B11F8D4
S315000043E0014BA342704700004178007801E0017854
S315000043F0407800EB012080B270470170090A4170D5
S3150000440070470A0A02704170704710B50023040015
S3150000441014BF1C46C3F10304E4B25B1C0A55120A1E
S31500004420042BF4DB10BD30B50024050014BF25466F
S31500004430C4F10505EDB2641C4A55120A42EA03624C
S315000044401B0A062CF1DB30BD30B54A788B78CC7868
S31500004450097818B120461D460C4602E01546084666
S315000044601A4645EA002044EA022141EA004030BDEE
S3150000447000B583B020B10622684600F02AF803E0B2
S3150000448006226846FFF734FF9DF800209DF80100DC
S3150000449040EA02219DF8020002069DF8030042EA66
S315000044A000429DF8040042EA00229DF805001043F0
S315000044B003B000BD10B5002300E05B1CDCB28C42EB
S315000044C005D210F8014B9442F7D0002010BD012010
S315000044D010BD10B5002304E0541EE41A0C5DC4544C
S315000044E05B1C9342F8DB10BD10B5002480B14FF67B
S315000044F0FF7202E0944206D0641CA4B2035D002B56
S31500004500F8D1944204D179210FF2F400FCF71CF99A
S31500004510204610BD10F8012B11F8013B0AB19A4252
S31500004520F8D0D01A40B2704730B5994228BF194624
S31500004530002303E00833401C521C9BB203F108041D
S31500004540A14203DB04781578AC42F3D08B420CDA37
S31500004550007812785040C0438024C0B201E064085D
S315000045605B1C8B4201DA0442F9D198B230BDF8B532
S3150000457055052D0E02F0070704460E462A46FFF79C
S31500004580B7FE47B1FF20615D725DF840014022EA47
S31500004590000008436055F1BD00210FF278020028A3
S315000045A005E000F00F03D35C5918C9B20009F8D131
S315000045B0084670476128A8BF572107DA4128A8BFD7
S315000045C0372103DA3A28B4BF30210021401AC0B29D
S315000045D070474108400021F0AA3120F055300843C9
S315000045E08108800021F0CC3120F0333008430109E6
S315000045F0000121F0F03120F00F3008437047000031
S31500004600627974652D7574696C69746965732E6356
S315000046100000000000010102010202030102020380
S315000046200203030410B5DFF8DC4AFDF76BFD606199
S31500004630FDF764FDA0616069E06118B100F007F85C
S31500004640652803DABDE810409D21A3E010BD10B532
S31500004650DFF8B04AA069E169884202D2AF2100F0D2
S31500004660F3FBA069E169401A4FF6FE71084010BDE0
S31500004670DFF8901A4A69904203D3C969884200F06C
S3150000468039BD00207047002818BFFFF7F1BF012091
S31500004690704730B1DFF86C1A4969401A4010401C67
S315000046A080B27047010001D100207047DFF8541A2C
S315000046B0496901EB4000801E70474088C0F30C003A
S315000046C0C01C0004800C4000001D80B2704710B56D
S315000046D00446FFF7F2FF04EB4000DFF8281A4FF616
S315000046E0FF7300E0801CCA69904202D202889A4297
S315000046F0F8D010BDDFF8101A08607047DFF8081A06
S315000047000FF28400086070472DE9F843DFF8F4598A
S3150000471080462889A0B3B8F80200000430D4DFF838
S31500004720E8490FF264012068DFF8E09909F0F0FD2E
S3150000473020B94FF4BA714846FCF706F8002701E0A5
S315000047407F1CBFB22889874204DB4FF4BB71484601
S31500004750FBF7FAFF286A216800EBC706306808B93C
S31500004760316003E009F0D4FD0028E9D1B088401C8F
S31500004770B0804046FFF7A1FFF18801EB4000F080D2
S31500004780BDE8F18300000000756E636C61696D65BC
S31500004790640000000FF68430FBF7D6BF70B5044600
S315000047A0DFF86009807801281AD12088FFF77AFFA0
S315000047B004002FD0022526463046FFF7A5FF708855
S315000047C040F40040708036F81500FFF76BFF0600D6
S315000047D002D070880004EFD56D1C042D1ADAEAE7C2
S315000047E0022817D1FEF77AF805462088FFF75AFF08
S315000047F006000AD07088800403D540F2392100F003
S3150000480023FB3088C0F30E0020802846BDE87040A8
S31500004810FEF7A1B870BD00B5ADF5806DADB04FF433
S315000048209662694600F073F80DF5806D2DB000BDF7
S315000048302DE9F84307468846FFF73FFF450078888D
S31500004840C0F30D007880800422D5FEF747F80446B1
S315000048503846FFF71EFF81464046FFF71AFF064619
S31500004860AAB239464046FFF743FD0020DFF8941808
S3150000487006E001EB400293894B4508BF9681401C38
S315000048800A789042F5DB2046BDE8F243FEF763B8AE
S31500004890AAB239464046BDE8F843FFF729BD10B530
S315000048A00C4601E0FFF713FFA04202D2418809043B
S315000048B0F8D510BD70B5DFF84C580446A878012825
S315000048C004BF686A00281DD1204609F048FD022869
S315000048D018DB0021204609F052FD0DE0012100F011
S315000048E0A0FA78B93046FFF7DDFE0088000409D447
S315000048F03146204609F072FD06463000EED16C6264
S31500004900012070BD2046FFF749FF002070BD2DE94C
S31500004910F74FDFF8F0470020E080606292B0FDF7C5
S31500004920DDFF0121A1704FF0000AA188ADF8021049
S315000049300021A180E1690191FEF70DF82089C200EE
S31500004940206A92B20021FFF735FD0DF10200FFF754
S3150000495025FFFDF7C3FF217862785518FDF7FBFFA9
S31500004960EDB206E004EB46000C30FFF717FF06F148
S31500004970010A5FFA8AF6AE42F4DB129848B10025C6
S3150000498001E080476D1C1298EDB250F82500010039
S31500004990F7D1D4F814904FF0000B01250DF1080A59
S315000049A00198814502D3BBF1000F37D0BBF1000F50
S315000049B006D0ABF101005FFA80FB5AF82B8004E0C9
S315000049C04846FFF784FEC8468146B8F8020000F460
S315000049D04041B1F5004FE3D140F48040A8F8020011
S315000049E0022638F81600FFF75DFE070012D0788819
S315000049F001040FD440F4004078803846FFF784FE67
S31500004A00BBF1100FBDBF4AF82B700BF101005FFA26
S31500004A1080FB0025761C042EE3DBC1E7002DB8D011
S31500004A20656A55B12888FFF73DFE6888000447BFD0
S31500004A30002060622846FFF7B1FE0020ADF80000B6
S31500004A408246606A0025A0B30088002100F0E9F9DB
S31500004A50ADF80000002100F0E4F90646BDF80000BC
S31500004A6000F051F90546304600F04DF98246BDF892
S31500004A70500050451ADB300018D000F044F90746C4
S31500004A80304600F028F9014613983A46FFF730FC05
S31500004A903046FFF707FE18B14188C1F30D0141808A
S31500004AA00022606A314609F0C3FC02E00020ADF83E
S31500004AB000006669B346B0460BE03088000404D5B2
S31500004AC0D6F80E0008B103F06AFD3046FFF7FFFD89
S31500004AD006460198864223D23046FFF7EEFD814610
S31500004AE03046FFF7D6FDBDF80010884206D10AEB26
S31500004AF00500C01C8010400000F104097088000405
S31500004B00DBD55846FFF7C5FD318801F4004108435F
S31500004B1030801FFA89F00BEB400B06EB4008D4E718
S31500004B200220A0700DF10200FFF738FE6846FFF77D
S31500004B3035FE129860B14FF0000902E0804709F196
S31500004B40010912985FFA89F950F829000100F5D198
S31500004B506769B94611E0022639F81600FFF7A2FD8B
S31500004B6020B10088C0F30E0029F81600761C042E2A
S31500004B70F2DB4846FFF7ABFD8146C145EBD30BE0C0
S31500004B800746FFF7A4FD4146FFF789FE4845F7D3E0
S31500004B90019881452BD13746474549D23846FFF71C
S31500004BA096FD002F0646F6D078880004F3D500F06F
S31500004BB088F8B84204D17888C0F30D007880EAE717
S31500004BC004D201463846FFF733FEE4E7019707E0D3
S31500004BD03046FFF77CFD4146FFF761FE3746064645
S31500004BE0464504D2308800F06DF88642F0D337B1DE
S31500004BF000F067F801001CBF3846FFF719FE019860
S31500004C00B946C3E73846FFF758FD06465846FFF74C
S31500004C1040FD8146720092B239465846FFF768FB5E
S31500004C20002249460DF1020009F0B1FB0BEB460BE1
S31500004C30FDF754FE064617E021784018401EC0B224
S31500004C4004EB4000002187898181380009D0FFF7F5
S31500004C5029FD00F037FA002239460DF1020009F06D
S31500004C6096FB6078401E607060780100E4D10021F8
S31500004C70201D09F0BDFBFFF715FD070006D1BDF8A5
S31500004C800200A080C4F81CB00020A0703046FDF7DA
S31500004C9062FE002FB6D1BDF8000078B10446FFF7DA
S31500004CA001FD07001CBF0AEB05007880204600F0D6
S31500004CB012F8139952462844FFF71AFB15B0BDE8BF
S31500004CC0F08F3888C0F30E00ECE480B5FFF7EAFCFD
S31500004CD0BDE80240D7E410B5040012D0FFF7F5FF97
S31500004CE018B940F2394100F0AFF82046FFF7DAFC78
S31500004CF038B10188090402D5D0F80A0010BD083081
S31500004D0010BD002010BD10B5010013D0FFF7CAFC7E
S31500004D100446FFF7B8FC18B940F2534100F094F886
S31500004D2044B12088000401D5208910BD6088C0F3F5
S31500004D300C0010BD002010BD2DE9F04104460D46C3
S31500004D40FFF7B0FC060040D0FFF79DFC0FF2CC57F2
S31500004D5018B940F2664100F0A0F82046FFF7D3FFED
S31500004D6080463046FFF7B3FC454504462DD003DBAD
S31500004D7040F26E4100F091F83088000448BF35815A
S31500004D8023D475803046FFF798FC06EB4005FDF707
S31500004D90A5FDDFF87013CA69661B944204BFCD6196
S31500004DA00026FDF7D8FDB6B2082E06DA32462846AA
S31500004DB0BDE8F041FF21FFF7FDBA08220021284691
S31500004DC0FFF7F8FAA6F108006880BDE8F081F8B5AB
S31500004DD007460C46FFF766FC06463846FFF793FF84
S31500004DE0051B8442ADB21BD003DB4FF4936100F088
S31500004DF02BF8AEB13088000406D5D6F80A00348107
S31500004E002844C6F80A00F1BD3846FFF764FF22467B
S31500004E104119FFF76DFA21463846BDE8F4408BE7A5
S31500004E20F1BD38B50C46FFF73DFC05000AD0FFF78B
S31500004E302AFC18B940F2AB4100F006F805EB440035
S31500004E40808832BD002032BD0FF2D040FBF77CBC1B
S31500004E50F8B50C461546FFF725FC06000FF2BC47D1
S31500004E6014D0FFF710FC18B940F2B64100F015F85F
S31500004E702846FFF717FCFFF706FC18B940F2B741C2
S31500004E8000F00BF806EB44008580F1BD3846BDE81E
S31500004E90F44040F2BA41FBF757BC3846FBF754BC26
S31500004EA070B504460D46002608E0FFF72CFF29469C
S31500004EB086192046FFF7B5FFB6B204462000F4D1A6
S31500004EC0304670BD38B5C01C8E4C80104500A06AB7
S31500004ED0ADB218B140F2CF41FFF7B6FFA069E16964
S31500004EE0411AC903B5EB114F05DA69004942084476
S31500004EF0A062012032BD002032BD824900208862B6
S31500004F0070472DE9F84F0446E01C80107D4D4000A7
S31500004F100027001DAE690FF2044AB4F5005F88460B
S31500004F201FFA80F904DB40F2E6415046FBF70CFC21
S31500004F30FDF7D4FC8346E869A96A09B9301A03E08B
S31500004F405FEA080202D0081A461008E0701A4610F6
S31500004F50B0B220B940F20C515046FBF7F5FBB6B2A1
S31500004F604E4515DBEF6907EB4900E861A86A28B1F1
S31500004F70B8F1000F04BF00EB4900A86200207C8056
S31500004F80B880F880388004F10801688908186881BB
S31500004F905846FDF7E0FC1FB901211F2002F0EFFA89
S31500004FA03846BDE8F24FFFF774BBF8B504460D4628
S31500004FB0164600210A20FFF7A4FF0746FFF772FBFB
S31500004FC048B10681C0F80A40018841F400410180D9
S31500004FD0C0F80E503846F2BD70B504460D4611466F
S31500004FE02846FFF78EFF06463CB1300005D0FFF796
S31500004FF072FE2A462146FFF77BF9304670BDF8B5AA
S3150000500004460D46164615E02846FFF77CFEB7B265
S31500005010874288BF07462846FFF75DFE01463A46A7
S315000050202046FFF765F901212846FFF7FAFE3C44C2
S315000050300546F61BB0B20028E6D1F1BD2DE9F843CE
S3150000504081460E461446FDF749FC2E4D80462878CB
S3150000505001002BD0401E2870C0B205EB4000A97895
S315000050608789F9B981813846FFF71CFB00F02AF8D9
S315000050703846FFF730FE32464946FFF739F93846DB
S31500005080FFF729FE224600213044FFF793F900225C
S315000050903946281D09F07BF94046FDF75CFC0120E6
S315000050A0BDE8F2836878401C6870E1E7A019012129
S315000050B080B2FFF726FF0700DAD14046FDF74BFC2A
S315000050C00020EDE720B141884DF6FF721140418086
S315000050D0704738B5FDF702FC044600210C4809F07C
S315000050E087F905462046FDF736FC284632BD0548B9
S315000050F08188481E8041C00F704702490020888081
S315000051007047000088FA032038E203201C53000091
S315000051108CFA03202DE9F0410446884617461E46C0
S315000051204046FFF7D8FDC5194046FFF7ECFDB91913
S31500005130884203DA40F2B151FFF786FE300013D001
S315000051400698010003D132462946204604E001288C
S3150000515032462146284603D1BDE8F041FFF7C8B8DC
S31500005160BDE8F041FFF707B9BDE8F08110B50C4680
S31500005170FFF7B1FD00B1005D10BD38B50C46154610
S31500005180FFF7A9FD00B1055531BD38B50446FFF757
S31500005190BAFD05462046FFF79EFD2946BDE8384084
S315000051A0002219E770B50D46691C0446C9B2FFF71F
S315000051B0DDFF060229462046FFF7D8FF301880B2E9
S315000051C070BD00B583B002238DF80420120A8DF855
S315000051D00520012200920A46014601A8FFF79AFF20
S315000051E007BD10B50446FFF743FA10B1A4F1080055
S315000051F00CE010BD10B5FFF755FA040004D0FFF718
S315000052005CFA04EB400001E0002010BDBDE8104050
S31500005210FFF73FBAF8B504460D46FFF743FA060016
S3150000522016D07088C0F30C072846FFF73BFA07F044
S315000052300101CF19FFF741FA07EB40072046FFF7B8
S31500005240D9FFA84203D040F26E61FFF7FDFD7780DB
S31500005250F1BD2DE9F0410C46FFF724FA05002DD0EB
S315000052606888C0F30C0606F001008019001B04F0E4
S315000052700101471AE01C20F00300284400F1080849
S315000052802846FFF700FABFB208B1A64203D240F2A1
S315000052908A61FFF7D9FDB44210D0092F0EDB6C806E
S315000052A0082200214046FFF785F8A7F10800A8F874
S315000052B002004046BDE8F041FFF7EBB90020BDE82B
S315000052C0F08170B5044682B02068FFF78AFFADF81A
S315000052D0000000B3FFF7E6F905001CD000880FF2C6
S315000052E03C06000404D540F2A5613046FBF72CFAD3
S315000052F06846FFF753FABDF80000FFF7D3F90546F5
S31500005300FFF7C1F920B940F2AB613046FBF71CFA52
S3150000531005F10800206073BD000000006275666636
S3150000532065722D6D616E6167656D656E742E6300C5
S31500005330012100F01F029140DFF85C2605E0012103
S3150000534000F01F029140DFF85426400942F8201071
S315000053507047012100F01F029140DFF84426F4E770
S3150000536010B5DFF8404630B1012807D0102802D02A
S31500005370202803D004E00020204410BD1C20FBE7B9
S315000053804FF4BD71DFF82006FBF7DEF9204610BDAD
S3150000539070B5012884B0044604D9B0F1100101D0DB
S315000053A010393BD1012818BF202832D1FFF7D8FF8A
S315000053B00546FDF793FA0646A86901AB6A4602A9B7
S315000053C00AF09BFB00992A89286889B200F027F821
S315000053D03046FDF7C0FAA8690AF005FC012818D185
S315000053E0296828898988401A298A884211DBA86990
S315000053F090F83110022903D10AF07DFB022804DA65
S31500005400A86990F83100012803D1A86900210AF0A3
S31500005410C4FB200014BF102CFEF7BAFD7FBD70B58B
S3150000542000F0B5FAFDF75AFAE188A9420CD22288B3
S31500005430521A521992FBF6F306FB13222280A28817
S31500005440AA18511AA180E58000F012BB70B5054676
S315000054500E46FFF785FF012D18BF202D044640D1CB
S31500005460A069016890F83200E8B90420886400F069
S315000054704CF9A0690068C16C002E07D041F0040108
S31500005480C1640C20FFF754FF052106E021F004015A
S31500005490C1640C20FFF753FF0021A0690068BDE836
S315000054A070400AF026BD0420486300F02EF9A0697A
S315000054B00068816B002E07D041F0040181630C2047
S315000054C0FFF736FF052106E021F0040181630C2079
S315000054D0FFF735FF0021A0690068BDE870400AF0BB
S315000054E0C2BD70BDF8B50446DFF8C00481421D4652
S315000054F034D0002600F0ABF82DD13A893868A9B22D
S31500005500FFF78DFF39680020C88002E0384600F0BA
S3150000551026F820460AF0EFFA03281CDA788AF98979
S31500005520484339688A88002A80B2EFD00B88B7F8DA
S315000055300EC0498884446145B8BF984207DB8B4258
S31500005540E4D2FA8982189142A8BF9842DEDA012194
S3150000555020460AF022FB761C022ECBDBF1BD38B5C5
S315000055600446DFF84C34E089658A216802466843C0
S31500005570084400F10801A0690AF0D1FBA0690AF00D
S31500005580BAFA022803DBA06900210AF006FB608A4A
S31500005590A18A401C90FBF1F201FB1200608231BD32
S315000055A0FEB50446207B68BB60680FF25D07418844
S315000055B0084400F10805A0696B4601AA02A90AF091
S315000055C0BCFA60688188009A891A019A8E1A418805
S315000055D0008888420ED26089421AA0693B46294655
S315000055E00AF0E5FB70B9606861894288711A56183D
S315000055F000F10805A0693B46F2B229460AF0D7FB3E
S3150000560000B96073F7BD00002DE9F04104469846E5
S31500005610002600F01CF815D178688188414534BF12
S3150000562085884546FDF75AF979687A894988ADB281
S31500005630691800F057F87A68518079688A88521B91
S3150000564000F090F8761C022EE3DBBDE8F0811C2109
S31500005650DFF8500311FB06F14718B869A0427047FE
